:020000040800F2
:10000000D00A002049010008CB0D0008AB0B000806
:10001000C90D0008250A00080917000800000000A3
:10002000000000000000000000000000F5120008C1
:10003000270A00080000000051100008951400086D
:100040006301000863010008630100086301000800
:1000500063010008630100086301000863010008F0
:1000600063010008630100086301000863010008E0
:1000700063010008630100086301000863010008D0
:1000800063010008630100086301000863010008C0
:1000900063010008630100086301000863010008B0
:1000A00063010008630100086301000863010008A0
:1000B0006301000863010008630100086301000890
:1000C0006301000863010008630100086301000880
:1000D00063010008F51400086301000863010008CB
:1000E0006301000863010008630100086301000860
:1000F0006301000863010008630100086301000850
:10010000630100086301000863010008630100083F
:10011000630100086301000863010008630100082F
:10012000630100086301000863010008630100081F
:10013000DFF810D000F028FC00480047D12A000862
:10014000AFF30080D00A00200648804706480047E9
:10015000FEE7FEE7FEE7FEE7FEE7FEE7FEE7FEE777
:10016000FEE7FEE7A51400083101000830B504469B
:100170000020034600E05B1C934203D2E05CCD5CB0
:10018000401BF8D030BD80EA010210B502F00043F8
:10019000400022D04A001FD0010E01EB1261C0F3D3
:1001A0005600C2F3560240F4000042F40002A0FBE5
:1001B000022000047F39140400D0401C50EA124091
:1001C00001D44000491EC2B20C0604EBD010401C02
:1001D0004008802A02D003E0002010BD20F001007A
:1001E000002900DA0020184310BD30B480EA010273
:1001F00002F0004530F0004221F0004013D090B1F1
:10020000C30DD40DC2F31601C0F31600E41A41F475
:10021000000140F400027D34914201D3641C00E0EF
:100220004900002C02DA30BC002070474FF4000077
:100230000023914201D3891A034340084FEA410148
:10024000F7D151B1914202D14FF0004105E002D205
:100250004FF0010101E06FF0010103EBC4502844AD
:1002600030BC00F0E5BA2DE9FE4F804681EA03007C
:10027000C00F0C46009021F0004123F00045B8EB80
:100280000200A94105D24046214690461C460B4635
:10029000024623F00040104347D0270DC7F30A0061
:1002A000C3F30A510290401A019040286BDAC3F35D
:1002B000130040F4801B0098924620B10023D2EB3B
:1002C000030A63EB0B0B01985946C0F140025046FC
:1002D00000F07DFA06460D4650465946019A00F058
:1002E00095FA10EB08006141002487EA115284EA74
:1002F000E7731A4340D0009A62B3019A012A4FEA89
:10030000075215DC001B61EB02014FF0004202EACC
:100310000752CDE90042001C41F5801132462B46C0
:1003200000F0CCFA03B0BDE8F08F40462146F9E773
:10033000001B61EB0201001C41F5801300185B41BA
:100340002018A2F5001747EB030140EAD570B61953
:100350006D4111E06D084FEA360645EAC0754FEA77
:100360000752001B61EB0201001C41F58011490896
:100370004FEA30000019514132462B4603B0BDE828
:10038000F04F00F08CBA0098012240000023D0EB1F
:10039000020263EBE073009821464FEAE074B8EB89
:1003A000000061EB0401E9E783F000435BE781F0C3
:1003B000004158E72DE9FE4F81EA030404F00044B0
:1003C00021F0004100944FF0000B23F0004350EA6D
:1003D00001045ED052EA03045BD0C3F30A54C1F3B4
:1003E0000A552C44A4F2F3340194A0FB0254C1F347
:1003F000130141F48011C3F3130343F4801301FB91
:10040000024400FB034E840A970A44EA815447EAF7
:100410008357A4FB076802958D0A05FB07854FEA01
:10042000932C04FB0C542705029D4FEA065847EA1B
:100430001637B5EB08056EEB070C870E920E47EAF0
:10044000811742EA8312A7FB0201B6EB0B0164EBB2
:1004500000042B0D43EA0C335E1844EB1C50DA46C3
:100460005146E7FB0201C5F313044FEA0B3343EA9D
:1004700014534FEA0432019C43EA0603A4F10C042E
:100480000294009CCDE900B400F018FA03B0BDE876
:10049000F08F00200146F9E72DE9F04D81EA0304D1
:1004A00004F0004B21F0004514464FF0000A23F001
:1004B000004150EA050220D054EA01021DD0C5F3E4
:1004C0000A570246C5F31303C1F31300C1F30A56DA
:1004D00040F4801543F48013A7EB0608101BD646A2
:1004E00008F2FD3873EB050002D308F1010801E0C2
:1004F00092185B41B8F1000F03DA00200146BDE815
:10050000F08D00204FF48011064684460EE0171B44
:1005100073EB050705D3121B63EB050306434CEA97
:10052000010C49084FEA300092185B4150EA01077C
:10053000EDD152EA030012D082EA040083EA0501F9
:10054000084305D0101BAB4106D20122002306E070
:1005500000224FF0004302E06FF0010253101AEB4B
:1005600006004CEB085110EB0A0041EB0B01BDE813
:10057000F04D00F094B970B521F0004303430CD066
:10058000C1F30A550024D5EB040564EB0403D61728
:10059000AD1AB34102DB0020014670BD201841EBCB
:1005A000025170BDC10F80EAE0700844CA0796236B
:1005B000002100F046B90EB540F23341029100210E
:1005C000CDE900110A460B4600F078F903B000BDF2
:1005D0003EB5CA17CB0F002450405140C0186141AE
:1005E000DA0740F233430094CDE901232246234643
:1005F00000F064F903B030BD00F0004220F000408C
:10060000C10DC0F3160040F400007F2901DA00207C
:100610007047962903DCC1F19601C84001E0963984
:100620008840002AF4D04042704770B5C1F30A52A6
:1006300001F000450024C1F3130140F2FF3341F4FF
:1006400080119A4201DA002070BD40F233439A4291
:10065000A2F2334203DC524200F0C8F800E09040BE
:100660002C43F1D0404270BD70B5C1F30A5201F085
:1006700000450024C1F3130140F2FF3341F480111F
:100680009A4202DA0020014670BD40F233439A429A
:10069000A2F2334203DC524200F0A8F801E000F07D
:1006A00096F82C43F0D00023D0EB030063EB01015C
:1006B00070BD00F0004230F000400AD0C10D01F5DD
:1006C0006071C0F3160042EA0151C20840071143AD
:1006D000704700200146704730B5041E71F10004D8
:1006E00004DB4FF00044404264EB0101141E73F13F
:1006F000000405DB1C464FF00043524263EB040349
:10070000994208BF904230BD01F0004330B421F05F
:10071000004150EA010206D00A0DA2F56072C1F351
:100720001301002A02DC30BC00207047440F44EA69
:10073000C104C100E01830BC00EBC25000F078B832
:1007400030B50B46014600202022012409E021FAA1
:1007500002F59D4205D303FA02F5491B04FA02F59E
:100760002844151EA2F10102F1DC30BD2DE9F05F35
:100770000546002092469B46884606468146402410
:100780001BE0284641464746224600F02FF85346D4
:100790005A46C01A914110D311461846224600F01D
:1007A00016F82D1A67EB01084F462246012000215A
:1007B00000F00DF817EB00094E41201EA4F10104D2
:1007C000DFDC484631462A464346BDE8F09F202AF2
:1007D00004DB203A00FA02F1002070479140C2F198
:1007E000200320FA03F3194390407047202A04DBCA
:1007F000203A21FA02F00021704721FA02F3D0409A
:10080000C2F120029140084319467047202A06DBB6
:10081000CB17203A41FA02F043EAE07306E041FACE
:1008200002F3D040C2F120029140084319467047BC
:100830000029A8BF7047401C490008BF20F00100F4
:10084000704710B4B0FA80FC00FA0CF050EA0104D2
:1008500004BF10BC704749B1CCF1200421FA04F464
:1008600011FA0CF118BF012121430843A3EB0C013D
:10087000CB1D4FEA00614FEA102042BF002010BCA0
:10088000704700EBC35010440029A4BF10BC704750
:10089000401C490008BF20F0010010BC704710B593
:1008A000141E73F1000408DA401C41F10001921893
:1008B0005B411A4301D120F0010010BD2DE9F04D3C
:1008C00092469B4611B1B1FA81F202E0B0FA80F291
:1008D00020329046FFF77BFF04460F4640EA0A00AD
:1008E00041EA0B0153465A46084313D0114653EAD6
:1008F000010019D0C8F140025046FFF777FF0546C6
:100900000E46504659464246FFF761FF084305D060
:10091000012004E020463946BDE8F08D0020054363
:1009200046EAE0762C4337430A986305E40AA0EBD5
:1009300008000022FD0A44EA47540A3002D500208C
:100940000146E9E7010510196941DDE9084500198B
:100950006941BDE8F04DA2E7C1F30A52C1F31301AA
:1009600040F2FF3341F480119A4202DA002001463E
:10097000704740F233439A42A2F2334202DC5242C1
:10098000FFF734BFFFF723BF064C074D06E0E068D2
:1009900040F0010394E8070098471034AC42F6D3C6
:1009A000FFF7CAFBA83A0008C83A000870B58C18CF
:1009B00010F8015B15F0070301D110F8013B2A1173
:1009C00006D110F8012B03E010F8016B01F8016B60
:1009D0005B1EF9D12B0705D40023521E0DD401F85C
:1009E000013BFAE710F8013BCB1A921C03E013F825
:1009F000015B01F8015B521EF9D5A142D8D300205A
:100A000070BD0000064B0020014603F10C0200BF40
:100A100043F8201042F82010401C0328F8DB7047F0
:100A20007C040020FEE7704738B501217D2000F0EE
:100A30001DFB4FF6FF70ADF800000020124C8DF842
:100A400003006946204600F029F869460F4800F087
:100A500025F869460E4800F021F869460D4800F077
:100A60001DF869460C4800F019F80E20ADF800009A
:100A700010208DF8030003208DF8020069462046FF
:100A800000F00CF8002038BD00080140000C0140C7
:100A9000001001400014014000180140F0B5CA7870
:100AA000002502F00F03D20601D58A7813430A7895
:100AB0004FF00F0E12F0FF0F4FF001021CD0046830
:100AC0000F8802FA05F63740B74211D14FEA850C7C
:100AD0000EFA0CF724EA070703FA0CF43C43CF782C
:100AE000282F02D0482F02D002E0466100E00661C4
:100AF0006D1C082DE4D304600C88FF2C1ED94468BB
:100B00005FF0000606F1080702FA07F50F882F408C
:100B1000AF420FD14FEA860C0EFA0CF7BC4303FA32
:100B20000CF73C43CF78282F00D14561CF78482F70
:100B300000D10561761C082EE4D34460F0BD0000AE
:100B4000F0B5144C002801DAE36900E06368420D57
:100B5000120185B2C0F301579540C0F30346032F3D
:100B600005D0C2020AD50322B240934307E023F026
:100B70007062636823F07063636002E0AB4343F02C
:100B8000706201B12A43002801DAE261F0BD6260BF
:100B9000F0BD0000000001404161704701617047F5
:100BA0000AB10161704741617047FEE7F8B5402026
:100BB000ADF8000003240B4E8DF8024010258DF88F
:100BC000035069463046FFF769FF8020ADF800000A
:100BD0008DF802408DF8035069463046FFF75EFFFE
:100BE000F8BD0000000C0140094A00B54021116029
:100BF00000F0CCF8064B80201B1F186000F0C6F8F0
:100C0000196000F0C3F811605DF804EB00F0BEB8A5
:100C1000140C014070B50E4C082200218020206089
:100C20000B4E4025231D083E0CE04806010E1D60BA
:100C300000F0ACF8256000F0A9F83068000601D596
:100C400041F00101521ED2B2EFD21D60084670BDC4
:100C5000100C014070B50D4A08218025402603463E
:100C6000141F0DE000F092F8180601D5256000E091
:100C700015605806030E00F089F8266000F086F82B
:100C8000491EC9B21660EDD270BD0000140C0140BF
:100C90000C4800B5802101604022026000F076F827
:100CA000084A083A1068074B1B1D196000F06EF8DF
:100CB0001068000601D5002000BD196000F066F83C
:100CC000012000BD100C0140094B00B54021196006
:100CD00000F05CF880221A6000F058F8044B1B1FEB
:100CE000196000F053F81A605DF804EB00F04EB89C
:100CF000140C014010B500240CA000F007FDFFF714
:100D000055FFE1B2204600F075FB641C052CF8DBB2
:100D10000024204600F044FB0246214606A000F0D5
:100D2000F5FC641C052CF4DB10BD000049324320A7
:100D3000746573740D0A0000526561642025642097
:100D40002C646174612025640D0A00000E4900B511
:100D500040220A6000F01AF80B4B80201B1F18601D
:100D600000F014F81A6000F011F807480C38006819
:100D70000A60000603D500F009F8002000BD00F06D
:100D800005F8012000BD0000140C01401E20401E8B
:100D900010F0FF00FBD1704710B5032001F082FE78
:100DA000642001F0CFF9032001F066FE642001F019
:100DB000C9F9032001F076FE642001F0C3F9BDE813
:100DC0001040032001F058BEFEE7704770B50F23B6
:100DD000C47801780122F4B1144C2468457804F4F5
:100DE000E064C4F5E064240AC4F10406E3408478B6
:100DF000B5401C402C4301F1E021230181F800346F
:100E0000007800F01F018A404009800000F1E020D6
:100E1000C0F8002170BD01F01F0082404809800029
:100E200000F1E020C0F8802170BD00000CED00E072
:100E30000907090E002806DA00F00F0000F1E02093
:100E400080F8141D704700F1E02080F8001470470E
:100E500070B5002404F1B000C0B2002100F0BAF86F
:100E60000021084600F0B6F80021102000F0B2F88A
:100E700000250121002000F0ADF86D1CEDB2872D9A
:100E8000F7D3641CE4B2082CE4D370BD38B501215B
:100E9000082000F0EBF84FF47440ADF8000010208B
:100EA0008DF803000320184C8DF802006946204697
:100EB000FFF7F4FD4FF43C412046FFF76FFE4FF47F
:100EC000804529462046FFF769FE642001F03AF983
:100ED00029462046FFF760FEC82001F033F9294675
:100EE0002046FFF75BFE094D00240021285D00F03D
:100EF00071F8641CE4B21B2CF7D3FFF7A9FF0021A3
:100F0000AF2000F067F838BD000C01405C03002002
:100F100010B50446B031C8B2002100F05BF81020D3
:100F200040EA1410002100F055F804F00F00BDE86D
:100F3000104040F00100002100F04CB82DE9F041D4
:100F4000203A00240D46D7B27F2802D900208D1CFC
:100F5000EDB2801CC0B280462946FFF7D9FF0F4E84
:100F600004EB07100121305C00F034F8641CE4B29B
:100F7000082CF5D36D1CE9B24046FFF7C9FF0024E9
:100F800004EB071030440121007A00F023F8641CC0
:100F9000E4B2082CF4D3BDE8F08100000032000870
:100FA0002DE9F04117460E46044600250CE0314677
:100FB0002046FFF7C3FF0834E4B2782C02D900249E
:100FC000B61CF6B26D1CEDB27A5D002AEFD1BDE819
:100FD000F08100002DE9F0471C4D06464FF4806A71
:100FE00000295146284602D0FFF7D8FD01E0FFF75F
:100FF000D3FD4FF4805841462846FFF7CDFD00242D
:101000004FF400494FF4005739462846FFF7C4FD16
:1010100030064946284602D5FFF7C0FD01E0FFF73C
:10102000BBFD39462846FFF7B9FD7006641C060E65
:10103000E4B2082CE8D341462846FFF7AFFD5146FD
:101040002846BDE8F047FFF7A9BD0000000C0140AD
:1010500070470000044A0029116901D0014300E0F3
:10106000814311617047000000100240044A0029CA
:10107000916901D0014300E0814391617047000014
:1010800000100240044A0029D16801D0014300E069
:101090008143D160704700000010024030B5224A01
:1010A0005168224B11F00C0103D0042903D0082908
:1010B00003D0036016E01E4913E05168536801F441
:1010C00070114FF0020413F4803F04EB914104D0FF
:1010D00053689B0303D5154B02E0164B00E0144BFD
:1010E0005943016051680F2303EA1111124B5C5CF4
:1010F0000168E14041605468072505EA14241C5D3D
:1011000021FA04F48460546805EAD4241B5DD940B4
:10111000C1605268032303EA9232074B1B1F9A5C9B
:10112000B1FBF2F1016130BD0010024000127A0003
:101130000024F40000093D0029010020034A118821
:1011400021F0380101431180704700000030014058
:101150000029018802D041F0400101E021F0400166
:1011600001807047F0B5294E87B0304600F052F844
:101170000021ADF800104FF48270ADF80200ADF818
:1011800008107015ADF80A001024ADF80410ADF881
:101190000C400720ADF80610ADF80E10ADF81000A9
:1011A0006946304600F067F8A020ADF8140018201A
:1011B0008DF81700164F03258DF8165005A93846EF
:1011C000FFF76CFC4020ADF8140048208DF81700A4
:1011D00005A93846FFF762FCADF814408DF81740BA
:1011E0008DF8165005A93846FFF758FC0021304607
:1011F00000F05DF801213046FFF7AAFF10213846C4
:10120000FFF7CCFC07B00020F0BD0000003001402B
:1012100000080140114910B588420AD18414012107
:101220002046FFF72FFF2046BDE810400021FFF7C2
:1012300029BF0B49884202D10121041404E0094965
:1012400088420AD10121C4132046FFF703FF20463C
:10125000BDE810400021FFF7FDBE10BD0030014089
:1012600000380040003C00400246002012890A423B
:1012700000D00120704730B502884C8802F44153F9
:101280000A88CD8822438C882C4322430C89224330
:101290004C8922438C892243CC8922431A43028001
:1012A000828B22F400628283098A018230BD002988
:1012B000818802D041F0040101E021F00401818025
:1012C000704700000349044A31F8101052F820001A
:1012D0004161704760310008680100200349044AF9
:1012E00031F8101052F82000016170476031000899
:1012F00068010020704700000CB5002126480191CC
:101300000091026842F4803202604FF4A0630268E8
:1013100002F400320092019A521C0192009A12B912
:10132000019A9A42F3D10268920333D501210091C8
:101330001A490A6842F010020A600A6822F00302A1
:101340000A600A6842F002020A604168416041682E
:101350004160416841F480614160416821F47C1141
:101360004160416841F4F8114160016841F08071C9
:10137000016001688901FCD5416821F003014160E9
:10138000416841F0020141604168C1F381010229D5
:10139000FAD10CBD00910CBD0010024000200240AB
:1013A00030B50546FFF774FC00281CD0104C20789F
:1013B000FFF750FCFFF7CAFCB0B1E8B2FFF74AFCF8
:1013C000FFF7C4FCFFF764FC2078401CC0B2FFF7B5
:1013D00041FCFFF7BBFCFFF71DFC0446FFF704FCD4
:1013E000FFF772FC204630BDFFF76EFC002030BDD9
:1013F0007703002030B50D460446FFF749FC00286E
:1014000022D012480078FFF725FCFFF79FFCB8B107
:10141000E0B2FFF71FFCFFF799FC2846FFF71AFC24
:10142000FFF794FCFFF750FC00F09BFE00F099FEE4
:1014300000F097FE00F095FEBDE8304000F091BE50
:10144000BDE83040FFF740BC30BD0000770300200E
:1014500070B50F484FF47A710068B0FBF1F0B0F14D
:10146000807F14D220F07F404FF0E024401E606166
:1014700065170F212846FFF7DBFC0020A06107203D
:10148000206105212846FFF7D3FC002070BDFEE750
:101490003C01002002480168491C016070470000BF
:1014A000000000200F4810B5016841F00101016003
:1014B00041680D4A1140416001680C4A11400160C9
:1014C000016821F480210160416821F4FE0141603E
:1014D0004FF41F018160FFF70FFF05494FF00060D7
:1014E000086010BD001002400000FFF8FFFFF6FE8C
:1014F00008ED00E02DE9F041284D40F22554214649
:10150000284600F06BF801281AD1284600F0F4F8BC
:10151000C1B2234A0020F529517003D19378032BDF
:1015200000D0907093782BB10226012B07D0022BAC
:1015300006D10BE05F2900D10120907000E0967089
:1015400021462846BDE8F04100F031B8154BFA2994
:101550001ED00CDC4FF07C571A290FD04FF03F4CB7
:101560001B290DD01C290ED01D2914D10DE0FB29FB
:101570000ED0FC290ED0FD290DD10BE05F600AE0F2
:10158000C3F804C007E0DF6005E0C3F80CC002E068
:10159000586000E0D8601E70CFE7000000380140BE
:1015A000080000201C040020C943018070470A0A7B
:1015B00001219140C943018070470029818902D0EF
:1015C00041F4005101E021F400518181704702464D
:1015D000002012880A4200D00120704730B501F087
:1015E0001F0201240025C1F3421304FA02F2012B69
:1015F0000FD0022B0FD0838A4FEA112100881342AB
:1016000004FA01F400EA040001D000B101252846E3
:1016100030BD8389F0E7038AEEE710B5C1F34213CA
:1016200001F01F040121A140012B07D0022B07D09C
:101630001430002A026805D00A4304E00C30F8E7B1
:101640001030F6E78A43026010BD000030B5044652
:10165000008A85B00D464CF6FF710840E9880143C9
:101660002182A1894EF6F3100140A8882A891043EF
:101670006A890A431043A081A08A4FF6FF410840BF
:10168000A9890143A1826846FFF708FD19488442F1
:1016900001D1039800E00298A189090400EBC00180
:1016A00001EB0010296801D5490000E08900B0FB7A
:1016B000F1F06422B0FBF2F109010B096FF018059B
:1016C0006B4300EB8300A3891D044FF0320306D562
:1016D00003EBC000B0FBF2F000F0070005E003EB05
:1016E0000010B0FBF2F000F00F000843208105B0BD
:1016F00030BD0000003801408088C0F3080070470A
:10170000C1F3080181807047FEE700000FB4054B6C
:1017100010B503A9044A029800F090F910BC5DF8D6
:1017200014FB0000012A00087803002002E008C82A
:10173000121F08C1002AFAD170477047002001E04B
:1017400001C1121F002AFBD1704738B504466D2035
:101750008DF800006B46012240F606012E2001F0B4
:10176000E1F841F6060114B140F2076201E041F2EE
:1017700007622E2001F0BAF838BD38B504466B4632
:1017800002220021362000F04DFF0E2C2CD2DFE883
:1017900004F00F07152B2B2B2B1D392B2B44494EF7
:1017A00000208DF800009DF8010000F0FE0019E017
:1017B0009DF8000000F0FC00401C04E09DF80000D3
:1017C00000F0FC00801C8DF800000DE09DF800008A
:1017D00000F0B30040F048008DF800009DF80100D3
:1017E00040F080008DF801006B4601220021362078
:1017F00001F098F80122114636200DF1010301F0A5
:1018000091F838BD9DF8000000F0B3008DF800009D
:101810009DF8010000F07F00E4E79DF8010040F032
:101820000200DFE79DF8010000F0FD00DAE79DF817
:10183000000000F0CF0040F02000C4E708B503200E
:101840008DF8010001208DF800006B460222002176
:10185000362001F067F84FF4004206212D2001F0F8
:1018600045F8012000F06EFC0120FFF786FF08BD5F
:1018700008B5010A8DF801108DF800006B460222B0
:1018800004212D2001F04EF803208DF800006B4656
:10189000012206212D2001F045F800208DF80000DE
:1018A0006B46012206212D2001F03CF80A212D2053
:1018B00000F0A1FE08BD00002DE9FF5F82B000210D
:1018C000DDE90430020DDDF840B0034318D044F6E2
:1018D0001050A2F2FF3242431514119801281FD074
:1018E000A5EB0B00401C5FEA000A4FF000064E4FCC
:1018F000DFF83891B046504615D5CAF1000413E020
:10190000119801244AA3012801D16FEA0B01029822
:10191000119AC0E90031C0E9024206B0BDE8F09F6B
:10192000CBF10000DFE704460021404A491842EBB2
:101930000450CDE9001012E0E00707D032463B46E4
:1019400040464946FEF736FD8046894632463B46CC
:1019500010461946FEF72EFD06460F466410002C71
:10196000EAD1DDE90401DDE90023BAF1000F06DA6E
:10197000FEF720FD42464B46FEF71CFD05E0FEF754
:101980008BFD42464B46FEF787FD04460E4600227D
:10199000284BFEF7A1FE03D84FF0FF30014607E0C9
:1019A0000022254B20463146FEF75DFCFEF7D4FFB2
:1019B000102409E0002C0ADB0A220023FEF7D6FEE1
:1019C000039B30321A55641E50EA0102F2D1641CA6
:1019D000039AC4F111031444119A012A03D001227D
:1019E00008430DD10AE0084304D000204FF0110B4A
:1019F000119072E7A3EB0B056D1E0DE05B4504DD56
:101A00004FF0000205F1010504E003DA4FF0000297
:101A1000A5F10105002AECD002981199C0E9023124
:101A2000C0E9004579E70000000014400000F03FE5
:101A3000300000000000F0430000E03F2DE9FF4FC0
:101A400095B09A46884606460025EEE1252877D1CE
:101A500000242746F94A0121039400E0044316F8C4
:101A6000013F203B01FA03F01042F7D130782A28D9
:101A700011D06FF02F033078A0F13002092A16D868
:101A8000039A44F0020402EB820203EB4202104488
:101A9000761C0390EFE758F8042B0392002A03DA30
:101AA000504244F40054039044F00204761C307811
:101AB0002E2816D116F8010F44F004042A280DD060
:101AC0006FF02F023078A0F13003092B09D807EB13
:101AD000870302EB4303C718761CF3E758F8047B2F
:101AE000761C30786C280FD006DC4C2817D068287C
:101AF0000DD06A2814D104E0742810D07A280FD1B0
:101B00000DE044F400140AE044F4801401E044F4CD
:101B100040147278824202D104F58014761C761C3F
:101B2000307866280BD013DC582877D009DC0028E1
:101B300075D04528F6D04628F4D047281AD193E12D
:101B400018E0632835D0642879D0652812D18BE15C
:101B5000702873D008DC6728F1D069286FD06E2810
:101B60000DD06F2806D1ACE073282CD0752874D026
:101B7000782853D05246179990476D1C54E1C4F30E
:101B80000250022809D003280DD0D8F800100428EC
:101B90000DD00D6008F1040846E1D8F80010EA17EE
:101BA000C1E90052F6E7D8F800100D80F2E70D7099
:101BB000F0E718F8041B8DF8001000208DF80100E4
:101BC000EB46012003E058F804BB4FF0FF306107FB
:101BD0004FF0000102D40DE009F101018946B9423C
:101BE0000FDA8145F8DB1BF809100029F4D108E071
:101BF00009F1010189468142FADB1BF8091000292D
:101C0000F6D103985346A0EB090721463846179AA8
:101C100000F080FA284400EB090507E044E008E101
:101C20000DE01BF8010B524617999047B9F10109D5
:101C3000F7D2534621463846179AF2E039E00A2196
:101C4000C4F302524FF0000B0091022A06D058F85C
:101C5000040BC117032A09D00AE023E008F10700AA
:101C600020F00702F2E80201904605E000B2C11739
:101C7000042A01D140B2C117002906DA0A46002120
:101C8000404261EB02012D2202E0220504D52B2205
:101C90008DF80420012203E0E20701D02022F7E7BB
:101CA000914657E00A2100E010214FF0000B00910F
:101CB0000BE010214FF0000B44F0040408270091C2
:101CC00003E008204FF0000B0090C4F30252022AF8
:101CD00005D058F8040B0021032A08D008E008F1C9
:101CE000070020F00702F2E80201904603E080B20C
:101CF000042A00D1C0B24FF0000922072AD5327859
:101D0000702A07D0DDF800C08CF0100C5CEA0B0CD8
:101D100005D00EE040228DF80420012208E050EAB0
:101D2000010306D030238DF804308DF805200222FF
:101D30009146009B83F0080353EA0B030AD150EA53
:101D4000010201D1620705D530228DF804204FF041
:101D500001097F1E3278582A04D039A20C920CAAAD
:101D600002920BE03BA2F9E75B46009AFEF7FEFC0D
:101D70000C9B9B5C029A521E0292137050EA010265
:101D8000F2D1029804A9081A00F1200B600702D5CD
:101D900024F4803400E001275F4502DDA7EB0B004F
:101DA00000E0002000EB0B01009003984944401A2A
:101DB0000390E00306D453462146179A039800F097
:101DC000A9F90544002706E001A85246C05D17990D
:101DD00090476D1C7F1C4F45F6DBE0030CD5534646
:101DE0002146179A039800F095F9054404E0302045
:101DF0005246179990476D1C0099481E0090002983
:101E0000F5DC08E00298029952460078491C0291DC
:101E1000179990476D1CBBF10001ABF1010BF1DC90
:101E20005BE100F065F90544761C307800287FF40A
:101E30000DAE19B02846BDE8F08F0000092801005A
:101E40003031323334353637383961626364656630
:101E500000000000303132333435363738394142F2
:101E60004344454600000000600700D4062708F1FF
:101E7000070020F00700F0E80223804603F0004C42
:101E80005FEA0C0001D097A009E0200501D596A0DB
:101E900005E0E00701D095A001E0AFF24C001390FF
:101EA000307823F0004365280CD006DC452809D0A3
:101EB00046281DD047287FD13BE0662818D06728E8
:101EC0007AD136E00021112F01DB112000E0781CCF
:101ED000CDE9000104A90CA8FFF7EEFCDDE90D0136
:101EE0000C9A4FF0000B07F10109109200914EE09F
:101EF0004FF000400097CDE9011004A90CA8FFF7AE
:101F0000DBFCDDE90D020C9B0F994FF0000B9146B5
:101F10001093009211B9791C00EB0109B7EB09008D
:101F200003D4C0F1FF3B07F10109A9EB07000190C1
:101F300042E0012F00DA01270021112F01DD1120DD
:101F400000E03846CDE9000104A90CA8FFF7B4FC75
:101F5000DDE90D010C9A00914FF0000BB94610928B
:101F600021070FD4009A4A4503DA914601E0A9F10E
:101F70000109B9F1010F05DD109AA9F10101515CC8
:101F80003029F4D0B84202DA10F1040F03DA01214B
:101F9000CDE9011010E0002803DC8344A9EB000127
:101FA00002E0411C494500DD8946A0EB0B00401CC6
:101FB00001904FF000400290200705D40198484559
:101FC00002DB4FF0FF30019000208DF84B000298AB
:101FD0000DF14B07B0F1004F25D002200C902B20C3
:101FE0000D90029800280CDA404202902D200D90AE
:101FF00007E00A210298FEF7A3FB3031029007F8B0
:10200000011D0C99481E0C900029F2DC0298002852
:10201000EFD1791E0D980870307800F0200040F064
:10202000450007F8020D11A8C01BC01D02901398AF
:10203000007800B1012000EB0901019801EBE0718B
:10204000029801440398401A401E0390E00306D40E
:1020500053462146179A039800F05CF805441398FC
:10206000007818B15246179990476D1CE00323D5AC
:1020700053462146179A039800F04CF805441BE09C
:10208000BBF1000F07DB0098584504DD1098179945
:1020900010F80B0001E01799302052469047019844
:1020A0000BF1010B401E05F10105019004D12E201A
:1020B0005246179990476D1CB9F10001A9F1010929
:1020C000DEDC05E017F8010B5246179990476D1CAE
:1020D0000299481E02900029F4DC53462146179AC3
:1020E00003989EE62D0000002B0000002000000059
:1020F0002DE9F041044600251E461746880404D405
:1021000005E039462020B0476D1C641EF9D52846ED
:10211000BDE8F0812DE9F041044600251E469046B9
:10212000C80301D5302700E02027880404D505E046
:1021300041463846B0476D1C641EF9D52846BDE8B7
:10214000F081000010B5044600F00AFF04EB000423
:1021500000F006FF001B0028FADD10BD70470020CC
:10216000704741F28830401EFDD170472DE9F84F8D
:1021700004460578407978494FF00009C84631F89F
:10218000107061787548491ECEB20163042D75D078
:10219000072D73D000218A46217801736F49E279B7
:1021A0008969002A6CD021F480018161217A417310
:1021B000217A4FF44033826903EA01410A4383469E
:1021C00082610021042000F09EFB3A4642F60401A1
:1021D0002E2000F08BFB3046FFF7B7FA604F6149C5
:1021E0000522785D00EB8000431807212B2000F0CA
:1021F00099FB5D49012201EB0A030B21282000F025
:1022000091FB785D594951F820200C21282000F0DD
:102210007AFBE079564901EB8000A17930F8112072
:102220000221272000F062FB5248042130F81620DA
:10223000272000F05BFBE07938B3A07804282AD08F
:1022400028208DF8000020220621272000F04EFBD8
:102250006B4601222621272000F064FB4648E178E6
:1022600000EB061050F821200821272000F04BFB3E
:10227000B4F80900A0B117E000E001E001218AE70D
:1022800041F48001FF08816190E764220621272044
:1022900000F02CFBE2E710208DF800000246D3E7A7
:1022A00041F24100A4F80900B4F8092020212720B8
:1022B00000F01CFB314F0C2123203A6800F023FB77
:1022C00007EB460004218288232000F00FFBA07951
:1022D00058B1E0792A49012243180021212000F059
:1022E00021FB4FF003094FF0010805F00F0029070B
:1022F00040EA116061784FF4402202EA81410843CC
:10230000920002EA095108434FF4003202EA4841C0
:10231000084321794FF0F86202EA8151084361795C
:1023200040EAC16200211F2000F0EDFAA078617838
:102330004FF4004308430204CBF81020E179082051
:1023400043EA41310A430021CBF8102000F0DBFAC8
:102350000020BDE8F88F00006C38000894040020CD
:10236000F0370008103800082E380008F837000849
:102370003C380008483800084C380008303800085D
:102380003838000810B504460421362000F033F92F
:1023900014B140F4006201E020F400620421BDE8C1
:1023A0001040362000F0AFBA38B540208DF800005C
:1023B00000210E2000F01FF90446FFF7D0FE05466D
:1023C000002211460E2000F09EFA6B4601220021E9
:1023D0000D2000F0A7FA0A4A00210F2000F093FA1E
:1023E00000F06AFA224600210E2000F08CFA2846FE
:1023F000FFF7B4FE0349002081F82C0038BD00002F
:10240000F8FF27249404002070B5054616460024E2
:102410000846FEF74EF90222FEF7ADF8FEF705F981
:10242000FF2800DDFF202A49012EA1F108020CD06F
:10243000042D2DD0072D2BD0515D01EB810202EB35
:10244000C101244A02EB410133E0042D0AD0072DDB
:1024500008D0515D01EB810202EB41111C4A0832A8
:1024600011440FE0495D1B4A01EB0111883A02EB70
:10247000810100E0641C0A5D8242FBDBA4F11C00C8
:102480001CE0641C0A5D8242FBDBA4F1170015E02E
:10249000495D01EB8102C2EB81110E4A68321144A1
:1024A00000E0641C0A5D8242FBDBA4F11E0005E033
:1024B000641C0A5D8242FBDBA4F11100FEF772F896
:1024C000FEF7F7F8BDE87040034A044BFDF772BF12
:1024D000A6380008CA3900087B14AE47E17A843F69
:1024E0007CB50546374C04208DF80000002161754D
:1024F000216384F8251084F82C10A1836163A16303
:1025000000F08CF83049206088420BD02F4C02211B
:102510002046FEF741FB04212046FEF73DFB4FF02D
:10252000FF307CBD0020FFF728F96B460122002117
:10253000242000F0F7F91E20FFF79AF986B2300A3E
:10254000A0730420FFF794F910F0FF0F0CD00220C5
:102550008DF8040001AB012212212D2000F0E2F9D8
:10256000A08B40F48050A0830620FFF781F96060C3
:102570000720FFF77DF9A06016F01F00207501D13C
:1025800010202075C0B200F00BFAE80706D0FFF764
:1025900055F9A08B40F40060A08309E005213620A6
:1025A00000F016F820F400720521362000F09EF9A4
:1025B0000120FFF7E2F80021042000F01CF8A061E0
:1025C00000207CBD940400203001CADE00080140D8
:1025D00038B54FF6FF7489B280B26B46022200F024
:1025E00021F830B99DF800009DF8011000EB0120A2
:1025F00084B2204638BD38B54FF0FF3489B280B27E
:102600006B46042200F00EF830B903216846425CA4
:10261000491E02EB0424FAD5204638BD00210846A5
:10262000FFF7E9BF08B551B140F040008DF8000058
:10263000C8B27F2907D88DF8010002200BE08DF881
:102640000000012007E040F080008DF80100C8097B
:102650008DF802000320694600F088FC08BD30B404
:1026600014460A462146034630BC1120FFF7DABF64
:102670000346052200211520FFF7D4BF034605229B
:1026800000211720FFF7CEBF38B5054600208DF892
:10269000000000F011F94FF4807422460DB14FF4A0
:1026A000407200210D2000F021F99DB16B460122FE
:1026B00003210F20FFF7B6FF9DF80000000709D5A2
:1026C000FFF772FE224600210D2000F00FF94FF0B7
:1026D000FF3038BD002038BD38B50446C0076B4612
:1026E0004FF002024FF000014FF026002DD0FFF70F
:1026F00099FF9DF80100012220F03C0040F01400F9
:102700008DF80100114626200DF1010300F00AF9B1
:102710006B46012202213620FFF784FF9DF800005E
:102720006B4640F084008DF8000001220221362023
:1027300000F0F8F810208DF8000001208DF801005D
:10274000022228216B4636200BE0FFF76BFF9DF835
:1027500001006B4620F014008DF8010002220021D8
:10276000262000F0DFF8A00711D50F208DF800001B
:102770006B4601222A21362000F0D4F800208DF883
:1027800000006B4601222A21362000F0CBF838BD2C
:1027900010B5044600211A20FFF72DFFC4F31302E1
:1027A0006FF3130002430021BDE810401A2000F02F
:1027B000AAB8024641F604012E2000F097B80000A6
:1027C00038B505466B46012203210420FFF72AFF96
:1027D000104C75B12A4600210C2000F087F89DF8B6
:1027E000000040F010008DF80000A06940F080501B
:1027F00008E09DF8000020F010008DF80000A069AE
:1028000020F08050A0616B4601220321042000F0DB
:1028100089F838BD9404002002460021182000F0F9
:1028200065B80000F8B500240546224F26468DF80D
:10283000004080070BD580208DF800006B460122F8
:1028400000210D2000F06EF8012087F82C00E80729
:102850009DF8000021D040F006008DF800006B4686
:10286000012200210D2000F05DF803210F20FFF769
:10287000AFFE10F4816F1AD040208DF800006B4637
:10288000012200210D2000F04DF80020FFF77AFD15
:1028900087F82C604FF0FF3409E040F002008DF81B
:1028A00000006B46012200210D2000F03BF820467D
:1028B000F8BD0000940400201CB56B4601220321E2
:1028C0000F20FFF7AFFE9DF8000000F0800100F040
:1028D0004000B1EB400F08D001208DF80400024603
:1028E00001AB03210D2000F01DF81CBD08B589B215
:1028F0008DF80020120A8DF8012080B26B4602226A
:1029000000F010F808BD38B500236C46E254120AF6
:102910005B1C042BFADB89B280B22346042200F050
:1029200001F838BD08B551B140F0C0008DF8000085
:10293000C8B27F2909D88DF8010002200DE040F0CF
:1029400080008DF80000012007E040F080008DF845
:102950000100C8098DF802000320694600F0CAFB97
:1029600008BD10B514460244B2F5806F02D94FF08D
:10297000FF3010BD0B46821E21460920FFF7D2FF13
:10298000002010BD054A10B5126940EA815002438B
:1029900000210820FFF7B7FF002010BD940400209D
:1029A00038B504466B4601220E212B20FFF73AFE74
:1029B0009DF8000004F01F0120F01F0001438DF876
:1029C00000106B4601220E212B20FFF7ABFF38BD14
:1029D00010B500220A60835CD400A3400C68521C2E
:1029E00023440B60042AF6DB10BD70B51C46154667
:1029F000FDF7C9FBFDF700FE010A2970207070BDCC
:102A000070B5094C054640212046FEF7CDFDE9B2E0
:102A10002046FEF775FE40212046FEF7D8FD00282F
:102A2000F9D0284670BD0000003801407CB5002474
:102A300025466846FFF71CFE042069462D0245EA3C
:102A4000146522020C5C1443401EF7D5204629462B
:102A50007CBD7CB5002425466846FFF70FFE0420A8
:102A600069462D0245EA146522020C5C1443401E9F
:102A7000F7D5204629467CBD0100094808D0012928
:102A800008D0022908D0032908D10E21FEF784B806
:102A90000221FBE70421F9E70821F7E7704700006E
:102AA000000801400100094808D0012908D0022986
:102AB00008D0032908D10E21FEF770B80221FBE7E8
:102AC0000421F9E70821F7E77047000000080140FA
:102AD00090B000F025FAFEF70DF9EDA0FEF716FE16
:102AE00000F082FA00F0ADFA0120FFF7F9FC401C7B
:102AF0007DD000F0A3FAEB48FFF738FB0120FFF789
:102B0000EBFD48F2B600FFF754FE0020FFF784FE0D
:102B10000021E5A20846FEF743FAE6A0FEF7F6FD1F
:102B2000FDF770FFDF4CE74EE74F4FF4814B4FF05E
:102B3000000A583C0020FFF743FE0020FFF7A4FDE9
:102B400000210F20FFF757FD3042A060F8D0208908
:102B500040047CD55A4600210F20FFF7D4FE002107
:102B60001020FFF748FD40B2B0F5806F04DC81B261
:102B70000022D548FFF773FDB9780320B1FBF0F2CE
:102B800000FB1212002AD5D1B1FBF0F200FB1219A2
:102B9000FD78C44987F802A0D04687F803A00A222E
:102BA0000B31C948FDF7E2FA002878D0BD490A2266
:102BB0006031C548FDF7DAFA0028BBD10F2D6DD082
:102BC000A846397BF87AC14A00F09EF9BE49BF4A4F
:102BD000483101EB0819C9F80400B97B787B00F093
:102BE00093F9C9F80800397CF87BB84A00E03FE067
:102BF00000F08AF9C9F80C0041F6E840FFF7C8FD7B
:102C000048F2E800FFF7DCFDA648AF494D30183127
:102C1000C57001EB0815A34B2978817259335A1EF0
:102C2000AA496868FFF7E1FE9E4BA8495B335A1E2C
:102C3000A868FFF7DAFE9B4BA4495D335A1EE8688B
:102C4000FFF7D3FE974900224D31132000E0CAE080
:102C5000FFF787FE00211320FFF794FE0020FFF707
:102C6000E1FD00210F20FFF7C6FC0006F9D561E762
:102C700097A0FEF74BFD00219BA20846FEF790F9B6
:102C80000020FEF72BFB6420FFF75CFA0020FEF724
:102C900019FB6420FFF756FAF2E700E0F5E0FFF7D2
:102CA000C5FEC4E906014FF44870FFF771FD48F214
:102CB000E800FFF785FD7B482178173000228170FE
:102CC000C57001460F20FFF74CFE00210F20FFF7D3
:102CD00059FE0220FFF7A6FD00210F20FFF78BFC15
:102CE0003042A060F8D0208940047CD55A460021AB
:102CF0000F20FFF708FE00211020FFF77CFC00F0FA
:102D00007F01182903DC00226F48FFF7A8FC87F831
:102D10000280F9784046A942A9D16249F8700A2296
:102D200026316948FDF722FA0028A0D1FFF791FE6D
:102D3000C4E90801FFF77AFEC4E90A0162480DA957
:102D40000A30FFF745FE60480EA90E30FFF740FE3F
:102D50005D4807A91230FFF73BFEA1690891D4F83E
:102D60002080A16A02910E980D990190401AFDF7FA
:102D700022FCCDE905100299A1EB0800FDF71BFC30
:102D8000CDE9031007990198081AFDF714FCCDE965
:102D900001100899A8EB0100FDF70DFC08910090C7
:102DA000DDE90510DDE90332FDF75DFADDE9013209
:102DB000FDF759FA089B009AFDF755FACDE909107D
:102DC000DDE90110089B009AFDF7F4FA01918046B5
:102DD000DDE90510DDE90332FDF7ECFA4246019B1F
:102DE000FDF7E2FA00E04AE0DDE90932FDF754FBC5
:102DF000FDF73AFCFDF7ECFB3E4A3F4BFDF7DAFAF4
:102E00004FF098523D4BC4E91201FDF7D3FAC4E9E3
:102E10001401FDF779FC0146224842780078FFF75B
:102E2000F3FAD4E91423FDF7C2FA0022344BC4E9C3
:102E30001401FDF7BFFAFDF7F8FB642290FBF2F3F3
:102E400018493E318B7290FBF2F302FB1300C872FB
:102E500081F80C9020788870CD7000220F20FFF749
:102E600080FD00210F20FFF78DFD0020FFF7DAFC29
:102E700000210F20FFF7BFFB0006F9D55AE6214AD3
:102E800000210F20FFF73FFD54E64FF0000898E6C1
:102E900068656C6C6F2064776D31303030210D0ABD
:102EA0000000000060000020494E4954205041536A
:102EB00053000000696E69742070617373210D0AFC
:102EC0000000000000D02724040400200000C842B5
:102ED00064776D3130303020696E697420666169C5
:102EE0006C210D0A00000000494E4954204641491A
:102EF0004C000000FA48CE3B1835B13D19DDB14118
:102F0000000059400090272410B541EA00201446E3
:102F100000B2FDF747FB2146BDE81040FDF765B95B
:102F200010B501217D20FEF7A1F801210B48FDF726
:102F300007FE01210803FEF799F8FDF775FDFEF77E
:102F400087FAFEF70FF9FDF7A1FFFDF781FF00F00B
:102F50007BF8BDE81040FDF71FBF00000002300005
:102F60000148006870470000000000202DE9F05F74
:102F70001D4616468A4607460024FFF7F0F8184912
:102F80004FF010098346C1F80090DFF858800DE03B
:102F90001AF80410A8F80C1001214046FEF764F955
:102FA0000028F9D0B8F80C002870641CBC42EFDB94
:102FB00000200246414606E08A810B89DB07FCD0EF
:102FC0008B892B54401CB042F6D30549091FC1F828
:102FD00000905846FFF7C2F80020BDE8F09F0000BF
:102FE000140801400030014038B51024ADF800400D
:102FF0008DF803400320104D8DF8020069462846E5
:10300000FDF74CFD002210212846FDF7C9FD642084
:10301000FFF798F8012210212846FDF7C1FD642032
:10302000FFF790F8ADF8004000208DF803006946E6
:103030002846FDF733FD38BD000C01400820FEF79F
:103040007DB82020FEF77AB810B5012186B088033C
:10305000FEF70CF84FF40070ADF8100018208DF852
:1030600013000320204C8DF8120004A92046FDF720
:1030700015FD2015ADF8100004208DF8130004A9EB
:103080002046FDF70BFD25208DF8140001208DF85A
:10309000170000248DF815408DF8164005A8FDF79F
:1030A00095FE12492020C1F800014FF4E130009054
:1030B0000C20ADF80A00ADF80640ADF80C40ADF8B4
:1030C0000840ADF804400A4C69462046FEF7BEFAB7
:1030D000012240F225512046FEF79FFA01212046A9
:1030E000FEF76BFA06B010BD0008014004E000E0F6
:1030F000003801402DE9F041984615460F46064636
:103100000024FFF72CF802461148102303601148F1
:1031100006E0395D81810189C907FCD08189641C81
:10312000B442F6DB002107E018F8014084810489ED
:10313000E407FCD08489491CA942F5D30448001F48
:1031400003601046FFF70AF80020BDE8F081000098
:10315000140801400030014000020400000408008F
:103160000800800000010002004000000000020092
:10317000040000000400000004000000040000003F
:1031800010000000800000008000000080000000AF
:1031900001000020000100200040008008008000A5
:1031A0000400000010000000000100000001000009
:1031B00000010000000100002000000000010000EC
:1031C0000100002000010020004000800800800075
:1031D00000000200060006000600060003000600CC
:1031E00000000D0008000D000E000F000300070096
:1031F00006002800170028002800280009001700F2
:1032000000000000000000000000000000000000BE
:10321000000000F800000000000000333000000053
:1032200000100C06100C060000000000000000005A
:1032300040C07840C0784000043F04043F040400CC
:10324000007088FC08300000001820FF211E0000DC
:10325000F008F000E018000000211C031E211E00F1
:1032600000F00888700000001E2123241927211077
:1032700010160E000000000000000000000000001A
:10328000000000E0180402000000000718204000C1
:1032900000020418E00000000040201807000000B1
:1032A000404080F0804040000202010F0102020015
:1032B000000000F0000000000101011F01010100F9
:1032C000000000000000000080B07000000000005E
:1032D00000000000000000000001010101010101E7
:1032E000000000000000000000303000000000007E
:1032F0000000000080601804006018060100000053
:1033000000E010080810E000000F102020100F004F
:10331000001010F8000000000020203F20200000D6
:10332000007008080888700000302824222130002E
:1033300000300888884830000018202020110E0036
:103340000000C02010F8000000070424243F2400DF
:1033500000F80888880808000019212020110E00B4
:1033600000E0108888180000000F112020110E00C6
:1033700000380808C83808000000003F00000000BE
:103380000070880808887000001C222121221C007F
:1033900000E010080810E0000000312222110F00A8
:1033A000000000C0C000000000000030300000003D
:1033B00000000080000000000000806000000000AD
:1033C00000008040201008000001020408102000C6
:1033D0004040404040404000040404040404040011
:1033E00000081020408000000020100804020100A6
:1033F000007048080808F0000000003036010000A6
:10340000C030C828E810E0000718272423140B0058
:103410000000C038E0000000203C230202273820D2
:1034200008F8888888700000203F202020110E00B6
:10343000C0300808080838000718202020100800AD
:1034400008F808080810E000203F202020100F0096
:1034500008F88888E8081000203F20202320180062
:1034600008F88888E8081000203F200003000000CA
:10347000C03008080838000007182020221E02006B
:1034800008F808000008F808203F210101213F202A
:10349000000808F8080800000020203F2020000055
:1034A00000000808F8080800C08080807F00000045
:1034B00008F888C028180800203F2001263820007E
:1034C00008F8080000000000203F202020203000E5
:1034D00008F8F800F8F80800203F003F003F2000FF
:1034E00008F830C00008F808203F200007183F0007
:1034F000E01008080810E0000F10202020100F0036
:1035000008F808080808F000203F21010101000028
:10351000E01008080810E0000F18242438504F006D
:1035200008F8888888887000203F2000030C30202D
:1035300000708808080838000038202121221C006B
:10354000180808F8080818000000203F20000000B4
:1035500008F808000008F808001F202020201F009D
:103560000878880000C83808000007380E010000FD
:10357000F80800F80008F800033C0700073C0300C7
:10358000081868808068180820302C03032C30202D
:103590000838C800C83808000000203F200000009C
:1035A00010080808C83808002038262120201800F4
:1035B000000000FE020202000000007F40404000C8
:1035C000000C30C000000000000000010638C00000
:1035D00000020202FE000000004040407F000000A8
:1035E00000000402020204000000000000000000CD
:1035F00000000000000000008080808080808080CB
:1036000000020204000000000000000000000000B2
:1036100000008080808000000019242222223F20A8
:1036200008F8008080000000003F112020110E00EB
:103630000000008080800000000E1120202011007A
:10364000000000808088F800000E112020103F202C
:103650000000808080800000001F222222221300B0
:10366000008080F0888888180020203F20200000FB
:103670000000808080808000006B949494936000B0
:1036800008F8008080800000203F210000203F20BB
:1036900000809898000000000020203F20200000BB
:1036A000000000809898000000C08080807F0000AB
:1036B00008F8000080808000203F24022D30200088
:1036C000000808F8000000000020203F2020000033
:1036D0008080808080808000203F20003F20003F4D
:1036E0008080008080800000203F210000203F205B
:1036F0000000808080800000001F202020201F000C
:10370000808000808000000080FFA12020110E003A
:103710000000008080808000000E112020A0FF802B
:10372000808080008080800020203F2120000100D8
:10373000000080808080800000332424242419002D
:10374000008080E0808000000000001F202000003A
:103750008080000000808000001F202020103F207B
:10376000808080000080808000010E30080601000B
:1037700080800080008080800F300C030C300F00B0
:1037800000808000808080000020312E0E312000DB
:10379000808080000080808080818E70180601000B
:1037A00000808080808080000021302C2221300029
:1037B00000000000807C020200000000003F40404A
:1037C00000000000FF00000000000000FF000000FB
:1037D0000002027C800000000040403F000000002A
:1037E00000060101020204040000000000000000C5
:1037F0000000010203040005405C0000A05C04001E
:10380000C06C0800805C0400E03F1E00E07D1E00EC
:10381000070400091E08054008260910400856083C
:10382000054008261D040008BE1D040008BED8BCC3
:1038300007A9022570889B88401008000A0016001E
:10384000010006000100020087008D002D001A31E2
:1038500052001A339A001A351D011A376B003B319A
:10386000BE003B335E013B3596023B370000995961
:103870009959EB518F421E45142E0080EB51F528CB
:103880003333E13A703DE13AC235852BC2353333EB
:10389000C235C235AE47E13A5138A3305138000045
:1038A000010200030000000000000000000101030D
:1038B000040507090B0C0D0F121417191C1E2124E7
:1038C000282B2F32363A3F42474C5259626D7F9B2C
:1038D000DEFFFF010204050608090A0C0D0F121491
:1038E00016181B1D202326292C2F33373A3E42471A
:1038F0004E55606F87C2F0FF0102030405070809F7
:103900000A0C0E10121416181A1C1F2124272A2D17
:103910003134373B3F454C556278ADD5FF0101024C
:1039200003040506060708090B0C0E0F10121415E8
:1039300017191B1D1F222426292C30353B44537890
:1039400094FF07070809090A0B0B0C0D0E0F101145
:10395000121314151617181A1B1C1E1F20222426BA
:10396000282A2C2E30323437393B3D3F4244474AD7
:103970004E5155595E63686E747B828B96A4B6CFA8
:10398000EEFFFFFFFFFF0405050506060707070812
:1039900009090A0A0B0B0C0D0D0E0F101111121351
:1039A00014151617191A1B1D1E1F20222324262743
:1039B000282A2C2E303234373A3D4044484B50555B
:1039C0005C65707F93A8B6C2CDFF010202030405B7
:1039D000070A0D101316181B1E2023262B30384EF5
:1039E00065789DFF01020203040406090C0E111301
:1039F00015181A1C1F21252A314459698AFF010113
:103A00000203030405080A0D0F11131517191B1ED5
:103A100021252C3C4F5D7AFF0101010202030406BF
:103A200007090A0C0D0F10111315171A1E2A37411A
:103A300055FF07080809090A0B0C0D0D0E0F101091
:103A40001112131314151618191B1C1D1E202122E8
:103A5000232527292B2D303235383C40444A5159F3
:103A6000626D7A88929AA2B2DCF9FFFFFF04050525
:103A70000506060707080809090A0A0A0B0B0C0DB8
:103A80000D0E0F1010111213131415161718191A02
:103A90001C1D1F212325272A2E32363C434B535A07
:103AA0005F646E8799ACC0FFC83A00080000002030
:103AB0007C030000AC0900080C3C00087C030020DB
:103AC000540700003C1700080114024B011F0202BA
:103AD0000802090952252104418827DE574156452D
:103AE00021390C47564557411002791BE2237918BA
:103AF000CAAA0F0A10AE220A10AF130931680A14BD
:103B0000FEC5440406082D01020304044506070807
:103B10000984A24A04791714380140124412401A49
:103B20000808A9041A10049A1C046914DA20044A2B
:103B3000140852011BF010012AFF050215F01B0F9B
:103B400004012AFF0502130F18094040405F555534
:103B50005575041A5F0C091121080C11200F094931
:103B600089790909090F201F112FFE02424ACA4A0A
:103B70000304134202FE000E14FF40504C43404029
:103B80004F50505C40FF1BF888012AFF050215F8D2
:103B90001B1F08012A7F200B109F80E23B808201BF
:103BA000000916E2A2928A86828080041840807FF3
:103BB000172424A4FEA3221B22CCAA011415080654
:103BC00001FF2B0104010511FF0202025808101029
:103BD00010FF109008C3021108080F100444827FE0
:103BE00001808040432C10284681A012AE100B109B
:103BF0004081CFA1C8A6A83FD34010D580D9F1DA23
:0C3C000012DB4020028D14A4A6A00000DE
:0400000508000131BD
:00000001FF
