:020000040800F2
:10000000280C002005010008071E0008D91C000864
:10001000051E0008E1080008BD24000800000000DB
:100020000000000000000000000000006D1F00083C
:10003000E308000800000000091E0008911F0008E6
:100040001F0100081F0100081F0100081F01000810
:100050001F0100081F0100081F0100081F01000800
:100060001F0100081F0100081F0100081F010008F0
:100070001F0100081F0100081F0100081F010008E0
:100080001F0100081F0100081F0100081F010008D0
:100090001F0100081F0100081F0100081F010008C0
:1000A0001F0100081F0100081F0100081F010008B0
:1000B0001F0100081F0100081F0100081F010008A0
:1000C0001F0100081F0100081F0100080D1E000885
:1000D0001F010008B12400081F0100081F010008CB
:1000E0001F0100081F0100081F010008DFF810D0E1
:1000F00000F0E4FB0048004725320008AFF3008021
:10010000280C00200648804706480047FEE7FEE727
:10011000FEE7FEE7FEE7FEE7FEE7FEE7FEE7FEE7B7
:10012000F51F0008ED000008202A04DB203A21FA20
:1001300002F00021704721FA02F3D040C2F1200200
:100140009140084319467047D2B201E000F8012BF4
:10015000491EFBD270470022F6E710B513460A4647
:1001600004461946FFF7F0FF204610BD30B504469F
:100170000020034600E05B1C934203D2E05CCD5CB0
:10018000401BF8D030BD80EA010210B502F00043F8
:10019000400022D04A001FD0010E01EB1261C0F3D3
:1001A0005600C2F3560240F4000042F40002A0FBE5
:1001B000022000047F39140400D0401C50EA124091
:1001C00001D44000491EC2B20C0604EBD010401C02
:1001D0004008802A02D003E0002010BD20F001007A
:1001E000002900DA0020184310BD30B480EA010273
:1001F00002F0004530F0004221F0004013D090B1F1
:10020000C30DD40DC2F31601C0F31600E41A41F475
:10021000000140F400027D34914201D3641C00E0EF
:100220004900002C02DA30BC002070474FF4000077
:100230000023914201D3891A034340084FEA410148
:10024000F7D151B1914202D14FF0004105E002D205
:100250004FF0010101E06FF0010103EBC4502844AD
:1002600030BC00F01DBA420005D0C0F3C752524264
:10027000914201DC0020704700EBC15070472DE92E
:10028000FE4F804681EA0300C00F0C46009021F02B
:10029000004123F00045B8EB0200A94105D24046D9
:1002A000214690461C460B46024623F00040104370
:1002B00047D0270DC7F30A00C3F30A510290401A32
:1002C000019040286BDAC3F3130040F4801B0098C0
:1002D000924620B10023D2EB030A63EB0B0B01988B
:1002E0005946C0F14002504600F0B9F906460D46A5
:1002F00050465946019A00F0C1F910EB08006141DF
:10030000002487EA115284EAE7731A4340D0009A26
:1003100062B3019A012A4FEA075215DC001B61EB18
:1003200002014FF0004202EA0752CDE90042001CF0
:1003300041F5801132462B4600F0F8F903B0BDE8D4
:10034000F08F40462146F9E7001B61EB0201001CDB
:1003500041F5801300185B412018A2F5001747EB08
:10036000030140EAD570B6196D4111E06D084FEAFE
:10037000360645EAC0754FEA0752001B61EB0201E1
:10038000001C41F5801149084FEA30000019514125
:1003900032462B4603B0BDE8F04F00F0B8B90098E4
:1003A000012240000023D0EB020263EBE0730098CF
:1003B00021464FEAE074B8EB000061EB0401E9E785
:1003C00083F000435BE781F0004158E72DE9FE4FE1
:1003D00081EA030404F0004421F0004100944FF04E
:1003E000000B23F0004350EA01045ED052EA0304FC
:1003F0005BD0C3F30A54C1F30A552C44A4F2F3347E
:100400000194A0FB0254C1F3130141F48011C3F322
:10041000130343F4801301FB024400FB034E840AE0
:10042000970A44EA815447EA8357A4FB0768029578
:100430008D0A05FB07854FEA932C04FB0C54270516
:10044000029D4FEA065847EA1637B5EB08056EEBF2
:10045000070C870E920E47EA811742EA8312A7FB28
:100460000201B6EB0B0164EB00042B0D43EA0C33E5
:100470005E1844EB1C50DA465146E7FB0201C5F317
:1004800013044FEA0B3343EA14534FEA0432019C3E
:1004900043EA0603A4F10C040294009CCDE900B4E5
:1004A00000F044F903B0BDE8F08F00200146F9E701
:1004B0002DE9F04D81EA030404F0004B21F00045E2
:1004C00014464FF0000A23F0004150EA050220D004
:1004D00054EA01021DD0C5F30A570246C5F31303BF
:1004E000C1F31300C1F30A5640F4801543F480139E
:1004F000A7EB0608101BD64608F2FD3873EB050083
:1005000002D308F1010801E092185B41B8F1000F35
:1005100003DA00200146BDE8F08D00204FF4801181
:10052000064684460EE0171B73EB050705D3121B26
:1005300063EB050306434CEA010C49084FEA30001F
:1005400092185B4150EA0107EDD152EA030012D044
:1005500082EA040083EA0501084305D0101BAB4181
:1005600006D20122002306E000224FF0004302E001
:100570006FF0010253101AEB06004CEB085110EB20
:100580000A0041EB0B01BDE8F04D00F0C0B870B5BA
:1005900021F0004303430CD0C1F30A550024D5EBEE
:1005A000040564EB0403D617AD1AB34102DB002047
:1005B000014670BD201841EB025170BDC10F80EAA9
:1005C000E0700844CA079623002100F072B800F0DA
:1005D000004220F00040C10DC0F3160040F40000BE
:1005E0007F2901DA00207047962903DCC1F19601CA
:1005F000C84001E096398840002AF4D04042704754
:1006000000F0004230F000400AD0C10D01F56071E9
:10061000C0F3160042EA0151C20840071143704777
:1006200000200146704701F0004330B421F0004142
:1006300050EA010206D00A0DA2F56072C1F313015F
:10064000002A02DC30BC00207047440F44EAC10499
:10065000C100E01830BC00EBC25000F021B8202AE5
:1006600004DB203A00FA02F1002070479140C2F109
:10067000200320FA03F3194390407047202A06DB39
:10068000CB17203A41FA02F043EAE07306E041FA60
:1006900002F3D040C2F1200291400843194670474E
:1006A0000029A8BF7047401C490008BF20F0010086
:1006B000704710B4B0FA80FC00FA0CF050EA010464
:1006C00004BF10BC704749B1CCF1200421FA04F4F6
:1006D00011FA0CF118BF012121430843A3EB0C01CF
:1006E000CB1D4FEA00614FEA102042BF002010BC32
:1006F000704700EBC35010440029A4BF10BC7047E2
:10070000401C490008BF20F0010010BC704710B524
:10071000141E73F1000408DA401C41F10001921824
:100720005B411A4301D120F0010010BD2DE9F04DCD
:1007300092469B4611B1B1FA81F202E0B0FA80F222
:1007400020329046FFF78BFF04460F4640EA0A002E
:1007500041EA0B0153465A46084313D0114653EA67
:10076000010019D0C8F140025046FFF7DDFC0546F4
:100770000E46504659464246FFF771FF084305D0E2
:10078000012004E020463946BDE8F08D00200543F5
:1007900046EAE0762C4337430A986305E40AA0EB67
:1007A00008000022FD0A44EA47540A3002D500201E
:1007B0000146E9E7010510196941DDE9084500191D
:1007C0006941BDE8F04DA2E72DE9F04D00231A463E
:1007D0001B1A8A4103DB00200146BDE8F08DC1F3FE
:1007E0000A52C1F3130141F480154FF0000BD107F9
:1007F00002D100186D41521E0027044640F2FF113D
:10080000384601EB620A3E468046024600204FF41D
:100810008011FFF789FCC2197141BB1846EB01003A
:10082000B4EB030C75EB000C04D3E41A65EB000584
:1008300017460E46241908F101006D418046342800
:10084000E3DDF91946EB0600091BA84103D24FF07E
:10085000FF32134601E0002213461BEB070046EB74
:100860000A51BDE8F04DFFF752BF0EB5C10F80EA47
:10087000E0700844CA07002140F233438DE80E00BF
:100880000A460B46FFF752FF03B000BD30B5041E09
:1008900071F1000404DB4FF00044404264EB0101BD
:1008A000141E73F1000405DB1C464FF00043524256
:1008B00063EB0403994208BF904230BD064C074DDC
:1008C00006E0E06840F0010394E807009847103420
:1008D000AC42F6D3FFF70EFCA0420008C04200086D
:1008E000FEE7704772B6FEE710B590F821100022BF
:1008F000022905D00421816380F82020012010BD49
:1009000001680B6823F00E030B6001680B6823F08D
:1009100001030B6090F84030C46B012101FA03F32E
:10092000636080F8211080F82020104610BD000080
:1009300010B590F821100024022903D0042181630E
:1009400001243DE001680A6822F00E020A60016895
:100950000A6822F001020A601A4A0168914201D134
:10096000012121E0174A1432914201D110211BE0EC
:10097000144A2832914201D1891515E0114A3C32BE
:10098000914201D189140FE00E4A5032914202D1B6
:100990004FF4803108E00B4A6432914202D14FF4A7
:1009A000801101E04FF08071064A083A5160012140
:1009B00080F82110002180F82010416B01B1884798
:1009C000204610BD0800024070B5044600F004F94E
:1009D0000546601C02D004480078044400F0FCF88E
:1009E000401BA042FAD370BD100100202DE9F84F42
:1009F000DFF8B891002409F1040A0AF1040B234638
:100A00000F270BF1040EC9E00125A5402A40AA4298
:100A10007DD1674ED1F804C0ACEB0608B44532D0A6
:100A200014DCBCF1030F3AD009DCBCF1000F2AD072
:100A3000BCF1010F1CD0BCF1020F31D11DE0BCF1A3
:100A4000110F17D0BCF1120F2AD119E0B8F5881F89
:100A500019D006DCB8F5803F15D0B8F5801F1FD13E
:100A600011E0B8F5001F0ED0B8F5041F18D10AE048
:100A7000CB6815E0CB681B1D12E0CB6808330FE094
:100A8000CB680C330CE08B682BB1012B4FF00803C3
:100A900003D0456104E0042302E0056100E0002387
:100AA000FF2A01D8064601E000F104064FEA84055A
:100AB00001D9A5F12005D6F8008007FA05FC28EA3F
:100AC0000C0803FA05F548EA0508C6F800804D68E9
:100AD000ED0062D5374DAE6946F00106AE61AD69F5
:100AE00024F0030605F001050095334D06EB050CD7
:100AF000DCF80850A607360F07FA06F825EA0805BD
:100B0000DFF8B880404503D14FF0000817E044E01B
:100B1000DFF8AC80404502D14FF001080FE0DFF86C
:100B2000A480404502D14FF0020808E0DFF8988029
:100B3000404502D14FF0030801E04FF0040808FAE5
:100B400006F848EA0508CCF808804D68D9F8006036
:100B5000ED034D4601D5164300E096432E604D68E7
:100B6000DAF80060AD03554601D5164300E0964320
:100B70002E604D68DBF80060ED025D4601D516433E
:100B800000E096432E604D68DEF80060AD027546C9
:100B900001D5164300E096432E60641C0D682A467A
:100BA000E5407FF431AFBDE8F88F0000000401405C
:100BB0000000111000100240000001400008014038
:100BC000000C014000100140001401400AB1016115
:100BD00070470904FBE70000014880687047000087
:100BE000100100200248816802781144816070473A
:100BF00010010020074810B5016841F010010160A4
:100C0000032000F085F80F2000F006F800F024F82B
:100C1000002010BD0020024070B50D4D04464FF479
:100C20007A712878B1FBF0F00A490968B1FBF0F05D
:100C300000F05DFE48B9102C07D200222146501E5C
:100C400000F046F800206C6070BD012070BD00000F
:100C5000100100200C0100200C4808B5816941F00A
:100C600001018161816901F001010091C16941F0D7
:100C70008051C161C06900F0805000900448416813
:100C800021F0E06141F00071416008BD00100240B8
:100C90000000014000280DDB00F01F0201219140FF
:100CA0004009800000F1E020C0F88011BFF34F8FB1
:100CB000BFF36F8F7047002809DB00F01F0201218E
:100CC00091404009800000F1E020C0F80011704719
:100CD000F0B40E4B1B680C46C3F30223C3F10705A7
:100CE000042D00D90425191D072901D2002300E095
:100CF000DB1E012606FA05F1491E214099409E405F
:100D0000761E16403143F0BC01F0EDBB0CED00E067
:100D1000064900F0070208684FF6FF03184040EA52
:100D20000220034A10430860704700000CED00E009
:100D30000000FA052DE9F0470F46050061D0434E4B
:100D4000306800F00700B84209D2306820F0070090
:100D500038433060306800F00700B84251D128684D
:100D60003B4C810712D5400703D5606840F4E06032
:100D700060602878000703D5606840F460506060C8
:100D80006068A96820F0F000084360602878C00718
:100D900028D06868012810D02168022810D089075F
:100DA00000292EDA616821F0030101436160FFF739
:100DB00013FF804641F288390DE021688903EFE78F
:100DC0008901EDE7FFF708FFA0EB0801494502D9CB
:100DD0000320BDE8F0876068696800F00C00B0EBA4
:100DE000810FEFD1306800F00700B8420BD93068AE
:100DF00020F0070038433060306800F00700B84248
:100E000001D00120E5E72878400705D56068E9684A
:100E100020F4E060084360602878000706D5606829
:100E2000296920F4605040EAC100606000F038F8A1
:100E30006168084AC1F30311515CC8400649086063
:100E400006480068FFF7E8FE0020C2E700200240E5
:100E500000100240DE4100080C01002014010020B7
:100E60000448054900684968044AC1F30221515CFD
:100E7000C84070470C01002000100240EE410008FD
:100E80000448054900684968044AC1F3C221515C1D
:100E9000C84070470C01002000100240EE410008DD
:100EA00013A185B00FC98DE80F0015A0154A006881
:100EB0000490516801F00C00042804D0082804D0E4
:100EC000114805B070471148FBE7C1F38343C903DC
:100ED0001DF8030009D5516804AAC1F34041515CD3
:100EE0000A4A5043B0FBF1F0EBE709494843E8E711
:100EF00002030405060708090A0B0C0D0E0F10105B
:100F0000010200000010024000127A000024F400E8
:100F100000093D002DE9F84F040070D02078C04D45
:100F2000C00749D06868C0F38100012807D068680D
:100F3000C0F38100022809D16868C00306D528687B
:100F4000800339D560680028E7D035E06068B0F5E7
:100F5000803F0BD010B1B0F5A02F11D0286820F43D
:100F600080302860286820F4802002E0286840F45F
:100F700080302860606890B1FFF72EFE06460AE0D8
:100F8000286840F480202860F0E700BFFFF724FEC7
:100F9000801B642873D828688003F7D50CE0FFF71E
:100FA0001BFE064605E000BFFFF716FE801B642807
:100FB000F0D828688003F7D420789A4E80074FF045
:100FC00001094FF0000839D5686810F00C0F07D000
:100FD0006868C0F38100022809D16868C00306D49C
:100FE0002868800714D52069012808D110E02069FD
:100FF000B0B1C6F80090FFF7EFFD074605E00AE143
:10100000FFF7EAFDC01B0228C4D828688007F7D57F
:101010002868616920F0F80040EAC10028600DE00E
:10102000C6F80080FFF7D8FD074604E0FFF7D4FDBF
:10103000C01B022823D828688007F7D4207800072F
:101040002CD57948A169D9B1C0F80090FFF7C4FD4B
:10105000074604E0FFF7C0FDC01B02280FD8686AEE
:101060008007F7D571484FF4FA510068B0FBF1F0F2
:10107000009000BF0098411E0091FAD20EE080E07F
:10108000C0F80080FFF7A8FD074604E0FFF7A4FDC5
:10109000C01B022875D8686A8007F7D420784007FB
:1010A00060D5E8690027C00008D4E86940F08050A6
:1010B000E861E869012700F0805000905C48016811
:1010C000C90513D40168834641F480710160FFF7BC
:1010D00083FD824606E000BFFFF77EFDA0EB0A001D
:1010E00064284ED8DBF80000C005F5D5E06801287B
:1010F0000AD008B1052813D0286A20F00100286220
:10110000286A20F0040002E0286A40F0010028620A
:10111000E06841F2883B98B1FFF75EFD82460BE044
:10112000286A40F004002862EEE700BFFFF754FD94
:10113000A0EB0A0159455AD8286A8007F6D50CE079
:10114000FFF74AFD824605E0FFF746FDA0EB0A01E6
:1011500059454CD8286A8007F6D41FB1E86920F0B9
:101160008050E861E06988B36968C1F381010229B0
:1011700044D00228C6F8608004D0FFF72DFD044655
:1011800038E034E0FFF728FD074604E0FFF724FDD0
:10119000C01B02282BD828688001F7D4206AB0F53C
:1011A000803F05D16868A16820F40030084368607A
:1011B000D4E908010843696821F4741108436860A0
:1011C000C6F86090FFF708FD044606E025E000BF82
:1011D000FFF702FD001B022809D828688001F7D517
:1011E0001BE000BFFFF7F8FC001B022802D9032018
:1011F000BDE8F88F28688001F4D40EE00128F7D00C
:101200006868226A00F48031914204D1616A00F476
:101210007010884201D00120EAE70020E8E70000D2
:101220000010024000004242800442420C010020B3
:10123000007000407047000038B5044600684268FE
:101240008168C9434B0606D5CB0704D1D3435B065F
:1012500001D4216C05E08B0708D4D3431B0605D4C9
:10126000616C01B02046BDE8304008478B0601D5CF
:101270004B0646D4D3439B0643D44B060AD494F87A
:101280005130032B3ED0636D43F004036365C368A4
:1012900083680093890609D4616D41F0010161659D
:1012A00081680091016821F040010160606D0028B3
:1012B00027D02068416821F0E0014160012084F8D6
:1012C0005100900722D02068416821F0030141605D
:1012D000104DE06C40B14563E06CFFF729FB18B19D
:1012E000606D40F040006065A06C002809D0456347
:1012F000A06CFFF71DFB002803D0606D40F040009C
:10130000606538BDC1688068009038BD2046FFF731
:1013100091FF38BD271E000870B5040009D0606A2F
:10132000002540B125616561A56294F8510040B186
:101330000CE0012070BD6068B0F5827FF4D0E561FB
:10134000F2E784F85050204600F040F8022084F87C
:1013500051002068016821F040010160A0882189C6
:1013600000F4827001F404410843A18901F4006192
:101370000843217C01F002010843217D01F00101B5
:101380000843218B01F400710843217F01F03801EB
:10139000084394F8201001F080010843218D01F4E6
:1013A0000051084321680860A069042101EA104047
:1013B000216848602068C16921F40061C1616565E8
:1013C000012084F85100002070BD000030B585B0C8
:1013D0000024009401940294039400681849884200
:1013E0002BD11848816941F480518161816901F4F0
:1013F00080510491816941F0040181618069124D3D
:1014000000F004000490A02000900220019003202E
:10141000039069462846FFF7E9FA4020CDE9000429
:10142000694628460294FFF7E1FA0022114623207C
:10143000FFF74EFC2320FFF73EFC05B030BD000057
:101440000030014000100240000801402DE9F84F33
:10145000044640680025984616460F464FF0040B98
:10146000B0F5827F01D1A06888B194F850000128BE
:1014700018D0012084F85000FFF7AEFB814694F8A5
:1014800051004FF0000A01280ED0022582E084F8B6
:1014900051B013460A462046CDF8008000F036F9D8
:1014A000BDE8F88F0220FBE7002F72D0002E70D02D
:1014B00084F851B0C4F854A0A763A687E687C4F89F
:1014C00030A0A4F834A0A4F836A0C4F840A0C4F812
:1014D00044A0A068B0F5004F09D12068016821F050
:1014E000400101602068016821F4804101602068AA
:1014F0000168490603D4016841F040010160E068D9
:10150000D8B139E020688168C90709D0007BA16B98
:101510000870A06B401CA063E08F401EE0870CE0C9
:10152000FFF75AFBA0EB0901414503D3B8F1FF3F98
:1015300003D036E0B8F1000F33D0E08F0028E1D1BE
:101540001DE020688168C90709D0C068A16B0880C8
:10155000A06B801CA063E08F401EE0870CE0FFF7CB
:101560003BFBA0EB0901414503D3B8F1FF3F03D09A
:1015700017E0B8F1000F14D0E08F0028E1D14A46FF
:101580004146204600F057FC08B120206065606DA0
:1015900000B10125012084F8510084F850A02846AC
:1015A0007EE70325F6E72DE9F84F044690F8500052
:1015B00000271D461646894601280DD04FF0010B25
:1015C00084F850B0FFF708FB804694F85100BA4603
:1015D000012804D0022793E00220BDE8F88FB9F17A
:1015E000000F73D0002E71D0032084F85100C4F88E
:1015F00054A0C4F83090A686E686C4F838A0A4F8B3
:101600003CA0A4F83EA0C4F844A0C4F840A0A06840
:10161000B0F5004F09D12068016821F04001016058
:101620002068016841F48041016020680168490632
:1016300003D4016841F040010160E068B0F5006F3B
:10164000606803D030B3012E24D041E008B1012EF0
:101650001CD1206B21680088C86006E02068816882
:10166000890709D5216B0988C160206B801C206324
:10167000E08E401EE08609E0FFF7AEFAA0EB08001E
:10168000A84202D3681C01D031E07DB3E08E00286F
:10169000E4D120E0206B21680078087306E0206820
:1016A0008168890709D5216B09780173206B401C7B
:1016B0002063E08E401EE0860AE0FFF78DFAA0EB83
:1016C0000800A84203D3681C02D010E017E06DB1F7
:1016D000E08E0028E3D142462946204600F0D9FB9F
:1016E00008B120206065A06818B106E0FFE7032775
:1016F00006E02068C16880680090606D00B1012735
:1017000084F851B084F850A0384666E72DE9F84FC8
:10171000044690F8500000270A9E1D4692468B46CC
:101720004FF0010901280ED0012084F85000FFF786
:1017300053FA804694F85100616801280CD0B1F545
:10174000827F07D102E00220BDE8F88FA16809B9C5
:10175000042801D00227C2E0BBF1000F27D0BAF164
:10176000000F24D01DB394F85100042802D00520A6
:1017700084F8510000206065C4F838A0E587A5878B
:10178000C4F830B0E586A5862064606420680168EE
:10179000490603D4016841F040010160E068B0F5FA
:1017A000006F606805D0E8B3012D46D07FE00127C7
:1017B00095E008B1012D39D1206B21680088C860FF
:1017C000206B801C2063E08E401EE0862EE02068A7
:1017D000816889070FD5E18E69B1B9F1010F0AD18E
:1017E000216B0988C160206B801C2063E08E401E45
:1017F000E0864FF0000920688168C9070CD0E18FAE
:1018000051B1C068A16B0880A06B801CA063E08F01
:10181000401EE0874FF00109FFF7DEF9A0EB08005A
:10182000B04200E009E001D3701C50D1E08E0028E6
:10183000CDD1E08F0028CAD13FE0206B216800782D
:101840000873206B401C2063E08E401EE0862EE073
:101850002068816889070FD5E18E69B1B9F1010F60
:101860000AD1216B09780173206B401C2063E08E44
:10187000401EE0864FF0000920688168C9070CD03F
:10188000E18F51B1C068A16B0870A06B401CA063D0
:10189000E08F401EE0874FF00109FFF79DF9A0EBB4
:1018A0000800B04202D3701C01D010E07EB1E08E7F
:1018B0000028CDD1E08F0028CAD1424631462046CB
:1018C00000F0E7FA28B101272020606507E0032730
:1018D00005E0A06818B92068C16880680090012000
:1018E00084F85100002084F8500038462CE710B5E9
:1018F000401EB0F1807F01D3012010BD4FF0E024E5
:1019000060610F21601700F0EEFD0020A06107204C
:101910002061002010BD704770470000F8B50268D4
:1019200004461068D168536910F00F0F4FF000059E
:1019300053D003F0010601F4907737435FD0C2071C
:1019400005D0CA0503D5226C42F001022264420789
:1019500005D5DA0703D0226C42F002022264820726
:1019600005D5DA0703D0226C42F004022264020794
:1019700007D501F02002324303D0226C42F0080266
:101980002264226C002A34D0800604D5880602D551
:10199000204600F0A3FC20684069216CC0F3801051
:1019A000090700D430B3204600F080FC206841696C
:1019B00049061BD5416921F040014161A06BA8B1E6
:1019C00058494163A06BFEF7B3FF002811D0A06B0C
:1019D000416B01B0BDE8F040084783060FD58B0688
:1019E0000DD52046BDE8F84000F078BC2046FFF752
:1019F00093FFF8BD2046FFF78FFF2564F8BD266BE7
:101A00002023012E52D1C60650D5CE064ED51068E1
:101A100050680090506940062AD5A16B086840685C
:101A20000004000CEAD0A68D8642E7D9E0858869DB
:101A3000202818D0D06820F48070D06020684169D8
:101A400021F0010141612068416921F040014161BB
:101A500084F83E3025632068C16821F01001C16020
:101A6000A06BFEF741FFA08DE18D401A81B219E015
:101A7000A08DE18D401A81B2E08D0028BED00029F2
:101A8000BCD0D06820F49070D0602068426922F009
:101A90000102426184F83E3025632068C26822F06A
:101AA0001002C2602046FFF736FFF8BD05062BD5B1
:101AB0000D0629D594F83D002128F6D1A068B0F58F
:101AC000805F01D12069B0B1206A411C2162216888
:101AD00000784860E08C401E0004000CE084E4D1F3
:101AE0002068C16821F08001C1602068C16841F0B0
:101AF0004001C160F8BD206A0088C0F30800506052
:101B0000206A801C2062E5E74006F3D54806F1D53F
:101B1000D168204621F04001D16084F83D3000F0CA
:101B2000DAF8F8BD9D22000870B5040004D094F8DE
:101B30003D00002510B106E0012070BD84F83C5046
:101B4000204600F023F8242084F83D002068C16876
:101B500021F40051C160204600F01CFC206801699E
:101B600021F4904101612068416921F02A0141611D
:101B70002068C16841F40051C1602564202084F8C8
:101B80003D0084F83E00002070BD000030B585B0F7
:101B90000024009401940294039400681849884238
:101BA0002CD11848816941F480418161816901F437
:101BB00080410491816941F0040181618069124D85
:101BC00000F0040004904FF4007000900220019097
:101BD0000320039069462846FEF708FF2815CDE943
:101BE0000004694628460294FEF700FF00221146D1
:101BF0002520FFF76DF82520FFF75DF805B030BD13
:101C000000380140001002400008014003498842AA
:101C100002D10349012088707047000004030020AE
:101C2000000000202DE9F843044690F83D001F46CF
:101C300016460D4620284CD1C5B1BEB194F83C00E3
:101C4000012846D0012084F83C004FF00008C4F879
:101C50004080212084F83D00FEF7BEFFA684814627
:101C6000E684A068B0F5805F03D004E00120BDE801
:101C7000F883206928B12E465FF0000584F83C8087
:101C80000EE00026FAE78021204600F0DFFBA0B935
:101C9000AEB116F8010B21684860E08C401EE0846C
:101CA000E08C4B464FF0000200970028EBD14FF03C
:101CB0004001204600F0CAFB30B10320D7E735F8D9
:101CC000020BC0F30800E6E7202084F83D00002066
:101CD000CDE70220CBE77047FEE70000F0B585B006
:101CE000002424480094019402940394816941F0F3
:101CF00020018161816901F020010491816941F035
:101D000004018161816901F004010491816941F05C
:101D1000080181618069184E00F0080004900022DB
:101D200010213046FEF752FF144F0022182138468A
:101D3000FEF74CFF10200125CDE900050320CDE979
:101D4000024069463046FEF751FE0D480095CDE948
:101D5000010469463846FEF749FE1820CDE9000522
:101D60000220CDE9024069463846FEF73FFE05B045
:101D7000F0BD00000010024000080140000C0140CE
:101D800000001110104810B50E4901604FF4827127
:101D9000416000218160C1604FF400720161C0E9BF
:101DA00005121022C0E90721416281620A21C16245
:101DB000FFF7B2FA002803D0BDE81040FEF792BD4D
:101DC00010BD000000300140AC0200200C4810B5EE
:101DD0000A4901604FF4E1314160002181600C2229
:101DE000C160C0E904128161C161FFF79DFE002856
:101DF00003D0BDE81040FEF775BD10BD00380140AE
:101E000004030020FEE7FEE7704700000148FFF7EB
:101E100013BA0000AC020020026892B222F038022D
:101E20000A430260704710B5406A0021C187C1862D
:101E3000FFF700FA10BDF8B5044640684FF482730E
:101E4000984217D1A0684FF48065B0F5004F01D0DB
:101E5000A8420FD12068066826F040060660606838
:101E6000984207D1A068A84204D100920B460022F4
:101E7000012103E000920B4600228021204600F061
:101E800019F8002804D0606D40F020006065032040
:101E9000F8BD38B50B46009204460022802100F0C0
:101EA00009F8002804D0606D40F020006065032030
:101EB00038BD00002DE9F8431E4691468846044689
:101EC000089DFEF789FE401B351AFEF785FE074682
:101ED00025480068C0F3CB30684338E0701C37D029
:101EE000FEF77AFEC01BA84203D215B1009860B37A
:101EF0002CE02068416821F0E00141606068B0F5A5
:101F0000827F0BD1A068B0F5004F02D0B0F5806F92
:101F100004D12068016821F040010160A06AB0F599
:101F2000005F09D12068016821F400510160206838
:101F3000016841F400510160012084F85100002043
:101F400084F850000320BDE8F8830025401E00906F
:101F50002068816838EA010004D000214945BDD1DC
:101F60000020F0E70121F9E70C0100207047000094
:101F70000020034902460A54401C0228FBDB70473C
:101F80000300002001484078704700000300002053
:101F9000FEF728BE10B590B028216846FEF7DBF8A2
:101FA00014210AA8FEF7D7F801210804CDE9001092
:101FB0004200029202240491CDE907404FF4E01060
:101FC00009906846FEF7A6FF08B172B6FEE70F203B
:101FD000CDE90A0400204FF48061CDE90C010E9098
:101FE00002210AA8FEF7A6FE002801D072B6FEE77D
:101FF00010B010BD704700002DE9FC5F0026DFF82F
:102000008C8240F6E44B4FF00F0AB146962000F068
:10201000A8FF584600F0BCFF9C4898F800107930A3
:102020004446817080F803A0014600220C2001F094
:1020300080F800210C2001F08DF8022000F0DAFF7A
:10204000002000F005FF924F00210F2000F0B7FEA6
:102050003842A060F8D02089A04640047ED54FF4D5
:10206000814200210F2001F036F80021102000F0FD
:10207000A6FE00F07F011E2903D80022854800F04B
:10208000D2FE8448C1780F2969D1804980F8039035
:1020900080F802900A228531FEF768F800287CD18A
:1020A00000252C46684600F0CDFE04206A46240236
:1020B00044EA15642B02155C1D43401EF7D5C8E9A0
:1020C000085400252C46104600F0B6FE0420694650
:1020D000240244EA15642A020D5C1543401EF7D51C
:1020E0004FF02F60C8E90A54281844F10001040A8F
:1020F00044EA0164204600F0D3FE24F00100020E01
:102100000002C8E90C026148D8E908234D469E3018
:1021100001F072F85D48D8E90A23A23001F06CF8AA
:102120005A48D8E90C23A63001F066F8574898F8C9
:1021300000109430817080F803A0962000F011FF09
:10214000584600F025FF514900229431182000F034
:10215000F0FF0021182000F0FDFF01E083E08DE09A
:10216000022000F047FF002000F072FE44460021EC
:102170000F2000F024FE3842A060F8D02089A0464D
:10218000400471D54FF4814200210F2000F0A3FFDD
:102190000021102000F013FE00E052E000F07F016B
:1021A0001E2903D800223B4800F03DFE394CE07860
:1021B0000F2863D13549E570A946A5700A2243313D
:1021C0002046FDF7D3FFE0BB207B6F2842D0A17AE9
:1021D0004FF47A725143E27A02EB820201EB42023F
:1021E00004F1200151F820301A4441F82020294FF1
:1021F0002C3757F82010491C47F820105FF00000DA
:1022000057F8201005292ADB224D002415F120055E
:1022100057F82400002808DD55F8241091FBF0F051
:10222000214600F0BDFF45F82400641C032CEFDBC1
:1022300095E80700B8F8063000F024FB0020494676
:1022400000E016E047F8201045F82010401C032855
:10225000F6DB0EE0618949BAA8F80610C7E7401C12
:102260000328CDDB05E0FFE70B4A00210F2000F03B
:1022700032FF98F80010491C88F80010761CF6B25E
:10228000032EFFF4C3AEBDE8FC9F00000000002059
:1022900000D02724D40100200090272410B5406AE4
:1022A0000021C185C184FFF737FB10BD0168CA68F2
:1022B00022F49072CA6001684A6922F001024A6100
:1022C000016B012904D10168CA6822F01002CA60BA
:1022D000202180F83E1000210163704708B590F876
:1022E0003E10222901D0022008BD82684FF480539D
:1022F0009A4201D1016921B1816A9A421BD04AB147
:102300000AE00268816A5268C2F308020A80816AA0
:10231000891C08E0026972B10268526802F07F020B
:102320000A70816A491C8162C18D491E0904090C29
:10233000C18503D019E002685268F1E70168CA68F4
:1023400022F02002CA600168CA6822F48072CA6062
:1023500001684A6922F001024A61202180F83E109A
:10236000016B012903D0FFF751FC002008BD0021BB
:1023700001630168CA6822F01002CA6001680A6835
:10238000D20602D50A6849680091818DFFF7C3FA29
:10239000EBE7000070B5044600680169E26821F4CB
:1023A0004051114301612169A068084361690843F4
:1023B0002168CA6841F20C639A430243CA602068EC
:1023C0004169A26921F44071114341611E492068AD
:1023D000884202D1FEF754FD01E0FEF741FD00EB1B
:1023E000C00101EB0012606864218000B2FBF0F3D1
:1023F000B3FBF1F36FF018067343B2FBF0F5B2FBD9
:10240000F0F605EB8305322303EB0515B5FBF1F57B
:10241000B6FBF1F605F0F00505EB0615B2FBF0F69C
:10242000B2FBF0F0B0FBF1F06FF01802504306EB96
:10243000800003EB0010B0FBF1F0216800F00F000A
:102440002844886070BD0000003801402DE9F0414B
:10245000984617460E460446069D1DE0681C1BD094
:102460002DB1FEF7B9FBA0EB0800A84214D92068F3
:10247000C16821F4D071C1602068416921F0010177
:102480004161202084F83D0084F83E00002084F85B
:102490003C000320BDE8F0812068006836EA0000B7
:1024A00004D00020B842D9D00020F3E70120F9E79A
:1024B0000148FFF733BA000004030020FEE749009B
:1024C00050EAC12018BF04204A0D18BF40F0010097
:1024D00040F2FF72B2EB515F08BF40F002000128EA
:1024E00008BF052070470907090E002804DB00F12A
:1024F000E02080F80014704700F00F0000F1E020A9
:1025000080F8141D70472DE9F0414F1E00EBC70104
:102510000446D1E9000115461E4637F006020DD0EB
:102520002A463346FDF752FF7F1E04EBC703D3E96B
:102530000023FDF7A4FE37F00602F1D1022F25D0CB
:10254000042F13D0062F18BFBDE8F0812A4633466A
:10255000FDF73CFFD4E90A23FDF791FE2A463346F6
:10256000FDF734FFD4E90823FDF789FE2A463346F8
:10257000FDF72CFFD4E90623FDF781FE2A463346FA
:10258000FDF724FFD4E90423FDF779FE2A463346FC
:10259000FDF71CFFD4E90223FDF771FE2A463346FE
:1025A000FDF714FFD4E90023BDE8F041FDF767BE55
:1025B0000022134610460149FDF77ABF0000F03FA4
:1025C000FDF75DBE0022134610461146FDF770BFB1
:1025D00040F2013200204FF0E041FDF7D8BF00008B
:1025E000024A00201107FDF7D2BF000001FDFFFFE6
:1025F00002E008C8121F08C1002AFAD170477047CC
:10260000002001E001C1121F002AFBD17047000029
:1026100001490860704700001C01002038B50446DD
:102620006D208DF800006B46012240F606012E2039
:1026300000F060FD41F6060114B140F2076201E0CE
:1026400041F207622E2000F039FD38BD38B504464E
:102650006B4602220021362000F0C8FB0E2C2CD243
:10266000DFE804F00F07152B2B2B2B1D392B2B44E8
:10267000494E00208DF800009DF8010000F0FE009A
:1026800019E09DF8000000F0FC00401C04E09DF8FB
:10269000000000F0FC00801C8DF800000DE09DF8AB
:1026A000000000F0B30040F048008DF800009DF8F5
:1026B000010040F080008DF801006B4601220021EE
:1026C000362000F017FD0122114636200DF10103DE
:1026D00000F010FD38BD9DF8000000F0B3008DF84B
:1026E00000009DF8010000F07F00E4E79DF8010084
:1026F00040F00200DFE79DF8010000F0FD00DAE79E
:102700009DF8000000F0CF0040F02000C4E708B5BD
:1027100003208DF8010001208DF800006B46022295
:102720000021362000F0E6FC4FF4004206212D2067
:1027300000F0C4FC012000F05FF90120FFF786FFE4
:1027400008BD08B5010A8DF801108DF800006B4630
:10275000022204212D2000F0CDFC03208DF8000082
:102760006B46012206212D2000F0C4FC00208DF8CC
:1027700000006B46012206212D2000F0BBFC0A213F
:102780002D2000F01CFB08BD70B5962000F0E9FB81
:102790004FF4FA5000F0FCFB36490F20364CC8705D
:1027A00001F10C03354D5A1E2946606800F02FFDDB
:1027B000304B29460E335A1EA06800F028FD2D4BE1
:1027C000294610335A1EE06800F021FD00222949F5
:1027D000132000F0AEFC0021132000F0BBFC02200F
:1027E00000F008FC002000F033FB224C244E663C35
:1027F00000210F2000F0E3FA3042A060F8D02089D9
:10280000400435D54FF4814200210F2000F063FCD5
:102810000021102000F0D3FAC1B217480022483836
:1028200000F001FB144C483CE0780F2820D1002038
:10283000A0701049E0700A2213392046FDF796FC7B
:10284000002815D104F13806A07A3070217BE07A97
:102850002A4600F049FE7060A17B607B2A4600F0AA
:1028600043FEB060217CE07B2A4600F03DFEF06034
:1028700070BD0000660000201C0200200000C8425D
:1028800000D027242DE9F047984616460F46FDF75D
:1028900095FE544C2146FDF7A8FC534DA8603846E0
:1028A000FDF78CFE2146FDF7A0FCE8603046FDF701
:1028B00085FE2146FDF799FC28614046FDF77EFE26
:1028C0002146FDF792FC6860284601F089FB05F17E
:1028D00074046D2020707220A4F19408607098F840
:1028E0000000A0704FF0010A84F809A01021DFF861
:1028F000FC903F4EA17204F1080730B1032817D0B5
:10290000012815D0022813D04AE0231DE21C4946B5
:10291000002000F07CFCA31D621D4946002000F051
:1029200076FC3B46E21D4946002000F070FC37E093
:10293000707810B101281DD032E0231DE21C4946F9
:10294000D8F8040000F063FCA31D621D4946D8F8C6
:10295000080000F05CFC3B46E21D4946D8F80C003C
:1029600000F055FC98F80000032819D1A07086F8F3
:1029700001A015E0231DE21C4946286D00F047FC2C
:10298000A31D621D4946686D00F041FC3B46E21DF7
:102990004946A86D00F03BFC002070700420A07038
:1029A00011490A230B2274311248FFF73BF91049F1
:1029B0000F20AC310022C8701F2000F0BAFB0021AC
:1029C0001F2000F0C7FB002000F014FB00210F20A7
:1029D00000F0F5F90006F9D5F068401CF060BDE89C
:1029E000F087000000007A442C0200200000C8425A
:1029F0000000002004030020FDF7E6BF002802D0FD
:102A00000620FEF758B97047054810B5006810F069
:102A1000010402D00620FEF73DF9204610BD00005B
:102A2000140401402DE9F84F0446057840797849AF
:102A30004FF00009C84631F8107061787548491E9A
:102A4000CEB20163042D75D0072D73D000218A46C4
:102A5000217801736F49E2798969002A6CD021F4E9
:102A600080018161217A4173217A4FF44033826978
:102A700003EA01410A43834682610021042000F0F9
:102A80002AFB3A4642F604012E2000F017FB30469E
:102A9000FFF7C4FD604F61490522785D00EB8000BF
:102AA000431807212B2000F025FB5D49012201EB93
:102AB0000A030B21282000F01DFB785D594951F8CD
:102AC00020200C21282000F006FBE079564901EB7C
:102AD0008000A17930F811200221272000F0EEFAC1
:102AE0005248042130F81620272000F0E7FAE07958
:102AF00038B3A07804282AD028208DF8000020229E
:102B00000621272000F0DAFA6B4601222621272031
:102B100000F0F0FA4648E17800EB061050F821206A
:102B20000821272000F0D7FAB4F80900A0B117E077
:102B300000E001E001218AE741F48001FF088161A2
:102B400090E764220621272000F0B8FAE2E710207F
:102B50008DF800000246D3E741F24100A4F80900D5
:102B6000B4F809202021272000F0A8FA314F0C21C9
:102B700023203A6800F0AFFA07EB46000421828870
:102B8000232000F09BFAA07958B1E0792A4901226C
:102B900043180021212000F0ADFA4FF003094FF057
:102BA000010805F00F00290740EA116061784FF431
:102BB000402202EA81410843920002EA0951084397
:102BC0004FF4003202EA4841084321794FF0F8629D
:102BD00002EA81510843617940EAC16200211F2065
:102BE00000F079FAA07861784FF4004308430204BA
:102BF000CBF81020E179082043EA41310A43002153
:102C0000CBF8102000F067FA0020BDE8F88F000034
:102C1000AC4100082001002030410008504100086C
:102C20006E410008384100087C41000888410008D6
:102C30008C410008704100087841000810B5044636
:102C40000421362000F0BBF814B140F4006201E02A
:102C500020F400620421BDE81040362000F03BBAA9
:102C600038B540208DF8000000210E2000F0A7F8B4
:102C70000446FFF7C9FE0546002211460E2000F06B
:102C80002AFA6B46012200210D2000F033FA0A4A8D
:102C900000210F2000F01FFA00F0F6F92246002173
:102CA0000E2000F018FA2846FFF7A8FE034900207E
:102CB00081F82C0038BD0000F8FF272420010020F7
:102CC0007CB50546324C04208DF80000002161756A
:102CD000216384F8251084F82C10A1836163A1631B
:102CE00000F080F82B492060884201D088177CBD15
:102CF0000020FFF7ABFC6B4601220021242000F0EE
:102D0000F9F91E20FFF71DFD86B2300AA0730420DA
:102D1000FFF717FD10F0FF0F0CD002208DF8040014
:102D200001AB012212212D2000F0E4F9A08B40F428
:102D30008050A0830620FFF704FD60600720FFF7A6
:102D400000FDA06016F01F00207501D11020207535
:102D5000C0B200F00DFAE80706D0FFF7D8FCA08B50
:102D600040F40060A08309E00521362000F014F84B
:102D700020F400720521362000F0A0F90120FFF7B1
:102D800065FC0021042000F01AF8A06100207CBD41
:102D9000200100203001CADE38B54FF6FF7489B239
:102DA00080B26B46022200F021F830B99DF8000095
:102DB0009DF8011000EB012084B2204638BD38B5E3
:102DC0004FF0FF3489B280B26B46042200F00EF857
:102DD00030B903216846425C491E02EB0424FAD54F
:102DE000204638BD00210846FFF7E9BF08B551B1BC
:102DF00040F040008DF80000C8B27F2907D88DF858
:102E0000010002200BE08DF80000012007E040F0F7
:102E100080008DF80100C8098DF802000320694682
:102E200001F05AF808BD30B414460A46214603465C
:102E300030BC1120FFF7DABF034605220021152020
:102E4000FFF7D4BF0346052200211720FFF7CEBFAE
:102E500038B5054600208DF8000000F015F94FF454
:102E6000807422460DB14FF4407200210D2000F015
:102E700025F99DB16B46012203210F20FFF7B6FF14
:102E80009DF80000000709D5FFF7EAFE2246002161
:102E90000D2000F013F94FF0FF3038BD002038BD91
:102EA000024601210A2000F016B938B50446C007D1
:102EB0006B464FF002024FF000014FF026002DD07C
:102EC000FFF794FF9DF80100012220F03C0040F044
:102ED00014008DF80100114626200DF1010300F0C9
:102EE00009F96B46012202213620FFF77FFF9DF88A
:102EF00000006B4640F084008DF8000001220221A2
:102F0000362000F0F7F810208DF8000001208DF831
:102F10000100022228216B4636200BE0FFF766FFF6
:102F20009DF801006B4620F014008DF8010002228C
:102F30000021262000F0DEF8A00711D50F208DF823
:102F400000006B4601222A21362000F0D3F8002031
:102F50008DF800006B4601222A21362000F0CAF8C5
:102F600038BD10B5044600211A20FFF728FFC4F32E
:102F700013026FF3130002430021BDE810401A2032
:102F800000F0A9B8024641F604012E2000F096B8E0
:102F900038B505466B46012203210420FFF726FFC2
:102FA000104C75B12A4600210C2000F087F89DF8DE
:102FB000000040F010008DF80000A06940F0805043
:102FC00008E09DF8000020F010008DF80000A069D6
:102FD00020F08050A0616B4601220321042000F004
:102FE00089F838BD2001002002460021182000F099
:102FF00065B80000F8B500240546224F26468DF836
:10300000004080070BD580208DF800006B46012220
:1030100000210D2000F06EF8012087F82C00E80751
:103020009DF8000021D040F006008DF800006B46AE
:10303000012200210D2000F05DF803210F20FFF791
:10304000ABFE10F4816F1AD040208DF800006B4663
:10305000012200210D2000F04DF80020FFF7EEFDC9
:1030600087F82C604FF0FF3409E040F002008DF843
:1030700000006B46012200210D2000F03BF82046A5
:10308000F8BD0000200100201CB56B460122032181
:103090000F20FFF7ABFE9DF8000000F0800100F06C
:1030A0004000B1EB400F08D001208DF8040002462B
:1030B00001AB03210D2000F01DF81CBD08B589B23D
:1030C0008DF80020120A8DF8012080B26B46022292
:1030D00000F010F808BD38B500236C46E254120A1F
:1030E0005B1C042BFADB89B280B22346042200F079
:1030F00001F838BD08B551B140F0C0008DF80000AE
:10310000C8B27F2909D88DF8010002200DE040F0F7
:1031100080008DF80000012007E040F080008DF86D
:103120000100C8098DF802000320694600F0CEFFB7
:1031300008BD10B514460244B2F5806F02D94FF0B5
:10314000FF3010BD0B46821E21460920FFF7D2FF3B
:10315000002010BD054A10B5126940EA81500243B3
:1031600000210820FFF7B7FF002010BD200100203C
:1031700038B504466B4601220E212B20FFF736FEA0
:103180009DF8000004F01F0120F01F0001438DF89E
:1031900000106B4601220E212B20FFF7ABFF38BD3C
:1031A000F0B50022134D052701EB8104134605EB12
:1031B0008404002814DD643555F8216044F82600A5
:1031C000761C45F82160052E02D1002045F821002B
:1031D00054F82200521CD2B20344052AF8D306E068
:1031E00054F82200521CD2B20344052AF8D393FBB0
:1031F000F7F0F0BD5C01002010B500214254120A26
:1032000042EA03621B0A491C0429F7DB10BD70B5B2
:103210001C461546FCF7B7FFFDF7D9F9010A2970DE
:10322000207070BD08B5FDF7E5FCFEF7B3FEFEF7B4
:1032300055FDFEF7A7FDFEF7C9FD002500F07EFE57
:1032400000F0A0FE0120FFF73BFD401CFAD000F08B
:1032500091FEA148FFF7E6FB0120FFF726FE48F2AA
:10326000B600FFF78FFE0020FFF7BEFE9620FFF7A7
:1032700078FE40F6E440FFF78BFEFEF779FE964EAF
:103280000024DFF85882383EDFF854B203E000BF74
:10329000BAF1000F05D0FEF7AFFEFFF775FA4FF059
:1032A000000AFEF76FFE002858D1DFF82C920125A6
:1032B00009F1A0095FF00007874989F8027089F8D1
:1032C00003500022A0310D20FFF733FF00210D2015
:1032D000FFF740FF0220FFF78DFE00210F20FFF7D0
:1032E0006EFD10EA080FB060F7D03089400427D592
:1032F0004FF4814200210F20FFF7EDFE0021102046
:10330000FFF75DFD00F07F011E2903DC00227448F9
:10331000FFF789FD8BF802709BF80310A94214D1C6
:1033200000916D498BF803700A22BA316C48FCF7A2
:103330001DFF50B96848012200993538425404E015
:10334000684A00210F20FFF7C6FE6D1CEDB2022D6A
:10335000B2D301256D1CEDB2022DFBD3F4BBFEF7F9
:1033600011FE00287DD05C4F4FF00009353F01254C
:1033700087F80090785D012874D19620FFF7F1FD61
:1033800040F6E440FFF704FE53480022AD3001460A
:1033900080F80290C5700D20FFF7CBFE00210D20B4
:1033A000FFF7D8FE0220FFF725FE00210F20FFF7D0
:1033B00006FD10EA080FB060F7D0308940045ED5F2
:1033C0004FF4814200210F20FFF785FE00211020DD
:1033D000FFF7F5FC00F07F011E2900E018E003DC98
:1033E00000223F48FFF71FFD8BF802909BF8032057
:1033F0004946AA424AD18BF8031037490A22C731FD
:103400003748FCF7B3FE68BB641C14F0FF045BD0C4
:1034100044F27400FFF7BCFD0020FFF719FD47469A
:1034200000210F20FFF7CBFC3842B060F8D0308984
:1034300040043DD54FF4804200210F20FFF74BFEA2
:1034400000211020FFF7BBFC40B2B0F5806F04DC18
:1034500081B200222248FFF7E6FC00278BF80270B9
:1034600001E031E012E01C499BF803908BF80370F7
:103470000A2293311A48FCF779FE68B124E007F874
:103480000590184A00210F20FFF725FE6D1CEDB2B4
:10349000022DFFF46FAF17E00F48353810F8091010
:1034A000012911D100F8097074B1641EE4B20BE077
:1034B0002CB10949641E00203539E4B24855094A47
:1034C00000210F20FFF707FEFEF75CFD00287FF4C8
:1034D000DFAE0024DFE600003800002000D0272403
:1034E000D40100200090272410B541EA00201446A2
:1034F00000B2FDF763F82146BDE81040FCF775BE49
:103500002DE9F04D1D460C4698B0174621F00041BC
:1035100023F00043002814BF4FF0010C4FF0000CC3
:103520000CEB440CFE4A0CEB02064FEA620C6645BB
:103530002BD33E0018BF012606EB45061644F94A78
:10354000964222D3F84A53EA070C02D0944205D19E
:1035500048B918B000201146BDE8F08D002808BF1A
:103560004FF0000C01D04FF0010C0CEB440212F5AF
:10357000001F0AD8002F14BF4FF0010C4FF0000CB1
:103580000CEB450212F5001F07D918B03A462B463E
:103590002146BDE8F04DFFF713B80022DFF88CA3F9
:1035A000002CB8BF534526DADFF884C36345A8BFB3
:1035B000022220DADFF870C39C451CDCDFF874C3FC
:1035C0000CEB235CBCF1140F08DDCCF1340627FAB8
:1035D00006FC0CFA06F6BE420DD108E05FB9CCF14C
:1035E000140623FA06FC0CFA06F69E4203D10CF0F0
:1035F0000102C2F1020251EA000C19D1002D17DAC2
:10360000002C18BF022A01D0012A07D00220FEF7A1
:10361000FFFF18B0BDE8F04DFEF7CABF0220FEF76D
:10362000F7FFFEF7C5FF18B081F00041BDE8F08D4F
:10363000B7F1000C6CD1534525D104F1804212F54D
:10364000801201BF00280020B74918B008BFBDE8AC
:10365000F08DB548884207DC002DA1BF60462946A1
:1036600018B0BDE8F08D07E0281E05DA80F00041B3
:1036700018B06046BDE8F08DAF497944D1E900014A
:1036800018B0BDE8F08DDFF8A0C2634525D1002D4C
:103690001FDA19B1514512D1D8B909E0002840F01C
:1036A000EC82A24A214618B062F31E01BDE8F08DFB
:1036B0000020214618B060F31E01BDE8F08D08DA45
:1036C00018B02346BDE8F04D024600206146FCF7E5
:1036D000EFBE18B02146BDE8F08D514518DAB5F1BE
:1036E000804F0DD0A5F1005CBCF1FF5C10D1B4F1AE
:1036F000000C0DDB18B06146BDE8F04D00F04ABC8F
:10370000234618B00246BDE8F04D1946FCF75EBEF0
:10371000060024F0004C3BD1D9B1514533D1002CE7
:1037200006DD002DA1BF0020514618B0BDE8F08D88
:10373000002C01DD002D1BDB002C13DA002D11DB2A
:10374000012A4FF0000014BF78497C4918B0BDE849
:10375000F08D022A18BF002C0AD0012A08D1002CB3
:1037600006DA0AE0002CB8BF002D11DA012A04D0D5
:10377000002018B00146BDE8F08D18B000204FF0D1
:103780000041BDE8F08DA1F14050B0F17F601AD04A
:10379000012000EBE47050EA020421D0624C521E7A
:1037A0004FF0000B104304BF4FF0000B644C654812
:1037B00083427CDD644A654893421FDD884217DB03
:1037C000002D25DB37E0002C00DA4AB1022A0CBFBD
:1037D00001204FF0FF3018B0BDE8F04DFDF745B8BF
:1037E0000120FEF715FF18B0BDE8F04DFEF7EABE68
:1037F0004D4A8A4202DC002D0ADC1CE0814202DADA
:10380000002D18DA04E0484B994220DD002D12DD2E
:103810000220FEF7FDFEFEF7DBFE05460E46002207
:10382000534658462146FCF7D1FD18B066F31E01F9
:103830002846BDE8F08D0220FEF7EAFEFEF7D0FE36
:103840000A46214618B062F31E01BDE8F08D002241
:1038500030466146FCF7B4FD80460E466FF001022B
:10386000FCF795FE4FF05532394BFCF7ACFD424664
:103870003346FCF7ABFD0022364BFCF7A4FD824635
:1038800042463346049110461946FCF79FFD5246C6
:10389000049BFCF79BFD8A4600904FF0C0422E4BE4
:1038A00040463146FCF792FD2C4A2B4B00E027E0C6
:1038B000CDE9060151460098FCF788FD824601914A
:1038C000274A284B40463146FCF780FD5246019B73
:1038D000FCF776FD82460B4602460591DDE90601BE
:1038E000FCF7CDFCDDE90623002688463046FCF7D0
:1038F00067FD5246059BFCF766FD024600F07EB967
:103900000020B1F5801F07DA352230466146FCF70A
:103910003EFE06466FF0340000EB215024E000002C
:10392000FFFF1F00FFFF0F000000F03F0000F07FCF
:103930000000404301FCFFFF1A0C00000000F0FFF4
:103940000000F0BF0000E0410000F043FFFFEF3F48
:103950005555D53F0000E03F4715F73FFE822B65E8
:1039600044DF5DF80BAE543EA0F2FF300190C1F38E
:10397000130040F07F6141F040510291FE498842BE
:10398000D8BF002004DDFD498142C8BF012001DD10
:103990000D9008E000200D900198401C01900298C5
:1039A000A0F5801002900299F54878440B910D998A
:1039B00000EBC100D0E900230F9330460A920B9927
:1039C000FCF7FEFCCDE90601DDE90A2130460F9B3C
:1039D000FCF755FC02460B460020EA49FCF768FD5F
:1039E000059102460B460090DDE90601FCF7EEFC6E
:1039F0001490E5488A464FF0000878440299006820
:103A000012904FF0005040EA61010D980F9B01EBBE
:103A1000804000F5002109910A9A1298FCF7D0FC29
:103A200032460B9BFCF7CFFC42465346FCF7CEFCDC
:103A30000646029140465146099B129AFCF7C6FC85
:103A4000DDE90623FCF7BFFC3246029BFCF7B8FC1D
:103A5000059B009AFCF7BAFC0091149A0490534617
:103A600010461946FCF7B2FC06460246C7480B460C
:103A7000029106217844FEF746FDCDE90510029B30
:103A8000324610461946FCF7A1FCDDE90532FCF789
:103A90009DFC05910646534640461946149AFCF78C
:103AA000EEFB009B049AFCF791FC3246059BFCF769
:103AB000E6FBCDE905104246534610461946FCF791
:103AC00085FC0022B24B02910A90FCF7D8FBDDE99D
:103AD0000532FCF7D4FB0E464246AD4B4046FCF7A0
:103AE0006FFC029B0A9AFCF76BFCDDE90532FCF7E0
:103AF0006AFC424602910A90334610465146FCF752
:103B000065FCCDE906015346149A02990A98FCF720
:103B10005DFC8A4602903346424600990498FCF7C1
:103B200055FC5346029AFCF7AAFB82460B46024616
:103B30000591DDE90601FCF7A2FBDDE90623002083
:103B400088460646FCF73CFC5246059BFCF73BFCCE
:103B5000824609914FF060428E4B30464146FCF759
:103B600035FC049006918C4A8A4B50460999FCF723
:103B70002DFC82460291894A894B30464146FCF72A
:103B800025FC5246029BFCF77AFB864B7B440D9A40
:103B900003EBC203D3E90023FCF771FB0E900791FE
:103BA0000198FCF762FE0591DDE9061382460E9A44
:103BB0000498FCF764FB7C4A7A440D9B02EBC30338
:103BC000D3E9002300930292FCF759FB5246059B70
:103BD000FCF755FB0026884652463046059BFCF70D
:103BE000EFFB009B029AFCF7EBFB069B049AFCF7A9
:103BF000E7FB079B0E9AFCF7E6FB024600200B460C
:103C0000029038462946FCF7E1FB824601912B469B
:103C100038461946029AFCF7D3FB32464346FCF776
:103C2000D5FB5246019BFCF72AFB07468A463246E3
:103C3000434629460298FCF7C9FB05460E463A461C
:103C40005346FCF71CFB594A8846914221DBA8EBFE
:103C5000020353EA000210D12A463346FCF7B0FBB8
:103C6000CDE90401524A534B38465146FCF707FB55
:103C7000DDE90423FCF70AFE21D20220FEF7C8FC8E
:103C8000FEF7A6FC0A46214618B062F31E01BDE805
:103C9000F08D494B28F000429A4210D3474A08EB76
:103CA000020353EA00027FF4C6AD2A463346FCF70E
:103CB00087FB3A465346FCF7E9FD7FF6BCAD002290
:103CC000019228F000403E493E4A01EB20518242D9
:103CD00023DA481C4FF4801121FA00F040443A4A9C
:103CE000C0F30A517A44394BA1F2FF31CB4020EAAC
:103CF0000303C0F3130040F48010C1F11401C84065
:103D000012680190B8F1000FBCBF404201902846F4
:103D10003146FCF755FB05460E462A4633463846E3
:103D20005146FCF7ACFA4FF000084246284B40469B
:103D30000591FCF74BFBCDE90601264A264B404690
:103D40000599FCF743FB009102902A463346404612
:103D50000599FCF735FB3A465346FCF734FB1F4AFE
:103D60001F4BFCF733FB009B029AFCF788FA0746CF
:103D7000884602460B4635E08E9803007AB60B0063
:103D8000620800000000F03F9A080000C807000029
:103D90000000084009C7EE3FFD033ADCF5015B1463
:103DA000E02F3EBEA0060000640600000000904028
:103DB000FE822B654715973C00CC904000346F3F46
:103DC00001FCFFFF0000E03FB0050000FFFF0F0017
:103DD000432EE63F396CA80C615C20BEEF39FAFE39
:103DE000422EE63FDDE90601FCF749FADDE906234C
:103DF00005460E46FCF7E4FA3A464346FCF7E3FA7A
:103E00000F462A463346009010461946FCF7DEFA64
:103E1000824602462E4888460B4605217844FEF726
:103E200072FB52464346FCF7D1FA2A463346FCF76A
:103E3000CAFA80468A463B4628463146009AFCF735
:103E4000C5FA3B46009AFCF71AFA06910090002248
:103E50004FF0804340465146FCF7B2FA0F460C90B3
:103E60004246534628463146FCF7B0FA3B460C9A88
:103E7000FCF71EFB069B009AFCF7A2FA2A46334683
:103E8000FCF79EFA0022134BFCF79DFA05460198B9
:103E90000E4601EB00510815002810DC284631467B
:103EA000019AFCF774FBFEF70AFB042808BFFEF733
:103EB00097FB28463146019AFCF769FB05460B46FD
:103EC00018B02A4658462146BDE8F04DFCF77EBAA8
:103ED000500400000000F03F2DE9F04799461446D9
:103EE0000F460646FEF790FD124D82460022102135
:103EF0002846FCF76BFE4FF6FF78434632463946BC
:103F00000D48FDF750FB4FF0FF3630B9A2B24346E3
:103F100049460948FDF79AFA10B13046BDE8F087E6
:103F2000012210212846FCF751FE5046FEF766FD9F
:103F30000020F3E700080140AC0200207FB5002418
:103F40000B4D0094019402942246102128460394BC
:103F5000FCF73CFE1020CDE900040220CDE9024030
:103F600069462846FCF742FD0220FCF72DFD7FBD87
:103F7000000C0140024808210068FDF74DBF000019
:103F8000AC020020024820210068FDF745BF000078
:103F9000AC0200202DE9F04106460F46FCF714FC68
:103FA000041E0D4618BF0120284320F00040C0F138
:103FB0007F6000F1E040C00F0ED0301C18BF012020
:103FC000384320F00040C0F17F6000F1E040C00FB6
:103FD00004BF0120FEF71CFB20462946BDE8F08106
:103FE0002DE9F04F04468668D4E90017D4E9035060
:103FF0008BB017F0FF4F0BD111F0FF4F08D110F02D
:10400000FF4F05D115F0FF4F02D116F0FF4F56D0EC
:1040100001213846FCF727F93146FCF7B4F8FCF7E4
:10402000EFFA82468B462846FCF7EAFA00224FF068
:104030008043FFF765FA804689463046FCF7E0FA90
:10404000054600224FF080430191FFF759FACDE970
:1040500007103846FCF7D4FA00224FF08043FFF7F0
:104060004FFADDE90732FCF70AF942464B46FCF706
:10407000A7F952465B46FCF71BFAFCF7D4FA114F3E
:10408000B861FCF7BDFA00224FF08043FFF738FA21
:1040900000220D4BFCF797F9FFF77CFF02460B4619
:1040A00028460199FCF792F9FCF7BDFA78610546BC
:1040B0003046B969FCF767F83861C4E914500BB0B1
:1040C000BDE8F08F000000200000F03F2DE9F04730
:1040D000994614460F460646FEF796FC124D824658
:1040E000002210212846FCF771FD4FF6FF78434669
:1040F000324639460D48FDF756FA4FF0FF3630B9D3
:10410000A2B2434649460948FDF74DFA10B1304680
:10411000BDE8F087012210212846FCF757FD5046E4
:10412000FEF76CFC0020F3E700080140AC02002021
:104130000000010203040005405C0000A05C0400D4
:10414000C06C0800805C0400E03F1E00E07D1E00A3
:10415000070400091E0805400826091040085608F3
:10416000054008261D040008BE1D040008BED8BC7A
:1041700007A9022570889B88401008000A001600D5
:10418000010006000100020087008D002D001A3199
:1041900052001A339A001A351D011A376B003B3151
:1041A000BE003B335E013B3596023B370000995918
:1041B0009959EB518F421E45142E0080EB51F52882
:1041C0003333E13A703DE13AC235852BC2353333A2
:1041D000C235C235AE47E13A5138A33051380000FC
:1041E00000000000000001020304060708090000A7
:1041F0000000010203040000010001014000000072
:10420000800300208007002000080020000000003C
:10421000000000000000F03F000000000000F83F38
:1042200000000000000000000000004003B8E23F72
:10423000000000000000000006D0CF43EBFD4C3E24
:10424000033333333333E33FFFAB6FDBB66DDB3F19
:104250004D268F515555D53F01411DA96074D13F61
:1042600065DBC9934A86CD3FEF4E454A287ECA3F5B
:104270003E5555555555C53F93BDBE166CC166BFDD
:104280002CDE25AF6A56113FF16BD2C541BDBBBED6
:10429000D0A4BE726937663E000000000000000036
:1042A000C04200080000002020010000F0250008A6
:1042B000E043000820010020080B00000026000851
:1042C00000000000000000000000000000000000EE
:1042D00000000000000000000000000000000000DE
:1042E00000000000000000000000000000000000CE
:1042F000000000000000000002020802090901009D
:1043000000210441880000DE57415645AA00000004
:1043100000000041880000DE57415645AE00000015
:1043200000000000000041880000DE57415645AF04
:1043300000000000000000000041880000DE57413E
:10434000564521000041880000DE564557411002C5
:104350000000000041880000DE5741564523000060
:104360000000000000000000000000004188000084
:10437000DE57415645FE000000000000000000002E
:10438000000000000000000000000041880000DE86
:1043900057415645E000000041880000DE57415675
:1043A00045E100000041880000DE57415645E2002B
:1043B000000041880000DE57415645E300000041FF
:1043C000880000DE57415645E40000000024F40058
:1043D00001000000100000000000000000000000CC
:04000005080000ED02
:00000001FF
