:020000040800F2
:10000000281A00209D0100087B1C0008111B000815
:10001000791C0008F90700081920000800000000FA
:1000200000000000000000000000000005010008C2
:10003000FB0700080000000049010008E51D00085A
:10004000B7010008B7010008B7010008B7010008B0
:10005000B7010008B7010008B7010008B7010008A0
:10006000B7010008B7010008B7010008B701000890
:10007000B7010008B7010008B7010008B701000880
:10008000B7010008B7010008B7010008B701000870
:10009000B7010008B7010008B7010008B701000860
:1000A000B7010008B7010008B7010008B701000850
:1000B000B7010008B7010008B7010008B701000840
:1000C000B7010008B7010008B70100087D1C00084F
:1000D000B70100080D200008B7010008B7010008AB
:1000E000B7010008B7010008B7010008DFF810D019
:1000F00000F070FB004800479B2D0008AFF3008024
:10010000281A0020224B19680868B0E8F00F80F325
:100110000988BFF36F8F4FF0000080F311884EF015
:100120000D0E70470000000006480068006880F36C
:10013000088862B661B6BFF34F8FBFF36F8F00DFE1
:1001400000BF00BF08ED00E0EFF30980BFF36F8F41
:100150000F4B1A6820E9F00F106008B54FF05000FF
:1001600080F31188BFF34F8FBFF36F8F03F0DAF97D
:100170004FF0000080F31188BDE808401968086856
:10018000B0E8F00F80F30988BFF36F8F704700BFAE
:1001900094000020EFF30580704700000648804778
:1001A00006480047FEE7FEE7FEE7FEE7FEE7FEE75C
:1001B000FEE7FEE7FEE7FEE75D1E0008ED00000833
:1001C000202A04DB203A21FA02F00021704721FAAC
:1001D00002F3D040C2F12002914008431946704713
:1001E00040EA01039B0703D009E008C9121F08C0B9
:1001F000042AFAD203E011F8013B00F8013B521E39
:10020000F9D27047D2B201E000F8012B491EFBD2AF
:1002100070470022F6E710B513460A460446194611
:10022000FFF7F0FF204610BD30B50446002003461E
:1002300000E05B1C934203D2E05CCD5C401BF8D035
:1002400030BD2DE9FE4F804681EA0300C00F0C4609
:10025000009021F0004123F00045B8EB0200A941D5
:1002600005D24046214690461C460B46024623F0E6
:100270000040104347D0270DC7F30A00C3F30A51CB
:100280000290401A019040286BDAC3F3130040F447
:10029000801B0098924620B10023D2EB030A63EB47
:1002A0000B0B01985946C0F14002504600F0DDF9B1
:1002B00006460D4650465946019A00F0E5F910EB06
:1002C00008006141002487EA115284EAE7731A4367
:1002D00040D0009A62B3019A012A4FEA075215DC16
:1002E000001B61EB02014FF0004202EA0752CDE928
:1002F0000042001C41F5801132462B4600F01CFAEA
:1003000003B0BDE8F08F40462146F9E7001B61EBE2
:100310000201001C41F5801300185B412018A2F572
:10032000001747EB030140EAD570B6196D4111E0A3
:100330006D084FEA360645EAC0754FEA0752001BC2
:1003400061EB0201001C41F5801149084FEA3000C1
:100350000019514132462B4603B0BDE8F04F00F082
:10036000DCB90098012240000023D0EB020263EBCD
:10037000E073009821464FEAE074B8EB000061EBAF
:100380000401E9E783F000435BE781F0004158E7AF
:100390002DE9FE4F81EA030404F0004421F00041FE
:1003A00000944FF0000B23F0004350EA01045ED0AC
:1003B00052EA03045BD0C3F30A54C1F30A552C4438
:1003C000A4F2F3340194A0FB0254C1F3130141F4ED
:1003D0008011C3F3130343F4801301FB024400FBB9
:1003E000034E840A970A44EA815447EA8357A4FBE0
:1003F000076802958D0A05FB07854FEA932C04FBDD
:100400000C542705029D4FEA065847EA1637B5EB0C
:1004100008056EEB070C870E920E47EA811742EA39
:100420008312A7FB0201B6EB0B0164EB00042B0D5A
:1004300043EA0C335E1844EB1C50DA465146E7FBA6
:100440000201C5F313044FEA0B3343EA14534FEA96
:100450000432019C43EA0603A4F10C040294009CBC
:10046000CDE900B400F068F903B0BDE8F08F0020DA
:100470000146F9E72DE9F04D81EA030404F0004B51
:1004800021F0004514464FF0000A23F0004150EAE5
:10049000050220D054EA01021DD0C5F30A570246D6
:1004A000C5F31303C1F31300C1F30A5640F48015DA
:1004B00043F48013A7EB0608101BD64608F2FD385C
:1004C00073EB050002D308F1010801E092185B41CB
:1004D000B8F1000F03DA00200146BDE8F08D0020DE
:1004E0004FF48011064684460EE0171B73EB050798
:1004F00005D3121B63EB050306434CEA010C4908C4
:100500004FEA300092185B4150EA0107EDD152EA00
:10051000030012D082EA040083EA0501084305D0F3
:10052000101BAB4106D20122002306E000224FF04F
:10053000004302E06FF0010253101AEB06004CEB8F
:10054000085110EB0A0041EB0B01BDE8F04D00F043
:10055000E4B870B521F0004303430CD0C1F30A5551
:100560000024D5EB040564EB0403D617AD1AB341A0
:1005700002DB0020014670BD201841EB025170BD26
:10058000C10F80EAE0700844CA079623002100F0FA
:1005900096B80EB5C10F80EAE0700844CA07002182
:1005A00040F233438DE80E000A460B4600F0C4F8D3
:1005B00003B000BD0EB540F2334102910021CDE9F8
:1005C00000110A460B4600F0B7F803B000BD70B545
:1005D000C1F30A5201F000450024C1F3130140F2B7
:1005E000FF3341F480119A4201DA002070BD40F2DD
:1005F00033439A42A2F2334203DC5242FFF7E0FD5A
:1006000000E090402C43F1D0404270BD00F0004229
:1006100030F000400AD0C10D01F56071C0F3160042
:1006200042EA0151C20840071143704700200146C9
:10063000704701F0004330B421F0004150EA01025C
:1006400006D00A0DA2F56072C1F31301002A02DC84
:1006500030BC00207047440F44EAC104C100E018D8
:1006600030BC00EBC25000F021B8202A04DB203A55
:1006700000FA02F1002070479140C2F1200320FAF5
:1006800003F3194390407047202A06DBCB17203A2A
:1006900041FA02F043EAE07306E041FA02F3D04087
:1006A000C2F1200291400843194670470029A8BFB3
:1006B0007047401C490008BF20F00100704710B48B
:1006C000B0FA80FC00FA0CF050EA010404BF10BC40
:1006D000704749B1CCF1200421FA04F411FA0CF16D
:1006E00018BF012121430843A3EB0C01CB1D4FEAA6
:1006F00000614FEA102042BF002010BC704700EBA1
:10070000C35010440029A4BF10BC7047401C4900CE
:1007100008BF20F0010010BC704710B5141E73F123
:10072000000408DA401C41F1000192185B411A43B1
:1007300001D120F0010010BD2DE9F04D92469B46FD
:1007400011B1B1FA81F202E0B0FA80F220329046A3
:10075000FFF78BFF04460F4640EA0A0041EA0B010F
:1007600053465A46084313D0114653EA010019D0A4
:10077000C8F140025046FFF723FD05460E4650469D
:1007800059464246FFF771FF084305D0012004E0B7
:1007900020463946BDE8F08D0020054346EAE07664
:1007A0002C4337430A986305E40AA0EB08000022B3
:1007B000FD0A44EA47540A3002D500200146E9E721
:1007C000010510196941DDE9084500196941BDE8D5
:1007D000F04DA2E7064C074D06E0E06840F001034B
:1007E00094E8070098471034AC42F6D3FFF782FC38
:1007F000483C0008683C0008FEE7704772B6FEE718
:1008000010B590F821100022022905D0042181633F
:1008100080F82020012010BD01680B6823F00E0332
:100820000B6001680B6823F001030B6090F8403007
:10083000C46B012101FA03F3636080F8211080F892
:100840002020104610BD000010B590F821100024A3
:10085000022903D00421816301243DE001680A6874
:1008600022F00E020A6001680A6822F001020A60A2
:100870001A4A0168914201D1012121E0174A14323C
:10088000914201D110211BE0144A2832914201D13A
:10089000891515E0114A3C32914201D189140FE0CB
:1008A0000E4A5032914202D14FF4803108E00B4A97
:1008B0006432914202D14FF4801101E04FF0807117
:1008C000064A083A5160012180F82110002180F881
:1008D0002010416B01B18847204610BD080002403E
:1008E0002DE9F84FDFF8B891002409F1040A0AF164
:1008F000040B23460F270BF1040EC9E00125A54088
:100900002A40AA427DD1674ED1F804C0ACEB06085C
:10091000B44532D014DCBCF1030F3AD009DCBCF191
:10092000000F2AD0BCF1010F1CD0BCF1020F31D155
:100930001DE0BCF1110F17D0BCF1120F2AD119E044
:10094000B8F5881F19D006DCB8F5803F15D0B8F58A
:10095000801F1FD111E0B8F5001F0ED0B8F5041F9D
:1009600018D10AE0CB6815E0CB681B1D12E0CB68FC
:1009700008330FE0CB680C330CE08B682BB1012BF4
:100980004FF0080303D0456104E0042302E0056151
:1009900000E00023FF2A01D8064601E000F104062A
:1009A0004FEA840501D9A5F12005D6F8008007FAA1
:1009B00005FC28EA0C0803FA05F548EA0508C6F81C
:1009C00000804D68ED0062D5374DAE6946F00106F6
:1009D000AE61AD6924F0030605F001050095334DC5
:1009E00006EB050CDCF80850A607360F07FA06F8E8
:1009F00025EA0805DFF8B880404503D14FF000082C
:100A000017E044E0DFF8AC80404502D14FF0010828
:100A10000FE0DFF8A480404502D14FF0020808E063
:100A2000DFF89880404502D14FF0030801E04FF015
:100A3000040808FA06F848EA0508CCF808804D686A
:100A4000D9F80060ED034D4601D5164300E096430A
:100A50002E604D68DAF80060AD03554601D51643A7
:100A600000E096432E604D68DBF80060ED025D46C5
:100A700001D5164300E096432E604D68DEF8006015
:100A8000AD02754601D5164300E096432E60641C06
:100A90000D682A46E5407FF431AFBDE8F88F0000CD
:100AA000000401400000111000100240000001404D
:100AB00000080140000C01400010014000140140FA
:100AC0000AB1016170470904FBE700000148806832
:100AD00070470000880000200248816802781144B5
:100AE0008160704788000020074810B5016841F018
:100AF00010010160032000F08BF80F2000F006F8D1
:100B000000F024F8002010BD0020024070B50D4D0B
:100B100004464FF47A712878B1FBF0F00A4909686D
:100B2000B1FBF0F000F063FE48B9102C07D20022B0
:100B30002146501E00F04CF800206C6070BD012072
:100B400070BD000088000020080000200F4808B594
:100B5000816941F001018161816901F00101009128
:100B6000C16941F08051C161C069002200F080502C
:100B700000900F21901E00F02BF80548416821F0ED
:100B8000E06141F00071416008BD000000100240CA
:100B90000000014000280DDB00F01F020121914000
:100BA0004009800000F1E020C0F88011BFF34F8FB2
:100BB000BFF36F8F7047002809DB00F01F0201218F
:100BC00091404009800000F1E020C0F8001170471A
:100BD000F0B40E4B1B680C46C3F30223C3F10705A8
:100BE000042D00D90425191D072901D2002300E096
:100BF000DB1E012606FA05F1491E214099409E4060
:100C0000761E16403143F0BC01F007BA0CED00E04F
:100C1000064900F0070208684FF6FF03184040EA53
:100C20000220034A10430860704700000CED00E00A
:100C30000000FA052DE9F0470F46050061D0434E4C
:100C4000306800F00700B84209D2306820F0070091
:100C500038433060306800F00700B84251D128684E
:100C60003B4C810712D5400703D5606840F4E06033
:100C700060602878000703D5606840F460506060C9
:100C80006068A96820F0F000084360602878C00719
:100C900028D06868012810D02168022810D0890760
:100CA00000292EDA616821F0030101436160FFF73A
:100CB0000DFF804641F288390DE021688903EFE796
:100CC0008901EDE7FFF702FFA0EB0801494502D9D2
:100CD0000320BDE8F0876068696800F00C00B0EBA5
:100CE000810FEFD1306800F00700B8420BD93068AF
:100CF00020F0070038433060306800F00700B84249
:100D000001D00120E5E72878400705D56068E9684B
:100D100020F4E060084360602878000706D560682A
:100D2000296920F4605040EAC100606000F038F8A2
:100D30006168084AC1F30311515CC8400649086064
:100D400006480068FFF7E2FE0020C2E700200240EC
:100D50000010024048390008080000208C000020E4
:100D60000448054900684968044AC1F30221515CFE
:100D7000C8407047080000200010024058390008A1
:100D80000448054900684968044AC1F3C221515C1E
:100D9000C840704708000020001002405839000881
:100DA00013A185B00FC98DE80F0015A0154A006882
:100DB0000490516801F00C00042804D0082804D0E5
:100DC000114805B070471148FBE7C1F38343C903DD
:100DD0001DF8030009D5516804AAC1F34041515CD4
:100DE0000A4A5043B0FBF1F0EBE709494843E8E712
:100DF00002030405060708090A0B0C0D0E0F10105C
:100E0000010200000010024000127A000024F400E9
:100E100000093D002DE9F84F040070D02078C04D46
:100E2000C00749D06868C0F38100012807D068680E
:100E3000C0F38100022809D16868C00306D528687C
:100E4000800339D560680028E7D035E06068B0F5E8
:100E5000803F0BD010B1B0F5A02F11D0286820F43E
:100E600080302860286820F4802002E0286840F460
:100E700080302860606890B1FFF728FE06460AE0DF
:100E8000286840F480202860F0E700BFFFF71EFECE
:100E9000801B642873D828688003F7D50CE0FFF71F
:100EA00015FE064605E000BFFFF710FE801B642814
:100EB000F0D828688003F7D420789A4E80074FF046
:100EC00001094FF0000839D5686810F00C0F07D001
:100ED0006868C0F38100022809D16868C00306D49D
:100EE0002868800714D52069012808D110E02069FE
:100EF000B0B1C6F80090FFF7E9FD074605E00AE14A
:100F0000FFF7E4FDC01B0228C4D828688007F7D586
:100F10002868616920F0F80040EAC10028600DE00F
:100F2000C6F80080FFF7D2FD074604E0FFF7CEFDCC
:100F3000C01B022823D828688007F7D42078000730
:100F40002CD57948A169D9B1C0F80090FFF7BEFD52
:100F5000074604E0FFF7BAFDC01B02280FD8686AF5
:100F60008007F7D571484FF4FA510068B0FBF1F0F3
:100F7000009000BF0098411E0091FAD20EE080E080
:100F8000C0F80080FFF7A2FD074604E0FFF79EFDD2
:100F9000C01B022875D8686A8007F7D420784007FC
:100FA00060D5E8690027C00008D4E86940F08050A7
:100FB000E861E869012700F0805000905C48016812
:100FC000C90513D40168834641F480710160FFF7BD
:100FD0007DFD824606E000BFFFF778FDA0EB0A002A
:100FE00064284ED8DBF80000C005F5D5E06801287C
:100FF0000AD008B1052813D0286A20F00100286221
:10100000286A20F0040002E0286A40F0010028620B
:10101000E06841F2883B98B1FFF758FD82460BE04B
:10102000286A40F004002862EEE700BFFFF74EFD9B
:10103000A0EB0A0159455AD8286A8007F6D50CE07A
:10104000FFF744FD824605E0FFF740FDA0EB0A01F3
:1010500059454CD8286A8007F6D41FB1E86920F0BA
:101060008050E861E06988B36968C1F381010229B1
:1010700044D00228C6F8608004D0FFF727FD04465C
:1010800038E034E0FFF722FD074604E0FFF71EFDDD
:10109000C01B02282BD828688001F7D4206AB0F53D
:1010A000803F05D16868A16820F40030084368607B
:1010B000D4E908010843696821F4741108436860A1
:1010C000C6F86090FFF702FD044606E025E000BF89
:1010D000FFF7FCFC001B022809D828688001F7D51F
:1010E0001BE000BFFFF7F2FC001B022802D903201F
:1010F000BDE8F88F28688001F4D40EE00128F7D00D
:101100006868226A00F48031914204D1616A00F477
:101110007010884201D00120EAE70020E8E70000D3
:1011200000100240000042428004424208000020B9
:10113000007000407047000038B5044600684268FF
:101140008168C9434B0606D5CB0704D1D3435B0660
:1011500001D4216C05E08B0708D4D3431B0605D4CA
:10116000616C01B02046BDE8304008478B0601D5D0
:101170004B0646D4D3439B0643D44B060AD494F87B
:101180005130032B3ED0636D43F004036365C368A5
:1011900083680093890609D4616D41F0010161659E
:1011A00081680091016821F040010160606D0028B4
:1011B00027D02068416821F0E0014160012084F8D7
:1011C0005100900722D02068416821F0030141605E
:1011D000104DE06C40B14563E06CFFF735FB18B192
:1011E000606D40F040006065A06C002809D0456348
:1011F000A06CFFF729FB002803D0606D40F0400091
:10120000606538BDC1688068009038BD2046FFF732
:1012100091FF38BD971C000870B5040009D0606AC2
:10122000002540B125616561A56294F8510040B187
:101230000CE0012070BD6068B0F5827FF4D0E561FC
:10124000F2E784F85050204600F040F8022084F87D
:1012500051002068016821F040010160A0882189C7
:1012600000F4827001F404410843A18901F4006193
:101270000843217C01F002010843217D01F00101B6
:101280000843218B01F400710843217F01F03801EC
:10129000084394F8201001F080010843218D01F4E7
:1012A0000051084321680860A069042101EA104048
:1012B000216848602068C16921F40061C1616565E9
:1012C000012084F85100002070BD000030B585B0C9
:1012D0000024009401940294039400681849884201
:1012E0002BD11848816941F480518161816901F4F1
:1012F00080510491816941F0040181618069124D3E
:1013000000F004000490A02000900220019003202F
:10131000039069462846FFF7E3FA4020CDE9000430
:10132000694628460294FFF7DBFA002205212320B4
:10133000FFF74EFC2320FFF73EFC05B030BD000058
:101340000030014000100240000801402DE9F84F34
:10135000044640680025984616460F464FF0040B99
:10136000B0F5827F01D1A06888B194F850000128BF
:1013700018D0012084F85000FFF7A8FB814694F8AC
:1013800051004FF0000A01280ED0022582E084F8B7
:1013900051B013460A462046CDF8008000F036F9D9
:1013A000BDE8F88F0220FBE7002F72D0002E70D02E
:1013B00084F851B0C4F854A0A763A687E687C4F8A0
:1013C00030A0A4F834A0A4F836A0C4F840A0C4F813
:1013D00044A0A068B0F5004F09D12068016821F051
:1013E000400101602068016821F4804101602068AB
:1013F0000168490603D4016841F040010160E068DA
:10140000D8B139E020688168C90709D0007BA16B99
:101410000870A06B401CA063E08F401EE0870CE0CA
:10142000FFF754FBA0EB0901414503D3B8F1FF3F9F
:1014300003D036E0B8F1000F33D0E08F0028E1D1BF
:101440001DE020688168C90709D0C068A16B0880C9
:10145000A06B801CA063E08F401EE0870CE0FFF7CC
:1014600035FBA0EB0901414503D3B8F1FF3F03D0A1
:1014700017E0B8F1000F14D0E08F0028E1D14A4600
:101480004146204600F00FFC08B120206065606DE9
:1014900000B10125012084F8510084F850A02846AD
:1014A0007EE70325F6E72DE9F84F044690F8500053
:1014B00000271D461646894601280DD04FF0010B26
:1014C00084F850B0FFF702FB804694F85100BA460A
:1014D000012804D0022793E00220BDE8F88FB9F17B
:1014E000000F73D0002E71D0032084F85100C4F88F
:1014F00054A0C4F83090A686E686C4F838A0A4F8B4
:101500003CA0A4F83EA0C4F844A0C4F840A0A06841
:10151000B0F5004F09D12068016821F04001016059
:101520002068016841F48041016020680168490633
:1015300003D4016841F040010160E068B0F5006F3C
:10154000606803D030B3012E24D041E008B1012EF1
:101550001CD1206B21680088C86006E02068816883
:10156000890709D5216B0988C160206B801C206325
:10157000E08E401EE08609E0FFF7A8FAA0EB080025
:10158000A84202D3681C01D031E07DB3E08E002870
:10159000E4D120E0206B21680078087306E0206821
:1015A0008168890709D5216B09780173206B401C7C
:1015B0002063E08E401EE0860AE0FFF787FAA0EB8A
:1015C0000800A84203D3681C02D010E017E06DB1F8
:1015D000E08E0028E3D142462946204600F091FBE8
:1015E00008B120206065A06818B106E0FFE7032776
:1015F00006E02068C16880680090606D00B1012736
:1016000084F851B084F850A0384666E72DE9F84FC9
:10161000044690F8500000270A9E1D4692468B46CD
:101620004FF0010901280ED0012084F85000FFF787
:101630004DFA804694F85100616801280CD0B1F54C
:10164000827F07D102E00220BDE8F88FA16809B9C6
:10165000042801D00227C2E0BBF1000F27D0BAF165
:10166000000F24D01DB394F85100042802D00520A7
:1016700084F8510000206065C4F838A0E587A5878C
:10168000C4F830B0E586A5862064606420680168EF
:10169000490603D4016841F040010160E068B0F5FB
:1016A000006F606805D0E8B3012D46D07FE00127C8
:1016B00095E008B1012D39D1206B21680088C86000
:1016C000206B801C2063E08E401EE0862EE02068A8
:1016D000816889070FD5E18E69B1B9F1010F0AD18F
:1016E000216B0988C160206B801C2063E08E401E46
:1016F000E0864FF0000920688168C9070CD0E18FAF
:1017000051B1C068A16B0880A06B801CA063E08F02
:10171000401EE0874FF00109FFF7D8F9A0EB080061
:10172000B04200E009E001D3701C50D1E08E0028E7
:10173000CDD1E08F0028CAD13FE0206B216800782E
:101740000873206B401C2063E08E401EE0862EE074
:101750002068816889070FD5E18E69B1B9F1010F61
:101760000AD1216B09780173206B401C2063E08E45
:10177000401EE0864FF0000920688168C9070CD040
:10178000E18F51B1C068A16B0870A06B401CA063D1
:10179000E08F401EE0874FF00109FFF797F9A0EBBB
:1017A0000800B04202D3701C01D010E07EB1E08E80
:1017B0000028CDD1E08F0028CAD1424631462046CC
:1017C00000F09FFA28B101272020606507E0032779
:1017D00005E0A06818B92068C16880680090012001
:1017E00084F85100002084F8500038462CE710B5EA
:1017F000401EB0F1807F01D3012010BD4FF0E024E6
:1018000060610F21601700F008FC0020A061072034
:101810002061002010BD704770470000F8B50268D5
:1018200004461068D168536910F00F0F4FF000059F
:1018300053D003F0010601F4907737435FD0C2071D
:1018400005D0CA0503D5226C42F00102226442078A
:1018500005D5DA0703D0226C42F002022264820727
:1018600005D5DA0703D0226C42F004022264020795
:1018700007D501F02002324303D0226C42F0080267
:101880002264226C002A34D0800604D5880602D552
:10189000204600F004FB20684069216CC0F38010F2
:1018A000090700D430B3204600F0E1FA206841690E
:1018B00049061BD5416921F040014161A06BA8B1E7
:1018C00058494163A06BFEF7BFFF002811D0A06B01
:1018D000416B01B0BDE8F040084783060FD58B0689
:1018E0000DD52046BDE8F84000F0D9BA2046FFF7F4
:1018F00093FFF8BD2046FFF78FFF2564F8BD266BE8
:101900002023012E52D1C60650D5CE064ED51068E2
:1019100050680090506940062AD5A16B086840685D
:101920000004000CEAD0A68D8642E7D9E0858869DC
:10193000202818D0D06820F48070D06020684169D9
:1019400021F0010141612068416921F040014161BC
:1019500084F83E3025632068C16821F01001C16021
:10196000A06BFEF74DFFA08DE18D401A81B219E00A
:10197000A08DE18D401A81B2E08D0028BED00029F3
:10198000BCD0D06820F49070D0602068426922F00A
:101990000102426184F83E3025632068C26822F06B
:1019A0001002C2602046FFF736FFF8BD05062BD5B2
:1019B0000D0629D594F83D002128F6D1A068B0F590
:1019C000805F01D12069B0B1206A411C2162216889
:1019D00000784860E08C401E0004000CE084E4D1F4
:1019E0002068C16821F08001C1602068C16841F0B1
:1019F0004001C160F8BD206A0088C0F30800506053
:101A0000206A801C2062E5E74006F3D54806F1D540
:101A1000D168204621F04001D16084F83D3000F0CB
:101A200076F8F8BD5F1E000870B5040004D094F885
:101A30003D00002510B106E0012070BD84F83C5047
:101A4000204600F023F8242084F83D002068C16877
:101A500021F40051C160204600F07CFA2068016941
:101A600021F4904101612068416921F02A0141611E
:101A70002068C16841F40051C1602564202084F8C9
:101A80003D0084F83E00002070BD000030B585B0F8
:101A90000024009401940294039400681849884239
:101AA0002CD11848816941F480418161816901F438
:101AB00080410491816941F0040181618069124D86
:101AC00000F0040004904FF4007000900220019098
:101AD0000320039069462846FEF702FF2815CDE94A
:101AE0000004694628460294FEF7FAFE002205210A
:101AF0002520FFF76DF82520FFF75DF805B030BD14
:101B00000038014000100240000801407047704753
:101B1000FEE7000010B58EB01C220B496846FEF7A8
:101B20005FFB0021684601F059F9084C06491C2268
:101B300020601C3107A8FEF753FB002107A801F025
:101B40004DF960600EB010BD103900080000002093
:101B5000F0B585B0002424480094019402940394C5
:101B6000816941F020018161816901F020010491C6
:101B7000816941F004018161816901F004010491EE
:101B8000816941F0080181618069184E00F0080008
:101B90000490002210213046FEF792FF144F0022DD
:101BA00018213846FEF78CFF10200125CDE90005ED
:101BB0000320CDE9024069463046FEF791FE0D480C
:101BC0000095CDE9010469463846FEF789FE1820E4
:101BD000CDE900050220CDE9024069463846FEF70E
:101BE0007FFE05B0F0BD000000100240000801407B
:101BF000000C014000001110104810B50E490160A2
:101C00004FF48271416000218160C1604FF4007225
:101C10000161C0E905121022C0E907214162816219
:101C20000A21C162FFF7F8FA002803D0BDE810408E
:101C3000FEF7E4BD10BD0000003001404803002065
:101C40000C4810B50A4901604FF4E13141600021B0
:101C500081600C22C160C0E904128161C161FFF79B
:101C6000E3FE002803D0BDE81040FEF7C7BD10BD5D
:101C700000380140A0030020FEE7FEE70148FFF71F
:101C80005BBA000048030020026892B222F03802DA
:101C90000A430260704710B5406A0021C187C186BF
:101CA000FFF748FA10BDF8B5044640684FF4827358
:101CB000984217D1A0684FF48065B0F5004F01D06D
:101CC000A8420FD12068066826F0400606606068CA
:101CD000984207D1A068A84204D100920B46002286
:101CE000012103E000920B4600228021204600F0F3
:101CF00019F8002804D0606D40F0200060650320D2
:101D0000F8BD38B50B46009204460022802100F051
:101D100009F8002804D0606D40F0200060650320C1
:101D200038BD00002DE9F8431E469146884604461A
:101D3000089DFEF7CBFE401B351AFEF7C7FE07468F
:101D400025480068C0F3CB30684338E0701C37D0BA
:101D5000FEF7BCFEC01BA84203D215B1009860B3C9
:101D60002CE02068416821F0E00141606068B0F536
:101D7000827F0BD1A068B0F5004F02D0B0F5806F24
:101D800004D12068016821F040010160A06AB0F52B
:101D9000005F09D12068016821F4005101602068CA
:101DA000016841F400510160012084F851000020D5
:101DB00084F850000320BDE8F8830025401E009001
:101DC0002068816838EA010004D000214945BDD16E
:101DD0000020F0E70121F9E708000020012000F0D1
:101DE000F1FFFBE710B5FEF777FE01F0BDFC01281F
:101DF00003D0BDE8104001F049BC10BD10B590B053
:101E000028216846FEF705FA14210AA8FEF701FA10
:101E100001210804CDE9001042000292022404913D
:101E2000CDE907404FF4E01009906846FEF7F2FF55
:101E300008B172B6FEE70F20CDE90A0400204FF486
:101E40008061CDE90C010E9002210AA8FEF7F2FE96
:101E5000002801D072B6FEE710B010BD704710B573
:101E6000406A0021C185C184FFF7D6FC10BD01681E
:101E7000CA6822F49072CA6001684A6922F00102BD
:101E80004A61016B012904D10168CA6822F010027D
:101E9000CA60202180F83E1000210163704708B518
:101EA00090F83E10222901D0022008BD82684FF42C
:101EB00080539A4201D1016921B1816A9A421BD0B3
:101EC0004AB10AE00268816A5268C2F308020A80D5
:101ED000816A891C08E0026972B10268526802F0E6
:101EE0007F020A70816A491C8162C18D491E090402
:101EF000090CC18503D019E002685268F1E7016856
:101F0000CA6822F02002CA600168CA6822F480729E
:101F1000CA6001684A6922F001024A61202180F802
:101F20003E10016B012903D0FFF7F0FD002008BD32
:101F3000002101630168CA6822F01002CA600168CA
:101F40000A68D20602D50A6849680091818DFFF7B8
:101F500062FCEBE770B5044600680169E26821F4B1
:101F60004051114301612169A06808436169084338
:101F70002168CA6841F20C639A430243CA60206830
:101F80004169A26921F44071114341611E492068F1
:101F9000884202D1FEF7F4FE01E0FEF7E1FE00EB1D
:101FA000C00101EB0012606864218000B2FBF0F315
:101FB000B3FBF1F36FF018067343B2FBF0F5B2FB1D
:101FC000F0F605EB8305322303EB0515B5FBF1F5C0
:101FD000B6FBF1F605F0F00505EB0615B2FBF0F6E1
:101FE000B2FBF0F0B0FBF1F06FF01802504306EBDB
:101FF000800003EB0010B0FBF1F0216800F00F004F
:102000002844886070BD0000003801400148FFF797
:1020100005BC0000A0030020FEE70907090E002808
:1020200004DB00F1E02080F80014704700F00F009E
:1020300000F1E02080F8141D704702E008C8121F6C
:1020400008C1002AFAD170477047002001E001C1A1
:10205000121F002AFBD1704738B504466D208DF859
:1020600000006B46012240F606012E2000F024FEFF
:1020700041F6060114B140F2076201E041F2076245
:102080002E2000F0FDFD38BD38B504466B46022217
:102090000021362000F090FC0E2C2CD2DFE804F05A
:1020A0000F07152B2B2B2B1D392B2B44494E0020B2
:1020B0008DF800009DF8010000F0FE0019E09DF889
:1020C000000000F0FC00401C04E09DF8000000F05F
:1020D000FC00801C8DF800000DE09DF8000000F071
:1020E000B30040F048008DF800009DF8010040F07A
:1020F00080008DF801006B4601220021362000F09F
:10210000DBFD0122114636200DF1010300F0D4FD64
:1021100038BD9DF8000000F0B3008DF800009DF878
:10212000010000F07F00E4E79DF8010040F00200AC
:10213000DFE79DF8010000F0FD00DAE79DF8000000
:1021400000F0CF0040F02000C4E708B503208DF870
:10215000010001208DF800006B460222002136208C
:1021600000F0AAFD4FF4004206212D2000F088FD6A
:10217000012000F027F80120FFF786FF08BD08B511
:10218000010A8DF801108DF800006B46022204212F
:102190002D2000F091FD03208DF800006B460122F8
:1021A00006212D2000F088FD00208DF800006B46F0
:1021B000012206212D2000F07FFD0A212D2000F0B4
:1021C000E4FB08BD01F04AB9002802D00620FEF762
:1021D000F2BC7047054810B5006810F0010402D049
:1021E0000620FEF7D7FC204610BD00001404014075
:1021F0008EB00025BE4C0095019502952A4610210F
:1022000020460395FEF75CFC1020CDE90005022076
:10221000CDE9025069462046FEF762FB022001F03C
:102220001DF9B44C20212068FFF72EFD012000F09D
:102230002DFB401CFAD008212068FFF725FDAE4891
:1022400000F06AF9012000F011FC48F2B60000F03D
:102250007AFC002000F0AAFCA849002001F10C0241
:1022600041F8205042F82050401C0328F8DBA24CD3
:102270006C3C002000F06EFC002000F0CFFBA04F73
:1022800000210F2000F081FB38426060F8D0A08868
:102290004004EED54FF48148424600210F2000F063
:1022A000FCFC0021102000F070FB40B22070B0F563
:1022B000806F05DC81B291480022203800F099FB44
:1022C0008E4E0320203EB178B1FBF0F200FB1212DB
:1022D000002ACED1B1FBF0F200FB1210A070F07812
:1022E000E0708549B570F5700A2244393046FDF733
:1022F0009BFF0028BDD100F042FDA0603C2000F013
:1023000011FC42F6E06000F025FC7B48617838382B
:1023100000228170E178C17001460F2000F0EBFCD3
:1023200000210F2000F0F8FC022000F045FC002105
:102330000F2000F02AFB38426060F8D0A0884004EB
:102340007ED5424600210F2000F0A7FC002110207E
:1023500000F01BFB00F07F0121701E2904DC6748A0
:102360000022203800F045FBB570F078E178884213
:10237000AFD161496148F5700A2229392038FDF74B
:1023800053FF0028A5D1002602A800F041FB04203D
:1023900002AA3102165C0E43401EFAD5E66000F038
:1023A000EEFC206155480BA9163800F0DBFC5348C1
:1023B0000CA9123800F0D6FC504807A90E3800F0DE
:1023C000D1FCA1680891E0680090DDE90B06301AA5
:1023D0002769FEF7EFF8824600988B46381AFEF719
:1023E000E9F8804607988946801BFEF7E3F8064621
:1023F0000F4608990098401AFEF7DCF80891009003
:1024000042464B4650465946FDF71BFF32463B4677
:10241000FDF717FF089B009AFDF713FFCDE90910A0
:1024200030463946089B009AFDF7B2FF06460F4634
:1024300042464B4650465946FDF7AAFF324600E059
:102440004FE03B46FDF79EFFDDE90932FEF712F84B
:10245000FEF7BDF8FEF79DF82A4A2B4BFDF798FFD3
:102460004FF09852294BC4E90601FDF791FFC4E9EA
:102470000801FEF7DEF801461F484278007800F0B8
:1024800099F9D4E90823FDF780FF0022204BC4E925
:102490000801FDF77DFFFEF79AF8642290FBF2F346
:1024A0001549606110398B7290FBF2F302FB130047
:1024B000C872A078087360788870E078C8700022CD
:1024C000102000F018FC0021102000F025FC002056
:1024D00000F072FB00210F2000F057FA0006F9D53A
:1024E000C7E60C4A00210F2000F0D7FBC1E6000030
:1024F000000C0140480300207C0000204004002024
:1025000000D02724FA48CE3B1835B13D19DDB14142
:1025100000005940009027242DE9F84F0446057823
:10252000407978494FF00009C84631F81070617859
:102530007548491ECEB20163042D75D0072D73D0A6
:1025400000218A46217801736F49E2798969002A5E
:102550006CD021F480018161217A4173217A4FF49A
:102560004033826903EA01410A43834682610021C4
:10257000042000F092FB3A4642F604012E2000F0BF
:102580007FFB3046FFF768FD604F61490522785DAB
:1025900000EB8000431807212B2000F08DFB5D49E4
:1025A000012201EB0A030B21282000F085FB785D56
:1025B000594951F820200C21282000F06EFBE079C9
:1025C000564901EB8000A17930F811200221272023
:1025D00000F056FB5248042130F81620272000F066
:1025E0004FFBE07938B3A07804282AD028208DF852
:1025F000000020220621272000F042FB6B4601222A
:102600002621272000F058FB4648E17800EB061011
:1026100050F821200821272000F03FFBB4F80900E2
:10262000A0B117E000E001E001218AE741F4800158
:10263000FF08816190E764220621272000F020FB3B
:10264000E2E710208DF800000246D3E741F2410096
:10265000A4F80900B4F809202021272000F010FB7D
:10266000314F0C2123203A6800F017FB07EB46009E
:1026700004218288232000F003FBA07958B1E0797F
:102680002A49012243180021212000F015FB4FF0B8
:1026900003094FF0010805F00F00290740EA116017
:1026A00061784FF4402202EA81410843920002EA35
:1026B000095108434FF4003202EA484108432179A6
:1026C0004FF0F86202EA81510843617940EAC16241
:1026D00000211F2000F0E1FAA07861784FF4004358
:1026E00008430204CBF81020E179082043EA413185
:1026F0000A430021CBF8102000F0CFFA0020BDE8FB
:10270000F88F0000E83B0008E40300206A3B000863
:102710008C3B0008AA3B0008743B0008B83B00084B
:10272000C43B0008C83B0008AC3B0008B43B0008B1
:1027300010B504460421362000F027F914B140F406
:10274000006201E020F400620421BDE81040362060
:1027500000F0A3BA38B540208DF8000000210E200B
:1027600000F013F90446FFF735FD05460022114637
:102770000E2000F092FA6B46012200210D2000F09D
:102780009BFA0A4A00210F2000F087FA00F05EFA57
:10279000224600210E2000F080FA2846FFF714FDA3
:1027A0000349002081F82C0038BD0000F8FF2724E1
:1027B000E403002070B50546164600240846FDF7E0
:1027C00025FF0222FDF7C5FEFDF701FFFF2800DD12
:1027D000FF202A49012EA1F108020CD0042D2DD092
:1027E000072D2BD0515D01EB810202EBC101244A80
:1027F00002EB410133E0042D0AD0072D08D0515DD2
:1028000001EB810202EB41111C4A083211440FE036
:10281000495D1B4A01EB0111883A02EB810100E09E
:10282000641C0A5D8242FBDBA4F11C001CE0641CFA
:102830000A5D8242FBDBA4F1170015E0495D01EB64
:102840008102C2EB81110E4A6832114400E0641C1F
:102850000A5D8242FBDBA4F11E0005E0641C0A5DF8
:102860008242FBDBA4F11100FDF78AFEFDF7CEFEEC
:10287000BDE87040034A044BFDF78ABD6839000883
:102880008C3A00087B14AE47E17A843F7CB505465C
:10289000324C04208DF8000000216175216384F81A
:1028A000251084F82C10A1836163A16300F080F8E7
:1028B0002B492060884201D088177CBD0020FFF79B
:1028C000E3FB6B4601220021242000F0F5F91E20D5
:1028D000FFF755FC86B2300AA0730420FFF74FFCC7
:1028E00010F0FF0F0CD002208DF8040001AB012284
:1028F00012212D2000F0E0F9A08B40F48050A0833D
:102900000620FFF73CFC60600720FFF738FCA06062
:1029100016F01F00207501D110202075C0B200F004
:1029200009FAE80706D0FFF710FCA08B40F400601E
:10293000A08309E00521362000F014F820F400728D
:102940000521362000F09CF90120FFF79DFB0021B6
:10295000042000F01AF8A06100207CBDE4030020F0
:102960003001CADE38B54FF6FF7489B280B26B46CB
:10297000022200F021F830B99DF800009DF8011006
:1029800000EB012084B2204638BD38B54FF0FF344B
:1029900089B280B26B46042200F00EF830B90321F0
:1029A0006846425C491E02EB0424FAD5204638BD35
:1029B00000210846FFF7E9BF08B551B140F04000DB
:1029C0008DF80000C8B27F2907D88DF801000220D9
:1029D0000BE08DF80000012007E040F080008DF84A
:1029E0000100C8098DF802000320694600F040FC90
:1029F00008BD30B414460A462146034630BC1120B7
:102A0000FFF7DABF0346052200211520FFF7D4BFE8
:102A10000346052200211720FFF7CEBF38B5054633
:102A200000208DF8000000F011F94FF48074224668
:102A30000DB14FF4407200210D2000F021F99DB13D
:102A40006B46012203210F20FFF7B6FF9DF800001F
:102A5000000709D5FFF77EFE224600210D2000F079
:102A60000FF94FF0FF3038BD002038BD38B50446AF
:102A7000C0076B464FF002024FF000014FF02600F6
:102A80002DD0FFF799FF9DF80100012220F03C00B6
:102A900040F014008DF80100114626200DF10103CD
:102AA00000F00AF96B46012202213620FFF784FF6D
:102AB0009DF800006B4640F084008DF80000012274
:102AC0000221362000F0F8F810208DF800000120D7
:102AD0008DF80100022228216B4636200BE0FFF71B
:102AE0006BFF9DF801006B4620F014008DF801008B
:102AF00002220021262000F0DFF8A00711D50F20C8
:102B00008DF800006B4601222A21362000F0D4F80F
:102B100000208DF800006B4601222A21362000F0AB
:102B2000CBF838BD10B5044600211A20FFF72DFF61
:102B3000C4F313026FF3130002430021BDE81040F9
:102B40001A2000F0AAB8024641F604012E2000F037
:102B500097B8000038B505466B46012203210420D2
:102B6000FFF72AFF104C75B12A4600210C2000F017
:102B700087F89DF8000040F010008DF80000A06973
:102B800040F0805008E09DF8000020F010008DF823
:102B90000000A06920F08050A0616B460122032153
:102BA000042000F089F838BDE4030020024600212B
:102BB000182000F065B80000F8B500240546224F43
:102BC00026468DF8004080070BD580208DF8000048
:102BD0006B46012200210D2000F06EF8012087F8DD
:102BE0002C00E8079DF8000021D040F006008DF889
:102BF00000006B46012200210D2000F05DF803214A
:102C00000F20FFF7AFFE10F4816F1AD040208DF82F
:102C100000006B46012200210D2000F04DF800203D
:102C2000FFF786FD87F82C604FF0FF3409E040F095
:102C300002008DF800006B46012200210D2000F0FB
:102C40003BF82046F8BD0000E40300201CB56B46AD
:102C5000012203210F20FFF7AFFE9DF8000000F0D6
:102C6000800100F04000B1EB400F08D001208DF84A
:102C70000400024601AB03210D2000F01DF81CBD2D
:102C800008B589B28DF80020120A8DF8012080B2B3
:102C90006B46022200F010F808BD38B500236C46E0
:102CA000E254120A5B1C042BFADB89B280B2234681
:102CB000042200F001F838BD08B551B140F0C00061
:102CC0008DF80000C8B27F2909D88DF801000220D4
:102CD0000DE040F080008DF80000012007E040F09A
:102CE00080008DF80100C8098DF8020003206946B4
:102CF00000F046FC08BD10B514460244B2F5806FE2
:102D000002D94FF0FF3010BD0B46821E214609202C
:102D1000FFF7D2FF002010BD054A10B5126940EA46
:102D20008150024300210820FFF7B7FF002010BDAB
:102D3000E403002038B504466B4601220E212B2007
:102D4000FFF73AFE9DF8000004F01F0120F01F007D
:102D500001438DF800106B4601220E212B20FFF756
:102D6000ABFF38BD10B500220A60835CD400A340DD
:102D70000C68521C23440B60042AF6DB10BD1CB502
:102D800000246846FFF73EFE04216A462002545C98
:102D90000443491EFAD520461CBDFDF7A5FEFFF7EA
:102DA0002DF8FEF7D5FEFEF727FFFEF749FFFEF7E9
:102DB000B1FE00F00EF8FEE701460020842900D0A5
:102DC000C81C704710B500B9012000F047FB002077
:102DD00010BD10B500F068FB002010BD7FB50D469A
:102DE00004464169B0F9080081B1A16971B1FFF7EA
:102DF000E3FFD4E905128DE80700D4E900102B4663
:102E0000226900F086FC039004B070BDFFF7D4FF88
:102E100003A9CDE90001208A2B4682B2D4E9001033
:102E200000F04AFC012801D00020EDE70398EBE711
:102E30002DE9F041184C0F46054666692068001DD3
:102E400000F048FA38B9206890F82C10012088402A
:102E5000A1698143A161681C07D137B12168BDE830
:102E6000F0410E48091D00F079BA20683544B5429A
:102E70004560216805D2A068BDE8F041091D00F059
:102E800055BA6068091D00F051FA206B854200D2E6
:102E90002563BDE8F0810000940000203405002087
:102EA0002DE9F041054600F065FA2E4C2069401CE2
:102EB000206120682C4F10B1E06940B32DE02560FF
:102EC0002069012829D1002606EB860007EB800047
:102ED00000F01EFA761C072EF6D323488C3000F043
:102EE00017FA2148A03000F013FA1F48B43000F060
:102EF0000FFA1D48C83000F00BFA1B48DC3000F018
:102F000007FA19488C3060601430A06005E0206832
:102F1000E96AC06A884200D82560E06A401CE06225
:102F2000E96A0120A26988401043A06101EB810099
:102F300007EB8000291D00F011FA00F03BFAE06970
:102F400000280CD02068E96AC06A884207D2074985
:102F50004FF080500860BFF34F8FBFF36F8FBDE815
:102F6000F0810000940000205804002004ED00E0EF
:102F700010B5044690F8510058B101280CD0022831
:102F80000FD0502080F31188BFF34F8FBFF36F8FA6
:102F9000FEE7206B00F022FA2046BDE8104000F06A
:102FA0001DBA10BD10484FF44061420706D0C01D45
:102FB0000D4920F00700411AC1F540610B4A00237A
:102FC0000144C2E900030839103A21F007011160F9
:102FD0004B600B600B1AC0E9001393604FF0004088
:102FE0005360D0607047000048050020E0000020DA
:102FF000144E154CA6F1C8074FF08058DFF84C90DE
:1030000012E000BF00F0B6F9F068C568281D00F0B6
:1030100061F92069401E2061E068401EE06000F018
:10302000C9F92846FFF7A4FFE0680028EAD138680C
:103030000128F9D9C9F80080BFF34F8FBFF36F8F14
:10304000F2E70000200500209400002004ED00E0DD
:103050002DE9F0479A46DDE9098481466FF00303C4
:10306000206B03EB82021044089D20F007067007D6
:1030700007D0502080F31188BFF34F8FBFF36F8FBD
:10308000FEE723180A5C83F834200A5C12B1401C66
:103090001028F6D3002784F84370072D00D30625A7
:1030A000E562C4E91157201D00F03DF904F1180054
:1030B00000F039F92461C5F107006462A061E7649A
:1030C00084F8507052464946304600F0BFF8206000
:1030D000B8F1000F01D0C8F80040BDE8F08700004B
:1030E00030B5114900E011460A688242FBD34B68B3
:1030F0005C18844203D1406818444860084643681D
:103100001C18944209D1084C103C2468A24209D0F2
:1031100052681A4442600A6812680260814200D014
:10312000086030BD0460F9E7E0000020064841680F
:10313000096829B14168C968C9684968016370476D
:103140004FF0FF31FAE70000940000200848406883
:10315000401C4FF0500080F3118804D0BFF34F8F14
:10316000BFF36F8FFEE7BFF34F8FBFF36F8FFEE7A5
:10317000E80000202DE9F0410546002700F0CAF9DB
:10318000314E306808B9FFF70DFFF06805424BD1AA
:10319000C5B3083568070ED005F00700C0F1080078
:1031A0000544680707D0502080F31188BFF34F8F84
:1031B000BFF36F8FFEE72DB37068854234D8224885
:1031C000103001460C6801E020460C466168A942B7
:1031D00002D221680029F7D131688C4224D00768D7
:1031E0002168016060680837411B10290FD96019F8
:1031F000420708D0502080F31188BFF34F8FBFF3F0
:103200006F8FFEE710E041606560FFF769FF61685E
:103210007068401A7060B268904200D2B060F06886
:1032200001430020C4E9000100F010FB780707D03B
:10323000502080F31188BFF34F8FBFF36F8FFEE7ED
:103240003846BDE8F0810000D000002010B5031F13
:103250004FF080741C601B1F21F001011960191FC1
:10326000024B0B60143940380A6010BD4D31000824
:103270002DE9F047994614460F460646FEF7AAFF89
:10328000124D8246002210212846FDF719FC4FF608
:10329000FF784346324639460D48FEF704F94FF0B1
:1032A000FF3630B9A2B2434649460948FEF74EF808
:1032B00010B13046BDE8F087012210212846FDF705
:1032C000FFFB5046FEF780FF0020F3E700080140B7
:1032D00048030020D0E9013201699A60D0E9012356
:1032E0005A604A68824201D182684A6000220261C3
:1032F0000868401E0860086870470000034B0360C0
:1033000003F154000860802010607047F400002032
:1033100000F108014FF0FF32C0E90112C160016104
:1033200000210160704700210161704730B50B68D2
:103330005A1C02D000F1080202E0026904E02246B1
:10334000546825689D42FAD953684B6099608A6039
:10335000516008610168491C016030BD42684A60E3
:1033600093688B6093685960916008610168491C9B
:1033700001607047502080F31188BFF34F8FBFF377
:103380006F8F0A494868401C486001280CD10848E2
:10339000006810F0FF0F07D0502080F31188BFF3B2
:1033A0004F8FBFF36F8FFEE770470000E8000020EB
:1033B00004ED00E00849486828B1401E486001D18A
:1033C00080F311887047502080F31188BFF34F8F2E
:1033D000BFF36F8FFEE70000E800002070B5002803
:1033E00027D0144DA0F108046168E868014207D1B4
:1033F000502080F31188BFF34F8FBFF36F8FFEE72C
:1034000022683AB1502080F31188BFF34F8FBFF389
:103410006F8FFEE78143616000F07CF86068696847
:10342000084468602046FFF75BFEBDE8704000F08E
:103430000DBA70BDD00000204FF0E02000210161E6
:10344000816105494FF47A720968B1FBF2F1491EB6
:1034500041610721016170470800002010B502009A
:1034600014D00F48806B38B1502080F31188BFF31F
:103470004F8FBFF36F8FFEE700F04CF8002110462E
:10348000FFF7D6FC00F0E2F9002807D105494FF01C
:1034900080500860BFF34F8FBFF36F8F10BD0000E7
:1034A0009400002004ED00E010B586B000240394E1
:1034B00005AA04A903A80494FFF720FFDDE903018E
:1034C0000094CDE9011000230EA11048059A00F0E8
:1034D00020F90F490028486311D0502080F311884B
:1034E000BFF34F8FBFF36F8F4FF0FF3008630120A2
:1034F000C8614C6106B0BDE8104000F073B806B07A
:1035000010BD000049444C4500000000F12F0008A8
:10351000940000200248816B491C816370470000C1
:10352000940000201448816B11B101214162704761
:10353000002141628169B1FA81F1C1F11F0101EB02
:1035400081020E4951F822306BB101EB820101F189
:1035500008034A6852684A609A4201D152684A6038
:10356000D16801607047502080F31188BFF34F8FFE
:10357000BFF36F8FFEE70000940000205804002086
:103580002DE9F047994614460F460646FEF722FEFF
:10359000124D8246002210212846FDF791FA4FF67F
:1035A000FF784346324639460D48FDF77CFF4FF021
:1035B000FF3630B9A2B2434649460948FDF773FFCA
:1035C00010B13046BDE8F087012210212846FDF7F2
:1035D00077FA5046FEF7F8FD0020F3E700080140B7
:1035E000480300201CB5264908780190FF20087088
:1035F00008788DF800009DF800009DF8002000F08C
:10360000F000904207D0502080F31188BFF34F8F15
:10361000BFF36F8FFEE79DF800001A4B00F05000DB
:1036200018700720986005E09DF8002052008DF882
:103630000020401E9DF800201206F5D49860032853
:1036400007D0502080F31188BFF34F8FBFF36F8FE7
:10365000FEE74FF440709860019808700A480168CE
:1036600041F470010160016841F070410160FFF7B1
:10367000E3FE00205860FCF757FD00201CBD000051
:1036800000E400E0E800002020ED00E010B550204C
:1036900080F31188BFF34F8FBFF36F8F00F072F884
:1036A00018B104494FF080500860002080F3118861
:1036B00010BD000004ED00E02DE9FF5F8346DDE969
:1036C0000E87994616468A469000FFF753FD05007F
:1036D0001CD05420FFF74EFD040014D000202563B9
:1036E00084F85100CDE90240CDE900874B463246CF
:1036F00051465846FFF7ACFC2046FFF7D1FB0120AE
:1037000004B0BDE8F09F2846FFF768FE4FF0FF3099
:10371000F6E7F0B585B0DDE90B640A9DA6B1DCB132
:10372000542700972663022684F85160002604AFD0
:10373000CDE90246CDE90057FFF78AFC2046FFF7A6
:10374000AFFB049805B0F0BD502080F31188BFF3A3
:103750004F8FBFF36F8FFEE7502080F31188BFF3C8
:103760004F8FBFF36F8FFEE70548C16919B1806BBA
:1037700018B10020704701207047022070470000F8
:10378000940000202DE9F0412E4C0027A06B40B1A1
:10379000206A401C2062606A00B101273846BDE8FB
:1037A000F0816669761C666113D16068006838B183
:1037B000502080F31188BFF34F8FBFF36F8FFEE768
:1037C0006068A1686160A060A06A401CA062FFF709
:1037D000ADFC206BDFF87080864209D3606800681A
:1037E00080B16068C068C568686886420DD2206391
:1037F0002068C06A00EB800158F821000128CAD96E
:103800000127C8E74FF0FF30F1E7281DFFF762FD01
:10381000A86A18B105F11800FFF75CFDE86A0121FC
:10382000A26981401143A16100EB800108EB810096
:10383000291DFFF793FDE86A2168C96A8842CDD344
:103840000127CBE794000020580400202DE9F04721
:103850002C4D00242746A86B38B1FFF78BFDA86BD1
:10386000401EA863A86B40B146E0502080F3118849
:10387000BFF34F8FBFF36F8FFEE72969224E012000
:10388000D1B3A6F1B40980463068E8B1F068C468E5
:1038900004F11800FFF71EFD201DFFF71BFDE06A75
:1038A000AA6908FA00F11143A96100EB800109EB54
:1038B0008100211DFFF752FDE06A2968C96A88422C
:1038C000E2D3C5F82480DFE70CB1FFF72FFC2C6AA8
:1038D00044B14646FFF756FF00B16E62641EF9D14F
:1038E00000202862686A38B1084901273807086053
:1038F000BFF34F8FBFF36F8FFFF75CFD3846BDE816
:10390000F0870000940000200C05002004ED00E08A
:10391000343C0008DD1D000800000000000000002D
:10392000800000000000000000000000403C000893
:10393000F1210008000000000000000080000000ED
:103940000000000000000000000000000000000077
:103950000102030406070809000000000102030435
:103960000000010200030000000000000000000150
:103970000103040507090B0C0D0F121417191C1E67
:103980002124282B2F32363A3F42474C5259626D40
:103990007F9BDEFFFF010204050608090A0C0D0FDC
:1039A000121416181B1D202326292C2F33373A3EBC
:1039B00042474E55606F87C2F0FF010203040507BE
:1039C00008090A0C0E10121416181A1C1F2124279D
:1039D0002A2D3134373B3F454C556278ADD5FF0138
:1039E000010203040506060708090B0C0E0F10124E
:1039F000141517191B1D1F222426292C30353B4472
:103A0000537894FF07070809090A0B0B0C0D0E0FDA
:103A10001011121314151617181A1B1C1E1F202222
:103A20002426282A2C2E30323437393B3D3F42445D
:103A3000474A4E5155595E63686E747B828B96A4DB
:103A4000B6CFEEFFFFFFFFFF0405050506060707DB
:103A5000070809090A0A0B0B0C0D0D0E0F101111A6
:103A6000121314151617191A1B1D1E1F20222324AA
:103A70002627282A2C2E303234373A3D4044484BF2
:103A800050555C65707F93A8B6C2CDFF010202035A
:103A90000405070A0D101316181B1E2023262B30B1
:103AA000384E65789DFF01020203040406090C0EDE
:103AB000111315181A1C1F21252A314459698AFF30
:103AC00001010203030405080A0D0F11131517194C
:103AD0001B1E21252C3C4F5D7AFF010101020203D0
:103AE000040607090A0C0D0F10111315171A1E2AC8
:103AF000374155FF07080809090A0B0C0D0D0E0F79
:103B000010101112131314151618191B1C1D1E204A
:103B10002122232527292B2D303235383C40444A99
:103B20005159626D7A88929AA2B2DCF9FFFFFF04C4
:103B300005050506060707080809090A0A0A0B0B06
:103B40000C0D0D0E0F10101112131314151617185B
:103B5000191A1C1D1F212325272A2E32363C434BC0
:103B6000535A5F646E8799ACC0FF000001020304E2
:103B700000050000405C0000A05C0400C06C080070
:103B8000805C0400E03F1E00E07D1E000704000989
:103B90001E0805400826091040085608054008265A
:103BA0001D040008BE1D040008BED8BC07A90225DC
:103BB00070889B88401008000A001600010006006B
:103BC0000100020087008D002D001A3152001A33C7
:103BD0009A001A351D011A376B003B31BE003B338A
:103BE0005E013B3596023B37000099599959EB51DC
:103BF0008F421E45142E0080EB51F5283333E13AF5
:103C0000703DE13AC235852BC2353333C235C235FA
:103C1000AE47E13A5138A3305138000001000101AC
:103C200040000000801100208015002000160020B8
:103C30000000000064656661756C745461736B000C
:103C400064775461736B0000683C0008000000203A
:103C5000F40000003A2000085C3D0008F400002059
:103C6000341900004A200008000000000000000095
:103C70000024F4000000000000000000000000002C
:103C80000000000000000000000000000000000034
:103C90000000000000000000000000000000000024
:103CA00041880000DE574156452100004188000050
:103CB000DE5645574110020000000041880000DE3A
:103CC000574156452300000000000000000000009E
:103CD0000000000041880000DE57415645AA000060
:103CE000000000000202080209090100002104008E
:103CF00001000000100000000000000000000000B3
:103D000000000000000000000000000000000000B3
:103D100000000000000000000000000000000000A3
:103D20000000000000000000000000000000000093
:103D30000000000000000000000000000000000083
:103D40000000000000000000000000000000000073
:0C3D500000000000AAAAAAAA00000000BF
:04000005080000ED02
:00000001FF
