:020000040800F2
:10000000201E002065020008D726000847200008AF
:10001000D526000879040008452E000800000000DD
:10002000000000000000000000000000CD010008FA
:10003000DD0500080000000011020008B1280008DA
:100040007F0200087F0200087F0200087F0200088C
:100050007F0200087F0200087F020008E305000815
:100060007F0200087F0200087F0200087F0200086C
:100070007F0200087F0200087F0200087F0200085C
:100080007F0200087F0200087F0200087F0200084C
:100090007F0200087F0200087F0200087F0200083C
:1000A0007F0200087F0200087F0200087F0200082C
:1000B0002929000835290008412900087F02000885
:1000C0007F0200087F0200087F0200083128000834
:1000D0007F020008212E00082D2E0008392E00086E
:1000E0007F0200087F0200087F0200087F020008EC
:1000F0007F0200087F0200087F0200087F020008DC
:100100007F0200087F0200084D2900087F020008D6
:100110007F0200087F020008592900087F020008BA
:100120007F0200087F0200087F0200087F020008AB
:1001300000F002F800F03AF80AA090E8000C8244BF
:100140008344AAF10107DA4501D100F02FF8AFF29C
:10015000090EBAE80F0013F0010F18BFFB1A43F0A5
:1001600001031847685D0000885D0000103A24BF55
:1001700078C878C1FAD8520724BF30C830C144BF0C
:1001800004680C607047000000230024002500264E
:10019000103A28BF78C1FBD8520728BF30C148BFEA
:1001A0000B6070471FB51FBD10B510BD00F02FF9D3
:1001B0001146FFF7F7FF03F0C6FC00F04DF903B45A
:1001C000FFF7F2FF03BC00F051F90000224B196861
:1001D0000868B0E8F00F80F30988BFF36F8F4FF025
:1001E000000080F311884EF00D0E704700000000F3
:1001F00006480068006880F3088862B661B6BFF3FD
:100200004F8FBFF36F8F00DF00BF00BF08ED00E02E
:10021000EFF30980BFF36F8F0F4B1A6820E9F00FDF
:10022000106008B54FF0500080F31188BFF34F8F76
:10023000BFF36F8F04F0E8F94FF0000080F31188EE
:10024000BDE8084019680868B0E8F00F80F3098835
:10025000BFF36F8F704700BF54000020EFF305809D
:10026000704700000948804709480047FEE7FEE75D
:10027000FEE7FEE7FEE7FEE7FEE7FEE7FEE7FEE756
:1002800004480549054A064B704700002529000827
:100290003101000820180020201E0020201A002014
:1002A000201A0020032A40F2308010F0030C00F0E6
:1002B000158011F8013BBCF1020F624498BF11F8A0
:1002C00001CB00F8013B38BF11F8013BA2F1040259
:1002D00098BF00F801CB38BF00F8013B11F00303D1
:1002E00000F02580083AC0F0088051F8043B083A35
:1002F00051F804CBA0E80810F5E7121D5CBF51F8D7
:10030000043B40F8043BAFF30080D20724BF11F850
:10031000013B11F801CB48BF11F8012B24BF00F8B5
:10032000013B00F801CB48BF00F8012B704710B526
:10033000203AC0F00B80B1E81850203AA0E81850DD
:10034000B1E81850A0E81850BFF4F5AF5FEA027C9E
:1003500024BFB1E81850A0E8185044BF18C918C00D
:10036000BDE810405FEA827C24BF51F8043B40F8AE
:10037000043B08BF7047D20728BF31F8023B48BF93
:1003800011F8012B28BF20F8023B48BF00F8012BD1
:1003900070474FF0000200B5134694469646203948
:1003A00022BFA0E80C50A0E80C50B1F12001BFF42E
:1003B000F7AF090728BFA0E80C5048BF0CC05DF894
:1003C00004EB890028BF40F8042B08BF704748BFE2
:1003D00020F8022B11F0804F18BF00F8012B704756
:1003E00070477047704710B500F00CF8006810BDFA
:1003F00010B5044600F006F8046010BD00487047D0
:10040000BC17002000487047BC1700207047754695
:10041000FFF7F4FFAE4605006946534620F007009B
:10042000854618B020B5FFF72BFFBDE820404FF000
:1004300000064FF000074FF000084FF0000B21F0CE
:100440000701AC46ACE8C009ACE8C009ACE8C0099B
:10045000ACE8C0098D46704710B50446AFF3008084
:100460002046BDE81040FFF7AABE00000149182051
:10047000ABBEFEE726000200FEE700002DE9F05FBC
:10048000244F3BE024480078A8B3DFF88890DFF8D9
:100490008C80A9F11809DFF888B000246FF00E06EF
:1004A00009F10C0A08EB440535F9680F05F07AF8F4
:1004B000314605F0B4FA042105F0B1FA49F82400F8
:1004C000B5F9060005F06EF8314605F0A8FA594670
:1004D00005F0C8F84AF82400B5F9120005F062F8F2
:1004E000314605F09CFA0F4905F0BCF847F82400A6
:1004F000641C032CD6DB012004F022F8B86810F04D
:10050000FF4FBFD00349B8683C3908600020B8608D
:10051000BDE8F09FA00800201B000020AC090020CF
:100520000000FA44DB0F49402DE9F047002704257D
:10053000DFF8A080DFF8A09050383E4601F1060AAF
:10054000102845D2DFE800F01108130C1517191B0D
:100550001D1F21444444442334240325402702E042
:100560003D2403252E27012613E0302411E03724F3
:100570002BE03A2429E041240BE0452409E04924FA
:1005800007E04D2405E0512403E0552401E0D8F8AC
:100590002440032A19D04DB16A0009EB4400FFF74B
:1005A00081FED8F81420294620469047002E0FD00F
:1005B000720009EB47005146FFF774FE314638469A
:1005C000D8F81420BDE8F047104703250026E3E7DC
:1005D000BDE8F08720000020AC090020704703F040
:1005E000AFBF022000F0C0B872B6FEE710B590F8B9
:1005F00021100022022905D00421816380F82020E7
:10060000012010BD01680B6823F00E030B60016828
:100610000B6823F001030B6090F84030012404FACA
:1006200003F1C36B596080F8214080F82020104608
:1006300010BD00002DE9F05F90F821100024022980
:1006400003D004218163012485E001680A6822F057
:100650000E020A6001680A6822F001020A603F4E39
:100660003E4FB215DFF8F4C0DFF8F090DFF8ECA0F1
:10067000DFF8E8B0DFF8E4E00168783F1301150225
:10068000ACF1640CA9F15009AAF13C0AABF1280BBA
:10069000AEF1140E4FF48018B14227D9B9420ED0F2
:1006A000614512D049451DD0514518D0594518D043
:1006B000714501D1424615E0294EB14201D10122D6
:1006C00010E0274E1436B14201D110220AE0244E28
:1006D0002836B14206D0224A3C32914201D11A4614
:1006E00000E02A461E49091F0A602BE0B94213D0D8
:1006F000614517D0494522D051451DD059451DD0DF
:10070000714501D142461AE0B14202D14FF08072E8
:1007100015E0134EB14201D1012210E0104E143603
:10072000B14201D110220AE00D4E2836B14206D066
:100730000B4A3C32914201D11A4600E02A46074951
:1007400080394A60012180F82110002180F82010B2
:10075000416B01B188472046BDE8F09F8000024010
:100760000804024070470000044910B50A680242BC
:1007700002D00860FFF7F6FF10BD0000140401402E
:100780002DE9F84FDFF8C0910024A9F1040B2346AE
:100790004FF00F0809F1040AABF1040ECCE0012779
:1007A000A7403A40BA4272D1DFF8A0C14D68A5EB2C
:1007B0000C0665452BD00DDC032D34D005DC35B39C
:1007C000012D19D0022D2FD11BE0112D16D0122D85
:1007D0002AD119E0B6F5881F19D006DCB6F5803F9E
:1007E00015D0B6F5801F1FD111E0B6F5001F0ED051
:1007F000B6F5041F18D10AE0CB6815E0CB681B1DC5
:1008000012E0CB6808330FE0CB680C330CE08B6848
:100810002BB1012B4FF0080303D0476104E0042300
:1008200002E0076100E00023FF2A01D8064601E04C
:1008300000F104064FEA840501D9A5F120053768C7
:1008400008FA05FC27EA0C0703FA05F547EA05074D
:1008500037604D68ED006ED53D4DAE6946F001063E
:10086000AE61AD6924F0030605F001050095394D30
:100870007719BE68A5072D0F08FA05FC26EA0C06B5
:10088000DFF8D4C0604503D14FF0000C25E052E002
:10089000DFF8C8C0604502D14FF0010C1DE0DFF861
:1008A000C0C0604502D14FF0020C16E0DFF8B4C0C2
:1008B000604502D14FF0030C0FE0DFF8ACC060459B
:1008C00002D14FF0040C08E0DFF8A0C0604502D16F
:1008D0004FF0050C01E04FF0060C0CFA05FC4CEA59
:1008E000060CC7F808C04D68D9F80060ED024D4607
:1008F00001D5164300E096432E604D68DAF800609B
:10090000AD02554601D5164300E096432E604D6872
:10091000DBF80060AD035D4601D5164300E0964369
:100920002E604D68DEF80060ED03754601D5164374
:1009300000E096432E60641C0A6832FA04F57FF4E6
:100940002EAFBDE8F88F0000080401400000111030
:10095000001002400000014000080140000C01406E
:10096000001001400014014000180140001C01402B
:10097000C26821EA02030A4043EA0241016170476A
:100980000AB1016170470904FBE700000148806873
:100990007047000048000020024881680278114436
:1009A0008160704748000020074810B5016841F099
:1009B00010010160032000F07BF80F2000F006F822
:1009C00000F024F8002010BD0020024070B50D4D4D
:1009D00004464FF47A712878B1FBF0F00A490968AF
:1009E000B1FBF0F000F0F0FB48B9102C07D2002268
:1009F0002146501E00F03CF800206C6070BD0120C4
:100A000070BD000048000020140000200F4808B509
:100A1000816941F001018161816901F00101009169
:100A2000C16941F08051C161C069002200F080506D
:100A300000900F21901E00F01BF80549486820F037
:100A4000E06040F00070486008BD00000010024007
:100A500000000140002809DB00F01F020121914045
:100A60004009800000F1E020C0F80011704700004C
:100A7000F0B40E4B1B68C3F30223C3F10704042C2C
:100A800000D904241D1D072D01D2002300E0DB1E28
:100A9000012606FA04F56D1E0D409D409E40761E0F
:100AA000164045EA0601F0BC02F040BB0CED00E048
:100AB000064A00F0070110684FF6FF03184040EAAD
:100AC0000120034908431060704700000CED00E06E
:100AD0000000FA052DE9F0470D46040067D0DFF865
:100AE0001881D8F8000000F00700A8420CD2D8F80E
:100AF000001021F007012943C8F80010D8F80000C1
:100B000000F00700A84252D120683C4E810712D560
:100B1000400703D5706840F4E060706020780007FB
:100B200003D5706840F4605070607068A16820F070
:100B3000F000084370602078C00727D06068012863
:100B400010D03168022810D0890700292FDA716887
:100B500021F0030101437160FFF718FF074641F2DE
:100B600088390CE031688903EFE78901EDE7FFF789
:100B70000DFFC11B494502D90320BDE8F08770680D
:100B8000616800F00C00B0EB810FF0D1D8F80010D4
:100B9000404601F00701A9420BD9016821F0070185
:100BA00029430160006800F00700A84201D001203D
:100BB000E3E72078400705D57068E16820F4E0603D
:100BC000084370602078000706D57068216920F41A
:100BD000605040EAC100706000F038F87168084A5F
:100BE000C1F30311515CC84006490860064800681B
:100BF000FFF7ECFE0020C0E700200240001002409A
:100C0000285B0008140000204C000020044805491F
:100C100000684968044AC1F30221515CC84070472A
:100C20001400002000100240385B00080448054909
:100C300000684968044AC1F3C221515CC84070474A
:100C40001400002000100240385B00080E4B596869
:100C50000E4801F00C02042A11D0082A0FD10C48CA
:100C6000C1F38342C903805C0AD55968084AC1F3BD
:100C70004041921E515C054A5043B0FBF1F0704771
:100C800004494843704700000010024000127A00F7
:100C9000665D000800093D002DE9F84F04006FD0A3
:100CA0002078BE4DC00747D06868C0F38100012896
:100CB00007D06868C0F38100022809D16868C003C2
:100CC00006D52868800337D560680028E7D033E070
:100CD0006068B0F5803F0BD010B1B0F5A02F11D0F7
:100CE000286820F480302860286820F4802002E002
:100CF000286840F480302860606888B1FFF746FEBD
:100D0000064609E0286840F480202860F0E7FFF7F5
:100D10003DFE801B642873D828688003F7D50BE05C
:100D2000FFF734FE064604E0FFF730FE801B642820
:100D3000F1D828688003F7D42078DFF86482800730
:100D40004FF0010A4FF0000939D5686810F00C0F18
:100D500007D06868C0F38100022809D16868C00321
:100D600006D42868800714D52069012808D110E02E
:100D70002069B0B1C8F800A0FFF708FE064605E0FC
:100D800007E1FFF703FE801B0228C4D8286880070C
:100D9000F7D52868616920F0F80040EAC1002860B2
:100DA0000DE0C8F80090FFF7F1FD064604E0FFF7FC
:100DB000EDFD801B022823D828688007F7D420780F
:100DC00000072CD57748A169D9B1C0F800A0FFF77A
:100DD000DDFD064604E0FFF7D9FD801B02280FD891
:100DE000686A8007F7D570484FF4FA510068B0FB85
:100DF000F1F0009000BF0098411E0091FAD20EE081
:100E00007CE0C0F80090FFF7C1FD064604E0FFF764
:100E1000BDFD801B022871D8686A8007F7D420784E
:100E200040075BD5E8690027C00008D4E86940F0B6
:100E30008050E861E869012700F0805000905B482D
:100E40000168C90511D40168834641F480710160CD
:100E5000FFF79CFD064604E0FFF798FD801B642821
:100E60004CD8DBF80000C005F6D5E06801280AD0B0
:100E700008B1052813D0286A20F001002862286AEA
:100E800020F0040002E0286A40F001002862E068D7
:100E900041F2883B88B1FFF779FD064609E0286AF0
:100EA00040F004002862EEE7FFF770FD811B594512
:100EB0005BD8286A8007F7D50BE0FFF767FD064689
:100EC00004E0FFF763FD811B59454ED8286A80076F
:100ED000F7D41FB1E86920F08050E861E069A8B359
:100EE0006968C1F38101022946D00228484606D02C
:100EF000C8F86000FFF74AFD044639E035E0474690
:100F0000C8F86000FFF742FD064604E0FFF73EFD2B
:100F1000801B022829D828688001F7D4206AB0F500
:100F2000803F05D16868A16820F4003008436860FC
:100F3000D4E908010843696821F474110843686022
:100F4000C7F860A0FFF722FD044605E023E0FFF7A5
:100F50001DFD001B022808D828688001F7D51AE07B
:100F6000FFF714FD001B022802D90320BDE8F88F0B
:100F700028688001F4D40EE00128F7D06868226A5E
:100F800000F48031914204D1616A00F4701088420B
:100F900001D00120EAE70020E8E70000001002404D
:100FA00000004242800442421400002000700040D1
:100FB0007047000038B50446006842688168C9433C
:100FC0004B0606D5CB0704D1D3435B0601D4216C75
:100FD00005E08B0708D4D3431B0605D4616C01B030
:100FE0002046BDE8304008478B0601D54B0646D465
:100FF000D3439B0643D44B060AD494F85130032BB9
:101000003ED0636D43F004036365C3688368009357
:10101000890609D4616D41F0010161658168009123
:10102000016821F040010160606D002827D0206830
:10103000416821F0E0014160012084F851009007EF
:1010400022D02068416821F003014160104DE06C1E
:1010500040B14563E06CFFF7EDFA18B1606D40F008
:1010600040006065A06C002809D04563A06CFFF7C4
:10107000E1FA002803D0606D40F04000606538BDA3
:10108000C1688068009038BD2046FFF791FF38BDE9
:101090003D28000870B5040009D0606A002540B101
:1010A00025616561A56294F8510040B10CE0012012
:1010B00070BD6068B0F5827FF4D0E561F2E784F836
:1010C0005050204600F040F8022084F8510020687B
:1010D000016821F040010160A088218900F482703C
:1010E00001F404410843A18901F400610843217C13
:1010F00001F002010843217D01F001010843218B29
:1011000001F400710843217F01F03801084394F88D
:10111000201001F080010843218D01F400510843A3
:1011200021680860A069042101EA10402168486034
:101130002068C16921F40061C1616565012084F8FE
:101140005100002070BD000030B585B0002400942F
:101150000194029403940068184988422BD11848DE
:10116000816941F480518161816901F48051049168
:10117000816941F0040181618069124D00F0040031
:101180000490A02000900220019003200390694663
:101190002846FFF7F5FA4020CDE9000469462846C5
:1011A0000294FFF7EDFA002205212320FFF760FCEF
:1011B0002320FFF74FFC05B030BD00000030014098
:1011C000001002400008014010B5401EB0F1807FC1
:1011D00001D3012010BD4FF0E02460610F216017A2
:1011E00001F0A4FF0020A06107202061002010BDB5
:1011F0007047704770B590F83C20012A2CD001252B
:1012000080F83C50022280F83D20026853689468C0
:1012100023F070060B6833435360104B02689A4208
:101220000ED00F4B9A420BD0B2F1804F08D00D4B2D
:101230009A4205D00C4B9A4202D00C4B9A4204D1F0
:10124000496824F080031943916080F83D500021E3
:1012500080F83C10084670BD022070BD002C014093
:10126000003401400004004000080040000C004031
:1012700010B5040003D094F83D0010B107E0012040
:1012800010BD002084F83C00204600F01FF802202A
:1012900084F83D00211D206801F064FB012084F8E2
:1012A000460084F83E0084F83F0084F8400084F84B
:1012B000410084F8420084F8430084F8440084F834
:1012C000450084F83D00002010BD000008B500680E
:1012D0000B49884212D10B48C16941F01001C1612C
:1012E000C069002200F01000009005213620FFF7B1
:1012F000BFFBBDE808403620FFF7ACBB08BD0000CF
:10130000001000400010024090F83D10012901D06B
:1013100001207047022180F83D100168CA6842F040
:101320000102CA6000680E4988420ED00D49884209
:101330000BD0B0F1804F08D00B49884205D00B4943
:10134000884202D00A49884204D1816801F007012D
:10135000062903D0016841F00101016000207047B7
:10136000002C01400034014000040040000800400F
:10137000000C00402DE9F0410D46040003D094F824
:101380003D0018B108E00120BDE8F081002084F89C
:101390003C00204600F040F8022084F83D00206820
:1013A000816844F2070291438160211D206801F0A9
:1013B000D9FA206881688269066A2B68AF690B4395
:1013C00040F203318A4342EA0722A968EF691143D8
:1013D0004FF6FC429143EA6841EA07210A43296932
:1013E0002F6A090141EA073111436A686D6926F0E5
:1013F000220646EA05152A4383602068816154F875
:10140000460B0262012004F81F09E0752076E076A1
:101410002077A0750020B7E710B586B000210091B5
:101420000191029103913A4A01683A483A4C91423B
:1014300024D1C16941F00201C161C16901F0020119
:101440000491816941F0100181618069694600F071
:1014500010000490C02000903048FFF791F96068B8
:1014600020F4406040F0E06040F4406060600022A2
:1014700005211D20FFF7FCFA1D2025E0284A914296
:1014800026D1C16941F00401C161C16901F00401C3
:101490000491816941F0200181618069694600F011
:1014A000200004904FF4405000901E48FFF768F968
:1014B000606840F0E06040F48050606000220521E8
:1014C0001E20FFF7D5FA1E20FFF7C4FA06B010BDA4
:1014D000154A9142FAD1C16941F00801C161C1695F
:1014E00001F008010491816941F004018161806982
:1014F000694600F004000490032000900B48FFF7B9
:101500003FF9002205213220FFF7B2FA3220DBE753
:1015100000040040001002400000014000100140A3
:101520000008004000140140000C00400008014089
:1015300070B590F83E50044690F83F3090F8422045
:1015400090F84300022621B104290BD0012D16D1B9
:101550000FE0012D13D1012A11D184F83E6084F8E7
:10156000426016E0012B0AD1012808D184F83F60BF
:101570000DE0012B03D1012A01D1012801D0012066
:1015800070BD84F83E6084F83F6084F8426084F85F
:10159000436091B1042904D001220021206801F0A8
:1015A0002FFA01220421206801F02AFA206801683C
:1015B00041F001010160002070BD0122002120687E
:1015C000F2E770472DE9F04104460068C6680569F6
:1015D0004FF00007A90713D5B10711D5F91E016116
:1015E00001202077206880698007204602D0FFF71D
:1015F000E8FF04E000F0C0F8204600F06DF927771E
:10160000680716D5700714D521686FF004000861CB
:10161000022020772068806910F4407F204602D0A5
:10162000FFF7CFFF04E000F0A7F8204600F054F9E0
:101630002777280715D5300713D521686FF00800E4
:101640000861042020772068C0698007204602D006
:10165000FFF7B7FF04E000F08FF8204600F03CF9F8
:101660002777E80616D5F00614D521686FF010002C
:101670000861082020772068C06910F4407F204668
:1016800002D0FFF79EFF04E000F076F8204600F05D
:1016900023F92777E80708D0F00706D021686FF014
:1016A00001000861204600F077F9280608D53006C9
:1016B00006D521686FF0800008612046FFF798FD8D
:1016C000680608D5700606D521686FF040000861ED
:1016D000204600F0A1F9A8060AD5B00608D5216871
:1016E0006FF0200008612046BDE8F041FFF781BDA2
:1016F000BDE8F08110B586B0002100910191029102
:1017000003910068B0F1804F2BD11748816941F0F7
:1017100004018161816901F004010491816941F052
:10172000080181618069022400F00800049048F2F9
:101730000400CDE9000469460C480394FFF720F843
:101740000820CDE90004694609480394FFF718F81A
:101750000849486820F4407040F0E06040F4807030
:10176000486006B010BD00000010024000080140B3
:10177000000C014000000140704770B5044690F82D
:101780003C0000260D4601280FD0012084F83C00C3
:101790006AB1042A1DD0082A2FD00C2A3FD0012676
:1017A000002084F83C00304670BD022070BD2068E7
:1017B00001F034F92068816941F0080181612068F5
:1017C000816921F004018161206881692A691143DE
:1017D00011E0206801F052F92068816941F400614C
:1017E00081612068816921F480618161206881695B
:1017F0002A6941EA02218161D2E7206801F074F987
:101800002068C16941F00801C1612068C16921F007
:101810000401C1612068C1692A69114311E020688F
:1018200001F096F92068C16941F40061C161206846
:10183000C16921F48061C1612068C1692A6941EAF6
:101840000221C161ACE710B5040003D094F83D005B
:1018500010B107E0012010BD002084F83C002046B4
:1018600000F01EF8022084F83D00211D206801F0E0
:1018700079F8012084F8460084F83E0084F83F009F
:1018800084F8400084F8410084F8420084F8430062
:1018900084F8440084F8450084F83D00002010BD21
:1018A00008B50068B0F1804F12D10A48C16941F013
:1018B0000101C161C069002200F001000090052112
:1018C0001C20FFF7D5F8BDE808401C20FFF7C2B880
:1018D00008BD0000001002407047000010B504462B
:1018E00049B104290AD008290BD094F841000128F5
:1018F0000AD0012010BD94F83E00F8E794F83F00AC
:10190000F5E794F84000F2E7022081B3042932D0D1
:10191000082933D084F841000122206801F070F8D2
:10192000184A20681849904201D0884203D1436C7C
:1019300043F400434364206890420DD088420BD0AA
:10194000B0F1804F08D01149884205D01049884233
:1019500002D01049884204D1816801F007010629AC
:1019600003D0016841F001010160002010BDFFE7D4
:1019700084F83E00D0E784F83F00CDE784F84000CB
:10198000CAE70000002C0140003401400004004080
:1019900000080040000C00402DE9F05F184EB042F6
:1019A0002CD120211748FEF7E3FF174FDFF85C909A
:1019B000DFF85CA0DFF85CB000244FF00A08716823
:1019C000B1FBF8F081B204EBC40000EB400007EB80
:1019D0008005284602F064FCB5F9020003F0E2FD40
:1019E000494603F03FFE514603F0FEFC5946686647
:1019F00003F038FE641CA866032CE0DBBDE8F09F12
:101A000088040020000C0140A8050020DB0FC9401D
:101A1000000096448FC2753D7047704770470000C4
:101A2000F8B5016804460868CA684B6910F00F0FE2
:101A30004FF0000559D003F0010602F490773743C8
:101A400065D0C10705D0D10503D5616C41F0010116
:101A50006164410705D5D90703D0616C41F00201EB
:101A60006164810705D5D90703D0616C41F0040199
:101A70006164010707D502F02001314303D0616C96
:101A800041F008016164616C00293AD0800604D5F8
:101A9000900602D5204601F0B2F820684069616CDA
:101AA000C0F38010090700D460B3204601F080F82D
:101AB00020684069400621D52068143050E8001F96
:101AC00021F0400140E80012002AF5D1E06BA8B1F6
:101AD0006D494163E06BFEF7ADFD002811D0E06B6E
:101AE000416B01B0BDE8F040084783060FD593066F
:101AF0000DD52046BDE8F84001F081B82046FFF73B
:101B00008DFFF8BD2046FFF789FF6564F8BD266BA1
:101B10002023012E7CD1C6067AD5D60678D5086852
:101B20004868009048694FF00206400640D5E16BD6
:101B3000086840680004000CE8D0A28D8242E5D914
:101B4000E085886920282DD020680C3050E8001FDF
:101B500021F4807140E80012002AF5D12068143089
:101B600050E8001F21F0010140E80012002AF5D1E1
:101B70002068143050E8001F21F0400140E80012B6
:101B8000002AF5D184F84230256320680C3050E8F3
:101B9000001F21F0100140E80012002AF5D1E06B8F
:101BA000FEF724FD6663A08DE18D401A81B22AE024
:101BB000A08DE18D401A81B2E08D0028A6D00029C9
:101BC000A4D020680C3050E8002F22F4907240E836
:101BD0000027002FF5D12068143050E8002F22F0A4
:101BE000010240E80027002FF5D184F84230256338
:101BF00020680C3050E8002F22F0100240E800234B
:101C0000002BF5D166632046FFF707FFF8BDFFE71D
:101C100005062BD5150629D594F841002128F5D1C4
:101C2000A068B0F5805F01D12069B0B1206A411C85
:101C30002162216800784860E08C401E0004000C9E
:101C4000E084E3D12068C16821F08001C160206890
:101C5000C16841F04001C160D8E7206A0088C0F344
:101C600008004860206A801C2062E5E74006CDD568
:101C70005006CBD5CA68204622F04002CA6084F8DC
:101C8000413000F0DFF9C1E7A12B000870B5040076
:101C900004D094F84100002510B106E0012070BD89
:101CA00084F84050204600F023F8242084F84100B6
:101CB0002068C16821F40051C160204601F000F89D
:101CC0002068016921F4904101612068416921F097
:101CD0002A0141612068C16841F40051C160656416
:101CE000202084F8410084F842006563002070BD24
:101CF00070B586B0002400940194029403940168A6
:101D00004748464E022203230515B14226D1816978
:101D100041F480418161816901F4804104918169CC
:101D200041F00401816180693E4E00F0040004909E
:101D30001002CDE90002694603933046FEF720FD0C
:101D4000CDE90054694630460294FEF719FD0022A1
:101D500005212520FEF78CFE252030E0324EB142D1
:101D600031D1C16941F40031C161C16901F400316F
:101D70000491816941F02001816180692B4D00F05F
:101D8000200004902020CDE90002694603932846F4
:101D9000FEF7F6FC4020CDE900046946284602948F
:101DA000FEF7EEFC2249486840F0E06040F0080091
:101DB0004860002205212620FEF75AFE2620FEF765
:101DC00049FE06B070BD1B4EB142FAD1C16941F463
:101DD0008021C161C16901F480210491816941F0D0
:101DE000080181618069CDE9005200F00800CDE969
:101DF0000330114D69462846FEF7C2FCE814CDE9D0
:101E00000004694628460294FEF7BAFC0022052128
:101E10002720FEF72DFE2720D1E7000000380140E3
:101E2000001002400008014000440040001401403E
:101E30000000014000480040000C014090F8423092
:101E4000202B01D00220704721B11AB10023036377
:101E500000F092BF012070472DE9F04100684B4926
:101E600088427DD14A4A4A48921E4A4C00781178ED
:101E7000002639B1022301290DD0022913D00329EC
:101E800006D11BE06D2803D101211170207008E0FC
:101E90001670567069E07228FAD113705178605448
:101EA000491C517061E051786054491C51700128FF
:101EB00002D10320107058E0137056E0517860543E
:101EC000491CC9B251701028F6D1052010709046F7
:101ED0000B294AD12F4DA078483D2F4F85F82C0073
:101EE000022804D0032815D0042826D037E0217911
:101EF000E0783A4601F0A4FFE863A17960793A46B8
:101F000001F09EFF2864217AE0793A4601F098FFBB
:101F1000686424E02179E0783A4601F091FF286373
:101F2000A17960793A4601F08BFF6863217AE07904
:101F30003A4601F085FFA86311E02179E0783A463E
:101F400001F07EFF2862A17960793A4601F078FFBE
:101F50006862217AE0793A4601F072FFA86200E0F7
:101F60000AE088F8006088F80160BDE8F0410122CD
:101F700007490A48FFF762BF0949884203D1BDE813
:101F8000F04100F061B8BDE8F0810000004400407D
:101F90001A000020580800200000C8421805002040
:101FA000004800402DE9F843044690F841001F46E0
:101FB00015460E46202802D00220BDE8F8838EB1D7
:101FC00085B100206064212084F84100FEF7DEFC2A
:101FD000A5848146E584A0684FF02008B0F5805FB5
:101FE00002D003E00120E8E7206910B13546002661
:101FF0000EE000250CE08021204600F0D8FEA0B9BC
:10200000BDB115F8010B21684860E08C401EE084EA
:10201000E08C4B464FF0000200970028EBD14FF0C8
:102020004001204600F0C3FE40B184F84180032007
:10203000C3E736F8020BC0F30800E4E784F84180F8
:102040000020BAE77047FEE7064810B5407800F078
:10205000BBFF04490122BDE81040491C0248FFF7BC
:10206000EDBE00001B000020600500202DE9F041BE
:10207000012214491448FFF7E1FE5021002000F02E
:10208000EDFE124801F01EF8114800F093FF1148D0
:1020900000F0DAFE0B4E01250027761E0224377071
:1020A0000321342000F0E8FE642002F049FA307881
:1020B00020B9641EF3D16D1C0A2DEFDBBDE8F041A1
:1020C000FEF7DCB91C0000206005002099280008FC
:1020D0004D280008DF0500084FF4FA7002F030FACE
:1020E000FFF7C4FF4FF47A7002F02AFAFFF7BEFF41
:1020F000DFF8C0B0304F31480078002856D0DFF804
:10210000B890DFF8BC80A9F1180900246FF00E0622
:1021100009F10C0A08EB440535F9680F03F042FA9F
:10212000314603F07CFC042103F079FC49F82400DB
:10213000B5F9060003F036FA314603F070FC214988
:1021400003F090FA4AF82400B5F9120003F02AFAD5
:10215000314603F064FC594603F084FA47F8240042
:10216000641C032CD6DB144C38683C3CE060786877
:102170002061B868A168054603F07CFB584504DD82
:102180001149606803F076FB06E01049884204D9E3
:102190000D49606803F0B4F86060A56028462168C6
:1021A00003F068FB616803F0ABF86061012002F0A6
:1021B000C7F9A0E7DB0F4940A00800201B00002062
:1021C000AC0900200000FA44DB0FC940DB0F49C016
:1021D00010B5A4B01C221C496846FEF7A8F80021DF
:1021E000684601F003FE194C17491C2220601C317F
:1021F00007A8FEF79CF8002107A801F0F7FD124997
:1022000020611C2238310EA8FEF791F800210EA89B
:1022100001F0ECFD0C49E0601C22543115A8FEF7DA
:1022200086F8002115A801F0E1FD074960601C2235
:1022300070311CA8FEF77BF800211CA801F0D6FD28
:10224000A06024B010BD00009C5A000800000020CF
:102250002DE9F04F85B00024554800940194029474
:102260000394816941F040018161816901F040017D
:102270000491816941F080018161816901F08001EF
:102280000491816941F004018161816901F00401D7
:102290000491816941F480718161816901F48071E7
:1022A0000491816941F008018161816901F00801AF
:1022B0000491816941F020018161816901F020016F
:1022C0000491816941F0100181618069394F00F00A
:1022D00010000490012220213846FEF751FBDFF860
:1022E000D890012205214846FEF74AFBDFF8CCA032
:1022F000012210215046FEF743FBDFF8C4B0002254
:102300003F215846FEF73CFB012220212D48FEF7D5
:1023100037FB4FF0200803260125CDF800800396F7
:10232000CDE9015469463846FEF72AFA05200090A7
:1023300001AA112082E8510069464846FEF720FABA
:10234000022721486946CDE9007048460297FEF70A
:1023500017FA1020CDE90005CDE90246694650463E
:10236000FEF70EFA03970095CDE9015469465846E9
:10237000FEF706FA3E20CDE90005CDE90256694692
:102380005846FEF7FDF9CDF800800396CDE90154DB
:1023900069460C48FEF7F4F9002205210720FEF7F4
:1023A00067FB0720FEF756FB05B0BDE8F08F000085
:1023B0000010024000180140001C014000080140CC
:1023C00000200140000C014000001110104810B521
:1023D0000E4901604FF48271416000218160C1604B
:1023E0004FF400720161C0E905121822C0E907210B
:1023F000416281620A21C162FEF74CFE002803D0CF
:10240000BDE81040FEF7F0B810BD000000300140FC
:102410001003002010B58AB0002407941C216846E0
:102420000894FDF7B6FF1D484FF08041C0E9001445
:1024300041F61F41C0E9024104618461FFF703FADC
:1024400008B1FEF7D1F8079407A914480894FEF7DD
:10245000D1FE08B1FEF7C8F86020CDE9000402946F
:10246000002269460D480494FFF787F908B1FEF78A
:10247000BBF8042269460948FFF77FF908B1FEF767
:10248000B3F8082269460548FFF777F908B1FEF767
:10249000ABF80248FFF72EF90AB010BD6803002020
:1024A00010B58CB024216846FDF773FF0024164850
:1024B000099414490A94C0E900144FF6FF71C0E969
:1024C0000241046184610320CDE900040120CDE9CB
:1024D00002040A210491CDE90540CDE9074169468E
:1024E0000948FEF747FF08B1FEF77EF8099409A9ED
:1024F00005480A94FEF77EFE002801D0FEF774F826
:102500000CB010BD00040040B003002010B58CB02A
:1025100024216846FDF73DFF00241648099414491C
:102520000A94C0E900144FF6FF71C0E9024104614A
:1025300084610320CDE900040120CDE902040A21D1
:102540000491CDE90540CDE9074169460948FEF708
:1025500011FF08B1FEF748F8099409A905480A9443
:10256000FEF748FE002801D0FEF73EF80CB010BD83
:1025700000080040F803002010B58CB02421684604
:10258000FDF707FF00241648099414490A94C0E98E
:1025900000144FF6FF71C0E9024104618461032019
:1025A000CDE900040120CDE902040A210491CDE91E
:1025B0000540CDE9074169460948FEF7DBFE08B151
:1025C000FEF712F8099409A905480A94FEF712FECD
:1025D000002801D0FEF708F80CB010BD000C004038
:1025E000400400201CB500240F4800940D490194BC
:1025F000016040F2F311C0E9011441F61F4184610A
:10260000C160FEF735FE08B1FDF7EEFF00946946A4
:1026100005480194FEF7EEFD002801D0FDF7E4FF28
:102620001CBD000000100040880400200C4810B5BC
:102630000A4901604FF4E1314160002181600C22C0
:10264000C160C0E904128161C161FFF71FFB00286E
:1026500003D0BDE81040FDF7C7BF10BD00380140F2
:10266000D00400200C4810B50A4901604FF4E13154
:102670004160002181600C22C160C0E904128161C7
:10268000C161FFF703FB002803D0BDE81040FDF750
:10269000ABBF10BD00440040180500200C4810B529
:1026A0000A4901604FF4E1314160002181600C2250
:1026B000C160C0E904128161C161FFF7E7FA002837
:1026C00003D0BDE81040FDF78FBF10BD00480040AB
:1026D00060050020FEE7FEE72DE9F047040011D079
:1026E000206C60648146E06B2064C4E9062180466A
:1026F000104603F0BFF80746E063207828B10128B0
:102700003DD03AE00020BDE8F0873946606802F02D
:10271000A9FF6062A06A10F0FF4F28D0394602F08E
:10272000EFFDA062606BA063206B6063414638469A
:1027300003F0A0F82063E2680146104602F092FF21
:10274000E0626169A06A03F059F8606908D380F01B
:102750000040A16A03F052F803D2606980F00040A3
:10276000A062D4E9090102F0CBFDE16A34E0002067
:10277000D7E7206980F000402062206AC3E7414625
:10278000384603F077F8616802F06CFF0646606235
:102790003946A06802F066FF0546A062606BA06340
:1027A000206B60630121404603F039F9394603F09C
:1027B00056F8494602F0A4FD2063E268014610463F
:1027C00002F050FF0746E0622946304602F098FDCD
:1027D000394602F095FD216A02F092FD20622169DE
:1027E00003F00CF82069C7D380F00040216A03F0A1
:1027F00005F8C2D2BDE710B50028029C16D0002A09
:1028000014D00170116841605168816000F10C0CB6
:1028100091688CE81A0000218163416301630162C1
:10282000C1628162416241640164C16310BD000004
:102830000148FEF7BFBB00001003002010B5406A3E
:102840000021C187C186FEF7B3FB10BD10B5002281
:10285000104B15E0362809D039280BD03C2812D06F
:102860001C783F2813D044F0800406E01C7844F024
:10287000010402E01C7844F002041C70401C521C4D
:102880008A42E7D310BD1C7844F00804F5E744F011
:102890000404F2E71B0000208AB20146012301482C
:1028A000FFF780BB60050020012001F093FAFBE7F1
:1028B00010B5FEF771F801F099FF012803D0BDE8CB
:1028C000104001F023BF10BD30B58FB028216846FD
:1028D000FDF75FFD14210AA8FDF75BFD012001044F
:1028E00000248DE8130004904FF4E010CDE90810A7
:1028F000022507956846FEF7CFF908B172B6FEE7E4
:102900000F20CDE90A054FF48060CDE90C400E9010
:1029100002210AA8FEF7DEF8002801D072B6FEE711
:102920000FB030BD704700000148FEF74BBE0000FD
:10293000680300200148FEF745BE0000B0030020F8
:102940000148FEF73FBE0000F80300200148FEF7F3
:1029500039BE0000400400200148FEF733BE0000ED
:1029600088040020F0B50268204D214E214FDFF889
:1029700088C0224B4FF0804EA84209D0984207D021
:10298000704505D0B04203D0B84201D0604503D1B4
:1029900022F070044A682243A84209D0984207D026
:1029A000704505D0B04203D0B84201D0604503D194
:1029B00022F44074CA6822434C6922F08002224308
:1029C00002608A68C2620A688262A84201D09842A4
:1029D00001D109690163012141610169C90703D07E
:1029E000016921F001010161F0BD0000002C0140EE
:1029F0000004004000080040000C0040003401408A
:102A000010B501F01F010123046A8B409C4304624E
:102A1000036A8A401343036210BD0000F0B5026AE6
:102A2000036A23F00103036243688469114E24F0B2
:102A300073050C68104F2C4322F002058A682A4364
:102A4000B04201D0B84205D122F00805CA682A4335
:102A500022F00402B04201D0B84205D14D6923F4FE
:102A600040731D438B692B43436084614968416314
:102A70000262F0BD002C014000340140F0B5026A52
:102A8000036A23F010030362436884690D6824F429
:102A9000E64444EA05248D6822F0200242EA051249
:102AA0000F4D104EA84201D0B04206D1CF6822F09F
:102AB000800242EA071222F04002A84201D0B0424E
:102AC00007D14D6923F4406343EA85038D6943EAE6
:102AD000850343608461496881630262F0BD000040
:102AE000002C014000340140F0B5026A036A23F46F
:102AF000807303624368C46922F4007224F0730592
:102B00000C68124E2C438D6842EA05220E4DA842F5
:102B100001D0B04206D1CF6822F4006242EA072217
:102B200022F48062A84201D0B04207D14D6923F45B
:102B3000405343EA05138D6943EA05134360C461BA
:102B40004968C1630262F0BD002C014000340140BD
:102B500030B5036A026A22F4805202624268C46994
:102B60000D6824F4E64444EA05248D6823F40053F8
:102B700043EA0533084DA84202D0084DA84204D1CB
:102B80004D6922F4804242EA85124260C46149687C
:102B90000164036230BD0000002C0140003401409C
:102BA00010B5406A0021C185C184FEF737FF10BD12
:102BB00001680C3151E8002F22F4907241E80023A3
:102BC000002BF5D10168143151E8002F22F00102E9
:102BD00041E80023002BF5D1016B012909D10168DF
:102BE0000C3151E8002F22F0100241E80023002BA5
:102BF000F5D1202180F8421000210163704708B50B
:102C000090F84210222901D0022008BD81684FF4BB
:102C10008053994201D1026922B1826A99421BD044
:102C200049B10AE00268816A5268C2F308020A8068
:102C3000816A891C08E0016971B10168496801F085
:102C40007F011170816A491C8162C18D491E09048E
:102C5000090CC18503D01BE001684968F1E70168F0
:102C6000CA6822F02002CA600168CA6822F4807231
:102C7000CA6001684A6922F001024A61202180F895
:102C8000421000214163026B012A03D0FFF7E4F8F0
:102C9000002008BD016301680C3151E8002F22F0CB
:102CA000100241E80023002BF5D101680A68D20622
:102CB00002D50A6849680091818DFEF7AEFEE7E70C
:102CC00070B5044600680169E26821F4405111437F
:102CD0000161A16820690143606901432068C268FD
:102CE00041F20C639A430A43C26020684169A269B9
:102CF00021F44071114341611E492068884202D18C
:102D0000FDF794FF01E0FDF781FF00EBC00101EB4F
:102D10000011606864228000B1FBF0F3B3FBF2F3B2
:102D20006FF018067343B1FBF0F5B1FBF0F605EB5D
:102D30008305322303EB0515B5FBF2F5B6FBF2F67E
:102D400005F0F00505EB0615B1FBF0F6B1FBF0F070
:102D5000B0FBF2F06FF01801484306EB800003EB84
:102D60000010B0FBF2F0216800F00F0028448860EA
:102D700070BD00000038014081628285C28500215B
:102D80004164222180F84210016921B10168CA68BA
:102D900042F48072CA6001684A6942F001024A61E5
:102DA0000068C16841F02001C160002070472DE932
:102DB000F8431F4690460D460446089E23E0701CCB
:102DC00021D0FDF7E3FDC01BB0421AD8CEB1206878
:102DD000C168490717D5802D15D0402D13D0016843
:102DE000C94309070FD401680025406800902046B8
:102DF000FFF7DEFE0820606484F840500120BDE843
:102E0000F8830320FBE72068006835EA000004D05F
:102E100000204045D3D00020F1E70120F9E7000071
:102E20000148FEF7FDBD0000D00400200148FEF778
:102E3000F7BD0000180500200148FEF7F1BD0000B5
:102E400060050020FEE7000018B1034988610020FA
:102E500070476FF00500704720000020062802D957
:102E60006FF005007047034A106211700020D061B6
:102E700070470000200000202DE9FC5F0C4605464D
:102E800020446FF00507902879D2484E380C32461E
:102E900000EA44091078D6F820C052686FF0040A9E
:102EA0004FF0FF0B4FF0AA0EEBB2C5F30721BCF1B8
:102EB000070F78D2DFE80CF00415384B771538008F
:102EC000042C70D87AB38DF800B027208DF801E07B
:102ED0008DF802008DF804108DF803300521684646
:102EE0001FE002B309F10502B2F5807F35D88DF8F5
:102EF000000003208DF80100200A8DF802108DF8E3
:102F000004008DF803308DF805400621684600F076
:102F1000F7F8010A8DF806108DF80700726808218D
:102F2000684690473CE02BE0032C3CD834693CB326
:102F30008DF800B08DF801E027228DF802208DF881
:102F400004108DF8033005226946A04728E0F76891
:102F5000B7B14B46B9F5807F03D96FF00300BDE8E8
:102F6000FC9F4006E9B2000E114AB847012817D16C
:102F700073692BB10E49002201F580770BE012E056
:102F8000FFE75046EBE731F8120002EB050C521C4C
:102F900027F81C0092B2A242F5D321462846984752
:102FA00000207562DBE73846D9E7000020000020EA
:102FB000AC08002018B103494861002070476FF049
:102FC00005007047200000202DE9FC413A4E716950
:102FD000002954D03949F26900248854521CF26106
:102FE000306A072863D2DFE800F0042E6565042EFE
:102FF00065000878552804D0521E3048491CF261FB
:103000003BE00B2A53D30A252C4F0023184617F810
:1030100000C0401C6344DBB2A842F8D3887A9842CF
:10302000EAD14888ADF800008888ADF80200C88869
:10303000ADF804000889ADF8060048780422694616
:10304000FDF772FA36E0022A31D948780328D3D145
:103050008878401D904212D888180D4630F8020C2E
:10306000921E47BA91B2154800F04AF8874208D03C
:10307000F269691C521E1148F261FDF713F9BDE8AF
:10308000FC81A8780E4F41080022706A0AE005EB27
:10309000420302EB000CB3F80330521C5BBA27F872
:1030A0001C3092B28A42F2D37269904702E0B2F5C4
:1030B000807FE4D1F461E2E720000020AC0800202A
:1030C000AC09002018B103494860002070476FF038
:1030D0000500704720000020490050EAC12018BFB9
:1030E00004204A0D18BF40F0010040F2FF72B2EB1D
:1030F000515F08BF40F00200012808BF052070475B
:10310000F0B5FF23084E1C46002206F5807705E047
:10311000855C5D40735D63407C5D521C8A42F7DBD9
:1031200044EA0320F0BD0000645B00080907090EB3
:10313000002804DB00F1E02080F80014704700F064
:103140000F0000F1E02080F8141D70472DE9F74FC3
:10315000144694B00021C4E902111599079121F099
:103160000045C9498D4206DC1599C4E9000117B034
:103170000020BDE8F08FC549DFF814A3A9423CDD6B
:103180000799C44E0029C44FC44A1599534619DD06
:1031900001F0A0FF554506D0C14AC24B01F09AFF8D
:1031A000C4E900010AE04FF0D352BE4B01F092FF98
:1031B00032463B4601F08EFFC4E9000117B0012002
:1031C000BDE8F08F01F01AFC554506D0B44AB54B66
:1031D00001F014FCC4E900010AE04FF0D352B14BF6
:1031E00001F00CFC32463B4601F008FCC4E900014A
:1031F00017B04FF0FF30BDE8F08FAB49A9421599E9
:1032000078DB21F0004183468846A84AA84B01F0AC
:1032100057FE0022A74B01F0F1FB01F0F7FD0990EA
:1032200001F023FE06460F469C4A534601F048FE35
:1032300043465A4601F042FF80468A46984A994BD7
:103240003046394601F03CFE2A0D01250B924246DC
:10325000534601F033FF032DC4E9000139D00B9828
:10326000C1F30A51401A05EB45111139814230DA98
:103270009148C346784400EB0510CDF80CA00C90A3
:10328000D0E900233046394601F01AFE02460B46CB
:10329000049106905846039901F01CFF80468A4627
:1032A00002460B465846039901F014FF049B069A08
:1032B00001F010FF83460C9803913946D0E90223B0
:1032C000304601F0FDFD5A46039B01F003FF6D1CE3
:1032D000BDE707980028A2BF099817B0BDE8F08F96
:1032E000616881F000416160099817B04042BDE813
:1032F000F08FFFE784461598C1F31301C0F30A501D
:10330000A0F2F5304FEA601800F01F06C6F1200069
:10331000139000200690079041F4801E05206D4612
:1033200076B1664A08EB00017A4452F8213002EB8C
:103330008101B3404A68139922FA01F1194305E06B
:103340005F4908EB0002794451F82210A1FB0E27D7
:10335000A1FB0C131A449A4234BF0123002303EB50
:10336000070A05EB8003D3E901B70F448F4234BF4E
:103370000121002193448B4411B1934502D903E00C
:10338000934501D2012100E00021C3E901B7514476
:1033900045F82010011EA0F10100C1DC0298059F34
:1033A00000F10050800F12900298DDE90356800072
:1033B00001F05BFD834628460D9101F06DFD6FF035
:1033C0001D0202F0FEFACDE90E01304601F064FD67
:1033D0006FF03D0202F0F5FA80468A46384601F069
:1033E0005BFD6FF05D0202F0ECFA07464246534681
:1033F000119101F003FBDDE90E2301F0FFFA5A46BB
:103400000D9B01F0FBFA00250E465A4628460D9BFF
:1034100001F060FEDDE90E2301F05CFE42465346FA
:1034200001F058FE3A46119B01F048FEDFF898A0E3
:10343000244A534601F044FD07468846234A244B5C
:103440003146284601F03CFD3A46434601F0D6FAA3
:10345000074688464FF0A84253463146284601F0B9
:103460002FFD3A46434601F0C9FA159A12F0004F73
:1034700004D0129A81F0004152421292C4E9000134
:10348000129817B0BDE8F08FFB21E93F7CD90240CC
:10349000FB21F93F7370032E8A19A33B00004054AF
:1034A0003163621A61B4D03DFB21394183C8C96DD3
:1034B000305FE43F0000E03F302B0000AC2A00000A
:1034C0008E2A0000182D4454FB21F93D3326A61105
:1034D000460B113C2DE9FF4D21F0004807460C46F4
:1034E000B8F1795F08DA01F091FC002801BF0020F3
:1034F000324904B0BDE8F08D3A46234610461946DD
:1035000001F0DEFC054602462D480E460B4606211C
:10351000784400F05DF82A46334601F0D1FCDDE93D
:10352000022382468B463846214601F0C9FC0446F8
:103530000F4652465B462846314601F0C1FC224602
:103540003B4601F0C7FD07468A464FF0FF3228464A
:10355000314602F036FA1B4A90450ADA3A4653469B
:1035600001F0B8FD04B00022BDE8F04D134B01F0AE
:10357000A5BD154A4245A8BFA8F500154FF00004A7
:10358000B8BF124D22462B4601F0A4FD06468846E0
:1035900022462B460020094901F09CFD04460D46B9
:1035A0003A4653463046414601F094FD04B0224667
:1035B0002B46BDE8F04D01F081BD00000000F03F5A
:1035C000642800003333D33F0000E93F0000D23FBE
:1035D0002DE9F0414F1E00EBC7010446D1E900017F
:1035E00015461E4637F006020DD02A46334601F036
:1035F00067FC7F1E04EBC703D3E9002301F0FEF94B
:1036000037F00602F1D1022F25D0042F13D0062F58
:1036100018BFBDE8F0812A46334601F051FCD4E9D9
:103620000A2301F0EBF92A46334601F049FCD4E9BC
:10363000082301F0E3F92A46334601F041FCD4E9BE
:10364000062301F0DBF92A46334601F039FCD4E9C0
:10365000042301F0D3F92A46334601F031FCD4E9C2
:10366000022301F0CBF92A46334601F029FCD4E9C4
:103670000023BDE8F04101F0C1B900002DE9FF4D84
:10368000054621F0004084B00C46B0F1795F0BDABA
:103690002846FFF721FD042808BF00F06FF82846F0
:1036A00008B02146BDE8F08D2A460B46104601F0D1
:1036B00007FC06460F462A46234601F001FC8046D9
:1036C00026488A4632463B4605217844FFF780FF6C
:1036D00083461098029160B3214A224B40465146DE
:1036E00001F0EEFBCDE900015A4640465146029BEF
:1036F00001F0E6FB82468846DDE906014FF0FF3225
:1037000002F05FF95246434601F0E4FC32463B4684
:1037100001F0D6FBDDE9062301F0DCFCDDE9002346
:1037200001F0D8FC08B02A462346BDE8F04D01F070
:10373000C5BC0B465A463046394601F0C1FB084A23
:10374000084B01F05BF94246534601F0B9FB08B063
:103750002A462346BDE8F04D01F050B9A2270000EB
:10376000495555555555C5BF012202F02AB90022C9
:1037700013461046114601F0F1B90000024A00203C
:10378000110702F01EB9000001FDFFFF70B588B0FF
:10379000044600F0BFF9206000F0B8F9606000F066
:1037A000BDF9A060124801AD0DF1100C0EC885E8FE
:1037B0000E0007C8002500958CE807000D4E01AAF1
:1037C0003346294604F10C00FFF715F8334601AAE9
:1037D000002104F154000095FFF70DF8064B04AAF0
:1037E000002104F19C000096FFF705F808B070BDB9
:1037F0004C5B000800004842000020412DE9F041E8
:103800000E46044615461846134901F02BFF07469D
:1038100028464FF0FF3102F002F9804630460F494A
:1038200001F020FF414602F025F8394602F022F867
:1038300020603846294602F012F86060454630465E
:10384000074901F00FFF294602F014F8394602F04B
:1038500011F8A060BDE8F0819A99193E2DB25D3F44
:103860002DB25DBF2DE9F0470446D0F8E820D0F82E
:10387000F4100C30FEF730FF814604F15400D4F808
:10388000EC20D4F8F810FEF727FF8046D4F8FC00AF
:10389000F03401F009FD00F0C5F801F07DF80546AF
:1038A000E06801F001FD00F033FD01F075F8074616
:1038B000414601F0D7FE06464946284601F0D2FEB1
:1038C000314601F01DFD06464946384601F0CAFE64
:1038D00007464146284601F0C5FE394601F0CAFFB9
:1038E00054F80C2B054654F80C1BA4F16C00A4F5FD
:1038F0008474FEF7F1FE0E4FDFF8388081463A46B9
:103900004146304600F00EF9C4F800013A464146FF
:10391000284604F5807400F005F96060064A4FF00F
:103920008141484600F0FEF8A060BDE8F087000045
:10393000666666BF6666663F000080C070B5044676
:1039400090F8E400002170B1012814D002281AD0A8
:10395000032807D154F8740B016B6167416BA167B1
:10396000806BE06770BD44F8E81F6160A160A161F1
:10397000E161216270BD44F8E81F616054F8E80C11
:10398000806BA06070BD54F88C5B0121E86B02F085
:1039900046F860670121286C02F041F8A0670249EF
:1039A000686C01F05FFEDCE7000040404FF4FA6015
:1039B00000F0C6FD1A48FFF7E9FE194D05F58C76B3
:1039C00068684069C5F8FC00286890F82C1085F8F4
:1039D000E410016AC5F8F410406AC5F8F800104810
:1039E000FFF7ACFF0E4C94F8E400032802D1204608
:1039F000FFF738FF04F58074304694E80E00FFF7B7
:103A0000FDFE002405EB8400D0F81811E0B200F0B0
:103A1000BDF8641C032CF5DB052000F091FDCFE719
:103A2000EC06002000B5244B21F0004287B09A42FA
:103A3000DCBF0022134629DD204B9A4208D140B951
:103A40004FF00100FCF7D4FCFFF791FE07B000BD7A
:103A500003DBFFF789FE07B000BD02AAFFF776FB84
:103A600010F0030104BF0DF1080C9CE80F000DD00D
:103A7000012001290ED0022914D00DF1080C00906C
:103A80009CE80F00FFF7FAFD07B000BDFFF722FD2D
:103A900007B000BD0DF1080C00909CE80F00FFF787
:103AA000EDFD05E00DF1080C9CE80F00FFF712FD9D
:103AB00007B081F0004100BDFB21E93F0000F07F2D
:103AC00001220A490A48FEF7B9F90A4D0A4E0B4F7E
:103AD000002405EB04103246394600F011F8641C4E
:103AE000022CF6DB012000F02BFDFBE71A00002082
:103AF0001805002010080020CDCCCC3D6F12833A71
:103B0000C1608260002101604160704700487047D9
:103B100064080020004870471008002000487047E3
:103B2000A805002070B50E4615460446114601F062
:103B300065FD00D22C463146204601F05FFE00D2E2
:103B40003446204670BDFCF72FFFFEF7BDFEFEF7A2
:103B50007FFBFEF75FFCFEF7A3FCFEF7D7FCFEF74A
:103B60000BFDFEF73FFDFEF761FDFEF72FFCFEF7B4
:103B700079FDFEF793FDFEF72BFB00F032F9FEE72F
:103B800001460020842900D0C81C704700EBC0000B
:103B9000034A00EB400002EB8000C1657047000063
:103BA000A80500202DE9F0410C46344D344F664203
:103BB00070B101282ED002282AD1002C4BDA4FF008
:103BC00000024FF010012846FCF7DAFE01224BE01C
:103BD000002C08DA4FF000024FF001012846FCF7F4
:103BE000CFFE01220BE002DD4FF0010201E04FF0B9
:103BF00000024FF001012846FCF7C2FE002202211C
:103C00002846FCF7BDFE002C00DA344638684463D1
:103C1000BDE8F081002C08DA4FF000024FF00401FB
:103C20002846FCF7ADFE01220BE002DD4FF0010259
:103C300001E04FF000024FF004012846FCF7A0FE1F
:103C4000002208212846FCF79BFE002C00DA3446AF
:103C500038688463DCE701DD012200E000221021E6
:103C60002846FCF78DFE002220212846FCF788FE1E
:103C7000002C00DA34463868C463C9E700200140EC
:103C8000680300202DE9FF4105461B48FDF73CFB7A
:103C900000211A48FDF722FE04211848FDF71EFEF8
:103CA00008211648FDF71AFE3C211548FDF740FC97
:103CB0003C211448FDF73CFC3C211348FDF738FC3F
:103CC000124801AB124E07C883E80700114F0024C9
:103CD00004EBC40000EB40003B4605F8204005EB38
:103CE000800001AA002108300096FEF784FD641CC4
:103CF000032CEDDBBDE8FF81880400206803002071
:103D0000B0030020F803002040040020405B0008BE
:103D10000000A0410000C8412948FFF7B3FFDFF8C9
:103D2000A4A0DFF8A480DFF8A490254E0024574615
:103D300004EBC40000EB400006EB8005B5F906007B
:103D400001F030FC394601F04FFB012101F067FE24
:103D5000414601F087FC494601F084FC641C68651B
:103D6000032CE5DB164E1A4F002505EBC50000EBD2
:103D7000400006EB800404F10800E26D616DFEF77F
:103D8000ABFC3946A06A01F06DFC6D1C2066032D6A
:103D9000EBDB0B4E002404EBC40000EB400506EB0C
:103DA0008500006E01F0E2FB01B216F82500FFF776
:103DB000F9FE641C032CEEDB052000F0C1FBB4E728
:103DC000A805002000007042DB0F49408FC2753DFE
:103DD0000000E14510B500B9012000F0B1FB002062
:103DE00010BD10B500F0D2FB002010BD7FB50D4610
:103DF00004464169B0F9080081B1A16971B1FFF7CA
:103E0000BFFED4E905128DE80700D4E900102B4667
:103E1000226900F0BEFC039004B070BDFFF7B0FE55
:103E200003A9CDE90001208A2B4682B2D4E9001013
:103E300000F082FC012801D00020EDE70398EBE7B9
:103E400010B541EA0020144600B201F0ABFB214658
:103E5000BDE8104001F0C8BA2DE9F041184E0F46F8
:103E60000446F5683068001D00F0A2FA38B93068E1
:103E700090F82C1001208840316981433161601C29
:103E800007D137B13168BDE8F0410E48091D00F097
:103E9000D3BA30682C44AC424460316805D2B06B70
:103EA000BDE8F041091D00F0AFBA706B091D00F0CC
:103EB000ABFAB06A844200D2B462BDE8F08100007F
:103EC00054000020A80B00202DE9F041054600F029
:103ED000BFFA2E4EB068401CB06030682C4F10B155
:103EE000706940B32DE03560B068012829D1002405
:103EF00004EB840007EB800000F078FA641C072CC8
:103F0000F6D323488C3000F071FA2148A03000F03D
:103F10006DFA1F48B43000F069FA1D48C83000F04F
:103F200065FA1B48DC3000F061FA19488C30706388
:103F30001430B06305E03068E96AC06A884200D88E
:103F40003560706A0121401C7062E86A3269814004
:103F50001143316100EB800007EB8000291D00F068
:103F60006BFA00F095FA706900280CD03068E96AA5
:103F7000C06A884207D207494FF080500860BFF3FB
:103F80004F8FBFF36F8FBDE8F08100005400002019
:103F9000CC0A002004ED00E010B5044690F8510072
:103FA00058B101280CD002280FD0502080F311887E
:103FB000BFF34F8FBFF36F8FFEE7206B00F07CFAEB
:103FC0002046BDE8104000F077BA10BD10484FF40D
:103FD0004061420706D0C01D0D4920F00700411A7C
:103FE000C1F540610B4A00230144C2E900030839CE
:103FF000183A21F0070111604B600B600B1AC0E901
:10400000001393604FF00040536050617047000010
:10401000BC0B0020A8000020134E144DA6F1C807C9
:104020004FF08058DFF8489011E000F011FAF06886
:10403000C468201D00F0BCF9A868401EA86068682C
:10404000401E686000F024FA2046FFF7A5FF68686C
:104050000028EAD138680128F9D9C9F80080BFF3EF
:104060004F8FBFF36F8FF2E7940B002054000020B6
:1040700004ED00E02DE9F0479A46DDE90984814628
:104080006FF00303206B03EB82021044089D20F0C5
:104090000706700707D0502080F31188BFF34F8FB9
:1040A000BFF36F8FFEE7002761B1002023180A5C81
:1040B00083F834200A5C12B1401C1028F6D384F82F
:1040C000437001E084F83470072D00D30625E562C3
:1040D000C4E91157201D00F094F904F1180000F014
:1040E00090F92461C5F107006462A061E76484F877
:1040F000507052464946304600F0C0F82060B8F192
:10410000000F01D0C8F80040BDE8F08730B5114974
:1041100000E011460A688242FBD34B685C18844277
:1041200003D1406818444860084643681C1894420C
:1041300009D1084C183C2468A24209D052681A449C
:1041400042600A6812680260814200D0086030BD97
:104150000460F9E7A80000200648416B096829B10E
:10416000416BC968C9684968816270474FF0FF3187
:10417000FAE700005400002008484068401C4FF057
:10418000500080F3118804D0BFF34F8FBFF36F8FBF
:10419000FEE7BFF34F8FBFF36F8FFEE7B000002045
:1041A0002DE9F0410546002600F026FA324F386826
:1041B00008B9FFF70BFF786905424ED1C5B3083542
:1041C00068070ED005F00700C0F108000544680735
:1041D00007D0502080F31188BFF34F8FBFF36F8F4C
:1041E000FEE72DB37868854237D823491831084651
:1041F000046801E0214604466068A84202D22068B3
:104200000028F7D13868844227D00E6820680860FB
:1042100060680836411B10290FD96019420708D081
:10422000502080F31188BFF34F8FBFF36F8FFEE7ED
:1042300013E041606560FFF769FF61687868401AC4
:104240007860BA68904200D2B86078690143002073
:10425000C4E90001F868401CF86000F03BFB7007FF
:1042600007D0502080F31188BFF34F8FBFF36F8FBB
:10427000FEE73046BDE8F0819000002010B5031F36
:104280004FF080741C601B1F21F001011960191F81
:10429000024B0B60143940380A6010BD79410008A8
:1042A00070B504460078002220B1012804D002280D
:1042B00008D120E0114800E0114803685B6AA38040
:1042C000006842626088B4F904502844608008465F
:1042D00001F080F90B4901F0C5F90646284601F0C6
:1042E00061F9094901F0BEF9314601F07DF801F0AC
:1042F0003DF9E08070BD0548DFE70000B003002015
:10430000F80300200000964400606A474004002043
:1043100000B5254B21F0004287B09A4203DC002211
:10432000134600922BE0214B9A4208D140B94FF03E
:104330000100FCF75DF8FFF71AFA07B000BD03DBD8
:10434000FFF712FA07B000BD02AAFEF7FFFE10F059
:1043500003014FF001000DD0012914D002291AD019
:104360000DF1080C9CE80F00FFF7B4F807B081F0DE
:10437000004100BD0DF1080C00909CE80F00FFF714
:104380007DF907B000BD0DF1080C9CE80F00FFF7A8
:10439000A1F807B000BD0DF1080C00909CE80F00DB
:1043A000FFF76CF9E2E70000FB21E93F0000F07F36
:1043B000D0E9013201699A60D0E901235A604A6864
:1043C000824201D182684A60002202610868401E70
:1043D0000860086870470000034B036003F1540055
:1043E0000860802010607047BC00002000F10801C8
:1043F0004FF0FF32C0E90112C1600161002101608C
:10440000704700210161704730B50C68621C02D012
:1044100000F1080202E0026904E01A4653681D68D0
:10442000A542FAD953684B6099608A60516008616F
:104430000168491C016030BD42684A6093688B6026
:1044400093685960916008610168491C0160704778
:10445000502080F31188BFF34F8FBFF36F8F0A494D
:104460004868401C486001280CD10848006810F0DA
:10447000FF0F07D0502080F31188BFF34F8FBFF399
:104480006F8FFEE770470000B000002004ED00E0F1
:104490000849486828B1401E486001D180F311885E
:1044A0007047502080F31188BFF34F8FBFF36F8F99
:1044B000FEE70000B000002070B500282AD0164D9D
:1044C000A0F1080460686969084207D1502080F3B0
:1044D0001188BFF34F8FBFF36F8FFEE722683AB1A9
:1044E000502080F31188BFF34F8FBFF36F8FFEE72B
:1044F0008843606000F080F860686968084468601C
:104500002046FFF703FE2869401C2861BDE8704083
:1045100000F0E0B970BD0000900000204FF0E020F6
:1045200000210161816105494FF47A720968B1FB8C
:10453000F2F1491E4161072101617047140000201A
:1045400010B5020014D00F48006B38B1502080F332
:104550001188BFF34F8FBFF36F8FFEE700F04CF869
:1045600000211046FFF778FC00F0B4F9002807D1CD
:1045700005494FF080500860BFF34F8FBFF36F8F36
:1045800010BD00005400002004ED00E010B586B01E
:104590000024039405AA04A903A80494FFF71CFFB0
:1045A000DDE903010094CDE9011000230EA11048BC
:1045B000059A00F0EEF80F490028C86211D050208B
:1045C00080F31188BFF34F8FBFF36F8F4FF0FF3031
:1045D000886201204861CC6006B0BDE8104000F060
:1045E00041B806B010BD000049444C450000000031
:1045F00019400008540000200248016B491C016367
:104600007047000054000020144A106B10B10120C4
:10461000D06170470020D06110691149B0FA80F074
:10462000C0F11F0000EB800051F820306BB101EBAE
:10463000800000F10803416849684160994201D156
:1046400049684160C86810607047502080F3118845
:10465000BFF34F8FBFF36F8FFEE7000054000020C1
:10466000CC0A00201CB5264908780190FF2008706C
:1046700008788DF800009DF800009DF8002000F0FB
:10468000F000904207D0502080F31188BFF34F8F85
:10469000BFF36F8FFEE79DF800001A4C00F050004A
:1046A00020700720A06006E0401EA0609DF800007A
:1046B00040008DF800009DF800000006A068F3D4CB
:1046C000032807D0502080F31188BFF34F8FBFF32A
:1046D0006F8FFEE74FF44070A060019808700A48A1
:1046E000016841F470010160016841F070410160AE
:1046F000FFF714FF00206060FBF77AFD00201CBD6F
:1047000000E400E0B000002020ED00E010B55020F3
:1047100080F31188BFF34F8FBFF36F8F00F074F8F1
:1047200018B104494FF080500860002080F31188D0
:1047300010BD000004ED00E02DE9FF5F8346DDE9D8
:104740000E87994616468A469000FFF729FD050018
:104750001CD05420FFF724FD040014D00020256352
:1047600084F85100CDE90240CDE900874B4632463E
:1047700051465846FFF77EFC2046FFF7A5FB012077
:1047800004B0BDE8F09F2846FFF796FE4FF0FF30DB
:10479000F6E7F0B585B00546DDE90B040A9EA8B141
:1047A000E4B1542700972063022084F851000020D0
:1047B000CDE9024004AF2846CDE90067FFF75AFC77
:1047C0002046FFF781FB049805B0F0BD502080F330
:1047D0001188BFF34F8FBFF36F8FFEE7502080F338
:1047E0001188BFF34F8FBFF36F8FFEE70548416914
:1047F00019B1006B18B100207047012070470220EA
:1048000070470000540000202DE9F0412F4F002692
:10481000386B28B1B869401CB8613046BDE8F081FA
:10482000FD686D1CFD6013D1786B006838B15020B5
:1048300080F31188BFF34F8FBFF36F8FFEE7786B64
:10484000B96B7963B863386A401C3862FFF784FC3F
:10485000B86ADFF87C80854209D3786B0068A0B124
:10486000786BC068C4686068854211D2B8623868E5
:10487000C06A00EB800158F82100012800D9012608
:10488000F8690028C9D00126C7E74FF0FF30EDE7EF
:10489000201DFFF78DFDA06A18B104F11800FFF785
:1048A00087FDE06A01213A6981401143396100EBDB
:1048B000800108EB8100211DFFF7BEFDE06A396829
:1048C000C96A8842C9D30126C7E700005400002006
:1048D000CC0A00202DE9F0472C4D00242746286BF8
:1048E00038B1FFF7B5FD286B401E2863286B40B137
:1048F00046E0502080F31188BFF34F8FBFF36F8FD6
:10490000FEE7A86822490126D0B3A1F1B409884680
:10491000D8F80010E9B1D8F80C00C46804F1180008
:10492000FFF746FD201DFFF743FDE06A2A6906FAFE
:1049300000F11143296100EB800109EB8100211D89
:10494000FFF77AFDE06A2968C96A8842E0D3EE6120
:10495000DEE70CB1FFF700FCAC693CB1FFF754FF98
:1049600000B1EE61641EF9D10020A861E86938B198
:104970000849012738070860BFF34F8FBFF36F8FD7
:10498000FFF786FD3846BDE8F087000054000020A0
:10499000800B002004ED00E021F00042A2F1605203
:1049A000B2F5801F01F0004328BFD2F17F6C0BD914
:1049B0005FEA001C43EAC20242EB507018BF704726
:1049C00028BF20F001007047B2F5801FBCBF184619
:1049D00070474FEA410C1CF5001F02D2084600F058
:1049E00008BF70B500F016FB00000089FFF7F6BFA6
:1049F0004FF00040A0F580007047000010B591EA2C
:104A0000030F48BF83F0004300F16C83841A71EBFD
:104A1000030C05D2121943EB0C03001B61EB0C01D4
:104A2000DFF824E14FEA1154A4EB135C1EEA430FB4
:104A300018BF9EEA445F73D023EA0E03DCF1200E18
:104A400021EA045143F4801332D322FA0CFE10EB16
:104A50000E0023FA0CFE41EB0E01CCF1200E03FAFE
:104A60000EFE10EB0E0051F10001B1F5801FCCF1EC
:104A7000200E32D201EB045112FA0EF2BDE81040C2
:104A800058BF7047401C38BF5FEA420218BF7047EA
:104A9000002814BF20F0010041F100014FEA41035A
:104AA00013F5001F38BF7047A1F1C04100F000BBF3
:104AB000012A43EB0302ACF1200CDCF11F0E32BFE4
:104AC0004FF0000E23FA0CF310EB030041EB0451FE
:104AD000B4EB115FD0D0A1EB045101F5801149086E
:104AE0005FEA300001EB04510ED350F1000038BFF3
:104AF00012FA0EFE08D1BDE81040C9E7401C38BFCD
:104B00005FEA4202CAD1C3E7BDE810404FEA410361
:104B100013F5001F38BF7047A1F1C04100F0C8BABB
:104B20009EEA445F08D011EA5E0FBDE8104004BF62
:104B300001F0004100207047BDE8104070B500F062
:104B400069FA00BF64FBBE3E0000E0FF02494FF07F
:104B5000000000F004BF00BF0000F87F2DE9C04155
:104B600030B4DFF8A0C23CEA111418BF3CEA1314B9
:104B700000F0EC8081EA03051CEA111444EAD574C4
:104B800018BF1CEA131500F0C780A4EB05044FF012
:104B9000004545EAC12145EAC32341EA505143EAB1
:104BA000525304F17F74994204F500344FEAC02057
:104BB0004FEAC22208BF904200F09C804FEA136582
:104BC0000FF24016765D4FEA134506FB05F7C7F175
:104BD000807706FB07F74FEAD737A7FB03687642D3
:104BE000C8F58038A7FB06CE38BFA8F1010807FB3F
:104BF00008E64FF0000EA6FB028CE6FB03CEDCF1CC
:104C0000000CCEF1004E38BFAEF1010EA6FB0C58E1
:104C10004FF000074FF00005E6FB0E87A1FB08C62A
:104C2000A0FB07CE16EB0E0645F10005E1FB07657C
:104C300015F1E04E7EBFA4F580345FEA46066D4173
:104C400016F1800745F100054FEA17274FEA06667F
:104C500047EA0567A6F1DE46B6F1805F4FEA152503
:104C60001FD9384624F0010C05EBC471BCF1FE6F6E
:104C700001EB0C1102D8F0BCBDE8008124425CBFFE
:104C800001F5801E9EEAC47F02D4F0BCBDE800811D
:104C9000244238D4F0BCA1F1C041BDE8004100F08D
:104CA00007BA4FEAD22242EA43524FEAD323A7FB84
:104CB00002864FEAD02040EA415007FB03661EEA15
:104CC0000E0F4FEAD12105FB026658BFA6EB005636
:104CD000B6EB00564FEA520E4EEAC37E18EB0E0EAC
:104CE00056EB530EBDD518EB02085E417F1C55F103
:104CF0000005B6E74FF480154FF000074FF00006AF
:104D00004FF00008ADE7F0BC4FF0000001F1C041EA
:104D100001F00041BDE8008111EA0C1F0CEA1315F7
:104D200000D00CE013EA0C1F00F025804FF00000CB
:104D3000F0BC81EA030101F00041BDE80081F0BC54
:104D4000BDE8004181EA030100F0B2B9F0BCBDE862
:104D5000004170B500F05EF9097EFC3E00F007B836
:104D600081EA03014FF0000001F00041704781EA41
:104D7000030100F09DB9F0BCBDE800414FF0000018
:104D800021497047FFFDFBF9F7F5F4F2F0EEEDEB8A
:104D9000E9E8E6E4E3E1E0DEDDDBDAD8D7D5D4D339
:104DA000D1D0CFCDCCCBCAC8C7C6C5C4C2C1C0BF85
:104DB000BEBDBCBBBAB9B8B7B6B5B4B3B2B1B0AF8B
:104DC000AEADACABAAA9A8A8A7A6A5A4A3A3A2A16F
:104DD000A09F9F9E9D9C9C9B9A999998979796952A
:104DE00095949393929191908F8F8E8E8D8C8C8BC6
:104DF0008B8A89898888878786858584848383824E
:104E0000828181800000FF070000F87F4FEA4103A4
:104E10004FEA5353A3F58063D3F11E03C8BFD3F108
:104E2000210C0CDD4FF0004242EAC12242EA50520E
:104E300032FA03FC8CEAE17CACEBE1707047102B9A
:104E4000C4BF0020704703F5787CBCF1FF3F04D05D
:104E50006FF0004282EA2100704770B500F0DAF886
:104E60004992248000207047F2E710F0004248BFCA
:104E70004042B0FA80F310FA03F10AD0C3F11D03E7
:104E800003F580634FEA415002EB035202EBD1215C
:104E900070474FF000007047B0FA80F310FA03F14A
:104EA0000AD0C3F11D0303F580634FEA41504FEA76
:104EB000035202EBD12170474FF000007047000011
:104EC000DFF848C170B51CEA111E1EBF1CEA13159D
:104ED0009EEA0C0F95EA0C0F00F06F8081EA030444
:104EE00023EA4C134EEAD47E21EA4C1141F480119E
:104EF00043F48013AE44A1FB024CA0FB0365AEF16A
:104F00007F7E361955EB0C05A1FB034C4CF10003D9
:104F1000A0FB021C16EB0C06654153F1000309428D
:104F200018BF46F0010613F4007F0BD14FEA03319E
:104F30004FEA0530340341EA155140EA16506FF04C
:104F400003020AE04FEAC3214FEAC520F40241EA16
:104F5000555140EA56506FF0020202EB2E4201EB2F
:104F6000025585EACE710AD05FEA440C18BF24F0DE
:104F7000004450F1000041F1000120EAD47040F2F9
:104F8000FE7C624500D270BDA84214BF4FF0804441
:104F90004FF04044002E08BF0024BEF1806FA8BF30
:104FA000A1F1C041BDE8704080F282804FF0000066
:104FB00001F1C04101F0004170479EEA0C0F0CEA7C
:104FC000131518BF95EA0C0F06D04FF0000081EAC8
:104FD000030E0EF0004170BD00F01CF88900013E88
:104FE00000F007B800F009B84FEA430C5FEA5C5CD8
:104FF00008D081EA030100F05BB84FEA410C5FEA98
:105000005C5CF6D14FF00000014970470000FF07DB
:105010000000F87F0EF1020E2EF0030E5EF8046B16
:10502000364205D4012A43EB030515F5001F12D8BB
:10503000012841EB010C1CF5001F0CD80ED14FEAE2
:10504000D17C15F5001F0CEB4C0C0CF1020C08BFC9
:105050004CEBD37C04E04FF0080C01E04FEAD37C2A
:105060000CEB4C0526FA05F606F00706B6F1040C23
:1050700006D20EEB860CBDE870404CF0010C604788
:10508000DFE80CF0090B02024FF000414FF0000086
:10509000A1F5002170BD19461046012851EB01040D
:1050A00018BFD4F5001484BF002001F0004170BD8A
:1050B0000808A0F500114FEA3101704791EA030F8B
:1050C00010B581F000413FF5A1AC83F0004300F042
:1050D00009B8000010B591EA030F48BF83F0004300
:1050E0003FF594AC841A71EB030C07D212198CF0C3
:1050F000004C43EB0C03001B61EB0C01DFF8A4E157
:105100004FEA1154A4EB135C1EEA430F18BF9EEA4A
:10511000445F00F0B08023EA6E03524221EA04515A
:10512000C3EB6E0338BF5B1EDCF1200E25D322FAE1
:105130000CFE10EB0E0043FA0CFE41EB0E01CCF11D
:10514000200E03FA0EFE10EB0E0051F10001CCF11F
:10515000200E29D412FA0EF201EB0451BDE81040E2
:1051600058BF7047401C1CBFB2F1004F7047002869
:105170000CBF491C20F00100704712EB020E43EBFC
:10518000030218BF4FF0010E4EEA4202ACF1200CB0
:10519000DCF11E0E54D943FA0CFE10EB0E0051F157
:1051A000FF31CCF11E0ED5D50EF1010E12FA0EFE16
:1051B000404141EB010101EB445C5FEA5C5C10D9CA
:1051C00010EBDE7001EB045138BFBEF1004FBDE8BB
:1051D000104018BF704700280CBF491C20F0010088
:1051E000704730D24FEAD42C11F5001124F400643A
:1051F0001BD0B1FA81F20B3AA41AA41ED2F12003FB
:10520000914030FA03F31943904001EBCC71002C2C
:1052100001EB0451BDE81040A8BF704701F1C04147
:105220004FF0000001F000417047B0FA80F310FA2F
:1052300003F100D110BDE41A173C4805C90AE4E7A0
:1052400001EB045110BD491001EB0451BDE81040C1
:105250004FEA300002E04FF0000170474A0008BFFB
:105260000042F8D0B2F5001F28BF704701F000419E
:105270004FF0000070479EEA445F07D011EA5E0FCE
:10528000BDE8104004BF002100207047BDE8104079
:1052900070B5FFF7BFFE00BF40DFF63E83F0004170
:1052A000104670470000E0FF43004FEAD30C4FEA7E
:1052B0003C0C43401FBF40070CF1605113F0FE4F00
:1052C00070471CF0006F03D100200CF000417047C4
:1052D0000CF0004343EA507010B540EACC0000F0F7
:1052E00042FA00BF000000924FEA0001FFF7E0BE63
:1052F0004FF000414FF00000A1F500217047000081
:1053000090EA010F48BF81F0004100F1BA82421AD1
:105310003CBF801A89184FEAD0524FF07F4C1CEAEC
:10532000410FA2EBD15318BF9CEA026F00F03B8003
:105330004FF0004C4CEA00204CEA012121FA03FC1A
:1053400010EB0C0C1ED202F1FF325FEA1C2040EB86
:10535000C25038BF70471CF07F0F4FEA400C18BF97
:10536000BCF17F4F38BF7047C3F12003994008BF9D
:1053700020F00100BCF17F4F38BF7047A0F1C04062
:1053800000F037BA4FEA3C00000A40EBC25028BF99
:105390001CF0FF0F4FEA400CE6D018BFBCF17F4F66
:1053A00038BF7047EAE79CEA026F05D010EA5C0F4D
:1053B00008BF00F00040704710B500F0D4F900BFFE
:1053C00064FBBE3E014800F0CABA00BF0000C07FC7
:1053D000401058BFC0F14040491058BFC1F1404192
:1053E0008142EFF3008070474FF47F0C1CEAD0122B
:1053F0001EBF1CEAD11392EA0C0F93EA0C0F00F0C7
:10540000858090EA010F48BF42F4807240F4000C9E
:1054100041F400002CF07F4120F07F4000B5814234
:10542000A2EB03020FF2081CACEB504EC0F10000DF
:105430009EF800E04FEA4E0E00FB0EFC38BF49001C
:105440004FEA2C1C02F5FA020CFB0EF34FEACE1EBB
:105450004FEA112C4FEAC1210EEB635E42EB224270
:105460000EFB0CFC4FEA1C5300FB03114FEA112CFE
:105470004FEA01310EFB0CFC4FEADC4C00FB0C1137
:10548000C14228BF09184CEB03335DF804EB10EB65
:10549000410143EBC250B2F57C0F38BF704729D5AC
:1054A00012F0F00F1CBF00F1C04000F00040704748
:1054B000008182838485868788898B8C8D8E8F91ED
:1054C0009293959697999A9C9D9FA0A2A3A5A7A811
:1054D000AAACAEB0B2B3B5B7B9BCBEC0C2C5C7C93D
:1054E000CCCED1D4D7D9DCDFE2E6E9ECF0F3F7FAA1
:1054F000FE0000004FEA400C0CF1807CBCF17E4FB6
:1055000028BF7047B0F1C04000F073B990EA010FB6
:105510000CEAD11348BF42F48072624538BF63453C
:1055200007D213F47F0F16D080EA010000F000408C
:10553000704710B500F017F9097EFC3E00F005B881
:1055400080EA010000F00040704780EA010000F0AE
:10555000004000F04EB912F47F0F04BF02487047BC
:1055600080EA010000F045B90000C07F41000B0E49
:10557000D3F19E0208D950F400034FEA032323FA23
:1055800002F048BF4042704710B500F0ECF800BF91
:1055900049922480002070476FF0004282EA200088
:1055A0007047000010F0004148BF4042B0FA80F35D
:1055B00010FA03F2C3F19D030BD051EAC35101EB82
:1055C0001220530638BF704700F1010008BF20F0D9
:1055D00001007047B0FA80F310FA03F2C3F19D03A3
:1055E0000AD0D90501EB1220530638BF704700F1ED
:1055F000010008BF20F001007047000050EA010CD4
:1056000000F113801CF5000F58BFBCF5000F01D44A
:105610008842704707D710F5000F58BF11F5000FEB
:1056200015D488427047894270471CF5000F04D595
:10563000BCF5000FF7D5814270474FF0807C1CEB22
:10564000400F38BF1CEB410F01D28142704710B5AB
:1056500000F089F8922449004FF000504FF080513B
:10566000FFF7B6BE4FF47F0C1CEAD0121EBF1CEA37
:10567000D11392EA0C0F93EA0C0F00F0478090EAE6
:10568000010F48BF42F480724FF0004C4CEA0020FA
:105690004CEA012102EB0302A0FB0113A2F5000278
:1056A000002918BF43F001035B0028BF4FEA330312
:1056B00042EB22425FEA132C4CEBC2502EBFBCEBF4
:1056C000436FB2F57C0F70474FEA036CBCF1004F9B
:1056D00008BF20F00100B2F57C0F38BF70470BD532
:1056E00082F0FF0212F5803FC8BF704700F1C04052
:1056F000D8BF00F00040704700F5000C5FEA4C0C8A
:1057000048BF7047B0F1C04000F073B890EA010F95
:105710000CEAD11348BF42F48072624538BF63453A
:1057200004D280EA010000F00040704710B500F09C
:105730001AF800BF8900013E00F007B800F009B870
:105740005FEA410C5FEA1C6C08D080EA010000F0BF
:1057500050B85FEA400C5FEA1C6CF6D14FF0004095
:10576000A0F5800070470EF1020E2EF0030E5EF8D9
:10577000044B244204D44FEA4102B2F17F4F11D8C6
:105780004FEA4003B3F17F4F0CD80ED14FEAD07CE3
:10579000B2F17F4F0CEB4C0C0CF1020C08BF4CEB40
:1057A000D17C04E04FF0080C01E04FEAD17C0CEB17
:1057B0004C0324FA03F404F00704B4F1040C06D2F9
:1057C0000EEB840CBDE810404CF0010C6047DFE8A4
:1057D0000CF0070802024FF00040A0F5800010BD59
:1057E0000846420018BFD2F1807288BF00F0004026
:1057F00010BDFF2141EAD050C005704751EA000CAE
:1058000000F113801CF5000F58BFBCF5000F01D448
:105810008142704707D711F5000F58BF10F5000FF0
:1058200015D481427047894270471CF5000F04D59A
:10583000BCF5000FF7D5884270474FF0807C1CEB19
:10584000410F38BF1CEB400F01D28842704780EAFD
:10585000010081EA000180EA0100FFF7F8BE80F054
:10586000004090EA010F7FF552AD81F0004100F059
:1058700008B8000090EA010F48BF81F000413FF5F1
:1058800046AD421A04D882F00042A0EB0200114457
:105890004FEAD0524FF07F4C1CEA410FA2EBD1539C
:1058A00018BF9CEA026F4AD04FF0004C4CEA00202F
:1058B0004CEA012121FA03FCB0EB0C0C0FD412F0DE
:1058C000FE0F36D05FEA4C001DD5001240EBC250EF
:1058D00038BF70471CF03F0F18BF70470BE0A2F1B4
:1058E00001025FEA1C2040EBC25038BF70471CF039
:1058F0007F0F18BF7047C3F12003994014BF401EAB
:1059000020F00100704780084FEA122308BF70475B
:10591000B0FA80FCA2EB0C02CCF1280C60FA0CF07F
:1059200093EA122F04BF00EBC25070474FEAC370D6
:105930007047130A5FEADC1008BF7047F6E79CEA7D
:10594000026F04D010EA5C0F08BF0020704710B54A
:10595000FFF709FF40DFF63E81F0004070470CF092
:105960000F03092B08BF082000F07F800A2B0BD003
:10597000082B18BF704708BF1CF0400F0AD04FF02B
:1059800000004FF0000170471CF0400F18BF4FF0AF
:10599000004070471CF0100F08D020F0704300F05A
:1059A0007F4242EAD3014FEA4370704700F0604003
:1059B00021F07F4242EA000201F07F4040EA72702B
:1059C00070474FF0FF0C4CF4E06C1CEA11531CBF05
:1059D0009CEA030C9445C2BFDA4201EB02517047C6
:1059E000002B0DD0BCF1000F0FD0002A01F00041B8
:1059F000A4BF41F0E04141F07F614FF000007047EB
:105A000001F000414FF00000704750EA01334FF0C1
:105A10009B0C18BF4CF0806C7FF498A870474FF037
:105A2000FF0212EAD0521CBF92F0FF038B42C2BFAA
:105A3000D14200EBC1507047002A0AD0002B0BD096
:105A4000002900F00040A4BF40F0FE4040F40000F8
:105A5000704700F00040704743024FF00B0C18BF36
:105A60004CF0806C7FF4AEAC70471CF4801F11D0FA
:105A70001CF4E02F03D06FEACC31490070474FF09F
:105A80004050EFF3008222F0704242EA000282F3BB
:105A9000008870474FF0000070470000B85E0008B3
:105AA000A92800080000000000000000800000009D
:105AB0000000000000000000985E0008D9200008E7
:105AC0000000000000000000800000000000000056
:105AD00000000000C45E0008C13A00080000000099
