:020000040800F2
:10000000A81B00209D0100085B1F0008E11D0008DF
:10001000591F0008F3090008CD2500080000000062
:1000200000000000000000000000000005010008C2
:10003000F50900080000000049010008D12000086F
:10004000B7010008B7010008B7010008B7010008B0
:10005000B7010008B7010008F7090008B701000858
:10006000B7010008B7010008B7010008B701000890
:10007000B7010008B7010008B7010008B701000880
:10008000B7010008B7010008B7010008B701000870
:10009000B7010008B7010008B7010008B701000860
:1000A000B7010008B7010008B7010008B701000850
:1000B000B7010008B7010008B7010008B701000840
:1000C000B7010008B7010008B70100085D1F00086C
:1000D000B7010008C1250008B7010008B7010008F2
:1000E000B7010008B7010008B7010008DFF810D019
:1000F00000F042FC00480047F5350008AFF30080EF
:10010000A81B0020224B19680868B0E8F00F80F3A4
:100110000988BFF36F8F4FF0000080F311884EF015
:100120000D0E70470000000006480068006880F36C
:10013000088862B661B6BFF34F8FBFF36F8F00DFE1
:1001400000BF00BF08ED00E0EFF30980BFF36F8F41
:100150000F4B1A6820E9F00F106008B54FF05000FF
:1001600080F31188BFF34F8FBFF36F8F04F09CFBB8
:100170004FF0000080F31188BDE808401968086856
:10018000B0E8F00F80F30988BFF36F8F704700BFAE
:1001900018000020EFF305807047000006488047F4
:1001A00006480047FEE7FEE7FEE7FEE7FEE7FEE75C
:1001B000FEE7FEE7FEE7FEE749210008ED00000844
:1001C000202A04DB203A21FA02F00021704721FAAC
:1001D00002F3D040C2F12002914008431946704713
:1001E00040EA01039B0703D009E008C9121F08C0B9
:1001F000042AFAD203E011F8013B00F8013B521E39
:10020000F9D27047D2B201E000F8012B491EFBD2AF
:1002100070470022F6E710B513460A460446194611
:10022000FFF7F0FF204610BD30B50446002003461E
:1002300000E05B1C934203D2E05CCD5C401BF8D035
:1002400030BD80EA010210B502F00043400022D028
:100250004A001FD0010E01EB1261C0F35600C2F339
:10026000560240F4000042F40002A0FB0220000409
:100270007F39140400D0401C50EA124001D44000E1
:10028000491EC2B20C0604EBD010401C4008802A64
:1002900002D003E0002010BD20F00100002900DAA8
:1002A0000020184310BD30B480EA010202F000457E
:1002B00030F0004221F0004013D090B1C30DD40DB6
:1002C000C2F31601C0F31600E41A41F4000140F431
:1002D00000027D34914201D3641C00E04900002CEF
:1002E00002DA30BC002070474FF400000023914236
:1002F00001D3891A034340084FEA4101F7D151B1B4
:10030000914202D14FF0004105E002D24FF00101CD
:1003100001E06FF0010103EBC450284430BC00F051
:100320001DBA420005D0C0F3C7525242914201DCCF
:100330000020704700EBC15070472DE9FE4F80460A
:1003400081EA0300C00F0C46009021F0004123F029
:100350000045B8EB0200A94105D24046214690462F
:100360001C460B46024623F00040104347D0270DA1
:10037000C7F30A00C3F30A510290401A01904028C3
:100380006BDAC3F3130040F4801B0098924620B14F
:100390000023D2EB030A63EB0B0B01985946C0F123
:1003A0004002504600F0B9F906460D4650465946FF
:1003B000019A00F0C1F910EB08006141002487EABE
:1003C000115284EAE7731A4340D0009A62B3019A4B
:1003D000012A4FEA075215DC001B61EB02014FF0C6
:1003E000004202EA0752CDE90042001C41F58011AB
:1003F00032462B4600F0F8F903B0BDE8F08F4046D6
:100400002146F9E7001B61EB0201001C41F5801356
:1004100000185B412018A2F5001747EB030140EAE2
:10042000D570B6196D4111E06D084FEA360645EA00
:10043000C0754FEA0752001B61EB0201001C41F539
:10044000801149084FEA30000019514132462B46CD
:1004500003B0BDE8F04F00F0B8B9009801224000A9
:100460000023D0EB020263EBE073009821464FEAD1
:10047000E074B8EB000061EB0401E9E783F00043AE
:100480005BE781F0004158E72DE9FE4F81EA030464
:1004900004F0004421F0004100944FF0000B23F0E1
:1004A000004350EA01045ED052EA03045BD0C3F378
:1004B0000A54C1F30A552C44A4F2F3340194A0FB6E
:1004C0000254C1F3130141F48011C3F3130343F445
:1004D000801301FB024400FB034E840A970A44EA9E
:1004E000815447EA8357A4FB076802958D0A05FBF0
:1004F00007854FEA932C04FB0C542705029D4FEA15
:10050000065847EA1637B5EB08056EEB070C870E61
:10051000920E47EA811742EA8312A7FB0201B6EB6B
:100520000B0164EB00042B0D43EA0C335E1844EB23
:100530001C50DA465146E7FB0201C5F313044FEAAB
:100540000B3343EA14534FEA0432019C43EA060397
:10055000A4F10C040294009CCDE900B400F044F92D
:1005600003B0BDE8F08F00200146F9E72DE9F04D1A
:1005700081EA030404F0004B21F0004514464FF0DB
:10058000000A23F0004150EA050220D054EA01029B
:100590001DD0C5F30A570246C5F31303C1F3130078
:1005A000C1F30A5640F4801543F48013A7EB060804
:1005B000101BD64608F2FD3873EB050002D308F194
:1005C000010801E092185B41B8F1000F03DA002046
:1005D0000146BDE8F08D00204FF4801106468446A8
:1005E0000EE0171B73EB050705D3121B63EB050326
:1005F00006434CEA010C49084FEA300092185B416F
:1006000050EA0107EDD152EA030012D082EA040059
:1006100083EA0501084305D0101BAB4106D2012235
:10062000002306E000224FF0004302E06FF00102D9
:1006300053101AEB06004CEB085110EB0A0041EB8B
:100640000B01BDE8F04D00F0C0B870B521F00043DB
:1006500003430CD0C1F30A550024D5EB040564EB29
:100660000403D617AD1AB34102DB0020014670BD6A
:10067000201841EB025170BDC10F80EAE0700844C0
:10068000CA079623002100F072B800F0004220F063
:100690000040C10DC0F3160040F400007F2901DACC
:1006A00000207047962903DCC1F19601C84001E0A3
:1006B00096398840002AF4D04042704700F000424A
:1006C00030F000400AD0C10D01F56071C0F3160092
:1006D00042EA0151C2084007114370470020014619
:1006E000704701F0004330B421F0004150EA0102AC
:1006F00006D00A0DA2F56072C1F31301002A02DCD4
:1007000030BC00207047440F44EAC104C100E01827
:1007100030BC00EBC25000F021B8202A04DB203AA4
:1007200000FA02F1002070479140C2F1200320FA44
:1007300003F3194390407047202A06DBCB17203A79
:1007400041FA02F043EAE07306E041FA02F3D040D6
:10075000C2F1200291400843194670470029A8BF02
:100760007047401C490008BF20F00100704710B4DA
:10077000B0FA80FC00FA0CF050EA010404BF10BC8F
:10078000704749B1CCF1200421FA04F411FA0CF1BC
:1007900018BF012121430843A3EB0C01CB1D4FEAF5
:1007A00000614FEA102042BF002010BC704700EBF0
:1007B000C35010440029A4BF10BC7047401C49001E
:1007C00008BF20F0010010BC704710B5141E73F173
:1007D000000408DA401C41F1000192185B411A4301
:1007E00001D120F0010010BD2DE9F04D92469B464D
:1007F00011B1B1FA81F202E0B0FA80F220329046F3
:10080000FFF78BFF04460F4640EA0A0041EA0B015E
:1008100053465A46084313D0114653EA010019D0F3
:10082000C8F140025046FFF7CBFC05460E46504645
:1008300059464246FFF771FF084305D0012004E006
:1008400020463946BDE8F08D0020054346EAE076B3
:100850002C4337430A986305E40AA0EB0800002202
:10086000FD0A44EA47540A3002D500200146E9E770
:10087000010510196941DDE9084500196941BDE824
:10088000F04DA2E72DE9F04D00231A461B1A8A41CC
:1008900003DB00200146BDE8F08DC1F30A52C1F32D
:1008A000130141F480154FF0000BD10702D100185D
:1008B0006D41521E0027044640F2FF11384601EBFD
:1008C000620A3E468046024600204FF48011FFF740
:1008D00077FCC2197141BB1846EB0100B4EB030C65
:1008E00075EB000C04D3E41A65EB000517460E46C1
:1008F000241908F101006D4180463428E3DDF9191F
:1009000046EB0600091BA84103D24FF0FF32134605
:1009100001E0002213461BEB070046EB0A51BDE83D
:10092000F04DFFF752BF0EB5C10F80EAE0700844EA
:10093000CA07002140F233438DE80E000A460B46F9
:10094000FFF752FF03B000BD30B5041E71F1000483
:1009500004DB4FF00044404264EB0101141E73F1CC
:10096000000405DB1C464FF00043524263EB0403D6
:10097000994208BF904230BD064C074D06E0E06842
:1009800040F0010394E8070098471034AC42F6D3D6
:10099000FFF7B0FB544E0008744E000870B58C1879
:1009A00010F8015B15F0070301D110F8013B2A1183
:1009B00006D110F8012B03E010F8016B01F8016B70
:1009C0005B1EF9D12B0705D40023521E0DD401F86C
:1009D000013BFAE710F8013BCB1A921C03E013F835
:1009E000015B01F8015B521EF9D5A142D8D300206A
:1009F00070BDFEE77047012000F074B872B6FEE7E4
:100A000010B590F821100022022905D0042181633D
:100A100080F82020012010BD01680B6823F00E0330
:100A20000B6001680B6823F001030B6090F8403005
:100A3000C46B012101FA03F3636080F8211080F890
:100A40002020104610BD000010B590F821100024A1
:100A5000022903D00421816301243DE001680A6872
:100A600022F00E020A6001680A6822F001020A60A0
:100A70001A4A0168914201D1012121E0174A14323A
:100A8000914201D110211BE0144A2832914201D138
:100A9000891515E0114A3C32914201D189140FE0C9
:100AA0000E4A5032914202D14FF4803108E00B4A95
:100AB0006432914202D14FF4801101E04FF0807115
:100AC000064A083A5160012180F82110002180F87F
:100AD0002010416B01B18847204610BD080002403C
:100AE00070470000044910B50A68024202D008604D
:100AF000FFF7F6FF10BD0000140401402DE9F84F88
:100B0000DFF8B891002409F1040A0AF1040B234626
:100B10000F270BF1040EC9E00125A5402A40AA4287
:100B20007DD1674ED1F804C0ACEB0608B44532D095
:100B300014DCBCF1030F3AD009DCBCF1000F2AD061
:100B4000BCF1010F1CD0BCF1020F31D11DE0BCF192
:100B5000110F17D0BCF1120F2AD119E0B8F5881F78
:100B600019D006DCB8F5803F15D0B8F5801F1FD12D
:100B700011E0B8F5001F0ED0B8F5041F18D10AE037
:100B8000CB6815E0CB681B1D12E0CB6808330FE083
:100B9000CB680C330CE08B682BB1012B4FF00803B2
:100BA00003D0456104E0042302E0056100E0002376
:100BB000FF2A01D8064601E000F104064FEA840549
:100BC00001D9A5F12005D6F8008007FA05FC28EA2E
:100BD0000C0803FA05F548EA0508C6F800804D68D8
:100BE000ED0062D5374DAE6946F00106AE61AD69E4
:100BF00024F0030605F001050095334D06EB050CC6
:100C0000DCF80850A607360F07FA06F825EA0805AB
:100C1000DFF8B880404503D14FF0000817E044E00A
:100C2000DFF8AC80404502D14FF001080FE0DFF85B
:100C3000A480404502D14FF0020808E0DFF8988018
:100C4000404502D14FF0030801E04FF0040808FAD4
:100C500006F848EA0508CCF808804D68D9F8006025
:100C6000ED034D4601D5164300E096432E604D68D6
:100C7000DAF80060AD03554601D5164300E096430F
:100C80002E604D68DBF80060ED025D4601D516432D
:100C900000E096432E604D68DEF80060AD027546B8
:100CA00001D5164300E096432E60641C0D682A4669
:100CB000E5407FF431AFBDE8F88F0000000401404B
:100CC0000000111000100240000001400008014027
:100CD000000C014000100140001401400AB1016104
:100CE00070470904FBE70000014880687047000076
:100CF0000C0000200248816802781144816070472E
:100D00000C000020074810B5016841F01001016097
:100D1000032000F08BF80F2000F006F800F024F814
:100D2000002010BD0020024070B50D4D04464FF468
:100D30007A712878B1FBF0F00A490968B1FBF0F04C
:100D400000F063FE48B9102C07D200222146501E45
:100D500000F04CF800206C6070BD012070BD0000F8
:100D60000C000020080000200F4808B5816941F000
:100D700001018161816901F001010091C16941F0C6
:100D80008051C161C069002200F0805000900F21A5
:100D9000901E00F02BF80548416821F0E06141F019
:100DA0000071416008BD00000010024000000140D9
:100DB00000280DDB00F01F02012191404009800056
:100DC00000F1E020C0F88011BFF34F8FBFF36F8FA9
:100DD0007047002809DB00F01F0201219140400903
:100DE000800000F1E020C0F800117047F0B40E4B15
:100DF0001B680C46C3F30223C3F10705042D00D979
:100E00000425191D072901D2002300E0DB1E01265D
:100E100006FA05F1491E214099409E40761E164073
:100E20003143F0BC01F0E7BB0CED00E0064900F0F7
:100E3000070208684FF6FF03184040EA0220034A01
:100E400010430860704700000CED00E00000FA0558
:100E50002DE9F0470F46050061D0434E306800F0A1
:100E60000700B84209D2306820F0070038433060EC
:100E7000306800F00700B84251D128683B4C810728
:100E800012D5400703D5606840F4E06060602878C0
:100E9000000703D5606840F4605060606068A9682E
:100EA00020F0F000084360602878C00728D0686808
:100EB000012810D02168022810D0890700292EDAD5
:100EC000616821F0030101436160FFF70DFF804677
:100ED00041F288390DE021688903EFE78901EDE7E8
:100EE000FFF702FFA0EB0801494502D90320BDE846
:100EF000F0876068696800F00C00B0EB810FEFD1FB
:100F0000306800F00700B8420BD9306820F00700C5
:100F100038433060306800F00700B84201D001204B
:100F2000E5E72878400705D56068E96820F4E060C7
:100F3000084360602878000706D56068296920F4B6
:100F4000605040EAC100606000F038F86168084A0B
:100F5000C1F30311515CC8400649086006480068A7
:100F6000FFF7E2FE0020C2E700200240001002402E
:100F7000CC4C00080800002010000020044805495F
:100F800000684968044AC1F30221515CC8407047B7
:100F90000800002000100240DC4C0008044805490D
:100FA00000684968044AC1F3C221515CC8407047D7
:100FB0000800002000100240DC4C000813A185B09E
:100FC0000FC98DE80F0015A0154A006804905168FC
:100FD00001F00C00042804D0082804D0114805B002
:100FE00070471148FBE7C1F38343C9031DF80300B1
:100FF00009D5516804AAC1F34041515C0A4A5043E3
:10100000B0FBF1F0EBE709494843E8E702030405C8
:10101000060708090A0B0C0D0E0F10100102000044
:101020000010024000127A000024F40000093D0084
:101030002DE9F84F040070D02078C04DC00749D08A
:101040006868C0F38100012807D06868C0F3810098
:10105000022809D16868C00306D52868800339D5FD
:1010600060680028E7D035E06068B0F5803F0BD0BD
:1010700010B1B0F5A02F11D0286820F4803028607E
:10108000286820F4802002E0286840F4803028603E
:10109000606890B1FFF728FE06460AE0286840F431
:1010A00080202860F0E700BFFFF71EFE801B642849
:1010B00073D828688003F7D50CE0FFF715FE0646C5
:1010C00005E000BFFFF710FE801B6428F0D82868F9
:1010D0008003F7D420789A4E80074FF001094FF033
:1010E000000839D5686810F00C0F07D06868C0F3A5
:1010F0008100022809D16868C00306D428688007E7
:1011000014D52069012808D110E02069B0B1C6F8D3
:101110000090FFF7E9FD074605E00AE1FFF7E4FD6F
:10112000C01B0228C4D828688007F7D528686169E1
:1011300020F0F80040EAC10028600DE0C6F8008009
:10114000FFF7D2FD074604E0FFF7CEFDC01B0228E3
:1011500023D828688007F7D4207800072CD5794851
:10116000A169D9B1C0F80090FFF7BEFD074604E0C1
:10117000FFF7BAFDC01B02280FD8686A8007F7D5B1
:1011800071484FF4FA510068B0FBF1F0009000BFD5
:101190000098411E0091FAD20EE080E0C0F8008075
:1011A000FFF7A2FD074604E0FFF79EFDC01B0228E3
:1011B00075D8686A8007F7D42078400760D5E86959
:1011C0000027C00008D4E86940F08050E861E86971
:1011D000012700F0805000905C480168C90513D4D5
:1011E0000168834641F480710160FFF77DFD82460E
:1011F00006E000BFFFF778FDA0EB0A0064284ED898
:10120000DBF80000C005F5D5E06801280AD008B178
:10121000052813D0286A20F001002862286A20F0EF
:10122000040002E0286A40F001002862E06841F210
:10123000883B98B1FFF758FD82460BE0286A40F0E2
:1012400004002862EEE700BFFFF74EFDA0EB0A01A5
:1012500059455AD8286A8007F6D50CE0FFF744FDB7
:10126000824605E0FFF740FDA0EB0A0159454CD846
:10127000286A8007F6D41FB1E86920F08050E86141
:10128000E06988B36968C1F38101022944D002286A
:10129000C6F8608004D0FFF727FD044638E034E04C
:1012A000FFF722FD074604E0FFF71EFDC01B0228E2
:1012B0002BD828688001F7D4206AB0F5803F05D18B
:1012C0006868A16820F4003008436860D4E9080128
:1012D0000843696821F4741108436860C6F8609097
:1012E000FFF702FD044606E025E000BFFFF7FCFC27
:1012F000001B022809D828688001F7D51BE000BF31
:10130000FFF7F2FC001B022802D90320BDE8F88F8A
:1013100028688001F4D40EE00128F7D06868226ABA
:1013200000F48031914204D1616A00F47010884267
:1013300001D00120EAE70020E8E7000000100240A9
:101340000000424280044242080000200070004039
:101350007047000038B50446006842688168C94398
:101360004B0606D5CB0704D1D3435B0601D4216CD1
:1013700005E08B0708D4D3431B0605D4616C01B08C
:101380002046BDE8304008478B0601D54B0646D4C1
:10139000D3439B0643D44B060AD494F85130032B15
:1013A0003ED0636D43F004036365C36883680093B4
:1013B000890609D4616D41F0010161658168009180
:1013C000016821F040010160606D002827D020688D
:1013D000416821F0E0014160012084F8510090074C
:1013E00022D02068416821F003014160104DE06C7B
:1013F00040B14563E06CFFF727FB18B1606D40F02A
:1014000040006065A06C002809D04563A06CFFF720
:101410001BFB002803D0606D40F04000606538BDC4
:10142000C1688068009038BD2046FFF791FF38BD45
:10143000771F000870B5040009D0606A002540B12C
:1014400025616561A56294F8510040B10CE001206E
:1014500070BD6068B0F5827FF4D0E561F2E784F892
:101460005050204600F040F8022084F851002068D7
:10147000016821F040010160A088218900F4827098
:1014800001F404410843A18901F400610843217C6F
:1014900001F002010843217D01F001010843218B85
:1014A00001F400710843217F01F03801084394F8EA
:1014B000201001F080010843218D01F40051084300
:1014C00021680860A069042101EA10402168486091
:1014D0002068C16921F40061C1616565012084F85B
:1014E0005100002070BD000030B585B0002400948C
:1014F0000194029403940068184988422BD118483B
:10150000816941F480518161816901F480510491C4
:10151000816941F0040181618069124D00F004008D
:101520000490A020009002200190032003906946BF
:101530002846FFF7E3FA4020CDE900046946284633
:101540000294FFF7DBFA002205212320FFF74EFC6F
:101550002320FFF73EFC05B030BD00000030014005
:1015600000100240000801402DE9F84F0446406891
:101570000025984616460F464FF0040BB0F5827FC3
:1015800001D1A06888B194F85000012818D001203A
:1015900084F85000FFF7A8FB814694F851004FF003
:1015A000000A01280ED0022582E084F851B01346CB
:1015B0000A462046CDF8008000F036F9BDE8F88FE5
:1015C0000220FBE7002F72D0002E70D084F851B0BB
:1015D000C4F854A0A763A687E687C4F830A0A4F88F
:1015E00034A0A4F836A0C4F840A0C4F844A0A06871
:1015F000B0F5004F09D12068016821F04001016079
:101600002068016821F48041016020680168490672
:1016100003D4016841F040010160E068D8B139E0CD
:1016200020688168C90709D0007BA16B0870A06B96
:10163000401CA063E08F401EE0870CE0FFF754FBE6
:10164000A0EB0901414503D3B8F1FF3F03D036E0D9
:10165000B8F1000F33D0E08F0028E1D11DE0206801
:101660008168C90709D0C068A16B0880A06B801C85
:10167000A063E08F401EE0870CE0FFF735FBA0EB96
:101680000901414503D3B8F1FF3F03D017E0B8F19A
:10169000000F14D0E08F0028E1D14A464146204691
:1016A00000F071FC08B120206065606D00B101257B
:1016B000012084F8510084F850A028467EE70325D5
:1016C000F6E72DE9F84F044690F8500000271D4634
:1016D0001646894601280DD04FF0010B84F850B012
:1016E000FFF702FB804694F85100BA46012804D067
:1016F000022793E00220BDE8F88FB9F1000F73D004
:10170000002E71D0032084F85100C4F854A0C4F80E
:101710003090A686E686C4F838A0A4F83CA0A4F8C9
:101720003EA0C4F844A0C4F840A0A068B0F5004FA3
:1017300009D12068016821F040010160206801683A
:1017400041F48041016020680168490603D40168C2
:1017500041F040010160E068B0F5006F606803D0BF
:1017600030B3012E24D041E008B1012E1CD1206BF2
:1017700021680088C86006E020688168890709D56B
:10178000216B0988C160206B801C2063E08E401EA5
:10179000E08609E0FFF7A8FAA0EB0800A84202D310
:1017A000681C01D031E07DB3E08E0028E4D120E058
:1017B000206B21680078087306E02068816889073B
:1017C00009D5216B09780173206B401C2063E08EE2
:1017D000401EE0860AE0FFF787FAA0EB0800A84267
:1017E00003D3681C02D010E017E06DB1E08E002832
:1017F000E3D142462946204600F0F3FB08B1202001
:101800006065A06818B106E0FFE7032706E02068DE
:10181000C16880680090606D00B1012784F851B004
:1018200084F850A0384666E72DE9F84F044690F852
:10183000500000270A9E1D4692468B464FF0010934
:1018400001280ED0012084F85000FFF74DFA8046A1
:1018500094F85100616801280CD0B1F5827F07D15E
:1018600002E00220BDE8F88FA16809B9042801D080
:101870000227C2E0BBF1000F27D0BAF1000F24D03D
:101880001DB394F85100042802D0052084F85100BB
:1018900000206065C4F838A0E587A587C4F830B09B
:1018A000E586A5862064606420680168490603D443
:1018B000016841F040010160E068B0F5006F6068C8
:1018C00005D0E8B3012D46D07FE0012795E008B1AF
:1018D000012D39D1206B21680088C860206B801CE5
:1018E0002063E08E401EE0862EE020688168890734
:1018F0000FD5E18E69B1B9F1010F0AD1216B0988C9
:10190000C160206B801C2063E08E401EE0864FF09B
:10191000000920688168C9070CD0E18F51B1C06807
:10192000A16B0880A06B801CA063E08F401EE08745
:101930004FF00109FFF7D8F9A0EB0800B04200E032
:1019400009E001D3701C50D1E08E0028CDD1E08F8A
:101950000028CAD13FE0206B216800780873206B13
:10196000401C2063E08E401EE0862EE020688168E7
:1019700089070FD5E18E69B1B9F1010F0AD1216B49
:1019800009780173206B401C2063E08E401EE086C6
:101990004FF0000920688168C9070CD0E18F51B170
:1019A000C068A16B0870A06B401CA063E08F401E54
:1019B000E0874FF00109FFF797F9A0EB0800B0426C
:1019C00002D3701C01D010E07EB1E08E0028CDD192
:1019D000E08F0028CAD142463146204600F001FB84
:1019E00028B101272020606507E0032705E0A068F3
:1019F00018B92068C16880680090012084F85100FF
:101A0000002084F8500038462CE710B5401EB0F195
:101A1000807F01D3012010BD4FF0E02460610F21D1
:101A2000601700F0E8FD0020A06107202061002081
:101A300010BD704770470000F8B502680446106892
:101A4000D168536910F00F0F4FF0000553D003F029
:101A5000010601F4907737435FD0C20705D0CA056D
:101A600003D5226C42F001022264420705D5DA0751
:101A700003D0226C42F002022264820705D5DA0705
:101A800003D0226C42F004022264020707D501F061
:101A90002002324303D0226C42F008022264226CFE
:101AA000002A34D0800604D5880602D5204600F0EE
:101AB0009DFC20684069216CC0F38010090700D4A8
:101AC00030B3204600F07AFC2068416949061BD5F6
:101AD000416921F040014161A06BA8B158494163BF
:101AE000A06BFEF7B1FF002811D0A06B416B01B0D5
:101AF000BDE8F040084783060FD58B060DD520467C
:101B0000BDE8F84000F072BC2046FFF793FFF8BD37
:101B10002046FFF78FFF2564F8BD266B2023012E9A
:101B200052D1C60650D5CE064ED5106850680090EA
:101B3000506940062AD5A16B086840680004000C73
:101B4000EAD0A68D8642E7D9E0858869202818D09A
:101B5000D06820F48070D0602068416921F00101D4
:101B600041612068416921F04001416184F83E30C3
:101B700025632068C16821F01001C160A06BFEF7E9
:101B80003FFFA08DE18D401A81B219E0A08DE18D5B
:101B9000401A81B2E08D0028BED00029BCD0D068A8
:101BA00020F49070D0602068426922F00102426106
:101BB00084F83E3025632068C26822F01002C260BB
:101BC0002046FFF736FFF8BD05062BD50D0629D5B3
:101BD00094F83D002128F6D1A068B0F5805F01D1CE
:101BE0002069B0B1206A411C2162216800784860F8
:101BF000E08C401E0004000CE084E4D12068C16841
:101C000021F08001C1602068C16841F04001C160DD
:101C1000F8BD206A0088C0F308005060206A801C6C
:101C20002062E5E74006F3D54806F1D5D1682046A5
:101C300021F04001D16084F83D3000F0D0F8F8BDCB
:101C4000AD23000870B5040004D094F83D000025D1
:101C500010B106E0012070BD84F83C50204600F031
:101C600023F8242084F83D002068C16821F4005145
:101C7000C160204600F016FC2068016921F4904103
:101C800001612068416921F02A0141612068C16831
:101C900041F40051C1602564202084F83D0084F89F
:101CA0003E00002070BD000030B585B000240094D7
:101CB0000194029403940068184988422CD1184872
:101CC000816941F480418161816901F4804104911D
:101CD000816941F0040181618069124D00F00400C6
:101CE00004904FF4007000900220019003200390B4
:101CF00069462846FEF702FF2815CDE9000469462B
:101D000028460294FEF7FAFE002205212520FFF75F
:101D10006DF82520FFF75DF805B030BD00380140B3
:101D20000010024000080140704700002DE9F84310
:101D3000044690F83D001F4616460D4620284CD11B
:101D4000C5B1BEB194F83C00012846D0012084F80A
:101D50003C004FF00008C4F84080212084F83D008A
:101D6000FEF7C2FFA6848146E684A068B0F5805FD6
:101D700003D004E00120BDE8F883206928B12E4695
:101D80005FF0000584F83C800EE00026FAE7802131
:101D9000204600F0E3FBA0B9AEB116F8010B2168B4
:101DA0004860E08C401EE084E08C4B464FF000021F
:101DB00000970028EBD14FF04001204600F0CEFB09
:101DC00030B10320D7E735F8020BC0F30800E6E78F
:101DD000202084F83D000020CDE70220CBE77047AB
:101DE000FEE7000010B58EB01C220B496846FEF7D6
:101DF000F7F90021684601F01EFC084C06491C2238
:101E000020601C3107A8FEF7EBF9002107A801F0BC
:101E100012FC60600EB010BD944C00080000002061
:101E2000F0B585B0002428480094019402940394EE
:101E3000816941F020018161816901F020010491F3
:101E4000816941F004018161816901F0040104911B
:101E5000816941F00801816180691C4E00F0080031
:101E60000490002210213046FEF738FF184F002260
:101E700018213846FEF732FF10200125CDE9000574
:101E80000320CDE9024069463046FEF737FE11488F
:101E90000095CDE9010469463846FEF72FFE18206B
:101EA000CDE900050220CDE9024069463846FEF73B
:101EB00025FE002205210620FEF798FF0620FEF7EA
:101EC00088FF05B0F0BD000000100240000801408E
:101ED000000C014000001110104810B50E490160BF
:101EE0004FF48271416000218160C1604FF4007243
:101EF0000161C0E905121822C0E90721416281622F
:101F00000A21C162FFF796FA002803D0BDE810400D
:101F1000FEF774BD10BD000000300140B00300208A
:101F20000C4810B50A4901604FF4E13141600021CD
:101F300081600C22C160C0E904128161C161FFF7B8
:101F400081FE002803D0BDE81040FEF757BD10BD4C
:101F50000038014008040020FEE7FEE70148FFF7D3
:101F6000F9B90000B0030020026892B222F03802F2
:101F70000A430260704710B5406A0021C187C186DC
:101F8000FFF7E6F910BDF8B5044640684FF48273D8
:101F9000984217D1A0684FF48065B0F5004F01D08A
:101FA000A8420FD12068066826F0400606606068E7
:101FB000984207D1A068A84204D100920B460022A3
:101FC000012103E000920B4600228021204600F010
:101FD00019F8002804D0606D40F0200060650320EF
:101FE000F8BD38B50B46009204460022802100F06F
:101FF00009F8002804D0606D40F0200060650320DF
:1020000038BD00002DE9F8431E4691468846044637
:10201000089DFEF769FE401B351AFEF765FE074670
:1020200025480068C0F3CB30684338E0701C37D0D7
:10203000FEF75AFEC01BA84203D215B1009860B348
:102040002CE02068416821F0E00141606068B0F553
:10205000827F0BD1A068B0F5004F02D0B0F5806F41
:1020600004D12068016821F040010160A06AB0F548
:10207000005F09D12068016821F4005101602068E7
:10208000016841F400510160012084F851000020F2
:1020900084F850000320BDE8F8830025401E00901E
:1020A0002068816838EA010004D000214945BDD18B
:1020B0000020F0E70121F9E708000020012001F0ED
:1020C000AEFAFBE701484078704700007E00002030
:1020D00010B5FEF70FFE02F009FD012803D0BDE8A0
:1020E000104002F095BC10BD10B590B02821684694
:1020F000FEF78FF814210AA8FEF78BF801210804D7
:10210000CDE900104200029202240491CDE907407B
:102110004FF4E01009906846FEF78AFF08B172B6E6
:10212000FEE70F20CDE90A0400204FF48061CDE9DD
:102130000C010E9002210AA8FEF78AFE002801D0A9
:1021400072B6FEE710B010BD704700002DE9FC5FCD
:10215000DFF84492DFF844A200274FF00F0BA9F1FB
:102160002806BE2001F0E9F84FF4FA5001F0FCF81F
:10217000F17889F80210D84689F803B00022864920
:102180000C2001F0C2F900210C2001F0CFF902204F
:1021900001F01CF9002001F047F8554600210F20FE
:1021A00000F0F9FF2842F060F8D0B08940047DD5F6
:1021B0004FF4814200210F2001F079F90021102015
:1021C00000F0E9FF00F07F011E2903D800227448C7
:1021D00001F015F87248C1780F2968D10021C1704B
:1021E00081706D490A220C31FEF71EF800287DD15E
:1021F0000024684601F012F804206A462102145CAB
:102200000C43401EFAD534610024104601F000F85A
:102210000420694622020C5C1443401EFAD5614832
:1022200074612044040A204601F026F824F00100DD
:102230000002B06158483169253001F0C9F95648AB
:102240007169293001F0C4F95348B1692D3001F0AA
:10225000BFF95148F1781B300022817080F803806B
:102260000146182001F051F90021182001F05EF913
:10227000032001F0ABF8002000F0D6FF00210F2072
:1022800000F089FF2842F060F8D0B089400471D591
:102290004FF4814200210F2001F009F900211020A4
:1022A00000F079FF00F07F011E2901E062E06CE0A0
:1022B00003D800223A4800F0A2FF394CE0780F28FA
:1022C00063D10020E0703449A0700A2233312046E7
:1022D000FDF7AAFF50B9207B6F2843D0A17A4FF4B5
:1022E0007A725143E27A02EB820200E047E001EBAE
:1022F000420204F1200151F820301A4441F8202014
:10230000274C2C3454F82010491C44F8201000208D
:1023100054F82010052929DBDFF88480002508F116
:10232000200800BF54F82510002908DD58F82500C2
:1023300090FBF1F0294601F01FF948F825006D1CCB
:10234000032DEFDB98E807004546002300F022FB51
:102350000020014644F8201045F82010401C0328B6
:10236000F8DB0CE0618949BA3181C9E7401C0328D8
:10237000CEDB04E00C4A00210F2001F098F8022087
:1023800000F0ACFBF078401CF0707F1CFFB2032F14
:10239000FFF4E7AEBDE8FC9FA000002000D027249A
:1023A000F01100200000740E0090272410B5406A40
:1023B0000021C185C184FFF73DFB10BD0168CA68DB
:1023C00022F49072CA6001684A6922F001024A61EF
:1023D000016B012904D10168CA6822F01002CA60A9
:1023E000202180F83E1000210163704708B590F865
:1023F0003E10222901D0022008BD82684FF480538C
:102400009A4201D1016921B1816A9A421BD04AB135
:102410000AE00268816A5268C2F308020A80816A8F
:10242000891C08E0026972B10268526802F07F02FA
:102430000A70816A491C8162C18D491E0904090C18
:10244000C18503D019E002685268F1E70168CA68E3
:1024500022F02002CA600168CA6822F48072CA6051
:1024600001684A6922F001024A61202180F83E1089
:10247000016B012903D0FFF757FC002008BD0021A4
:1024800001630168CA6822F01002CA6001680A6824
:10249000D20602D50A6849680091818DFFF7C9FA12
:1024A000EBE7000070B5044600680169E26821F4BA
:1024B0004051114301612169A068084361690843E3
:1024C0002168CA6841F20C639A430243CA602068DB
:1024D0004169A26921F44071114341611E4920689C
:1024E000884202D1FEF75AFD01E0FEF747FD00EBFE
:1024F000C00101EB0012606864218000B2FBF0F3C0
:10250000B3FBF1F36FF018067343B2FBF0F5B2FBC7
:10251000F0F605EB8305322303EB0515B5FBF1F56A
:10252000B6FBF1F605F0F00505EB0615B2FBF0F68B
:10253000B2FBF0F0B0FBF1F06FF01802504306EB85
:10254000800003EB0010B0FBF1F0216800F00F00F9
:102550002844886070BD0000003801402DE9F0413A
:10256000984617460E460446069D1DE0681C1BD083
:102570002DB1FEF7B9FBA0EB0800A84214D92068E2
:10258000C16821F4D071C1602068416921F0010166
:102590004161202084F83D0084F83E00002084F84A
:1025A0003C000320BDE8F0812068006836EA0000A6
:1025B00004D00020B842D9D00020F3E70120F9E789
:1025C0000148FFF739BA000008040020FEE749007F
:1025D00050EAC12018BF04204A0D18BF40F0010086
:1025E00040F2FF72B2EB515F08BF40F002000128D9
:1025F00008BF052070470907090E002804DB00F119
:10260000E02080F80014704700F00F0000F1E02097
:1026100080F8141D70472DE9F0414F1E00EBC701F3
:102620000446D1E9000115461E4637F006020DD0DA
:102630002A463346FDF728FF7F1E04EBC703D3E984
:102640000023FDF77AFE37F00602F1D1022F25D0E4
:10265000042F13D0062F18BFBDE8F0812A46334659
:10266000FDF712FFD4E90A23FDF767FE2A46334639
:10267000FDF70AFFD4E90823FDF75FFE2A4633463B
:10268000FDF702FFD4E90623FDF757FE2A4633463D
:10269000FDF7FAFED4E90423FDF74FFE2A46334640
:1026A000FDF7F2FED4E90223FDF747FE2A46334642
:1026B000FDF7EAFED4E90023BDE8F041FDF73DBE99
:1026C0000022134610460149FDF750BF0000F03FBD
:1026D000FDF733BE0022134610461146FDF746BFF4
:1026E00040F2013200204FF0E041FDF7AEBF0000A4
:1026F000024A00201107FDF7A8BF000001FDFFFFFF
:1027000002E008C8121F08C1002AFAD170477047BA
:10271000002001E001C1121F002AFBD17047000018
:1027200001490860704700005801002038B5044690
:102730006D208DF800006B46012240F606012E2028
:1027400000F0C4FE41F6060114B140F2076201E058
:1027500041F207622E2000F09DFE38BD38B50446D8
:102760006B4602220021362000F02CFD0E2C2CD2CC
:10277000DFE804F00F07152B2B2B2B1D392B2B44D7
:10278000494E00208DF800009DF8010000F0FE0089
:1027900019E09DF8000000F0FC00401C04E09DF8EA
:1027A000000000F0FC00801C8DF800000DE09DF89A
:1027B000000000F0B30040F048008DF800009DF8E4
:1027C000010040F080008DF801006B4601220021DD
:1027D000362000F07BFE0122114636200DF1010368
:1027E00000F074FE38BD9DF8000000F0B3008DF8D5
:1027F00000009DF8010000F07F00E4E79DF8010073
:1028000040F00200DFE79DF8010000F0FD00DAE78C
:102810009DF8000000F0CF0040F02000C4E708B5AC
:1028200003208DF8010001208DF800006B46022284
:102830000021362000F04AFE4FF4004206212D20F0
:1028400000F028FE012000F049F90120FFF786FF83
:1028500008BD08B5010A8DF801108DF800006B461F
:10286000022204212D2000F031FE03208DF800000B
:102870006B46012206212D2000F028FE00208DF855
:1028800000006B46012206212D2000F01FFE0A21C8
:102890002D2000F080FC08BD70B5BE2000F04DFD7D
:1028A0004FF4FA5000F060FD36490F20364CC870E6
:1028B00001F10C03354D5A1E2946606800F08FFE69
:1028C000304B29460E335A1EA06800F088FE2D4B6F
:1028D000294610335A1EE06800F081FE0022294983
:1028E000132000F012FE0021132000F01FFE022032
:1028F00000F06CFD002000F097FC224C244E7E3C42
:1029000000210F2000F047FC3042E060F8D0A089A1
:10291000400435D54FF4814200210F2000F0C7FD5F
:102920000021102000F037FCC1B2174800224838BF
:1029300000F065FC144C483CE0780F2820D10020C2
:10294000A0701049E0700A2213392046FDF76CFC94
:10295000002815D104F13806A07A3070217BE07A86
:102960002A4600F092FE7060A17B607B2A4600F050
:102970008CFEB060217CE07B2A4600F086FEF06091
:1029800070BD0000F6000020381200200000C84290
:1029900000D027242DE9F0471F4615460E46FDF7C7
:1029A0006BFE494C2146FDF77EFCDFF82091C9F80B
:1029B00008003046FDF760FE2146FDF774FCC9F8BB
:1029C0000C002846FDF758FE2146FDF76CFCC9F8BF
:1029D00010003846FDF750FE2146FDF764FCC9F8AB
:1029E0000400484601F0C2FD09F174046D20207016
:1029F0007220A4F1940560702878A0704FF0010A4D
:102A000084F809A01021DFF8C880A17204F108063B
:102A100030B1032817D0012815D0022813D04AE07E
:102A2000231DE21C4146002000F0D9FDA31D621DBC
:102A30004146002000F0D3FD3346E21D4146002010
:102A400000F0CDFD37E0234F787910B1012819D07F
:102A500031E0231DE21C4146686800F0C0FDA31D63
:102A6000621D4146A86800F0BAFD3346E21D4146AA
:102A7000E86800F0B4FD287803281CD1A07087F81E
:102A800005A018E0231DE21C4146D9F8500000F0D3
:102A9000A6FDA31D621D4146D9F8540000F09FFD1C
:102AA0003346E21D4146D9F8580000F098FD002158
:102AB00079710420A070BDE8F04704490A230B2275
:102AC00074310548FFF732B900007A4448120020FB
:102AD0000000C842780000200804002001F080BEF9
:102AE000002802D00620FEF774B97047054810B5DB
:102AF000006810F0010402D00620FEF759F92046C4
:102B000010BD0000140401401FB50025B54C009510
:102B1000019502952A46102120460395FEF7DEF81E
:102B20001020CDE900050220CDE90250694620467B
:102B3000FDF7E4FF022001F053FEAB4C202120689A
:102B4000FFF712FA012000F0A7FA401CFAD0082182
:102B50002068FFF709FAA54800F050F9012000F0BD
:102B600090FB48F2B60000F0F9FB002000F028FCD2
:102B7000BE2000F0E2FB4FF4FA5000F0F5FB9B4C56
:102B80004FF00108D23C002084F80080A71D3D547E
:102B9000401C0228FBDB964EDFF8589265702078C7
:102BA000012804D1FFF7D2FAFFF776FE2570FFF770
:102BB00089FA00285DD1DFF834A284F80280AAF1F6
:102BC000340A00BF8AF80250A1788AF803108749B6
:102BD000002234390D2000F098FC00210D2000F077
:102BE000A5FC022000F0F2FB00210F2000F0D3FA38
:102BF0003042E060F8D0A089400426D54FF48142ED
:102C000000210F2000F053FC0021102000F0C3FA37
:102C100000F07F0121711E2903DC0022754800F0BD
:102C2000EEFA89F8025099F80310A278914211D176
:102C30008B466E4989F803500A221A396D48FDF710
:102C4000F3FA38B907F80B8004E06B4A00210F2033
:102C500000F02DFCA078401CC0B2A0700228B1D3B7
:102C6000404684F80280C0B2401CC0B2A070022866
:102C7000F9D36078002863D1FFF724FA00285DD0EB
:102C80003D70404684F80280C0B2385C01284FD1C4
:102C9000BE2000F052FB4FF4FA5000F065FB5348A1
:102CA000002227388570A178C17001460D2000F000
:102CB0002CFC00210D2000F039FC022000F086FBE6
:102CC00000210F2000F067FA3042E060F8D0A089C0
:102CD000400426D54FF4814200210F2000F0E7FB8D
:102CE0000021102000F057FA00F07F0121711E2909
:102CF00003DC00223F4800F082FA89F8025099F87C
:102D00000310A278914213D1384989F803500A225E
:102D10000D393848FDF788FA50B96078401C60706A
:102D20000CE0A078344A00213D540F2000F0BFFB96
:102D3000A078401CC0B2A0700228A5D36078D8B398
:102D400049F6404000F010FB002000F06DFA002131
:102D50000F2000F020FA3042E060F8D0A089400453
:102D60002BD54FF4804200210F2000F0A0FB002162
:102D7000102000F010FA40B22071B0F5806F04DC32
:102D800081B200221B4800F03AFA89F80250174934
:102D900099F803A089F803500A2241391548FDF734
:102DA00043FA48B917F80A00012811D107F80A5068
:102DB000607808B1401E60700AE0607818B1401E6B
:102DC0006070A0783D540C4A00210F2000F06FFB8A
:102DD000FFF778F900287FF4E2AE84F80080657090
:102DE000DDE60000000C0140B00300204A01002095
:102DF00000D02724F0110020009027242DE9F84F5F
:102E000004460578407978494FF00009C84631F802
:102E1000107061787548491ECEB20163042D75D0DB
:102E2000072D73D000218A46217801736F49E2791A
:102E30008969002A6CD021F480018161217A417373
:102E4000217A4FF44033826903EA01410A43834601
:102E500082610021042000F02AFB3A4642F6040178
:102E60002E2000F017FB3046FFF760FC604F6149F1
:102E70000522785D00EB8000431807212B2000F02D
:102E800025FB5D49012201EB0A030B21282000F0FC
:102E90001DFB785D594951F820200C21282000F0B5
:102EA00006FBE079564901EB8000A17930F811204A
:102EB0000221272000F0EEFA5248042130F81620B3
:102EC000272000F0E7FAE07938B3A07804282AD068
:102ED00028208DF8000020220621272000F0DAFAB1
:102EE0006B4601222621272000F0F0FA4648E178BF
:102EF00000EB061050F821200821272000F0D7FA17
:102F0000B4F80900A0B117E000E001E001218AE770
:102F100041F48001FF08816190E7642206212720A7
:102F200000F0B8FAE2E710208DF800000246D3E77F
:102F300041F24100A4F80900B4F80920202127201B
:102F400000F0A8FA314F0C2123203A6800F0AFFAC4
:102F500007EB460004218288232000F09BFAA07929
:102F600058B1E0792A49012243180021212000F0BC
:102F7000ADFA4FF003094FF0010805F00F002907E3
:102F800040EA116061784FF4402202EA814108432F
:102F9000920002EA095108434FF4003202EA484124
:102FA000084321794FF0F86202EA815108436179C0
:102FB00040EAC16200211F2000F079FAA078617810
:102FC0004FF4004308430204CBF81020E1790820B5
:102FD00043EA41310A430021CBF8102000F067FAA0
:102FE0000020BDE8F88F0000604D00083C11002073
:102FF000E44C0008044D0008224D0008EC4C000889
:10300000304D00083C4D0008404D0008244D00089C
:103010002C4D000810B504460421362000F0BBF802
:1030200014B140F4006201E020F400620421BDE824
:103030001040362000F03BBA38B540208DF8000033
:1030400000210E2000F0A7F80446FFF74FFD0546CB
:10305000002211460E2000F02AFA6B4601220021C0
:103060000D2000F033FA0A4A00210F2000F01FFA69
:1030700000F0F6F9224600210E2000F018FA28464A
:10308000FFF72EFD0349002081F82C0038BD000019
:10309000F8FF27243C1100207CB50546324C042063
:1030A0008DF8000000216175216384F8251084F8F3
:1030B0002C10A1836163A16300F080F82B4920608C
:1030C000884201D088177CBD0020FFF747FB6B4684
:1030D00001220021242000F0F9F91E20FFF7B9FB9E
:1030E00086B2300AA0730420FFF7B3FB10F0FF0F85
:1030F0000CD002208DF8040001AB012212212D20FA
:1031000000F0E4F9A08B40F48050A0830620FFF784
:10311000A0FB60600720FFF79CFBA06016F01F007B
:10312000207501D110202075C0B200F00DFAE8071B
:1031300006D0FFF774FBA08B40F40060A08309E089
:103140000521362000F014F820F400720521362005
:1031500000F0A0F90120FFF701FB0021042000F09E
:103160001AF8A06100207CBD3C1100203001CADEAD
:1031700038B54FF6FF7489B280B26B46022200F078
:1031800021F830B99DF800009DF8011000EB0120F6
:1031900084B2204638BD38B54FF0FF3489B280B2D2
:1031A0006B46042200F00EF830B903216846425CF9
:1031B000491E02EB0424FAD5204638BD00210846FA
:1031C000FFF7E9BF08B551B140F040008DF80000AD
:1031D000C8B27F2907D88DF8010002200BE08DF8D6
:1031E0000000012007E040F080008DF80100C809D0
:1031F0008DF802000320694601F060F908BD30B483
:1032000014460A462146034630BC1120FFF7DABFB8
:103210000346052200211520FFF7D4BF03460522EF
:1032200000211720FFF7CEBF38B5054600208DF8E6
:10323000000000F015F94FF4807422460DB14FF4F0
:10324000407200210D2000F025F99DB16B4601224E
:1032500003210F20FFF7B6FF9DF80000000709D5F6
:10326000FFF7EAFE224600210D2000F013F94FF08F
:10327000FF3038BD002038BD024601210A2000F091
:1032800016B938B50446C0076B464FF002024FF03E
:1032900000014FF026002DD0FFF794FF9DF80100AC
:1032A000012220F03C0040F014008DF8010011468E
:1032B00026200DF1010300F009F96B4601220221DD
:1032C0003620FFF77FFF9DF800006B4640F084003A
:1032D0008DF8000001220221362000F0F7F81020BE
:1032E0008DF8000001208DF80100022228216B4694
:1032F00036200BE0FFF766FF9DF801006B4620F0DB
:1033000014008DF8010002220021262000F0DEF8D2
:10331000A00711D50F208DF800006B4601222A214D
:10332000362000F0D3F800208DF800006B46012213
:103330002A21362000F0CAF838BD10B50446002115
:103340001A20FFF728FFC4F313026FF313000243A0
:103350000021BDE810401A2000F0A9B8024641F64D
:1033600004012E2000F096B838B505466B460122C0
:1033700003210420FFF726FF104C75B12A460021D7
:103380000C2000F087F89DF8000040F010008DF848
:103390000000A06940F0805008E09DF8000020F097
:1033A00010008DF80000A06920F08050A0616B46ED
:1033B00001220321042000F089F838BD3C110020CF
:1033C00002460021182000F065B80000F8B500247E
:1033D0000546224F26468DF8004080070BD58020F9
:1033E0008DF800006B46012200210D2000F06EF8E0
:1033F000012087F82C00E8079DF8000021D040F05C
:1034000006008DF800006B46012200210D2000F01F
:103410005DF803210F20FFF7ABFE10F4816F1AD087
:1034200040208DF800006B46012200210D2000F0A5
:103430004DF80020FFF7EEFD87F82C604FF0FF34C9
:1034400009E040F002008DF800006B4601220021E7
:103450000D2000F03BF82046F8BD00003C11002094
:103460001CB56B46012203210F20FFF7ABFE9DF830
:10347000000000F0800100F04000B1EB400F08D0E8
:1034800001208DF80400024601AB03210D2000F05D
:103490001DF81CBD08B589B28DF80020120A8DF800
:1034A000012080B26B46022200F010F808BD38B54A
:1034B00000236C46E254120A5B1C042BFADB89B22F
:1034C00080B22346042200F001F838BD08B551B19E
:1034D00040F0C0008DF80000C8B27F2909D88DF8EF
:1034E000010002200DE040F080008DF80000012076
:1034F00007E040F080008DF80100C8098DF8020057
:103500000320694601F0FEF908BD10B514460244D7
:10351000B2F5806F02D94FF0FF3010BD0B46821E0E
:1035200021460920FFF7D2FF002010BD054A10B543
:10353000126940EA8150024300210820FFF7B7FFDB
:10354000002010BD3C11002038B504466B46012216
:103550000E212B20FFF736FE9DF8000004F01F011E
:1035600020F01F0001438DF800106B4601220E2150
:103570002B20FFF7ABFF38BDF0B50022134D052718
:1035800001EB8104134605EB8404002814DD643547
:1035900055F8216044F82600761C45F82160052E78
:1035A00002D1002045F8210054F82200521CD2B26A
:1035B0000344052AF8D306E054F82200521CD2B284
:1035C0000344052AF8D393FBF7F0F0BD78110020EF
:1035D00000228154090A521C042AFADB704770B594
:1035E0001C461546FCF72DFEFDF74FF8010A297021
:1035F000207070BDFDF786FBFEF776FDFEF710FC30
:10360000FEF76AFCFEF78CFCFEF7ECFB00F00EF810
:10361000FEE701460020842900D0C81C704710B581
:1036200000B9012001F0DCF8002010BD10B501F058
:10363000FDF8002010BD7FB50D4604464169B0F984
:10364000080081B1A16971B1FFF7E3FFD4E9051268
:103650008DE80700D4E900102B46226901F01BFA1F
:10366000039004B070BDFFF7D4FF03A9CDE90001BA
:10367000208A2B4682B2D4E9001001F0DFF901283C
:1036800001D00020EDE70398EBE710B541EA0020F8
:10369000144600B2FCF7F0FF2146BDE81040FCF7ED
:1036A00002BE00002DE9F04D1D460C4698B01746AD
:1036B00021F0004123F00043002814BF4FF0010C1B
:1036C0004FF0000C0CEB440CFE4A0CEB02064FEAE8
:1036D000620C66452BD33E0018BF012606EB45065B
:1036E0001644F94A964222D3F84A53EA070C02D00C
:1036F000944205D148B918B000201146BDE8F08DBC
:10370000002808BF4FF0000C01D04FF0010C0CEB6B
:10371000440212F5001F0AD8002F14BF4FF0010C0D
:103720004FF0000C0CEB450212F5001F07D918B042
:103730003A462B462146BDE8F04DFEF7C9BF0022B0
:10374000DFF88CA3002CB8BF534526DADFF884C31A
:103750006345A8BF022220DADFF870C39C451CDC59
:10376000DFF874C30CEB235CBCF1140F08DDCCF163
:10377000340627FA06FC0CFA06F6BE420DD108E024
:103780005FB9CCF1140623FA06FC0CFA06F69E4249
:1037900003D10CF00102C2F1020251EA000C19D16E
:1037A000002D17DA002C18BF022A01D0012A07D0F9
:1037B0000220FEF7B5FF18B0BDE8F04DFEF780BF60
:1037C0000220FEF7ADFFFEF77BFF18B081F000414D
:1037D000BDE8F08DB7F1000C6CD1534525D104F153
:1037E000804212F5801201BF00280020B74918B0AE
:1037F00008BFBDE8F08DB548884207DC002DA1BFA9
:103800006046294618B0BDE8F08D07E0281E05DAAD
:1038100080F0004118B06046BDE8F08DAF497944B2
:10382000D1E9000118B0BDE8F08DDFF8A0C2634512
:1038300025D1002D1FDA19B1514512D1D8B909E0AF
:10384000002840F0EC82A24A214618B062F31E0123
:10385000BDE8F08D0020214618B060F31E01BDE8E0
:10386000F08D08DA18B02346BDE8F04D024600207E
:103870006146FCF77BBE18B02146BDE8F08D51458E
:1038800018DAB5F1804F0DD0A5F1005CBCF1FF5CFA
:1038900010D1B4F1000C0DDB18B06146BDE8F04D5D
:1038A00000F03EBE234618B00246BDE8F04D194672
:1038B000FCF7EABD060024F0004C3BD1D9B15145DC
:1038C00033D1002C06DD002DA1BF0020514618B0D9
:1038D000BDE8F08D002C01DD002D1BDB002C13DA80
:1038E000002D11DB012A4FF0000014BF78497C49FC
:1038F00018B0BDE8F08D022A18BF002C0AD0012AAA
:1039000008D1002C06DA0AE0002CB8BF002D11DA2D
:10391000012A04D0002018B00146BDE8F08D18B08F
:1039200000204FF00041BDE8F08DA1F14050B0F112
:103930007F601AD0012000EBE47050EA020421D02D
:10394000624C521E4FF0000B104304BF4FF0000BAF
:10395000644C654883427CDD644A654893421FDDC0
:10396000884217DB002D25DB37E0002C00DA4AB156
:10397000022A0CBF01204FF0FF3018B0BDE8F04D17
:10398000FCF7D1BF0120FEF7CBFE18B0BDE8F04D2B
:10399000FEF7A0BE4D4A8A4202DC002D0ADC1CE084
:1039A000814202DA002D18DA04E0484B994220DD0A
:1039B000002D12DD0220FEF7B3FEFEF791FE054654
:1039C0000E460022534658462146FCF75DFD18B0CE
:1039D00066F31E012846BDE8F08D0220FEF7A0FE2A
:1039E000FEF786FE0A46214618B062F31E01BDE8C6
:1039F000F08D002230466146FCF740FD80460E46C1
:103A00006FF00102FCF721FE4FF05532394BFCF705
:103A100038FD42463346FCF737FD0022364BFCF7B3
:103A200030FD824642463346049110461946FCF763
:103A30002BFD5246049BFCF727FD8A4600904FF071
:103A4000C0422E4B40463146FCF71EFD2C4A2B4B04
:103A500000E027E0CDE9060151460098FCF714FD8F
:103A600082460191274A284B40463146FCF70CFD1F
:103A70005246019BFCF702FD82460B460246059129
:103A8000DDE90601FCF759FCDDE90623002688463E
:103A90003046FCF7F3FC5246059BFCF7F2FC02466D
:103AA00000F07EB90020B1F5801F07DA35223046DC
:103AB0006146FCF7CAFD06466FF0340000EB21506A
:103AC00024E00000FFFF1F00FFFF0F000000F03F99
:103AD0000000F07F0000404301FCFFFF16160000CD
:103AE0000000F0FF0000F0BF0000E0410000F043E4
:103AF000FFFFEF3F5555D53F0000E03F4715F73F2B
:103B0000FE822B6544DF5DF80BAE543EA0F2FF3021
:103B10000190C1F3130040F07F6141F040510291E8
:103B2000FE498842D8BF002004DDFD498142C8BF5C
:103B3000012001DD0D9008E000200D900198401C4F
:103B400001900298A0F5801002900299F5487844FF
:103B50000B910D9900EBC100D0E900230F93304683
:103B60000A920B99FCF78AFCCDE90601DDE90A21EE
:103B700030460F9BFCF7E1FB02460B460020EA496A
:103B8000FCF7F4FC059102460B460090DDE90601C6
:103B9000FCF77AFC1490E5488A464FF00008784418
:103BA0000299006812904FF0005040EA61010D98B0
:103BB0000F9B01EB804000F5002109910A9A1298B1
:103BC000FCF75CFC32460B9BFCF75BFC4246534621
:103BD000FCF75AFC0646029140465146099B129A50
:103BE000FCF752FCDDE90623FCF74BFC3246029B56
:103BF000FCF744FC059B009AFCF746FC0091149AE4
:103C00000490534610461946FCF73EFC0646024611
:103C1000C7480B46029106217844FEF7FCFCCDE92B
:103C20000510029B324610461946FCF72DFCDDE9D3
:103C30000532FCF729FC05910646534640461946D5
:103C4000149AFCF77AFB009B049AFCF71DFC3246A1
:103C5000059BFCF772FBCDE9051042465346104622
:103C60001946FCF711FC0022B24B02910A90FCF7B6
:103C700064FBDDE90532FCF760FB0E464246AD4BC6
:103C80004046FCF7FBFB029B0A9AFCF7F7FBDDE9D9
:103C90000532FCF7F6FB424602910A903346104685
:103CA0005146FCF7F1FBCDE906015346149A0299FF
:103CB0000A98FCF7E9FB8A4602903346424600998F
:103CC0000498FCF7E1FB5346029AFCF736FB824668
:103CD0000B4602460591DDE90601FCF72EFBDDE906
:103CE0000623002088460646FCF7C8FB5246059B83
:103CF000FCF7C7FB824609914FF060428E4B30467D
:103D00004146FCF7C1FB049006918C4A8A4B504611
:103D10000999FCF7B9FB82460291894A894B3046E2
:103D20004146FCF7B1FB5246029BFCF706FB864B73
:103D30007B440D9A03EBC203D3E90023FCF7FDFAA1
:103D40000E9007910198FCF7EEFD0591DDE9061351
:103D500082460E9A0498FCF7F0FA7C4A7A440D9B4E
:103D600002EBC303D3E9002300930292FCF7E5FAC8
:103D70005246059BFCF7E1FA00268846524630463B
:103D8000059BFCF77BFB009B029AFCF777FB069BED
:103D9000049AFCF773FB079B0E9AFCF772FB024632
:103DA00000200B46029038462946FCF76DFB824600
:103DB00001912B4638461946029AFCF75FFB3246C2
:103DC0004346FCF761FB5246019BFCF7B6FA0746F7
:103DD0008A463246434629460298FCF755FB05467B
:103DE0000E463A465346FCF7A8FA594A884691428D
:103DF00021DBA8EB020353EA000210D12A46334626
:103E0000FCF73CFBCDE90401524A534B384651467E
:103E1000FCF793FADDE90423FCF796FD21D202209A
:103E2000FEF77EFCFEF75CFC0A46214618B062F302
:103E30001E01BDE8F08D494B28F000429A4210D394
:103E4000474A08EB020353EA00027FF4C6AD2A4654
:103E50003346FCF713FB3A465346FCF775FD7FF6F5
:103E6000BCAD0022019228F000403E493E4A01EBE1
:103E70002051824223DA481C4FF4801121FA00F0CD
:103E800040443A4AC0F30A517A44394BA1F2FF3117
:103E9000CB4020EA0303C0F3130040F48010C1F1CB
:103EA0001401C84012680190B8F1000FBCBF404235
:103EB000019028463146FCF7E1FA05460E462A46AF
:103EC000334638465146FCF738FA4FF00008424670
:103ED000284B40460591FCF7D7FACDE90601264A62
:103EE000264B40460599FCF7CFFA009102902A46EE
:103EF000334640460599FCF7C1FA3A465346FCF76B
:103F0000C0FA1F4A1F4BFCF7BFFA009B029AFCF74E
:103F100014FA0746884602460B4635E08E980300A1
:103F20007AB60B005E1200000000F03F961200000F
:103F3000C41100000000084009C7EE3FFD033ADC51
:103F4000F5015B14E02F3EBE9C10000060100000E5
:103F500000009040FE822B654715973C00CC9040B6
:103F600000346F3F01FCFFFF0000E03FAC0F00009A
:103F7000FFFF0F00432EE63F396CA80C615C20BEAA
:103F8000EF39FAFE422EE63FDDE90601FCF7D5F9EE
:103F9000DDE9062305460E46FCF770FA3A4643462D
:103FA000FCF76FFA0F462A46334600901046194632
:103FB000FCF76AFA824602462E4888460B460521DF
:103FC0007844FEF728FB52464346FCF75DFA2A4642
:103FD0003346FCF756FA80468A463B462846314629
:103FE000009AFCF751FA3B46009AFCF7A6F90691B5
:103FF000009000224FF0804340465146FCF73EFAC5
:104000000F460C904246534628463146FCF73CFA90
:104010003B460C9AFCF7AAFA069B009AFCF72EFA8C
:104020002A463346FCF72AFA0022134BFCF729FAFA
:10403000054601980E4601EB00510815002810DCDA
:1040400028463146019AFCF700FBFEF7C0FA042827
:1040500008BFFEF74DFB28463146019AFCF7F5FAFA
:1040600005460B4618B02A4658462146BDE8F04D95
:10407000FCF70ABA4C0E00000000F03F2DE9F041B9
:10408000184C0F46054666692068001D00F0E4FAEA
:1040900038B9206890F82C1001208840A16981432C
:1040A000A161681C07D137B12168BDE8F0410E4815
:1040B000091D00F015BB20683544B54245602168F4
:1040C00005D2A068BDE8F041091D00F0F1BA6068B2
:1040D000091D00F0EDFA206B854200D22563BDE892
:1040E000F081000018000020280500202DE9F04193
:1040F000054600F001FB2E4C2069401C2061206821
:104100002C4F10B1E06940B32DE0256020690128F3
:1041100029D1002606EB860007EB800000F0BAFAF2
:10412000761C072EF6D323488C3000F0B3FA2148D2
:10413000A03000F0AFFA1F48B43000F0ABFA1D48D1
:10414000C83000F0A7FA1B48DC3000F0A3FA194889
:104150008C3060601430A06005E02068E96AC06AB5
:10416000884200D82560E06A401CE062E96A0120CC
:10417000A26988401043A06101EB810007EB800039
:10418000291D00F0ADFA00F0D7FAE06900280CD044
:104190002068E96AC06A884207D207494FF0805018
:1041A0000860BFF34F8FBFF36F8FBDE8F081000051
:1041B000180000204C04002004ED00E010B5044677
:1041C00090F8510058B101280CD002280FD050208F
:1041D00080F31188BFF34F8FBFF36F8FFEE7206B23
:1041E00000F0BEFA2046BDE8104000F0B9BA10BD9C
:1041F00010484FF44061420706D0C01D0D4920F021
:104200000700411AC1F540610B4A00230144C2E98D
:1042100000030839103A21F0070111604B600B6070
:104220000B1AC0E9001393604FF000405360D06058
:10423000704700003C05002064000020144E154C1F
:10424000A6F1C8074FF08058DFF84C9012E000BF8D
:1042500000F052FAF068C568281D00F0FDF92069E9
:10426000401E2061E068401EE06000F065FA2846CC
:10427000FFF7A4FFE0680028EAD138680128F9D9DF
:10428000C9F80080BFF34F8FBFF36F8FF2E70000D4
:10429000140500201800002004ED00E02DE9F0478F
:1042A0009A46DDE9098481466FF00303206B03EB36
:1042B00082021044089D20F00706700707D05020A6
:1042C00080F31188BFF34F8FBFF36F8FFEE7231882
:1042D0000A5C83F834200A5C12B1401C1028F6D323
:1042E000002784F84370072D00D30625E562C4E952
:1042F0001157201D00F0D9F904F1180000F0D5F98C
:104300002461C5F107006462A061E76484F850701D
:1043100052464946304600F0BFF82060B8F1000F21
:1043200001D0C8F80040BDE8F087000030B5114961
:1043300000E011460A688242FBD34B685C18844255
:1043400003D1406818444860084643681C189442EA
:1043500009D1084C103C2468A24209D052681A4482
:1043600042600A6812680260814200D0086030BD75
:104370000460F9E76400002006484168096829B133
:104380004168C968C9684968016370474FF0FF31E7
:10439000FAE700001800002008484068401C4FF071
:1043A000500080F3118804D0BFF34F8FBFF36F8F9D
:1043B000FEE7BFF34F8FBFF36F8FFEE76C00002067
:1043C0002DE9F0410546002700F066FA314E3068CD
:1043D00008B9FFF70DFFF06805424BD1C5B30835AA
:1043E00068070ED005F00700C0F108000544680713
:1043F00007D0502080F31188BFF34F8FBFF36F8F2A
:10440000FEE72DB37068854234D82248103001464B
:104410000C6801E020460C466168A94202D221687E
:104420000029F7D131688C4224D0076821680160E7
:1044300060680837411B10290FD96019420708D05E
:10444000502080F31188BFF34F8FBFF36F8FFEE7CB
:1044500010E041606560FFF769FF61687068401AAD
:104460007060B268904200D2B060F06801430020F2
:10447000C4E9000100F0ACFB780707D0502080F3BE
:104480001188BFF34F8FBFF36F8FFEE73846BDE84B
:10449000F08100005400002010B5031F4FF080741D
:1044A0001C601B1F21F001011960191F024B0B60DA
:1044B000143940380A6010BD994300082DE9F047CF
:1044C000994614460F460646FEF710FB124D8246EB
:1044D000002210212846FCF701FC4FF6FF784346E6
:1044E000324639460D48FDF7ECF84FF0FF3630B94B
:1044F000A2B2434649460948FDF736F810B13046A6
:10450000BDE8F087012210212846FCF7E7FB504662
:10451000FEF7E6FA0020F3E700080140B0030020B0
:104520002DE9F04106460F46FCF7ACF9041E0D4696
:1045300018BF0120284320F00040C0F17F6000F147
:10454000E040C00F0ED0301C18BF0120384320F0CF
:104550000040C0F17F6000F1E040C00F04BF0120C7
:10456000FEF7DEF820462946BDE8F0812DE9F04F40
:1045700004468668D4E90017D4E903508BB017F0DD
:10458000FF4F0BD111F0FF4F08D110F0FF4F05D1B5
:1045900015F0FF4F02D116F0FF4F56D001213846DB
:1045A000FBF7BFFE3146FBF74CFEFCF787F882466F
:1045B0008B462846FCF782F800224FF08043FFF735
:1045C00071F8804689463046FCF778F805460022A7
:1045D0004FF080430191FFF765F8CDE907103846A9
:1045E000FCF76CF800224FF08043FFF75BF8DDE941
:1045F0000732FBF7A2FE42464B46FBF73FFF52460F
:104600005B46FBF7B3FFFCF76CF8114F7862FCF7E1
:1046100055F800224FF08043FFF744F800220D4B7D
:10462000FBF72FFFFFF77CFF02460B462846019958
:10463000FBF72AFFFCF755F8386205463046796AE1
:10464000FBF7FFFDF861C4E914500BB0BDE8F08F33
:10465000780000200000F03FD0E9013201699A6043
:10466000D0E901235A604A68824201D182684A60D7
:10467000002202610868401E086008687047000058
:10468000034B036003F15400086080201060704702
:104690005C01002000F108014FF0FF32C0E9011277
:1046A000C160016100210160704700210161704714
:1046B00030B50B685A1C02D000F1080202E0026912
:1046C00004E02246546825689D42FAD953684B603D
:1046D00099608A60516008610168491C016030BDC1
:1046E00042684A6093688B60936859609160086182
:1046F0000168491C01607047502080F31188BFF3A6
:104700004F8FBFF36F8F0A494868401C48600128EB
:104710000CD10848006810F0FF0F07D0502080F33C
:104720001188BFF34F8FBFF36F8FFEE77047000014
:104730006C00002004ED00E00849486828B1401EE4
:10474000486001D180F311887047502080F31188B0
:10475000BFF34F8FBFF36F8FFEE700006C000020A8
:1047600070B5002827D0144DA0F108046168E868EE
:10477000014207D1502080F31188BFF34F8FBFF360
:104780006F8FFEE722683AB1502080F31188BFF3A3
:104790004F8FBFF36F8FFEE78143616000F07CF8BD
:1047A00060686968084468602046FFF7BFFDBDE89F
:1047B000704000F00DBA70BD540000204FF0E020B2
:1047C00000210161816105494FF47A720968B1FBEA
:1047D000F2F1491E41610721016170470800002084
:1047E00010B5020014D00F48806B38B1502080F310
:1047F0001188BFF34F8FBFF36F8FFEE700F04CF8C7
:1048000000211046FFF73AFC00F0E2F9002807D13A
:1048100005494FF080500860BFF34F8FBFF36F8F93
:1048200010BD00001800002004ED00E010B586B0B7
:104830000024039405AA04A903A80494FFF720FF09
:10484000DDE903010094CDE9011000230EA1104819
:10485000059A00F020F90F490028486311D0502034
:1048600080F31188BFF34F8FBFF36F8F4FF0FF308E
:1048700008630120C8614C6106B0BDE8104000F03B
:1048800073B806B010BD000049444C45000000005C
:104890003D420008180000200248816B491C8163DA
:1048A00070470000180000201448816B11B10121ED
:1048B00041627047002141628169B1FA81F1C1F121
:1048C0001F0101EB81020E4951F822306BB101EB5F
:1048D000820101F108034A6852684A609A4201D194
:1048E00052684A60D16801607047502080F3118897
:1048F000BFF34F8FBFF36F8FFEE70000180000205B
:104900004C0400202DE9F047994614460F46064610
:10491000FEF7ECF8124D8246002210212846FCF7E3
:10492000DDF94FF6FF784346324639460D48FCF72D
:10493000C8FE4FF0FF3630B9A2B243464946094897
:10494000FCF7BFFE10B13046BDE8F0870122102110
:104950002846FCF7C3F95046FEF7C2F80020F3E7FB
:1049600000080140B00300201CB5264908780190DA
:10497000FF20087008788DF800009DF800009DF871
:10498000002000F0F000904207D0502080F3118802
:10499000BFF34F8FBFF36F8FFEE79DF800001A4BF8
:1049A00000F0500018700720986005E09DF8002086
:1049B00052008DF80020401E9DF800201206F5D40C
:1049C0009860032807D0502080F31188BFF34F8FE1
:1049D000BFF36F8FFEE74FF4407098600198087046
:1049E0000A48016841F470010160016841F07041BA
:1049F0000160FFF7E3FE00205860FBF795FB002005
:104A00001CBD000000E400E06C00002020ED00E090
:104A100010B5502080F31188BFF34F8FBFF36F8F15
:104A200000F072F818B104494FF08050086000207F
:104A300080F3118810BD000004ED00E02DE9FF5F58
:104A40008346DDE90E87994616468A469000FFF7B1
:104A5000B7FC05001CD05420FFF7B2FC040014D0B2
:104A60000020256384F85100CDE90240CDE900879C
:104A70004B46324651465846FFF710FC2046FFF79A
:104A800035FB012004B0BDE8F09F2846FFF768FE23
:104A90004FF0FF30F6E7F0B585B0DDE90B640A9D15
:104AA000A6B1DCB1542700972663022684F8516032
:104AB000002604AFCDE90246CDE90057FFF7EEFB33
:104AC0002046FFF713FB049805B0F0BD502080F39B
:104AD0001188BFF34F8FBFF36F8FFEE7502080F335
:104AE0001188BFF34F8FBFF36F8FFEE70548C16991
:104AF00019B1806B18B10020704701207047022067
:104B000070470000180000202DE9F0412E4C0027CE
:104B1000A06B40B1206A401C2062606A00B101278E
:104B20003846BDE8F0816669761C666113D160681D
:104B3000006838B1502080F31188BFF34F8FBFF366
:104B40006F8FFEE76068A1686160A060A06A401C8A
:104B5000A062FFF711FC206BDFF87080864209D35A
:104B60006068006880B16068C068C568686886422F
:104B70000DD220632068C06A00EB800158F8210044
:104B80000128CAD90127C8E74FF0FF30F1E7281DF7
:104B9000FFF762FDA86A18B105F11800FFF75CFD88
:104BA000E86A0121A26981401143A16100EB800103
:104BB00008EB8100291DFFF793FDE86A2168C96AA7
:104BC0008842CDD30127CBE7180000204C040020F9
:104BD0002DE9F0472C4D00242746A86B38B1FFF78C
:104BE0008BFDA86B401EA863A86B40B146E0502027
:104BF00080F31188BFF34F8FBFF36F8FFEE72969F2
:104C0000224E0120D1B3A6F1B40980463068E8B144
:104C1000F068C46804F11800FFF71EFD201DFFF7BF
:104C20001BFDE06AAA6908FA00F11143A96100EBD3
:104C3000800109EB8100211DFFF752FDE06A296820
:104C4000C96A8842E2D3C5F82480DFE70CB1FFF7D8
:104C500093FB2C6A44B14646FFF756FF00B16E62E3
:104C6000641EF9D100202862686A38B1084901271A
:104C700038070860BFF34F8FBFF36F8FFFF75CFDFE
:104C80003846BDE8F087000018000020000500202D
:104C900004ED00E0404E0008BD20000800000000C8
:104CA0000000000080000000000000000000000084
:104CB0004C4E0008092B0008000000000000000016
:104CC00000020000000000000000000000000000E2
:104CD00000000000010203040607080900000000AC
:104CE000010203040000010203040005405C00000F
:104CF000A05C0400C06C0800805C0400E03F1E0063
:104D0000E07D1E00070400091E0805400826091062
:104D100040085608054008261D040008BE1D040072
:104D200008BED8BC07A9022570889B8840100800DF
:104D30000A001600010006000100020087008D0035
:104D40002D001A3152001A339A001A351D011A37F4
:104D50006B003B31BE003B335E013B3596023B3777
:104D6000000099599959EB518F421E45142E00802D
:104D7000EB51F5283333E13A703DE13AC235852BEA
:104D8000C2353333C235C235AE47E13A5138A3306C
:104D90005138000001000101400000000013002014
:104DA0000017002080170020000000000000000015
:104DB000000000000000F03F000000000000F83F8D
:104DC00000000000000000000000004003B8E23FC7
:104DD000000000000000000006D0CF43EBFD4C3E79
:104DE000033333333333E33FFFAB6FDBB66DDB3F6E
:104DF0004D268F515555D53F01411DA96074D13FB6
:104E000065DBC9934A86CD3FEF4E454A287ECA3FAF
:104E10003E5555555555C53F93BDBE166CC166BF31
:104E20002CDE25AF6A56113FF16BD2C541BDBBBE2A
:104E3000D0A4BE726937663E00000000000000008A
:104E400064656661756C745461736B00647754615A
:104E5000736B0000744E0008000000205C0100002D
:104E60009C090008C04E00085C0100204C1A00009C
:104E700010270008911324F43201025F101AAA01CE
:104E8000012C2341885FDE57415645210CBF564512
:104E9000574110021B0A152333596979100A10AEC5
:104EA000230A10AF13AAE00DAAE10DAAE20DAAE3AE
:104EB0000D32E420080202080209090173210400EE
:04000005080000ED02
:00000001FF
