:020000040800F2
:10000000080B002049010008FB0D00089F0B0008A9
:10001000F90D0008170A0008F91800080000000090
:100020000000000000000000000000007D13000838
:10003000190A0008000000001D1000083D15000806
:100040006301000863010008630100086301000800
:1000500063010008630100086301000863010008F0
:1000600063010008630100086301000863010008E0
:1000700063010008630100086301000863010008D0
:1000800063010008630100086301000863010008C0
:1000900063010008630100086301000863010008B0
:1000A00063010008630100086301000863010008A0
:1000B0006301000863010008630100086301000890
:1000C0006301000863010008630100086301000880
:1000D0006301000863010008630100086301000870
:1000E0006301000863010008630100086301000860
:1000F0006301000863010008630100086301000850
:10010000630100086301000863010008630100083F
:10011000630100086301000863010008630100082F
:10012000630100086301000863010008630100081F
:10013000DFF810D000F032FC00480047C130000862
:10014000AFF30080080B00200648804706480047B0
:10015000FEE7FEE7FEE7FEE7FEE7FEE7FEE7FEE777
:10016000FEE7FEE74D1500083101000830B50446F2
:100170000020034600E05B1C934203D2E05CCD5CB0
:10018000401BF8D030BD80EA010210B502F00043F8
:10019000400022D04A001FD0010E01EB1261C0F3D3
:1001A0005600C2F3560240F4000042F40002A0FBE5
:1001B000022000047F39140400D0401C50EA124091
:1001C00001D44000491EC2B20C0604EBD010401C02
:1001D0004008802A02D003E0002010BD20F001007A
:1001E000002900DA0020184310BD30B480EA010273
:1001F00002F0004530F0004221F0004013D090B1F1
:10020000C30DD40DC2F31601C0F31600E41A41F475
:10021000000140F400027D34914201D3641C00E0EF
:100220004900002C02DA30BC002070474FF4000077
:100230000023914201D3891A034340084FEA410148
:10024000F7D151B1914202D14FF0004105E002D205
:100250004FF0010101E06FF0010103EBC4502844AD
:1002600030BC00F09DBA420005D0C0F3C7525242E4
:10027000914201DC0020704700EBC15070472DE92E
:10028000FE4F804681EA0300C00F0C46009021F02B
:10029000004123F00045B8EB0200A94105D24046D9
:1002A000214690461C460B46024623F00040104370
:1002B00047D0270DC7F30A00C3F30A510290401A32
:1002C000019040286BDAC3F3130040F4801B0098C0
:1002D000924620B10023D2EB030A63EB0B0B01988B
:1002E0005946C0F14002504600F029FA06460D4634
:1002F00050465946019A00F041FA10EB080061415E
:10030000002487EA115284EAE7731A4340D0009A26
:1003100062B3019A012A4FEA075215DC001B61EB18
:1003200002014FF0004202EA0752CDE90042001CF0
:1003300041F5801132462B4600F078FA03B0BDE853
:10034000F08F40462146F9E7001B61EB0201001CDB
:1003500041F5801300185B412018A2F5001747EB08
:10036000030140EAD570B6196D4111E06D084FEAFE
:10037000360645EAC0754FEA0752001B61EB0201E1
:10038000001C41F5801149084FEA30000019514125
:1003900032462B4603B0BDE8F04F00F038BA009863
:1003A000012240000023D0EB020263EBE0730098CF
:1003B00021464FEAE074B8EB000061EB0401E9E785
:1003C00083F000435BE781F0004158E72DE9FE4FE1
:1003D00081EA030404F0004421F0004100944FF04E
:1003E000000B23F0004350EA01045ED052EA0304FC
:1003F0005BD0C3F30A54C1F30A552C44A4F2F3347E
:100400000194A0FB0254C1F3130141F48011C3F322
:10041000130343F4801301FB024400FB034E840AE0
:10042000970A44EA815447EA8357A4FB0768029578
:100430008D0A05FB07854FEA932C04FB0C54270516
:10044000029D4FEA065847EA1637B5EB08056EEBF2
:10045000070C870E920E47EA811742EA8312A7FB28
:100460000201B6EB0B0164EB00042B0D43EA0C33E5
:100470005E1844EB1C50DA465146E7FB0201C5F317
:1004800013044FEA0B3343EA14534FEA0432019C3E
:1004900043EA0603A4F10C040294009CCDE900B4E5
:1004A00000F0C4F903B0BDE8F08F00200146F9E781
:1004B0002DE9F04D81EA030404F0004B21F00045E2
:1004C00014464FF0000A23F0004150EA050220D004
:1004D00054EA01021DD0C5F30A570246C5F31303BF
:1004E000C1F31300C1F30A5640F4801543F480139E
:1004F000A7EB0608101BD64608F2FD3873EB050083
:1005000002D308F1010801E092185B41B8F1000F35
:1005100003DA00200146BDE8F08D00204FF4801181
:10052000064684460EE0171B73EB050705D3121B26
:1005300063EB050306434CEA010C49084FEA30001F
:1005400092185B4150EA0107EDD152EA030012D044
:1005500082EA040083EA0501084305D0101BAB4181
:1005600006D20122002306E000224FF0004302E001
:100570006FF0010253101AEB06004CEB085110EB20
:100580000A0041EB0B01BDE8F04D00F040B970B539
:1005900021F0004303430CD0C1F30A550024D5EBEE
:1005A000040564EB0403D617AD1AB34102DB002047
:1005B000014670BD201841EB025170BDC10F80EAA9
:1005C000E0700844CA079623002100F0F2B80EB587
:1005D000C10F80EAE0700844CA07002140F23343AB
:1005E0008DE80E000A460B4600F020F903B000BD6E
:1005F00000F0004220F00040C10DC0F3160040F4AE
:1006000000007F2901DA00207047962903DCC1F140
:100610009601C84001E096398840002AF4D0404253
:10062000704700F0004230F000400AD0C10D01F5E3
:100630006071C0F3160042EA0151C208400711433D
:10064000704700200146704730B5041E71F1000468
:1006500004DB4FF00044404264EB0101141E73F1CF
:10066000000405DB1C464FF00043524263EB0403D9
:10067000994208BF904230BD01F0004330B421F0F0
:10068000004150EA010206D00A0DA2F56072C1F3E2
:100690001301002A02DC30BC00207047440F44EAFA
:1006A000C104C100E01830BC00EBC25000F078B8C3
:1006B00030B50B46014600202022012409E021FA32
:1006C00002F59D4205D303FA02F5491B04FA02F52F
:1006D0002844151EA2F10102F1DC30BD2DE9F05FC6
:1006E0000546002092469B468846064681464024A1
:1006F0001BE0284641464746224600F02FF8534665
:100700005A46C01A914110D311461846224600F0AD
:1007100016F82D1A67EB01084F46224601200021EA
:1007200000F00DF817EB00094E41201EA4F1010462
:10073000DFDC484631462A464346BDE8F09F202A82
:1007400004DB203A00FA02F1002070479140C2F128
:10075000200320FA03F3194390407047202A04DB5A
:10076000203A21FA02F00021704721FA02F3D0402A
:10077000C2F120029140084319467047202A06DB47
:10078000CB17203A41FA02F043EAE07306E041FA5F
:1007900002F3D040C2F1200291400843194670474D
:1007A0000029A8BF7047401C490008BF20F0010085
:1007B000704710B4B0FA80FC00FA0CF050EA010463
:1007C00004BF10BC704749B1CCF1200421FA04F4F5
:1007D00011FA0CF118BF012121430843A3EB0C01CE
:1007E000CB1D4FEA00614FEA102042BF002010BC31
:1007F000704700EBC35010440029A4BF10BC7047E1
:10080000401C490008BF20F0010010BC704710B523
:10081000141E73F1000408DA401C41F10001921823
:100820005B411A4301D120F0010010BD2DE9F04DCC
:1008300092469B4611B1B1FA81F202E0B0FA80F221
:1008400020329046FFF77BFF04460F4640EA0A003D
:1008500041EA0B0153465A46084313D0114653EA66
:10086000010019D0C8F140025046FFF777FF054656
:100870000E46504659464246FFF761FF084305D0F1
:10088000012004E020463946BDE8F08D00200543F4
:1008900046EAE0762C4337430A986305E40AA0EB66
:1008A00008000022FD0A44EA47540A3002D500201D
:1008B0000146E9E7010510196941DDE9084500191C
:1008C0006941BDE8F04DA2E72DE9F04D00231A463D
:1008D0001B1A8A4103DB00200146BDE8F08DC1F3FD
:1008E0000A52C1F3130141F480154FF0000BD107F8
:1008F00002D100186D41521E0027044640F2FF113C
:10090000384601EB620A3E468046024600204FF41C
:100910008011FFF723FFC2197141BB1846EB01009C
:10092000B4EB030C75EB000C04D3E41A65EB000583
:1009300017460E46241908F101006D4180463428FF
:10094000E3DDF91946EB0600091BA84103D24FF07D
:10095000FF32134601E0002213461BEB070046EB73
:100960000A51BDE8F04DFFF752BFC1F30A52C1F37F
:10097000130140F2FF3341F480119A4202DA002061
:100980000146704740F233439A42A2F2334202DCFE
:100990005242FFF7E3BEFFF7D2BE0000064C074D00
:1009A00006E0E06840F0010394E80700984710343F
:1009B000AC42F6D3FFF7C0FB4C4A00086C4A000873
:1009C00070B58C1810F8015B15F0070301D110F811
:1009D000013B2A1106D110F8012B03E010F8016B3E
:1009E00001F8016B5B1EF9D12B0705D40023521EC1
:1009F0000DD401F8013BFAE710F8013BCB1A921C29
:100A000003E013F8015B01F8015B521EF9D5A14226
:100A1000D8D3002070BDFEE77047000038B5012133
:100A20007D2000F015FB4FF6FF70ADF800000020B0
:100A3000124C8DF803006946204600F029F86946FB
:100A40000F4800F025F869460E4800F021F8694685
:100A50000D4800F01DF869460C4800F019F80E200A
:100A6000ADF8000010208DF8030003208DF802007F
:100A70006946204600F00CF8002038BD000801400F
:100A8000000C01400010014000140140001801401A
:100A9000F0B5CA78002502F00F03D20601D58A7896
:100AA00013430A784FF00F0E12F0FF0F4FF00102C0
:100AB0001CD004680F8802FA05F63740B74211D1FE
:100AC0004FEA850C0EFA0CF724EA070703FA0CF438
:100AD0003C43CF78282F02D0482F02D002E0466155
:100AE00000E006616D1C082DE4D304600C88FF2C27
:100AF0001ED944685FF0000606F1080702FA07F500
:100B00000F882F40AF420FD14FEA860C0EFA0CF738
:100B1000BC4303FA0CF73C43CF78282F00D1456142
:100B2000CF78482F00D10561761C082EE4D34460AD
:100B3000F0BD0000F0B5144C002801DAE36900E0D4
:100B40006368420D120185B2C0F301579540C0F3AE
:100B50000346032F05D0C2020AD50322B2409343B5
:100B600007E023F07062636823F07063636002E063
:100B7000AB4343F0706201B12A43002801DAE2611D
:100B8000F0BD6260F0BD00000000014041617047AF
:100B9000016170470AB10161704741617047FEE72A
:100BA000F8B54020ADF8000003240B4E8DF802404C
:100BB00010258DF8035069463046FFF769FF802005
:100BC000ADF800008DF802408DF8035069463046BC
:100BD000FFF75EFFF8BD0000000C0140094A00B5B8
:100BE0004021116000F0CCF8064B80201B1F1860DC
:100BF00000F0C6F8196000F0C3F811605DF804EB6E
:100C000000F0BEB8140C014070B50E4C0822002153
:100C1000802020600B4E4025231D083E0CE0480636
:100C2000010E1D6000F0ACF8256000F0A9F83068F6
:100C3000000601D541F00101521ED2B2EFD21D6073
:100C4000084670BD100C014070B50D4A0821802582
:100C500040260346141F0DE000F092F8180601D557
:100C6000256000E015605806030E00F089F8266044
:100C700000F086F8491EC9B21660EDD270BD0000C2
:100C8000140C01400C4800B5802101604022026034
:100C900000F076F8084A083A1068074B1B1D1960E7
:100CA00000F06EF81068000601D5002000BD196044
:100CB00000F066F8012000BD100C0140094B00B5A2
:100CC0004021196000F05CF880221A6000F058F8AA
:100CD000044B1B1F196000F053F81A605DF804EB19
:100CE00000F04EB8140C014010B500240CA000F028
:100CF00005FEFFF755FFE1B2204600F0C9FB641C7A
:100D0000052CF8DB0024204600F098FB0246214623
:100D100006A000F0F3FD641C052CF4DB10BD000000
:100D200049324320746573740D0A00005265616492
:100D3000202564202C646174612025640D0A000064
:100D40000E4900B540220A6000F01AF80B4B8020D3
:100D50001B1F186000F014F81A6000F011F8074823
:100D60000C3800680A60000603D500F009F800207E
:100D700000BD00F005F8012000BD0000140C01408A
:100D80001E20401E10F0FF00FBD1704770B50224FA
:100D900004F1B000C0B2002100F002F900210846C1
:100DA00000F0FEF80021102000F0FAF800250121E3
:100DB000002000F0F5F86D1CEDB2872DF7D3641C10
:100DC000E4B2082CE4D370BD10B5032002F062F940
:100DD000642001F08BFC032002F046F9642001F04E
:100DE00085FC032002F056F9642001F07FFCBDE889
:100DF0001040032002F038B9FEE770470907090EDA
:100E0000002806DA00F00F0000F1E02080F8141D41
:100E1000704700F1E02080F80014704770B500249E
:100E200004F1B000C0B2002100F0BAF80021084679
:100E300000F0B6F80021102000F0B2F800250121E2
:100E4000002000F0ADF86D1CEDB2872DF7D3641CC7
:100E5000E4B2082CE4D370BD38B50121082000F0BD
:100E6000F7F84FF47440ADF8000010208DF803003F
:100E70000320184C8DF8020069462046FFF708FE53
:100E80004FF43C412046FFF783FE4FF4804529464E
:100E90002046FFF77DFE642001F028FC294620460D
:100EA000FFF774FEC82001F021FC29462046FFF719
:100EB0006FFE094D00240021285D00F071F8641CCC
:100EC000E4B21B2CF7D3FFF7A9FF0021AF2000F0FD
:100ED00067F838BD000C01404803002010B50446F7
:100EE000B031C8B2002100F05BF8102040EA1410C5
:100EF000002100F055F804F00F00BDE8104040F06C
:100F00000100002100F04CB82DE9F041203A002406
:100F10000D46D7B27F2802D900208D1CEDB2801C6F
:100F2000C0B280462946FFF7D9FF0F4E04EB0710E9
:100F30000121305C00F034F8641CE4B2082CF5D3D5
:100F40006D1CE9B24046FFF7C9FF002404EB07100F
:100F500030440121007A00F023F8641CE4B2082C2C
:100F6000F4D3BDE8F0810000044200082DE9F0410F
:100F700017460E46044600250CE031462046FFF792
:100F8000C3FF0834E4B2782C02D90024B61CF6B2B0
:100F90006D1CEDB27A5D002AEFD1BDE8F081000052
:100FA0002DE9F0471C4D06464FF4806A0029514652
:100FB000284602D0FFF7ECFD01E0FFF7E7FD4FF414
:100FC000805841462846FFF7E1FD00244FF40049D0
:100FD0004FF4005739462846FFF7D8FD30064946FA
:100FE000284602D5FFF7D4FD01E0FFF7CFFD3946D3
:100FF0002846FFF7CDFD7006641C060EE4B2082CEF
:10100000E8D341462846FFF7C3FD51462846BDE8D0
:10101000F047FFF7BDBD0000000C01407047000025
:10102000044A0029D16901D0014300E08143D16124
:101030007047000000100240044A0029116901D0E5
:10104000014300E08143116170470000001002403D
:10105000044A0029916901D0014300E08143916174
:101060007047000000100240044A0029D16801D0F6
:10107000014300E08143D16070470000001002404E
:1010800030B5224A5168224B11F00C0103D00429DB
:1010900003D0082903D0036016E01E4913E051680D
:1010A000536801F470114FF0020413F4803F04EB15
:1010B000914104D053689B0303D5154B02E0164BB6
:1010C00000E0144B5943016051680F2303EA1111EA
:1010D000124B5C5C0168E14041605468072505EAF9
:1010E00014241C5D21FA04F48460546805EAD424B5
:1010F0001B5DD940C1605268032303EA9232074B5B
:101100001B1F9A5CB1FBF2F1016130BD001002407F
:1011100000127A000024F40000093D0018010020AC
:10112000034A118821F03801014311807047000003
:10113000003001400029018802D041F0400101E067
:1011400021F0400101807047F0B5294E87B030464C
:1011500000F052F80021ADF800104FF48270ADF8A5
:101160000200ADF808107015ADF80A001024ADF8B3
:101170000410ADF80C400720ADF80610ADF80E10C5
:10118000ADF810006946304600F067F8A020ADF8D1
:10119000140018208DF81700164F03258DF81650EF
:1011A00005A93846FFF774FC4020ADF8140048202C
:1011B0008DF8170005A93846FFF76AFCADF8144012
:1011C0008DF817408DF8165005A93846FFF760FCDA
:1011D0000021304600F05DF801213046FFF7AAFFFC
:1011E00010213846FFF7D4FC07B00020F0BD000006
:1011F0000030014000080140114910B588420AD171
:10120000841401212046FFF72FFF2046BDE810403F
:101210000021FFF729BF0B49884202D101210414A4
:1012200004E0094988420AD10121C4132046FFF78E
:1012300003FF2046BDE810400021FFF7FDBE10BDB2
:101240000030014000380040003C004002460020D1
:1012500012890A4200D00120704730B502884C88BC
:1012600002F441530A88CD8822438C882C432243C0
:101270000C8922434C8922438C892243CC89224306
:101280001A430280828B22F400628283098A0182DF
:1012900030BD0029818802D041F0040101E021F035
:1012A0000401818070470000F8B50E4604462549C8
:1012B0002448083150F8240051F82410084340F025
:1012C00001000121FFF7C4FE1E4808389CB350F806
:1012D00024000121FFF7A4FE18208DF8030019480F
:1012E0006946183830F81400ADF8000003208DF876
:1012F0000200154850F82400FFF7CAFB04208DF8BF
:10130000030010486946143830F81400ADF80000A6
:101310000D48083050F82400FFF7BAFB0A4D31465B
:10132000083D55F8240000F081FA55F82400012109
:1013300000F06BFAF8BDFFE700680121FFF788FEB7
:10134000CAE7000074410008440100200349044A30
:1013500031F8101052F820004161704764410008D4
:10136000540100200349044A31F8101052F82000BB
:10137000016170476441000854010020704700007B
:101380000020034902460A54401C0228FBDB704738
:101390000A0000200CB50021264801910091026846
:1013A00042F4803202604FF4A063026802F400321B
:1013B0000092019A521C0192009A12B9019A9A4223
:1013C000F3D10268920333D5012100911A490A68CA
:1013D00042F010020A600A6822F003020A600A68FA
:1013E00042F002020A604168416041684160416820
:1013F00041F480614160416821F47C1141604168A1
:1014000041F4F8114160016841F0807101600168A8
:101410008901FCD5416821F003014160416841F038
:10142000020141604168C1F381010229FAD10CBD7A
:1014300000910CBD001002400020024030B505466E
:10144000FFF720FC00281CD0104C2078FFF7FCFB95
:10145000FFF776FCB0B1E8B2FFF7F6FBFFF770FCE0
:10146000FFF710FC2078401CC0B2FFF7EDFBFFF740
:1014700067FCFFF7C9FB0446FFF7B0FBFFF71EFC54
:10148000204630BDFFF71AFC002030BD630300206A
:1014900030B50D460446FFF7F5FB002822D0124870
:1014A0000078FFF7D1FBFFF74BFCB8B1E0B2FFF7D4
:1014B000CBFBFFF745FC2846FFF7C6FBFFF740FCD8
:1014C000FFF7FCFB01F021F901F01FF901F01DF914
:1014D00001F01BF9BDE8304001F017B9BDE830401C
:1014E000FFF7ECBB30BD00006303002001484078EB
:1014F000704700000A00002070B50F484FF47A7161
:101500000068B0FBF1F0B0F1807F14D220F07F4092
:101510004FF0E024401E606165170F212846FFF759
:101520006DFC0020A0610720206105212846FFF7FF
:1015300065FC002070BDFEE728010020024801681C
:10154000491C016070470000000000200F4810B5E2
:10155000016841F00101016041680D4A114041609C
:1015600001680C4A11400160016821F4802101608A
:10157000416821F4FE0141604FF41F018160FFF7D3
:1015800009FF05494FF00060086010BD00100240DF
:101590000000FFF8FFFFF6FE08ED00E02DE9FC5F1C
:1015A000DFF84CB20026934F4FF00F0AB146ABF173
:1015B0007908782001F0E1FB40F6E44001F0F4FB0B
:1015C00098F800108BF8021044468BF803A0002214
:1015D00087490C2001F0B9FC00210C2001F0C6FC69
:1015E000022001F013FC002001F03EFB00210F203F
:1015F00001F0F1FA3842A060F8D002217E48FFF7EE
:10160000C7FA2089A04640047DD54FF481420021CD
:101610000F2001F06CFC0021102001F0DCFA00F03A
:101620007F011E2903D80022744801F008FB73498A
:10163000C8780F2868D181F8039081F802906C492E
:101640000A220C316D48FEF791FD00287ED100255D
:101650002C46684601F002FB04206A46240244EA54
:1016600015642B02155C1D43401EF7D5C8E90854CC
:1016700000252C46104601F0EBFA042069462402AE
:1016800044EA15642A020D5C1543401EF7D54FF05D
:101690002F60C8E90A54281844F10001040A44EAFA
:1016A0000164204601F008FB24F00101080E0A0243
:1016B000C8E90C204E48D8E90823253001F0A8FCE1
:1016C0004B48D8E90A23293001F0A2FC4848D8E960
:1016D0000C232D3001F09CFC454898F800101B307D
:1016E0000022817080F803A00146182001F02DFC33
:1016F0000021182001F03AFC032001F087FB44464A
:1017000000210F2001E061E06AE001F064FA384254
:10171000A060F5D02089400458D54FF481420021C3
:101720000F2001F0E4FB0021102001F054FA00F03A
:101730007F011E2903D80022304801F080FA2F4D86
:10174000E8780F284CD185F8039000E035E028496F
:1017500085F802900A2236392846FEF707FD60BB5D
:10176000287B6F282AD0A97A4FF47A725143EA7AFB
:1017700002EB820201EB420205F1400151F82030F8
:101780001A4441F820201D4C4C3454F82010491CB8
:1017900044F820105FF0000054F82010052911DBF8
:1017A00000F0B8FF154A00204946403244F82010A6
:1017B00042F82010401C0328F8DB0CE0698949BA84
:1017C000A180E0E7401C0328E6DB04E00C4A00218E
:1017D0000F2001F08CFB98F80010491C88F80010CD
:1017E000761CF6B2032EFFF4E4AEBDE8FC9F0000C9
:1017F0008100002000D0272400080140F4030020CD
:1018000000902724C943018070470029818902D0B4
:1018100041F4005101E021F40051818170470246FA
:10182000002012880A4200D00120704730B50446DB
:10183000008A85B00D464CF6FF710840E9880143E7
:101840002182A1894EF6F3100140A8882A8910430D
:101850006A890A431043A081A08A4FF6FF410840DD
:10186000A9890143A1826846FFF70AFC194884420E
:1018700001D1039800E00298A189090400EBC0019E
:1018800001EB0010296801D5490000E08900B0FB98
:10189000F1F06422B0FBF2F109010B096FF01805B9
:1018A0006B4300EB8300A3891D044FF0320306D580
:1018B00003EBC000B0FBF2F000F0070005E003EB23
:1018C0000010B0FBF2F000F00F000843208105B0DB
:1018D00030BD000000380140C1F30801818070472D
:1018E00070B50D460646002403E0305D02F0C8FAEC
:1018F000641CAC42F9DB70BDFEE700000FB4054B81
:1019000010B503A9044A029800F034FA10BC5DF83F
:1019100014FB00003D300008640300200FB4084BA6
:1019200010B504A902AA039800F024FA044602A9FB
:10193000002000F0A2FD204610BC5DF814FB000062
:101940007B240008490050EAC12018BF04204A0D3A
:1019500018BF40F0010040F2FF72B2EB515F08BFC8
:1019600040F00200012808BF052070472DE9F04132
:101970004F1E00EBC7010446D1E9000115461E4683
:1019800037F006020DD02A463346FEF71FFD7F1EB4
:1019900004EBC703D3E90023FEF771FC37F006021E
:1019A000F1D1022F25D0042F13D0062F18BFBDE888
:1019B000F0812A463346FEF709FDD4E90A23FEF7F3
:1019C0005EFC2A463346FEF701FDD4E90823FEF704
:1019D00056FC2A463346FEF7F9FCD4E90623FEF707
:1019E0004EFC2A463346FEF7F1FCD4E90423FEF709
:1019F00046FC2A463346FEF7E9FCD4E90223FEF70B
:101A00003EFC2A463346FEF7E1FCD4E90023BDE85C
:101A1000F041FEF734BC0000002213461046014995
:101A2000FEF746BD0000F03FFEF729BC002213463A
:101A300010461146FEF73CBD40F2013200204FF047
:101A4000E041FEF7A4BD0000024A00201107FEF7A6
:101A50009EBD000001FDFFFF02E008C8121F08C183
:101A6000002AFAD170477047002001E001C1121F1F
:101A7000002AFBD170470000014908607047000050
:101A80006803002038B504466D208DF800006B46D1
:101A9000012240F606012E2001F038FA41F6060137
:101AA00014B140F2076201E041F207622E2001F01A
:101AB00011FA38BD38B504466B46022200213620A3
:101AC00001F0A0F80E2C2CD2DFE804F00F07152B44
:101AD0002B2B2B1D392B2B44494E00208DF8000059
:101AE0009DF8010000F0FE0019E09DF8000000F0F4
:101AF000FC00401C04E09DF8000000F0FC00801C8D
:101B00008DF800000DE09DF8000000F0B30040F0FB
:101B100048008DF800009DF8010040F080008DF82D
:101B200001006B4601220021362001F0EFF901226D
:101B3000114636200DF1010301F0E8F938BD9DF89A
:101B4000000000F0B3008DF800009DF8010000F0E7
:101B50007F00E4E79DF8010040F00200DFE79DF818
:101B6000010000F0FD00DAE79DF8000000F0CF0072
:101B700040F02000C4E708B503208DF801000120E3
:101B80008DF800006B4602220021362001F0BEF9DC
:101B90004FF4004206212D2001F09CF9012000F0B5
:101BA000A5FD0120FFF786FF08BD08B5010A8DF8E5
:101BB00001108DF800006B46022204212D2001F057
:101BC000A5F903208DF800006B46012206212D2087
:101BD00001F09CF900208DF800006B4601220621DF
:101BE0002D2001F093F90A212D2000F0F4FF08BD0B
:101BF0002DE9FF5F82B00021DDE90430020DDDF840
:101C000040B0034318D044F61050A2F2FF324243D2
:101C10001514119801281FD0A5EB0B00401C5FEA9A
:101C2000000A4FF000064E4FDFF83891B04650469C
:101C300015D5CAF1000413E0119801244AA3012824
:101C400001D16FEA0B010298119AC0E90031C0E995
:101C5000024206B0BDE8F09FCBF10000DFE704468A
:101C60000021404A491842EB0450CDE9001012E02F
:101C7000E00707D032463B4640464946FEF7A6FB02
:101C80008046894632463B4610461946FEF79EFB83
:101C900006460F466410002CEAD1DDE90401DDE9B7
:101CA0000023BAF1000F06DAFEF790FB42464B46DE
:101CB000FEF78CFB05E0FEF7FBFB42464B46FEF7CA
:101CC000F7FB04460E460022284BFEF7BDFC03D866
:101CD0004FF0FF30014607E00022254B20463146F9
:101CE000FEF7CDFAFEF741FE102409E0002C0ADBD6
:101CF0000A220023FEF7F2FC039B30321A55641EC1
:101D000050EA0102F2D1641C039AC4F11103144495
:101D1000119A012A03D0012208430DD10AE0084399
:101D200004D000204FF0110B119072E7A3EB0B05CC
:101D30006D1E0DE05B4504DD4FF0000205F101056D
:101D400004E003DA4FF00002A5F10105002AECD00F
:101D500002981199C0E90231C0E9004579E7000015
:101D6000000014400000F03F300000000000F0438D
:101D70000000E03F2DE9FF4F95B09A4688460646A1
:101D80000025EEE1252877D100242746F94A0121D4
:101D9000039400E0044316F8013F203B01FA03F0EE
:101DA0001042F7D130782A2811D06FF02F03307805
:101DB000A0F13002092A16D8039A44F0020402EB7B
:101DC000820203EB42021044761C0390EFE758F8BE
:101DD000042B0392002A03DA504244F40054039087
:101DE00044F00204761C30782E2816D116F8010F24
:101DF00044F004042A280DD06FF02F023078A0F1AF
:101E00003003092B09D807EB870302EB4303C718FC
:101E1000761CF3E758F8047B761C30786C280FD0DA
:101E200006DC4C2817D068280DD06A2814D104E0AD
:101E3000742810D07A280FD10DE044F400140AE081
:101E400044F4801401E044F440147278824202D1D8
:101E500004F58014761C761C307866280BD013DCD1
:101E6000582877D009DC002875D04528F6D04628B8
:101E7000F4D047281AD193E118E0632835D06428BC
:101E800079D0652812D18BE1702873D008DC6728DF
:101E9000F1D069286FD06E280DD06F2806D1ACE044
:101EA00073282CD0752874D0782853D052461799AF
:101EB00090476D1C54E1C4F30250022809D0032856
:101EC0000DD0D8F8001004280DD00D6008F10408DA
:101ED00046E1D8F80010EA17C1E90052F6E7D8F851
:101EE00000100D80F2E70D70F0E718F8041B8DF874
:101EF000001000208DF80100EB46012003E058F8A7
:101F000004BB4FF0FF3061074FF0000102D40DE039
:101F100009F101018946B9420FDA8145F8DB1BF866
:101F200009100029F4D108E009F101018946814234
:101F3000FADB1BF809100029F6D103985346A0EBF1
:101F4000090721463846179A00F080FA284400EB2A
:101F5000090507E044E008E10DE01BF8010B5246DB
:101F600017999047B9F10109F7D2534621463846EF
:101F7000179AF2E039E00A21C4F302524FF0000B45
:101F80000091022A06D058F8040BC117032A09D081
:101F90000AE023E008F1070020F00702F2E802015E
:101FA000904605E000B2C117042A01D140B2C11722
:101FB000002906DA0A460021404261EB02012D2287
:101FC00002E0220504D52B228DF80420012203E033
:101FD000E20701D02022F7E7914657E00A2100E00E
:101FE00010214FF0000B00910BE010214FF0000B7F
:101FF00044F004040827009103E008204FF0000B90
:102000000090C4F30252022A05D058F8040B0021B4
:10201000032A08D008E008F1070020F00702F2E8E0
:102020000201904603E080B2042A00D1C0B24FF012
:10203000000922072AD53278702A07D0DDF800C0BF
:102040008CF0100C5CEA0B0C05D00EE040228DF8F1
:102050000420012208E050EA010306D030238DF865
:1020600004308DF8052002229146009B83F008037E
:1020700053EA0B030AD150EA010201D1620705D5E8
:1020800030228DF804204FF001097F1E3278582A43
:1020900004D039A20C920CAA02920BE03BA2F9E701
:1020A0005B46009AFEF71AFB0C9B9B5C029A521E41
:1020B0000292137050EA0102F2D1029804A9081AA0
:1020C00000F1200B600702D524F4803400E00127E2
:1020D0005F4502DDA7EB0B0000E0002000EB0B01E9
:1020E000009003984944401A0390E00306D45346F5
:1020F0002146179A039800F0A9F90544002706E045
:1021000001A85246C05D179990476D1C7F1C4F4532
:10211000F6DBE0030CD553462146179A039800F0EE
:1021200095F9054404E030205246179990476D1CFC
:102130000099481E00900029F5DC08E002980299F9
:1021400052460078491C0291179990476D1CBBF1CB
:102150000001ABF1010BF1DC5BE100F065F9054436
:10216000761C307800287FF40DAE19B02846BDE803
:10217000F08F000009280100303132333435363712
:1021800038396162636465660000000030313233C3
:102190003435363738394142434445460000000063
:1021A000600700D4062708F1070020F00700F0E8D8
:1021B0000223804603F0004C5FEA0C0001D097A098
:1021C00009E0200501D596A005E0E00701D095A023
:1021D00001E0AFF24C001390307823F00043652803
:1021E0000CD006DC452809D046281DD047287FD1D1
:1021F0003BE0662818D067287AD136E00021112FFD
:1022000001DB112000E0781CCDE9000104A90CA835
:10221000FFF7EEFCDDE90D010C9A4FF0000B07F122
:102220000109109200914EE04FF000400097CDE977
:10223000011004A90CA8FFF7DBFCDDE90D020C9BE3
:102240000F994FF0000B91461093009211B9791C31
:1022500000EB0109B7EB090003D4C0F1FF3B07F124
:102260000109A9EB0700019042E0012F00DA0127E4
:102270000021112F01DD112000E03846CDE90001D9
:1022800004A90CA8FFF7B4FCDDE90D010C9A00913C
:102290004FF0000BB946109221070FD4009A4A451F
:1022A00003DA914601E0A9F10109B9F1010F05DD59
:1022B000109AA9F10101515C3029F4D0B84202DA38
:1022C00010F1040F03DA0121CDE9011010E000281C
:1022D00003DC8344A9EB000102E0411C494500DD19
:1022E0008946A0EB0B00401C01904FF0004002908B
:1022F000200705D40198484502DB4FF0FF300190DC
:1023000000208DF84B0002980DF14B07B0F1004F03
:1023100025D002200C902B200D90029800280CDA7A
:10232000404202902D200D9007E00A210298FEF70E
:10233000BFF93031029007F8011D0C99481E0C902E
:102340000029F2DC02980028EFD1791E0D98087060
:10235000307800F0200040F0450007F8020D11A889
:10236000C01BC01D02901398007800B1012000EB43
:102370000901019801EBE071029801440398401AA9
:10238000401E0390E00306D453462146179A039853
:1023900000F05CF805441398007818B1524617997C
:1023A00090476D1CE00323D553462146179A0398A6
:1023B00000F04CF805441BE0BBF1000F07DB009870
:1023C000584504DD1098179910F80B0001E0179993
:1023D00030205246904701980BF1010B401E05F149
:1023E0000105019004D12E205246179990476D1C8B
:1023F000B9F10001A9F10109DEDC05E017F8010BD4
:102400005246179990476D1C0299481E0290002968
:10241000F4DC53462146179A03989EE62D000000EF
:102420002B000000200000002DE9F04104460025AB
:102430001E461746880404D405E039462020B047DC
:102440006D1C641EF9D52846BDE8F0812DE9F041E8
:10245000044600251E469046C80301D5302700E0FB
:102460002027880404D505E041463846B0476D1C56
:10247000641EF9D52846BDE8F0810A68531C0B603C
:102480001070704770B5782000F077FC40F6E4409B
:1024900000F08AFC36490F20364CC87001F10C035D
:1024A000354D5A1E2946606800F0BDFD304B294667
:1024B0000E335A1EA06800F0B6FD2D4B294610338E
:1024C0005A1EE06800F0AFFD00222949132000F0F9
:1024D0003CFD0021132000F049FD022000F096FC95
:1024E000002000F0C1FB224C244E663C00210F204E
:1024F00000F071FB3042A060F8D02089400435D54F
:102500004FF4814200210F2000F0F1FC0021102047
:1025100000F061FBC1B217480022303800F08FFB99
:10252000144C303CE0780F2820D10020A0701049D6
:10253000E0700A2213392046FDF718FE002815D155
:1025400004F12006A07A3070217BE07A2A4600F060
:1025500079FF7060A17B607B2A4600F073FFB0605A
:10256000217CE07B2A4600F06DFFF06070BD00002A
:102570006E000020240400200000C84200D0272460
:102580002DE9F047984616460F46FEF717F8534CCC
:102590002146FDF72AFE524DA8603846FEF70EF898
:1025A0002146FDF722FEE8603046FEF707F8214697
:1025B000FDF71BFE28614046FEF700F82146FDF7B7
:1025C00014FE6860284601F0F5FC05F174046D20E6
:1025D00020707220A4F1AC08607098F80000A07020
:1025E0004FF0010A84F809A01021DFF8F8903E4E60
:1025F000A17204F1080730B1032817D0012815D0C3
:10260000022813D04AE0231DE21C4946002000F0B6
:102610000AFDA31D621D4946002000F004FD3B4653
:10262000E21D4946002000F0FEFC37E0707810B152
:1026300001281DD032E0231DE21C4946D8F80400D1
:1026400000F0F1FCA31D621D4946D8F8080000F017
:10265000EAFC3B46E21D4946D8F80C0000F0E3FCDA
:1026600098F80000032819D1A07086F801A015E0A1
:10267000231DE21C4946286D00F0D5FCA31D621DF8
:102680004946686D00F0CFFC3B46E21D4946A86D07
:1026900000F0C9FC002070700420A07010480B21CD
:1026A0007430FFF71DF910490F20AC310022C870BB
:1026B0001F2000F04AFC00211F2000F057FC0020E2
:1026C00000F0A4FB00210F2000F085FA0006F9D5E8
:1026D0003069401C3061BDE8F087000000007A449A
:1026E0004C0400200000C8420800002010B5044639
:1026F00000F0D4FE04EB000400F0D0FE001B002824
:10270000FADD10BD70470020704741F28830401E4E
:10271000FDD1704770B5374E0025A6F10C0400BFFF
:1027200056F82500002808DD54F8251091FBF0F03C
:10273000294600F041FC44F825006D1C032DEFDB19
:102740002D4D94E80700AB88FFF71AFFE8680128D1
:1027500003D10020E860FEF719FB3068274D002800
:1027600014DD2068FDF72AFF2946FDF73EFDFDF741
:1027700058FF02461F480B4621A1D438FFF7CEF878
:102780001C4A0221D43A0020FEF7F0FB70680028B2
:1027900014DD6068FDF712FF2946FDF726FDFDF701
:1027A00040FF024613480B4618A1D438FFF7B6F88D
:1027B000104A0421D43A0020FEF7D8FBB068002864
:1027C00016DDA068FDF7FAFE2946FDF70EFDFDF7C0
:1027D00028FF024607480B460FA1D438FFF79EF8A2
:1027E000044ABDE87040D43A06210020FEF7BEBB83
:1027F00070BD0000400400200800002000007A4462
:10280000616E303A25332E32666D0000616E313ACA
:1028100025332E32666D0000616E323A25332E323A
:10282000666D00002DE9F84F044605784079784937
:102830004FF00009C84631F8107061787548491E9C
:10284000CEB20163042D75D0072D73D000218A46C6
:10285000217801736F49E2798969002A6CD021F4EB
:1028600080018161217A4173217A4FF4403382697A
:1028700003EA01410A43834682610021042000F0FB
:1028800036FB3A4642F604012E2000F023FB304688
:10289000FFF7F8F8604F61490522785D00EB800092
:1028A000431807212B2000F031FB5D49012201EB89
:1028B0000A030B21282000F029FB785D594951F8C3
:1028C00020200C21282000F012FBE079564901EB72
:1028D0008000A17930F811200221272000F0FAFAB7
:1028E0005248042130F81620272000F0F3FAE0794E
:1028F00038B3A07804282AD028208DF800002022A0
:102900000621272000F0E6FA6B4601222621272027
:1029100000F0FCFA4648E17800EB061050F8212060
:102920000821272000F0E3FAB4F80900A0B117E06D
:1029300000E001E001218AE741F48001FF088161A4
:1029400090E764220621272000F0C4FAE2E7102075
:102950008DF800000246D3E741F24100A4F80900D7
:10296000B4F809202021272000F0B4FA314F0C21BF
:1029700023203A6800F0BBFA07EB46000421828866
:10298000232000F0A7FAA07958B1E0792A49012262
:1029900043180021212000F0B9FA4FF003094FF04D
:1029A000010805F00F00290740EA116061784FF433
:1029B000402202EA81410843920002EA0951084399
:1029C0004FF4003202EA4841084321794FF0F8629F
:1029D00002EA81510843617940EAC16200211F2067
:1029E00000F085FAA07861784FF4004308430204B0
:1029F000CBF81020E179082043EA41310A43002155
:102A0000CBF8102000F073FA0020BDE8F88F00002A
:102A100070480008CC040020F4470008144800085F
:102A200032480008FC470008404800084C480008AD
:102A300050480008344800083C48000810B50446D7
:102A40000421362000F0C7F814B140F4006201E020
:102A500020F400620421BDE81040362000F047BA9F
:102A600038B540208DF8000000210E2000F0B3F8AA
:102A70000446FFF748FE0546002211460E2000F0EE
:102A800036FA6B46012200210D2000F03FFA0A4A77
:102A900000210F2000F02BFA00F002FA224600215C
:102AA0000E2000F024FA2846FFF72CFE03490020F0
:102AB00081F82C0038BD0000F8FF2724CC0400204A
:102AC0007CB50546374C04208DF800000021617567
:102AD000216384F8251084F82C10A1836163A1631D
:102AE00000F08CF83049206088420BD02F4C022136
:102AF0002046FEF74BF804212046FEF747F84FF03A
:102B0000FF307CBD0020FEF7D5FF6B46012200217F
:102B1000242000F0FBF91E20FFF747F886B2300AA8
:102B2000A0730420FFF741F810F0FF0F0CD0022033
:102B30008DF8040001AB012212212D2000F0E6F9EE
:102B4000A08B40F48050A0830620FFF72EF8606031
:102B50000720FFF72AF8A06016F01F00207501D1AA
:102B600010202075C0B200F00FFAE80706D0FFF77A
:102B700002F8A08B40F40060A08309E00521362014
:102B800000F016F820F400720521362000F0A2F9BA
:102B90000120FEF78FFF0021042000F01CF8A06147
:102BA00000207CBDCC0400203001CADE00080140BA
:102BB00038B54FF6FF7489B280B26B46022200F03E
:102BC00021F830B99DF800009DF8011000EB0120BC
:102BD00084B2204638BD38B54FF0FF3489B280B298
:102BE0006B46042200F00EF830B903216846425CBF
:102BF000491E02EB0424FAD5204638BD00210846C0
:102C0000FFF7E9BF08B551B140F040008DF8000072
:102C1000C8B27F2907D88DF8010002200BE08DF89B
:102C20000000012007E040F080008DF80100C80995
:102C30008DF802000320694601F028F908BD30B480
:102C400014460A462146034630BC1120FFF7DABF7E
:102C50000346052200211520FFF7D4BF03460522B5
:102C600000211720FFF7CEBF38B5054600208DF8AC
:102C7000000000F015F94FF4807422460DB14FF4B6
:102C8000407200210D2000F025F99DB16B46012214
:102C900003210F20FFF7B6FF9DF80000000709D5BC
:102CA000FFF7DEFE224600210D2000F013F94FF061
:102CB000FF3038BD002038BD024601210A2000F057
:102CC00016B938B50446C0076B464FF002024FF004
:102CD00000014FF026002DD0FFF794FF9DF8010072
:102CE000012220F03C0040F014008DF80100114654
:102CF00026200DF1010300F009F96B4601220221A3
:102D00003620FFF77FFF9DF800006B4640F08400FF
:102D10008DF8000001220221362000F0F7F8102083
:102D20008DF8000001208DF80100022228216B4659
:102D300036200BE0FFF766FF9DF801006B4620F0A0
:102D400014008DF8010002220021262000F0DEF898
:102D5000A00711D50F208DF800006B4601222A2113
:102D6000362000F0D3F800208DF800006B460122D9
:102D70002A21362000F0CAF838BD10B504460021DB
:102D80001A20FFF728FFC4F313026FF31300024366
:102D90000021BDE810401A2000F0A9B8024641F613
:102DA00004012E2000F096B838B505466B46012286
:102DB00003210420FFF726FF104C75B12A4600219D
:102DC0000C2000F087F89DF8000040F010008DF80E
:102DD0000000A06940F0805008E09DF8000020F05D
:102DE00010008DF80000A06920F08050A0616B46B3
:102DF00001220321042000F089F838BDCC04002012
:102E000002460021182000F065B80000F8B5002443
:102E10000546224F26468DF8004080070BD58020BE
:102E20008DF800006B46012200210D2000F06EF8A5
:102E3000012087F82C00E8079DF8000021D040F021
:102E400006008DF800006B46012200210D2000F0E5
:102E50005DF803210F20FFF7ABFE10F4816F1AD04D
:102E600040208DF800006B46012200210D2000F06B
:102E70004DF80020FFF7E2FD87F82C604FF0FF349B
:102E800009E040F002008DF800006B4601220021AD
:102E90000D2000F03BF82046F8BD0000CC040020D7
:102EA0001CB56B46012203210F20FFF7ABFE9DF8F6
:102EB000000000F0800100F04000B1EB400F08D0AE
:102EC00001208DF80400024601AB03210D2000F023
:102ED0001DF81CBD08B589B28DF80020120A8DF8C6
:102EE000012080B26B46022200F010F808BD38B510
:102EF00000236C46E254120A5B1C042BFADB89B2F5
:102F000080B22346042200F001F838BD08B551B163
:102F100040F0C0008DF80000C8B27F2909D88DF8B4
:102F2000010002200DE040F080008DF8000001203B
:102F300007E040F080008DF80100C8098DF802001C
:102F40000320694601F0D8F808BD10B514460244C4
:102F5000B2F5806F02D94FF0FF3010BD0B46821ED4
:102F600021460920FFF7D2FF002010BD054A10B509
:102F7000126940EA8150024300210820FFF7B7FFA1
:102F8000002010BDCC04002038B504466B46012259
:102F90000E212B20FFF736FE9DF8000004F01F01E4
:102FA00020F01F0001438DF800106B4601220E2116
:102FB0002B20FFF7ABFF38BDF0B50022134D0527DE
:102FC00001EB8104134605EB8404002814DD64350D
:102FD00055F8216044F82600761C45F82160052E3E
:102FE00002D1002045F8210054F82200521CD2B230
:102FF0000344052AF8D306E054F82200521CD2B24A
:103000000344052AF8D393FBF7F0F0BD7C030020BE
:1030100010B500214254120A42EA03621B0A491CFD
:103020000429F7DB10BD70B51C461546FDF7ABF85B
:10303000FDF7DEFA010A2970207070BD70B5094CE9
:10304000054640212046FEF7DDFBE9B22046FEF7AB
:1030500043FC40212046FEF7E2FB0028F9D0284639
:1030600070BD0000003801400100094808D0012966
:1030700008D0022908D0032908D10E21FDF786BD0A
:103080000221FBE70421F9E70821F7E77047000078
:10309000000801400100094808D0012908D0022990
:1030A00008D0032908D10E21FDF772BD0221FBE7EC
:1030B0000421F9E70821F7E7704700000008014004
:1030C00008B500252C4600F0C9F9FDF70DFEBFA09C
:1030D000FEF714FC00F018FF00F043FF0120FFF79B
:1030E000EFFC401C2BD000F039FFBD48FFF79AFBE6
:1030F0000120FFF7E6FD48F2B600FFF74FFE002083
:10310000FFF77EFE0021B7A20846FDF72FFFB8A00B
:10311000FEF7F4FB7820FFF730FE40F6E440FFF7BF
:1031200043FEB7A202210020FDF720FFFEF728F999
:10313000AB4EDFF8DCB2DFF8DC82383E17E0B6A039
:10314000FEF7DCFB0021BAA20846FDF70FFF0020C6
:10315000FEF708F96420FFF7C9FA0020FEF7F6F839
:103160006420FFF7C3FAF2E7BAF1000F0ED0022194
:103170005F465846FDF70AFD04213846FDF706FD77
:10318000FEF70CFAFFF77EF94FF0000AFEF7AEF9F2
:10319000002858D1DFF84892012509F1A00900273D
:1031A0008F4989F8027089F803500022A0310D2060
:1031B000FFF7CBFE00210D20FFF7D8FE0220FFF71E
:1031C00025FE00210F20FFF706FD10EA080FB06072
:1031D000F7D03089400428D54FF4814200210F20D8
:1031E000FFF785FE00211020FFF7F5FC00F07F01BE
:1031F0001E2903DC00229148FFF721FD8F488770CC
:10320000C178A94216D100917549C7700A22BA3116
:10321000FCF7ACFF70B9724800993638012242546D
:1032200004215846FDF7B4FC04E0854A00210F2034
:10323000FFF75DFE6D1CEDB2022DB1D301256D1CB3
:10324000EDB2022DFBD3ECBBFEF750F900287DD088
:10325000634F4FF00009363F012587F80090785DF5
:10326000012874D17820FFF788FD40F6E440FFF78D
:103270009BFD5B480022AD30014680F80290C5708E
:103280000D20FFF762FE00210D20FFF76FFE0220E8
:10329000FFF7BCFD00210F20FFF79DFC10EA080F8F
:1032A000B060F7D03089400463D502215846FDF75D
:1032B0006FFC4FF4814200210F20FFF718FE002120
:1032C000102000E020E0FFF786FC00F07F011E29BF
:1032D00003DC00225948FFF7B2FC5848494680F801
:1032E0000290C278AA424BD1C17008215846FDF71E
:1032F0004FFC3B490A22C7315048FCF737FF30BB2F
:10330000641C14F0FF0459D044F27400FFF74CFD24
:103310000020FFF7A9FC474600210F20FFF75BFCC8
:103320003842B060F8D0308940043BD54FF4804239
:1033300000210F20FFF7DBFD00211020FFF74BFCE1
:1033400040B2B0F5806F07DC81B201E036E017E0F3
:1033500000223A48FFF773FC38480027204987705D
:1033600090F80390C7700A229331FCF7FFFE68B112
:1033700024E007F80590324A00210F20FFF7B7FD3F
:103380006D1CEDB2022DFFF46AAF17E01448363819
:1033900010F80910012911D100F8097074B1641EE8
:1033A000E4B20BE02CB10E48641E00213638E4B2C2
:1033B0004155234A00210F20FFF799FDFEF796F8AB
:1033C00000287FF4D1AE0024D1E6000068656C6C63
:1033D0006F2064776D31303030210D0A000000001D
:1033E00040000020494E49542050415353000000F2
:1033F000696E69742070617373210D0A000000000A
:103400002020204D41535445522054414720000074
:103410000008014000D0272464776D31303030201F
:10342000696E6974206661696C210D0A00000000F4
:10343000494E4954204641494C000000F403002005
:103440000090272410B541EA0020144600B2FDF791
:10345000B5F82146BDE81040FCF7C7BE10B5012104
:103460007D20FDF7F5FD01210B48FDF763FB0121F0
:103470000803FDF7EDFDFDF7D1FAFEF73DF8FDF786
:1034800063FEFDF7E9FCFDF7C9FC00F009FEBDE8AD
:103490001040FDF799BC00000002300001480068B0
:1034A00070470000000000202DE9F04D1D460C463D
:1034B00098B0174621F0004123F00043002814BFC4
:1034C0004FF0010C4FF0000C0CEB440CFE4A0CEBDF
:1034D00002064FEA620C66452BD33E0018BF012658
:1034E00006EB45061644F94A964222D3F84A53EAB7
:1034F000070C02D0944205D148B918B000201146FB
:10350000BDE8F08D002808BF4FF0000C01D04FF04F
:10351000010C0CEB440212F5001F0AD8002F14BF57
:103520004FF0010C4FF0000C0CEB450212F5001FA0
:1035300007D918B03A462B462146BDE8F04DFEF7B4
:1035400073BA0022DFF88CA3002CB8BF534526DAEB
:10355000DFF884C36345A8BF022220DADFF870C316
:103560009C451CDCDFF874C30CEB235CBCF1140F2E
:1035700008DDCCF1340627FA06FC0CFA06F6BE424A
:103580000DD108E05FB9CCF1140623FA06FC0CFA61
:1035900006F69E4203D10CF00102C2F1020251EA8A
:1035A000000C19D1002D17DA002C18BF022A01D007
:1035B000012A07D00220FEF75FFA18B0BDE8F04DEF
:1035C000FEF72ABA0220FEF757FAFEF725FA18B0DE
:1035D00081F00041BDE8F08DB7F1000C6CD153458E
:1035E00025D104F1804212F5801201BF002800208D
:1035F000B74918B008BFBDE8F08DB548884207DC70
:10360000002DA1BF6046294618B0BDE8F08D07E047
:10361000281E05DA80F0004118B06046BDE8F08D44
:10362000AF497944D1E9000118B0BDE8F08DDFF869
:10363000A0C2634525D1002D1FDA19B1514512D121
:10364000D8B909E0002840F0EC82A24A214618B01F
:1036500062F31E01BDE8F08D0020214618B060F332
:103660001E01BDE8F08D08DA18B02346BDE8F04D24
:10367000024600206146FCF71BBF18B02146BDE89A
:10368000F08D514518DAB5F1804F0DD0A5F1005CF1
:10369000BCF1FF5C10D1B4F1000C0DDB18B0614639
:1036A000BDE8F04D00F060BC234618B00246BDE80E
:1036B000F04D1946FCF78ABE060024F0004C3BD1C1
:1036C000D9B1514533D1002C06DD002DA1BF00201A
:1036D000514618B0BDE8F08D002C01DD002D1BDB3C
:1036E000002C13DA002D11DB012A4FF0000014BF6B
:1036F00078497C4918B0BDE8F08D022A18BF002C2B
:103700000AD0012A08D1002C06DA0AE0002CB8BF42
:10371000002D11DA012A04D0002018B00146BDE8BE
:10372000F08D18B000204FF00041BDE8F08DA1F100
:103730004050B0F17F601AD0012000EBE47050EAF5
:10374000020421D0624C521E4FF0000B104304BF04
:103750004FF0000B644C654883427CDD644A654849
:1037600093421FDD884217DB002D25DB37E0002C5C
:1037700000DA4AB1022A0CBF01204FF0FF3018B026
:10378000BDE8F04DFCF723BF0120FEF775F918B036
:10379000BDE8F04DFEF74AB94D4A8A4202DC002DE1
:1037A0000ADC1CE0814202DA002D18DA04E0484B02
:1037B000994220DD002D12DD0220FEF75DF9FEF7B3
:1037C0003BF905460E460022534658462146FCF773
:1037D000FDFD18B066F31E012846BDE8F08D0220FD
:1037E000FEF74AF9FEF730F90A46214618B062F3AF
:1037F0001E01BDE8F08D002230466146FCF7E0FD79
:1038000080460E466FF00102FCF7C1FE4FF05532C4
:10381000394BFCF7D8FD42463346FCF7D7FD002272
:10382000364BFCF7D0FD82464246334604911046A3
:103830001946FCF7CBFD5246049BFCF7C7FD8A46B0
:1038400000904FF0C0422E4B40463146FCF7BEFD83
:103850002C4A2B4B00E027E0CDE9060151460098A9
:10386000FCF7B4FD82460191274A284B4046314679
:10387000FCF7ACFD5246019BFCF7A2FD82460B46CD
:1038800002460591DDE90601FCF7F9FCDDE90623B6
:10389000002688463046FCF793FD5246059BFCF710
:1038A00092FD024600F07EB90020B1F5801F07DAD4
:1038B000352230466146FCF76AFE06466FF034005A
:1038C00000EB215024E00000FFFF1F00FFFF0F006E
:1038D0000000F03F0000F07F0000404301FCFFFFCC
:1038E0000A1300000000F0FF0000F0BF0000E041FC
:1038F0000000F043FFFFEF3F5555D53F0000E03F8C
:103900004715F73FFE822B6544DF5DF80BAE543E52
:10391000A0F2FF300190C1F3130040F07F6141F04D
:1039200040510291FE498842D8BF002004DDFD4984
:103930008142C8BF012001DD0D9008E000200D90FC
:103940000198401C01900298A0F580100290029905
:10395000F54878440B910D9900EBC100D0E90023A4
:103960000F9330460A920B99FCF72AFDCDE9060128
:10397000DDE90A2130460F9BFCF781FC02460B462D
:103980000020EA49FCF794FD059102460B460090A1
:10399000DDE90601FCF71AFD1490E5488A464FF070
:1039A000000878440299006812904FF0005040EAF5
:1039B00061010D980F9B01EB804000F500210991FA
:1039C0000A9A1298FCF7FCFC32460B9BFCF7FBFCB6
:1039D00042465346FCF7FAFC0646029140465146E1
:1039E000099B129AFCF7F2FCDDE90623FCF7EBFCDD
:1039F0003246029BFCF7E4FC059B009AFCF7E6FCD0
:103A00000091149A0490534610461946FCF7DEFCC8
:103A100006460246C7480B46029106217844FDF748
:103A2000A5FFCDE90510029B324610461946FCF76A
:103A3000CDFCDDE90532FCF7C9FC0591064653468D
:103A400040461946149AFCF71AFC009B049AFCF7AE
:103A5000BDFC3246059BFCF712FCCDE90510424641
:103A6000534610461946FCF7B1FC0022B24B0291B6
:103A70000A90FCF704FCDDE90532FCF700FC0E4679
:103A80004246AD4B4046FCF79BFC029B0A9AFCF772
:103A900097FCDDE90532FCF796FC424602910A905C
:103AA000334610465146FCF791FCCDE906015346DA
:103AB000149A02990A98FCF789FC8A4602903346C8
:103AC000424600990498FCF781FC5346029AFCF7A1
:103AD000D6FB82460B4602460591DDE90601FCF75E
:103AE000CEFBDDE90623002088460646FCF768FC8D
:103AF0005246059BFCF767FC824609914FF06042F5
:103B00008E4B30464146FCF761FC049006918C4A8E
:103B10008A4B50460999FCF759FC82460291894A22
:103B2000894B30464146FCF751FC5246029BFCF75C
:103B3000A6FB864B7B440D9A03EBC203D3E900231B
:103B4000FCF79DFB0E9007910198FCF740FD059155
:103B5000DDE9061382460E9A0498FCF790FB7C4A36
:103B60007A440D9B02EBC303D3E900230093029236
:103B7000FCF785FB5246059BFCF781FB0026884637
:103B800052463046059BFCF71BFC009B029AFCF753
:103B900017FC069B049AFCF713FC079B0E9AFCF794
:103BA00012FC024600200B46029038462946FCF7DC
:103BB0000DFC824601912B4638461946029AFCF7C5
:103BC000FFFB32464346FCF701FC5246019BFCF7E3
:103BD00056FB07468A463246434629460298FCF77A
:103BE000F5FB05460E463A465346FCF748FB594A54
:103BF0008846914221DBA8EB020353EA000210D170
:103C00002A463346FCF7DCFBCDE90401524A534B0C
:103C100038465146FCF733FBDDE90423FCF714FD7D
:103C200021D20220FDF728FFFDF706FF0A462146B4
:103C300018B062F31E01BDE8F08D494B28F0004238
:103C40009A4210D3474A08EB020353EA00027FF47A
:103C5000C6AD2A463346FCF7B3FB3A465346FCF75B
:103C6000F3FC7FF6BCAD0022019228F000403E49F3
:103C70003E4A01EB2051824223DA481C4FF4801166
:103C800021FA00F040443A4AC0F30A517A44394BD1
:103C9000A1F2FF31CB4020EA0303C0F3130040F44C
:103CA0008010C1F11401C84012680190B8F1000FF2
:103CB000BCBF4042019028463146FCF781FB0546D7
:103CC0000E462A46334638465146FCF7D8FA4FF09E
:103CD00000084246284B40460591FCF777FBCDE9AA
:103CE0000601264A264B40460599FCF76FFB0091DA
:103CF00002902A46334640460599FCF761FB3A4656
:103D00005346FCF760FB1F4A1F4BFCF75FFB009B11
:103D1000029AFCF7B4FA0746884602460B4635E09D
:103D20008E9803007AB60B00520F00000000F03F9F
:103D30008A0F0000B80E00000000084009C7EE3FDF
:103D4000FD033ADCF5015B14E02F3EBE900D000050
:103D5000540D000000009040FE822B654715973CF3
:103D600000CC904000346F3F01FCFFFF0000E03FBB
:103D7000A00C0000FFFF0F00432EE63F396CA80C9B
:103D8000615C20BEEF39FAFE422EE63FDDE9060116
:103D9000FCF775FADDE9062305460E46FCF710FB35
:103DA0003A464346FCF70FFB0F462A46334600903F
:103DB00010461946FCF70AFB824602462E48884602
:103DC0000B4605217844FDF7D1FD52464346FCF7EA
:103DD000FDFA2A463346FCF7F6FA80468A463B4609
:103DE00028463146009AFCF7F1FA3B46009AFCF768
:103DF00046FA0691009000224FF08043404651461B
:103E0000FCF7DEFA0F460C904246534628463146F0
:103E1000FCF7DCFA3B460C9AFCF74AFB069B009A3F
:103E2000FCF7CEFA2A463346FCF7CAFA0022134BB7
:103E3000FCF7C9FA054601980E4601EB005108153A
:103E4000002810DC28463146019AFCF7A0FBFDF75C
:103E500079FD042808BFFDF7F7FD28463146019A91
:103E6000FCF795FB05460B4618B02A4658462146F6
:103E7000BDE8F04DFCF7AABA400B00000000F03F8F
:103E80000149FFF7DBB80000640300202DE9F05F73
:103E90001D4616468A4607460024FEF734FC18499C
:103EA0004FF010098346C1F80090DFF858800DE00C
:103EB0001AF80410A8F80C1001214046FDF7C6F9C5
:103EC0000028F9D0B8F80C002870641CBC42EFDB65
:103ED00000200246414606E08A810B89DB07FCD0C0
:103EE0008B892B54401CB042F6D30549091FC1F8F9
:103EF00000905846FEF706FC0020BDE8F09F000049
:103F0000140801400030014038B51024ADF80040DD
:103F10008DF803400320104D8DF8020069462846B5
:103F2000FCF7B6FD002210212846FCF733FE642082
:103F3000FEF7DCFB012210212846FCF72BFE642053
:103F4000FEF7D4FBADF8004000208DF80300694671
:103F50002846FCF79DFD38BD000C01400820FDF708
:103F6000DFB82020FDF7DCB82DE9F04106460F460A
:103F7000FCF7AAFC041E0D4618BF0120284320F0C0
:103F80000040C0F17F6000F1E040C00F0ED0301C57
:103F900018BF0120384320F00040C0F17F6000F1DD
:103FA000E040C00F04BF0120FDF766FD2046294612
:103FB000BDE8F0812DE9F04F04468668D4E900178A
:103FC000D4E903508BB017F0FF4F0BD111F0FF4F26
:103FD00008D110F0FF4F05D115F0FF4F02D116F0B8
:103FE000FF4F56D001213846FCF73DF93146FCF72A
:103FF000CAF8FCF716FB82468B462846FCF711FBF5
:1040000000224FF08043FFF74FFA80468946304642
:10401000FCF707FB054600224FF080430191FFF7B4
:1040200043FACDE907103846FCF7FBFA00224FF0BF
:104030008043FFF739FADDE90732FCF720F9424601
:104040004B46FCF7BDF952465B46FCF731FAFCF7EC
:1040500013FB114FF861FCF7E4FA00224FF08043A4
:10406000FFF722FA00220D4BFCF7ADF9FFF77CFFBA
:1040700002460B4628460199FCF7A8F9FCF7FCFA22
:10408000B86105463046F969FCF77DF87861C4E906
:1040900014500BB0BDE8F08F080000200000F03F86
:1040A0001FB54FF4E13000900020ADF80400ADF8EA
:1040B0000600ADF80800ADF80C000C20ADF80A00C1
:1040C00069460020FDF7F0F80748FDF717FC0748A0
:1040D000FDF714FC0648FDF711FC0648FDF70EFC41
:1040E0000148FDF70BFC1FBD38490008084A0008CD
:1040F000C4490008804900082DE9F041984615465A
:104100000F4606460024FEF7FEFA02461148102329
:104110000360114806E0395D81810189C907FCD03F
:104120008189641CB442F6DB002107E018F80140E5
:1041300084810489E407FCD08489491CA942F5D311
:104140000448001F03601046FEF7DCFA0020BDE8BB
:10415000F08100001408014000300140000204001A
:104160000004080008008000000100020040000078
:104170000000020004000000040000000400000031
:10418000040000001000000080000000800000001B
:10419000800000000100002000010020004000809D
:1041A0000800800004000000100000000001000072
:1041B00000010000000100000001000020000000DC
:1041C00000010000010000200001002000400080EC
:1041D000080080000000020006000600060006003D
:1041E0000300060000000D0008000D000E000F0087
:1041F00003000700060028001700280028002800F8
:10420000090017000000000000000000000000008E
:1042100000000000000000F8000000000000003373
:104220003000000000100C06100C0600000000001A
:104230000000000040C07840C0784000043F040403
:104240003F040400007088FC08300000001820FFC4
:10425000211E0000F008F000E018000000211C03FF
:104260001E211E0000F00888700000001E2123247B
:104270001927211010160E00000000000000000099
:1042800000000000000000E0180402000000000729
:104290001820400000020418E00000000040201830
:1042A00007000000404080F0804040000202010F03
:1042B00001020200000000F0000000000101011FE7
:1042C00001010100000000000000000080B070004B
:1042D00000000000000000000000000000010101DB
:1042E000010101010000000000000000003030006A
:1042F0000000000000000000806018040060180644
:104300000100000000E010080810E000000F10207D
:1043100020100F00001010F8000000000020203FC7
:104320002020000000700808088870000030282451
:1043300022213000003008888848300000182020F2
:1043400020110E000000C02010F800000007042417
:10435000243F240000F8088888080800001921205C
:1043600020110E0000E0108888180000000F1120B6
:1043700020110E0000380808C83808000000003F6F
:10438000000000000070880808887000001C2221CE
:1043900021221C0000E010080810E000000031227B
:1043A00022110F00000000C0C0000000000000301B
:1043B000300000000000008000000000000080606D
:1043C00000000000000080402010080000010204EE
:1043D00008102000404040404040400004040404D5
:1043E0000404040000081020408000000020100891
:1043F00004020100007048080808F00000000030C6
:1044000036010000C030C828E810E0000718272453
:1044100023140B000000C038E0000000203C230201
:104420000227382008F8888888700000203F202064
:1044300020110E00C0300808080838000718202096
:104440002010080008F808080810E000203F20208D
:1044500020100F0008F88888E8081000203F20206E
:104460002320180008F88888E8081000203F200062
:1044700003000000C030080808380000071820209A
:10448000221E020008F808000008F808203F210159
:1044900001213F20000808F8080800000020203F04
:1044A0002020000000000808F8080800C080808074
:1044B0007F00000008F888C028180800203F20016D
:1044C0002638200008F8080000000000203F2020C7
:1044D0002020300008F8F800F8F80800203F003FDE
:1044E000003F200008F830C00008F808203F2000F6
:1044F00007183F00E01008080810E0000F10202007
:1045000020100F0008F808080808F000203F2101DB
:1045100001010000E01008080810E0000F18242432
:1045200038504F0008F8888888887000203F2000A5
:10453000030C30200070880808083800003820215B
:1045400021221C00180808F8080818000000203F65
:104550002000000008F808000008F808001F2020CC
:1045600020201F000878880000C83808000007389D
:104570000E010000F80800F80008F800033C0700EE
:10458000073C0300081868808068180820302C0356
:10459000032C30200838C800C83808000000203F2D
:1045A0002000000010080808C8380800203826211C
:1045B00020201800000000FE020202000000007F20
:1045C00040404000000C30C000000000000000012E
:1045D0000638C00000020202FE0000000040404019
:1045E0007F0000000000040202020400000000003E
:1045F00000000000000000000000000080808080BB
:1046000080808080000202040000000000000000A2
:10461000000000000000808080800000001924223B
:1046200022223F2008F8008080000000003F112077
:1046300020110E000000008080800000000E11207C
:1046400020201100000000808088F800000E11205A
:1046500020103F200000808080800000001F222268
:1046600022221300008080F0888888180020203FD4
:10467000202000000000808080808000006B9494E7
:104680009493600008F8008080800000203F2100A3
:1046900000203F2000809898000000000020203F6C
:1046A00020200000000000809898000000C080805A
:1046B000807F000008F8000080808000203F2402F6
:1046C0002D302000000808F8000000000020203FE6
:1046D000202000008080808080808000203F20009B
:1046E0003F20003F8080008080800000203F21002C
:1046F00000203F200000808080800000001F2020DC
:1047000020201F00808000808000000080FFA1200A
:1047100020110E000000008080808000000E11201B
:1047200020A0FF80808080008080800020203F21AA
:10473000200001000000808080808000003324245D
:1047400024241900008080E0808000000000001F09
:10475000202000008080000000808000001F2020BA
:1047600020103F20808080000080808000010E307B
:104770000806010080800080008080800F300C03DC
:104780000C300F0000808000808080000020312EDF
:104790000E312000808080000080808080818E70BB
:1047A0001806010000808080808080000021302C6D
:1047B0002221300000000000807C02020000000086
:1047C000003F404000000000FF000000000000002B
:1047D000FF0000000002027C800000000040403F1B
:1047E00000000000000601010202040400000000B5
:1047F000000000000000010203040005405C00000E
:10480000A05C0400C06C0800805C0400E03F1E0057
:10481000E07D1E00070400091E0805400826091057
:1048200040085608054008261D040008BE1D040067
:1048300008BED8BC07A9022570889B8840100800D4
:104840000A001600010006000100020087008D002A
:104850002D001A3152001A339A001A351D011A37E9
:104860006B003B31BE003B335E013B3596023B376C
:10487000000099599959EB518F421E45142E008022
:10488000EB51F5283333E13A703DE13AC235852BDF
:10489000C2353333C235C235AE47E13A5138A33061
:1048A0005138000000000000000000000000F03F50
:1048B000000000000000F83F0000000000000000C1
:1048C0000000004003B8E23F0000000000000000CC
:1048D00006D0CF43EBFD4C3E033333333333E33F5A
:1048E000FFAB6FDBB66DDB3F4D268F515555D53F86
:1048F00001411DA96074D13F65DBC9934A86CD3F54
:10490000EF4E454A287ECA3F3E5555555555C53F41
:1049100093BDBE166CC166BF2CDE25AF6A56113F33
:10492000F16BD2C541BDBBBED0A4BE726937663E35
:1049300000000000000000002F2A2A2A2A2A2A2A22
:104940002A2A2A2A2A2A2A2A2A2A2A2A2A2A2A2AC7
:104950002A2A2A2A2A2A2A2A2A2A2A2A2A2A2A2AB7
:104960002A2A2A2A2A2A2A2A2A2A2A2A2A2A2A2AA7
:104970002A2A2A2A2A2A2A2A2A2A2F0A000000005A
:104980002F2A2A2A2A2A2A2A2A2A2A2A2A2A2A2A82
:104990002A2A2A2A2A2A2A2A464D2056657273690B
:1049A0006F6E2056332E312A2A2A2A2A2A2A2A2AA8
:1049B0002A2A2A2A2A2A2A2A2A2A2A2A2A2A2A2A57
:1049C0002A2F0A002F2A2A2A2A2A2A2A2A2A2A2A87
:1049D0002A2A2A2A2A2A2A2A2A2A2A2A6270686540
:1049E000726F2E636F6D2E636E2A2A2A2A2A2A2A54
:1049F0002A2A2A2A2A2A2A2A2A2A2A2A2A2A2A2A17
:104A00002A2A2A2F0A0000002F2A2A2A2A2A2A2A9A
:104A10002A4D6F726520496E666F726D6174696FA1
:104A20006E20506C65617365205669736974204F00
:104A3000757220576562736974652A2A2A2A2A2AA0
:104A40002A2A2A2A2A2A2A2F0A0000006C4A000849
:104A5000000000206C030000C0090008BC4B0008E7
:104A60006C0300209C070000681A00080114022B48
:104A7000011F02020802090932252104418867DE6C
:104A800057415645AA791092AE79130A10AF135ABE
:104A9000210CBF5645574110021BE223791802151D
:104AA000FE791FAAE00DAAE10DAAE20DAAE30D2AE4
:104AB000E4D4440406082D01020304041506070883
:104AC0000984A24A04791414380140124412401A8D
:104AD0000808A9041A10049A1C046914DA20044A6C
:104AE000140852011BF010012AFF050215F01B0FDC
:104AF00004012AFF0502130F18094040405F555575
:104B00005575041A5F0C091121080C11200F094971
:104B100089790909090F201F112FFE02424ACA4A4A
:104B20000304134202FE000E14FF40504C43404069
:104B30004F50505C40FF1BF888012AFF050215F812
:104B40001B1F08012A7F200B109F80E23B808201FF
:104B5000000916E2A2928A86828080041840807F33
:104B6000172424A4FEA3221B22CCAA011415080694
:104B700001FF2B0104010511FF0202025808101069
:104B800010FF109008C3021108080F100444827F20
:104B900001808040432C10284681A012AE100B10DB
:104BA0004081CFA1C8A6A83FD38010D580D9F1DA23
:0C4BB00012DB4020028D14A4A6A000001F
:0400000508000131BD
:00000001FF
