:020000040800F2
:10000000A80A002049010008730D0008170B00081A
:10001000710D000891090008151800080000000083
:10002000000000000000000000000000F5120008C1
:100030009309000800000000950F0008A1140008B3
:100040006301000863010008630100086301000800
:1000500063010008630100086301000863010008F0
:1000600063010008630100086301000863010008E0
:1000700063010008630100086301000863010008D0
:1000800063010008630100086301000863010008C0
:1000900063010008630100086301000863010008B0
:1000A00063010008630100086301000863010008A0
:1000B0006301000863010008630100086301000890
:1000C0006301000863010008630100086301000880
:1000D0006301000863010008630100086301000870
:1000E0006301000863010008630100086301000860
:1000F0006301000863010008630100086301000850
:10010000630100086301000863010008630100083F
:10011000630100086301000863010008630100082F
:10012000630100086301000863010008630100081F
:10013000DFF810D000F0DEFB00480047393100083E
:10014000AFF30080A80A0020064880470648004711
:10015000FEE7FEE7FEE7FEE7FEE7FEE7FEE7FEE777
:10016000FEE7FEE7B11400083101000830B504468F
:100170000020034600E05B1C934203D2E05CCD5CB0
:10018000401BF8D030BD30B480EA010202F00045D7
:1001900030F0004221F0004013D090B1C30DD40DD7
:1001A000C2F31601C0F31600E41A41F4000140F452
:1001B00000027D34914201D3641C00E04900002C10
:1001C00002DA30BC002070474FF400000023914257
:1001D00001D3891A034340084FEA4101F7D151B1D5
:1001E000914202D14FF0004105E002D24FF00101EF
:1001F00001E06FF0010103EBC450284430BC00F073
:10020000CDBA2DE9FE4F804681EA0300C00F0C46AF
:10021000009021F0004123F00045B8EB0200A94115
:1002200005D24046214690461C460B46024623F026
:100230000040104347D0270DC7F30A00C3F30A510B
:100240000290401A019040286BDAC3F3130040F487
:10025000801B0098924620B10023D2EB030A63EB87
:100260000B0B01985946C0F14002504600F065FA68
:1002700006460D4650465946019A00F07DFA10EBAD
:1002800008006141002487EA115284EAE7731A43A7
:1002900040D0009A62B3019A012A4FEA075215DC56
:1002A000001B61EB02014FF0004202EA0752CDE968
:1002B0000042001C41F5801132462B4600F0B4FA92
:1002C00003B0BDE8F08F40462146F9E7001B61EB23
:1002D0000201001C41F5801300185B412018A2F5B3
:1002E000001747EB030140EAD570B6196D4111E0E4
:1002F0006D084FEA360645EAC0754FEA0752001B03
:1003000061EB0201001C41F5801149084FEA300001
:100310000019514132462B4603B0BDE8F04F00F0C2
:1003200074BA0098012240000023D0EB020263EB74
:10033000E073009821464FEAE074B8EB000061EBEF
:100340000401E9E783F000435BE781F0004158E7EF
:100350002DE9FE4F81EA030404F0004421F000413E
:1003600000944FF0000B23F0004350EA01045ED0EC
:1003700052EA03045BD0C3F30A54C1F30A552C4478
:10038000A4F2F3340194A0FB0254C1F3130141F42D
:100390008011C3F3130343F4801301FB024400FBF9
:1003A000034E840A970A44EA815447EA8357A4FB20
:1003B000076802958D0A05FB07854FEA932C04FB1D
:1003C0000C542705029D4FEA065847EA1637B5EB4D
:1003D00008056EEB070C870E920E47EA811742EA7A
:1003E0008312A7FB0201B6EB0B0164EB00042B0D9B
:1003F00043EA0C335E1844EB1C50DA465146E7FBE7
:100400000201C5F313044FEA0B3343EA14534FEAD6
:100410000432019C43EA0603A4F10C040294009CFC
:10042000CDE900B400F000FA03B0BDE8F08F002081
:100430000146F9E72DE9F04D81EA030404F0004B91
:1004400021F0004514464FF0000A23F0004150EA25
:10045000050220D054EA01021DD0C5F30A57024616
:10046000C5F31303C1F31300C1F30A5640F480151A
:1004700043F48013A7EB0608101BD64608F2FD389C
:1004800073EB050002D308F1010801E092185B410B
:10049000B8F1000F03DA00200146BDE8F08D00201E
:1004A0004FF48011064684460EE0171B73EB0507D8
:1004B00005D3121B63EB050306434CEA010C490804
:1004C0004FEA300092185B4150EA0107EDD152EA41
:1004D000030012D082EA040083EA0501084305D034
:1004E000101BAB4106D20122002306E000224FF090
:1004F000004302E06FF0010253101AEB06004CEBD0
:10050000085110EB0A0041EB0B01BDE8F04D00F083
:100510007CB970B521F0004303430CD0C1F30A55F8
:100520000024D5EB040564EB0403D617AD1AB341E0
:1005300002DB0020014670BD201841EB025170BD66
:10054000C10F80EAE0700844CA079623002100F03A
:100550002EB90EB540F2334102910021CDE90011D0
:100560000A460B4600F060F903B000BD3EB5CA175D
:10057000CB0F002450405140C0186141DA0740F2CF
:1005800033430094CDE901232246234600F04CF981
:1005900003B030BD70B5C1F30A5201F0004500242C
:1005A000C1F3130140F2FF3341F480119A4201DAA2
:1005B000002070BD40F233439A42A2F2334203DC82
:1005C000524200F0C9F800E090402C43F1D0404284
:1005D00070BD70B5C1F30A5201F000450024C1F3AB
:1005E000130140F2FF3341F480119A4202DA0020F5
:1005F000014670BD40F233439A42A2F2334203DC1B
:10060000524200F0A9F801E000F097F82C43F0D036
:100610000023D0EB030063EB010170BD00F000424A
:1006200030F000400AD0C10D01F56071C0F3160032
:1006300042EA0151C20840071143704700200146B9
:100640007047000030B5041E71F1000404DB4FF068
:100650000044404264EB0101141E73F1000405DB09
:100660001C464FF00043524263EB0403994208BF1B
:10067000904230BD01F0004330B421F0004150EA17
:10068000010206D00A0DA2F56072C1F31301002A1F
:1006900002DC30BC00207047440F44EAC104C100B2
:1006A000E01830BC00EBC25000F078B830B50B4613
:1006B000014600202022012409E021FA02F59D4292
:1006C00005D303FA02F5491B04FA02F52844151E66
:1006D000A2F10102F1DC30BD2DE9F05F05460020FA
:1006E00092469B4688460646814640241BE02846A3
:1006F00041464746224600F02FF853465A46C01A54
:10070000914110D311461846224600F016F82D1AD2
:1007100067EB01084F4622460120002100F00DF84A
:1007200017EB00094E41201EA4F10104DFDC48460E
:1007300031462A464346BDE8F09F202A04DB203A92
:1007400000FA02F1002070479140C2F1200320FA24
:1007500003F3194390407047202A04DB203A21FA22
:1007600002F00021704721FA02F3D040C2F12002CA
:100770009140084319467047202A06DBCB17203AE0
:1007800041FA02F043EAE07306E041FA02F3D04096
:10079000C2F1200291400843194670470029A8BFC2
:1007A0007047401C490008BF20F00100704710B49A
:1007B000B0FA80FC00FA0CF050EA010404BF10BC4F
:1007C000704749B1CCF1200421FA04F411FA0CF17C
:1007D00018BF012121430843A3EB0C01CB1D4FEAB5
:1007E00000614FEA102042BF002010BC704700EBB0
:1007F000C35010440029A4BF10BC7047401C4900DE
:1008000008BF20F0010010BC704710B5141E73F132
:10081000000408DA401C41F1000192185B411A43C0
:1008200001D120F0010010BD2DE9F04D92469B460C
:1008300011B1B1FA81F202E0B0FA80F220329046B2
:10084000FFF77BFF04460F4640EA0A0041EA0B012E
:1008500053465A46084313D0114653EA010019D0B3
:10086000C8F140025046FFF777FF05460E46504656
:1008700059464246FFF761FF084305D0012004E0D6
:1008800020463946BDE8F08D0020054346EAE07673
:100890002C4337430A986305E40AA0EB08000022C2
:1008A000FD0A44EA47540A3002D500200146E9E730
:1008B000010510196941DDE9084500196941BDE8E4
:1008C000F04DA2E7C1F30A52C1F3130140F2FF3326
:1008D00041F480119A4202DA00200146704740F24A
:1008E00033439A42A2F2334202DC5242FFF734BF52
:1008F000FFF723BF064C074D06E0E06840F0010318
:1009000094E8070098471034AC42F6D3FFF714FC84
:10091000784200089842000870B58C1810F8015B06
:1009200015F0070301D110F8013B2A1106D110F888
:10093000012B03E010F8016B01F8016B5B1EF9D18C
:100940002B0705D40023521E0DD401F8013BFAE712
:1009500010F8013BCB1A921C03E013F8015B01F87D
:10096000015B521EF9D5A142D8D3002070BD000012
:10097000064B0020014603F10C0200BF43F8201093
:1009800042F82010401C0328F8DB70475404002074
:10099000FEE7704738B501217D2000F015FB4FF6CA
:1009A000FF70ADF800000020124C8DF8030069467E
:1009B000204600F029F869460F4800F025F86946FE
:1009C0000E4800F021F869460D4800F01DF8694610
:1009D0000C4800F019F80E20ADF8000010208DF83A
:1009E000030003208DF802006946204600F00CF851
:1009F000002038BD00080140000C014000100140FB
:100A00000014014000180140F0B5CA78002502F03A
:100A10000F03D20601D58A7813430A784FF00F0EE0
:100A200012F0FF0F4FF001021CD004680F8802FA89
:100A300005F63740B74211D14FEA850C0EFA0CF794
:100A400024EA070703FA0CF43C43CF78282F02D09E
:100A5000482F02D002E0466100E006616D1C082DBF
:100A6000E4D304600C88FF2C1ED944685FF00006B4
:100A700006F1080702FA07F50F882F40AF420FD1A1
:100A80004FEA860C0EFA0CF7BC4303FA0CF73C4312
:100A9000CF78282F00D14561CF78482F00D105614C
:100AA000761C082EE4D34460F0BD0000F0B5144C71
:100AB000002801DAE36900E06368420D120185B2A3
:100AC000C0F301579540C0F30346032F05D0C2027F
:100AD0000AD50322B240934307E023F070626368B3
:100AE00023F07063636002E0AB4343F0706201B1D6
:100AF0002A43002801DAE261F0BD6260F0BD000027
:100B00000000014041617047016170470AB1016115
:100B1000704741617047FEE7F8B54020ADF800002E
:100B200003240B4E8DF8024010258DF803506946C2
:100B30003046FFF769FF8020ADF800008DF80240D5
:100B40008DF8035069463046FFF75EFFF8BD0000A0
:100B5000000C0140094A00B54021116000F0CCF8BA
:100B6000064B80201B1F186000F0C6F8196000F0CB
:100B7000C3F811605DF804EB00F0BEB8140C01403E
:100B800070B50E4C08220021802020600B4E4025BD
:100B9000231D083E0CE04806010E1D6000F0ACF875
:100BA000256000F0A9F83068000601D541F0010188
:100BB000521ED2B2EFD21D60084670BD100C01402B
:100BC00070B50D4A0821802540260346141F0DE00C
:100BD00000F092F8180601D5256000E0156058066F
:100BE000030E00F089F8266000F086F8491EC9B2AD
:100BF0001660EDD270BD0000140C01400C4800B529
:100C0000802101604022026000F076F8084A083A2C
:100C10001068074B1B1D196000F06EF81068000685
:100C200001D5002000BD196000F066F8012000BD6C
:100C3000100C0140094B00B54021196000F05CF830
:100C400080221A6000F058F8044B1B1F196000F056
:100C500053F81A605DF804EB00F04EB8140C014034
:100C600010B500240CA000F0D7FDFFF755FFE1B24E
:100C7000204600F0BFFB641C052CF8DB0024204656
:100C800000F08EFB0246214606A000F0C5FD641C64
:100C9000052CF4DB10BD00004932432074657374E9
:100CA0000D0A000052656164202564202C64617483
:100CB000612025640D0A00000E4900B540220A603B
:100CC00000F01AF80B4B80201B1F186000F014F87E
:100CD0001A6000F011F807480C3800680A60000636
:100CE00003D500F009F8002000BD00F005F8012050
:100CF00000BD0000140C01401E20401E10F0FF003B
:100D0000FBD1704770B5022404F1B000C0B20021DD
:100D100000F002F90021084600F0FEF80021102042
:100D200000F0FAF800250121002000F0F5F86D1C14
:100D3000EDB2872DF7D3641CE4B2082CE4D370BD68
:100D400010B5032002F0E2F9642001F075FC0320E5
:100D500002F0C6F9642001F06FFC032002F0D6F91E
:100D6000642001F069FCBDE81040032002F0B8B92E
:100D7000FEE770470907090E002806DA00F00F00A9
:100D800000F1E02080F8141D704700F1E02080F8A9
:100D90000014704770B5002404F1B000C0B2002107
:100DA00000F0BAF80021084600F0B6F80021102043
:100DB00000F0B2F800250121002000F0ADF86D1C14
:100DC000EDB2872DF7D3641CE4B2082CE4D370BDD8
:100DD00038B50121082000F0F7F84FF47440ADF861
:100DE000000010208DF803000320184C8DF802003D
:100DF00069462046FFF708FE4FF43C412046FFF7C6
:100E000083FE4FF4804529462046FFF77DFE64208F
:100E100001F012FC29462046FFF774FEC82001F0BD
:100E20000BFC29462046FFF76FFE094D00240021E8
:100E3000285D00F071F8641CE4B21B2CF7D3FFF7B7
:100E4000A9FF0021AF2000F067F838BD000C014079
:100E50008C03002010B50446B031C8B2002100F068
:100E60005BF8102040EA1410002100F055F804F05F
:100E70000F00BDE8104040F00100002100F04CB828
:100E80002DE9F041203A00240D46D7B27F2802D93F
:100E900000208D1CEDB2801CC0B280462946FFF7B1
:100EA000D9FF0F4E04EB07100121305C00F034F83D
:100EB000641CE4B2082CF5D36D1CE9B24046FFF780
:100EC000C9FF002404EB071030440121007A00F030
:100ED00023F8641CE4B2082CF4D3BDE8F0810000D0
:100EE000BC3800082DE9F04117460E46044600259F
:100EF0000CE031462046FFF7C3FF0834E4B2782CFB
:100F000002D90024B61CF6B26D1CEDB27A5D002A3F
:100F1000EFD1BDE8F08100002DE9F0471C4D0646F9
:100F20004FF4806A00295146284602D0FFF7ECFDB5
:100F300001E0FFF7E7FD4FF4805841462846FFF7F0
:100F4000E1FD00244FF400494FF40057394628468C
:100F5000FFF7D8FD30064946284602D5FFF7D4FDF5
:100F600001E0FFF7CFFD39462846FFF7CDFD7006BB
:100F7000641C060EE4B2082CE8D341462846FFF76D
:100F8000C3FD51462846BDE8F047FFF7BDBD000050
:100F9000000C014070470000044A0029D16901D0CB
:100FA000014300E08143D16170470000001002401E
:100FB000044A0029116901D0014300E08143116115
:100FC0007047000000100240044A0029916901D0D6
:100FD000014300E08143916170470000001002402E
:100FE000044A0029D16801D0014300E08143D16067
:100FF000704700000010024030B5224A5168224B71
:1010000011F00C0103D0042903D0082903D0036098
:1010100016E01E4913E05168536801F470114FF057
:10102000020413F4803F04EB914104D053689B0306
:1010300003D5154B02E0164B00E0144B59430160F9
:1010400051680F2303EA1111124B5C5C0168E14007
:1010500041605468072505EA14241C5D21FA04F454
:101060008460546805EAD4241B5DD940C16052688D
:10107000032303EA9232074B1B1F9A5CB1FBF2F188
:10108000016130BD0010024000127A000024F4001B
:1010900000093D005C010020034A118821F038015D
:1010A0000143118070470000003001400029018891
:1010B00002D041F0400101E021F040010180704781
:1010C000F0B5294E87B0304600F052F80021ADF857
:1010D00000104FF48270ADF80200ADF808107015E2
:1010E000ADF80A001024ADF80410ADF80C4007204C
:1010F000ADF80610ADF80E10ADF810006946304698
:1011000000F067F8A020ADF8140018208DF8170043
:10111000164F03258DF8165005A93846FFF774FCC5
:101120004020ADF8140048208DF8170005A9384676
:10113000FFF76AFCADF814408DF817408DF8165093
:1011400005A93846FFF760FC0021304600F05DF845
:1011500001213046FFF7AAFF10213846FFF7D4FCE3
:1011600007B00020F0BD0000003001400008014041
:10117000114910B588420AD1841401212046FFF795
:101180002FFF2046BDE810400021FFF729BF0B4983
:10119000884202D10121041404E0094988420AD19D
:1011A0000121C4132046FFF703FF2046BDE810408D
:1011B0000021FFF7FDBE10BD0030014000380040A7
:1011C000003C00400246002012890A4200D0012063
:1011D000704730B502884C8802F441530A88CD88A4
:1011E00022438C882C4322430C8922434C8922437E
:1011F0008C892243CC8922431A430280828B22F4B9
:1012000000628283098A018230BD0029818802D070
:1012100041F0040101E021F00401818070470000E9
:10122000F8B50E46044625492448083150F82400F4
:1012300051F82410084340F001000121FFF7C4FEDB
:101240001E4808389CB350F824000121FFF7A4FE83
:1012500018208DF8030019486946183830F8140032
:10126000ADF8000003208DF80200154850F8240066
:10127000FFF7CAFB04208DF80300104869461438B4
:1012800030F81400ADF800000D48083050F8240084
:10129000FFF7BAFB0A4D3146083D55F8240000F02F
:1012A00053FA55F82400012100F03DFAF8BDFFE79C
:1012B00000680121FFF788FECAE700002C3800080B
:1012C000880100200349044A31F8101052F8200028
:1012D000416170471C380008980100200349044A06
:1012E00031F8101052F82000016170471C380008D6
:1012F00098010020704700000CB50021264801919C
:101300000091026842F4803202604FF4A0630268E8
:1013100002F400320092019A521C0192009A12B912
:10132000019A9A42F3D10268920333D501210091C8
:101330001A490A6842F010020A600A6822F00302A1
:101340000A600A6842F002020A604168416041682E
:101350004160416841F480614160416821F47C1141
:101360004160416841F4F8114160016841F08071C9
:10137000016001688901FCD5416821F003014160E9
:10138000416841F0020141604168C1F381010229D5
:10139000FAD10CBD00910CBD0010024000200240AB
:1013A00030B50546FFF72AFC00281CD0104C2078E9
:1013B000FFF706FCFFF780FCB0B1E8B2FFF700FCD6
:1013C000FFF77AFCFFF71AFC2078401CC0B2FFF749
:1013D000F7FBFFF771FCFFF7D3FB0446FFF7BAFBFF
:1013E000FFF728FC204630BDFFF724FC002030BD6D
:1013F000A703002030B50D460446FFF7FFFB002889
:1014000022D012480078FFF7DBFBFFF755FCB8B19C
:10141000E0B2FFF7D5FBFFF74FFC2846FFF7D0FB04
:10142000FFF74AFCFFF706FC01F015F901F013F98C
:1014300001F011F901F00FF9BDE8304001F00BB9EE
:10144000BDE83040FFF7F6BB30BD0000A703002029
:1014500001484078704700001100002070B50F4827
:101460004FF47A710068B0FBF1F0B0F1807F14D2D4
:1014700020F07F404FF0E024401E606165170F218F
:101480002846FFF777FC0020A06107202061052196
:101490002846FFF76FFC002070BDFEE76C010020BE
:1014A00002480168491C01607047000000000020EC
:1014B0000F4810B5016841F00101016041680D4A13
:1014C0001140416001680C4A11400160016821F43B
:1014D00080210160416821F4FE0141604FF41F0149
:1014E0008160FFF709FF05494FF00060086010BDFB
:1014F000001002400000FFF8FFFFF6FE08ED00E0DC
:101500002DE9F84FDFF80482DFF80492DFF804B227
:10151000074600264FF4814AA8F1BD04962001F049
:1015200040FC40F6E44001F053FC217888F80210BA
:1015300088F80370002275490C2001F01AFD002183
:101540000C2001F027FD022001F074FC002001F0C6
:101550009FFB4D4600210F2001F051FB2842E06027
:10156000F8D002216C48FFF7CFFAA08940047DD55E
:10157000524600210F2001F0CEFC0021102001F086
:101580003EFB00F07F01202903D80022614801F0D2
:101590006AFB9BF803005946B84268D10020C87026
:1015A0005A498BF802000A220C315A48FEF7DEFD38
:1015B00000287DD101F081FDC4E90E0101F06AFD32
:1015C0004FF02F62C4E91001801841F10001000AB8
:1015D00040EA0160009001F083FB009820F00100D8
:1015E000010E0002C4E912014848D4E90E23253057
:1015F00001F02FFD4548D4E91023293001F029FDE1
:101600004248D4E912232D3001F023FD3F482178D0
:101610001B3000228170C7700146182001F0A9FC20
:101620000021182001F0B6FC032001F003FC00218A
:101630000F2001F0E4FA2842E060F8D0A0894004CD
:1016400054D5524600210F2001F065FC00211020E6
:1016500001F0D5FA00F07F01202903D800222D489F
:1016600001F001FB5D469BF8030001E03EE045E030
:10167000B84243D10020E8702449A8700A220F39EB
:101680002448FEF773FD98B9A87A4FF47A7148435D
:10169000E97A01EB810100EB41021E49287B2031F0
:1016A00001F10C0551F820301A4441F8202000E0E7
:1016B00021E055F82010491C45F820105FF000008B
:1016C00055F8201005290DDB00F0CAFF0020114A53
:1016D0000146203245F8201042F82010401C032813
:1016E000F8DB08E0401C0328EADB04E00B4A002199
:1016F0000F2001F010FC2078401C2070761CF6B200
:10170000032EFFF40BAFBDE8F88F0000C5000020EA
:1017100000D0272434040020000801400090272432
:10172000C943018070470029818902D041F40051EA
:1017300001E021F4005181817047024600201288A7
:101740000A4200D00120704730B50446008A85B0B7
:101750000D464CF6FF710840E98801432182A189BA
:101760004EF6F3100140A8882A8910436A890A437B
:101770001043A081A08A4FF6FF410840A989014388
:10178000A1826846FFF738FC1948844201D10398CA
:1017900000E00298A189090400EBC00101EB0010F0
:1017A000296801D5490000E08900B0FBF1F064220E
:1017B000B0FBF2F109010B096FF018056B4300EB68
:1017C0008300A3891D044FF0320306D503EBC0004C
:1017D000B0FBF2F000F0070005E003EB0010B0FBF7
:1017E000F2F000F00F000843208105B030BD00008A
:1017F00000380140C1F308018180704770B50D4683
:101800000646002403E0305D01F028FD641CAC4274
:10181000F9DB70BDFEE700000FB4054B10B503A95E
:10182000044A029800F0A4F910BC5DF814FB000013
:1018300069300008A80300200FB4084B10B504A9B4
:1018400002AA039800F094F9044602A9002000F0CF
:1018500012FD204610BC5DF814FB00007722000842
:1018600002E008C8121F08C1002AFAD17047704769
:10187000002001E001C1121F002AFBD1704738B5DA
:1018800004466D208DF800006B46012240F60601EB
:101890002E2001F04FFB41F6060114B140F2076221
:1018A00001E041F207622E2001F028FB38BD38B577
:1018B00004466B4602220021362001F0B7F90E2CB7
:1018C0002CD2DFE804F00F07152B2B2B2B1D392B07
:1018D0002B44494E00208DF800009DF8010000F0D7
:1018E000FE0019E09DF8000000F0FC00401C04E040
:1018F0009DF8000000F0FC00801C8DF800000DE059
:101900009DF8000000F0B30040F048008DF80000A2
:101910009DF8010040F080008DF801006B46012227
:101920000021362001F006FB0122114636200DF180
:10193000010301F0FFFA38BD9DF8000000F0B3008C
:101940008DF800009DF8010000F07F00E4E79DF8AD
:10195000010040F00200DFE79DF8010000F0FD000B
:10196000DAE79DF8000000F0CF0040F02000C4E767
:1019700008B503208DF8010001208DF800006B46AA
:1019800002220021362001F0D5FA4FF40042062150
:101990002D2001F0B3FA012000F04EFE0120FFF7E8
:1019A00086FF08BD08B5010A8DF801108DF800000A
:1019B0006B46022204212D2001F0BCFA03208DF891
:1019C00000006B46012206212D2001F0B3FA002011
:1019D0008DF800006B46012206212D2001F0AAFAA5
:1019E0000A212D2001F00BF908BD00002DE9FF5F51
:1019F00082B00021DDE90430020DDDF840B0034380
:101A000018D044F61050A2F2FF3242431514119838
:101A100001281FD0A5EB0B00401C5FEA000A4FF025
:101A200000064E4FDFF83891B046504615D5CAF142
:101A3000000413E0119801244AA3012801D16FEAA0
:101A40000B010298119AC0E90031C0E9024206B0C8
:101A5000BDE8F09FCBF10000DFE704460021404ADB
:101A6000491842EB0450CDE9001012E0E00707D01E
:101A700032463B4640464946FEF76AFC8046894668
:101A800032463B4610461946FEF762FC06460F46B4
:101A90006410002CEAD1DDE90401DDE90023BAF18C
:101AA000000F06DAFEF754FC42464B46FEF750FCA8
:101AB00005E0FEF7BFFC42464B46FEF7BBFC044682
:101AC0000E460022284BFEF7BDFD03D84FF0FF3035
:101AD000014607E00022254B20463146FEF791FBE8
:101AE000FEF7F0FE102409E0002C0ADB0A22002396
:101AF000FEF7F2FD039B30321A55641E50EA0102D4
:101B0000F2D1641C039AC4F111031444119A012AFE
:101B100003D0012208430DD10AE0084304D000207D
:101B20004FF0110B119072E7A3EB0B056D1E0DE04A
:101B30005B4504DD4FF0000205F1010504E003DA26
:101B40004FF00002A5F10105002AECD0029811998E
:101B5000C0E90231C0E9004579E700000000144007
:101B60000000F03F300000000000F0430000E03FC4
:101B70002DE9FF4F95B09A46884606460025EEE1CE
:101B8000252877D100242746F94A0121039400E053
:101B9000044316F8013F203B01FA03F01042F7D14D
:101BA00030782A2811D06FF02F033078A0F130025E
:101BB000092A16D8039A44F0020402EB820203EBCE
:101BC00042021044761C0390EFE758F8042B03926E
:101BD000002A03DA504244F40054039044F0020413
:101BE000761C30782E2816D116F8010F44F0040424
:101BF0002A280DD06FF02F023078A0F13003092B86
:101C000009D807EB870302EB4303C718761CF3E7F9
:101C100058F8047B761C30786C280FD006DC4C28F2
:101C200017D068280DD06A2814D104E0742810D089
:101C30007A280FD10DE044F400140AE044F4801433
:101C400001E044F440147278824202D104F5801419
:101C5000761C761C307866280BD013DC582877D099
:101C600009DC002875D04528F6D04628F4D047284E
:101C70001AD193E118E0632835D0642879D065281B
:101C800012D18BE1702873D008DC6728F1D0692865
:101C90006FD06E280DD06F2806D1ACE073282CD001
:101CA000752874D0782853D05246179990476D1CE8
:101CB00054E1C4F30250022809D003280DD0D8F80B
:101CC000001004280DD00D6008F1040846E1D8F892
:101CD0000010EA17C1E90052F6E7D8F800100D80AD
:101CE000F2E70D70F0E718F8041B8DF800100020E3
:101CF0008DF80100EB46012003E058F804BB4FF0DB
:101D0000FF3061074FF0000102D40DE009F101013D
:101D10008946B9420FDA8145F8DB1BF80910002922
:101D2000F4D108E009F1010189468142FADB1BF890
:101D300009100029F6D103985346A0EB0907214664
:101D40003846179A00F080FA284400EB090507E0AE
:101D500044E008E10DE01BF8010B5246179990474B
:101D6000B9F10109F7D2534621463846179AF2E0F5
:101D700039E00A21C4F302524FF0000B0091022A0D
:101D800006D058F8040BC117032A09D00AE023E053
:101D900008F1070020F00702F2E80201904605E092
:101DA00000B2C117042A01D140B2C117002906DAD6
:101DB0000A460021404261EB02012D2202E0220589
:101DC00004D52B228DF80420012203E0E20701D084
:101DD0002022F7E7914657E00A2100E010214FF05A
:101DE000000B00910BE010214FF0000B44F00404B5
:101DF0000827009103E008204FF0000B0090C4F387
:101E00000252022A05D058F8040B0021032A08D0F8
:101E100008E008F1070020F00702F2E8020190460E
:101E200003E080B2042A00D1C0B24FF000092207BB
:101E30002AD53278702A07D0DDF800C08CF0100C5B
:101E40005CEA0B0C05D00EE040228DF80420012244
:101E500008E050EA010306D030238DF804308DF8F5
:101E6000052002229146009B83F0080353EA0B03EE
:101E70000AD150EA010201D1620705D530228DF85E
:101E800004204FF001097F1E3278582A04D039A26D
:101E90000C920CAA02920BE03BA2F9E75B46009A77
:101EA000FEF71AFC0C9B9B5C029A521E0292137066
:101EB00050EA0102F2D1029804A9081A00F1200B9D
:101EC000600702D524F4803400E001275F4502DD7D
:101ED000A7EB0B0000E0002000EB0B010090039843
:101EE0004944401A0390E00306D453462146179A0A
:101EF000039800F0A9F90544002706E001A852461E
:101F0000C05D179990476D1C7F1C4F45F6DBE003C1
:101F10000CD553462146179A039800F095F90544CD
:101F200004E030205246179990476D1C0099481ED6
:101F300000900029F5DC08E00298029952460078EA
:101F4000491C0291179990476D1CBBF10001ABF140
:101F5000010BF1DC5BE100F065F90544761C30789B
:101F600000287FF40DAE19B02846BDE8F08F0000C0
:101F7000092801003031323334353637383961625F
:101F80006364656600000000303132333435363723
:101F9000383941424344454600000000600700D400
:101FA000062708F1070020F00700F0E8022380462A
:101FB00003F0004C5FEA0C0001D097A009E0200577
:101FC00001D596A005E0E00701D095A001E0AFF2B1
:101FD0004C001390307823F0004365280CD006DCC9
:101FE000452809D046281DD047287FD13BE06628E8
:101FF00018D067287AD136E00021112F01DB11209B
:1020000000E0781CCDE9000104A90CA8FFF7EEFC64
:10201000DDE90D010C9A4FF0000B07F10109109258
:1020200000914EE04FF000400097CDE9011004A967
:102030000CA8FFF7DBFCDDE90D020C9B0F994FF0BC
:10204000000B91461093009211B9791C00EB010925
:10205000B7EB090003D4C0F1FF3B07F10109A9EB7D
:102060000700019042E0012F00DA01270021112F23
:1020700001DD112000E03846CDE9000104A90CA8DB
:10208000FFF7B4FCDDE90D010C9A00914FF0000B55
:10209000B946109221070FD4009A4A4503DA9146B7
:1020A00001E0A9F10109B9F1010F05DD109AA9F1CB
:1020B0000101515C3029F4D0B84202DA10F1040F6A
:1020C00003DA0121CDE9011010E0002803DC83448C
:1020D000A9EB000102E0411C494500DD8946A0EB67
:1020E0000B00401C01904FF000400290200705D4E7
:1020F0000198484502DB4FF0FF30019000208DF839
:102100004B0002980DF14B07B0F1004F25D0022093
:102110000C902B200D90029800280CDA404202907F
:102120002D200D9007E00A210298FEF7BFFA30310A
:10213000029007F8011D0C99481E0C900029F2DC52
:1021400002980028EFD1791E0D980870307800F0C1
:10215000200040F0450007F8020D11A8C01BC01D6B
:1021600002901398007800B1012000EB090101985A
:1021700001EBE071029801440398401A401E03905D
:10218000E00306D453462146179A039800F05CF802
:1021900005441398007818B15246179990476D1C62
:1021A000E00323D553462146179A039800F04CF8D4
:1021B00005441BE0BBF1000F07DB0098584504DD28
:1021C0001098179910F80B0001E01799302052462B
:1021D000904701980BF1010B401E05F1010501909C
:1021E00004D12E205246179990476D1CB9F1000179
:1021F000A9F10109DEDC05E017F8010B5246179939
:1022000090476D1C0299481E02900029F4DC534649
:102210002146179A03989EE62D0000002B0000002F
:10222000200000002DE9F041044600251E46174617
:10223000880404D405E039462020B0476D1C641E94
:10224000F9D52846BDE8F0812DE9F0410446002586
:102250001E469046C80301D5302700E02027880499
:1022600004D505E041463846B0476D1C641EF9D5DB
:102270002846BDE8F0810A68531C0B601070704757
:102280008EB0FEF775FBBB4C0025BB4EBB4FDFF895
:10229000F0B2E5704FF003084FF4814904F19E0A53
:1022A000A07905287ED2002000F092FD002000F0E9
:1022B000EFFC00210F2000F0A2FC3042E060F8D0DB
:1022C000A08940046FD54A4600210F2000F023FE6C
:1022D0000021102000F093FC40B26071B0F5806FD7
:1022E00004DC81B20022A54800F0BDFCB97840466C
:1022F000B1FBF0F208FB1212012AD1D1B1FBF0F2CE
:1023000008FB12106070F878A0709A49BD70FD70DB
:102310000A226B319948FDF729FF40B195490A22FD
:10232000F0319648FDF722FF00287DD010E100F043
:10233000B1FEC4E908014FF4FA7000F032FD40F636
:10234000E44000F045FD8B48217877300022817011
:10235000A178C17001460F2000F00BFE00210F2074
:1023600000F018FE022000F065FD00210F2000F0B3
:1023700046FC3042E060F8D0A0894004A2D54A462D
:1023800000210F2000F0C7FD0021102000F037FCD5
:1023900000F07F016171202903DC0022774800F002
:1023A00062FC01E0E0E0C6E0BD70F878A178884208
:1023B000A3D17049FD700A2286317048FDF7D6FE20
:1023C0000028B3D100F079FEC4E90A0100F062FEF2
:1023D000C4E90C0169480BA90A3000F02DFE6748DA
:1023E0000CA90E3000F028FE644803A9123000F05A
:1023F00023FE216A0791A06A0090216B04910C983A
:102400000B990290401AFEF7A4F8019108900499E4
:102410000098081AFEF79DF8CDE90510DDE90201E4
:10242000081AFEF796F800E08BE0029004910799F5
:102430000098401AFEF78DF809910090DDE9053209
:1024400001990898FDF7DDFE049B029AFDF7D9FE7D
:10245000099B009AFDF7D5FE07910A90099B009A07
:1024600004990298FDF774FF00910290DDE90532AE
:1024700001990898FDF76CFF009B029AFDF762FF37
:10248000079B0A9AFDF7D6FFFEF7A3F8FEF76EF852
:102490003C4A3D4BFDF75CFF4FF098523B4BC4E983
:1024A0001401FDF755FFC4E91601FEF7E3F80146F4
:1024B000304860304278007800F0AAFAD4E9162358
:1024C000FDF743FFC4E91601227AEAB16F218AF8C9
:1024D0000C102572218B0A0A8AF80A208AF80B1040
:1024E00021788AF80210A1788AF803102149002285
:1024F0009E31102000F03DFD0021102000F04AFD2B
:10250000002000F097FC23E00022214BFDF720FF84
:10251000FEF740F862788AF80C20012222726422C9
:1025200090FBF2F38AF80A3090FBF2F302FB1300FF
:102530008AF80B00D4E75A4600210F2000F0EBFC8C
:1025400006E0F87A012807D0B87A124900F084FE34
:10255000A079401CA071A3E6A078F8700748397BE9
:102560000D30FFF74BF9F3E70121A571084600F0A4
:10257000E9FE95E60800002000D02724340400205E
:1025800000902724FA48CE3B1835B13D19DDB14102
:1025900000005940A80300207FB56D238DF800305E
:1025A00072238DF801300223224C8DF802300F2562
:1025B0008DF80350A38A8DF804301B0A8DF805307E
:1025C0000A2390FBF3F690FBF3F08DF80660000A07
:1025D0008DF8070091FBF3F08DF8080091FBF3F004
:1025E000000A8DF8090092FBF3F08DF80A0092FBC7
:1025F000F3F0000A8DF80B000C216846FFF7FEF897
:1026000004F1F0000146C57000221F2000F0B1FC6B
:1026100000211F2000F0BEFC002000F00BFC002178
:102620000F2000F0ECFA0006F9D56069401C6061EB
:102630007FBD00000800002010B5044600F006FE33
:1026400004EB000400F002FE001B0028FADD10BDC0
:1026500070470020704741F28830401EFDD170471E
:102660002DE9F041374E0025A6F10C0456F825005F
:10267000002808DD54F8251091FBF0F0294600F001
:10268000AFFC44F825006D1C032DEFDB94E8070038
:10269000FFF782FF2C4D2869012803D10020286113
:1026A000FEF730FB3068294F002816DD2068FDF763
:1026B00047FF3946FDF767FDFDF7B0FF02462148A9
:1026C0000B4623A1B438FFF7B7F81E4A0221B43AEB
:1026D0000020FEF707FC2068A8617068002814DD60
:1026E0006068FDF72DFF3946FDF74DFDFDF796FFBC
:1026F000024614480B4619A1B438FFF79DF8114A59
:102700000421B43A0020FEF7EDFBB068002816DD86
:10271000A068FDF715FF3946FDF735FDFDF77EFF93
:10272000024608480B4610A1B438FFF785F8BDE80B
:10273000F041044A0621B43A0020FEF7D3BBBDE8BD
:10274000F0810000600400200800002000007A44AE
:10275000616E303A25332E32666D0000616E313A7B
:1027600025332E32666D0000616E323A25332E32EB
:10277000666D00002DE9F84F0446057840797849E8
:102780004FF00009C84631F8107061787548491E4D
:10279000CEB20163042D75D0072D73D000218A4677
:1027A000217801736F49E2798969002A6CD021F49C
:1027B00080018161217A4173217A4FF4403382692B
:1027C00003EA01410A43834682610021042000F0AC
:1027D000A2FB3A4642F604012E2000F08FFB304661
:1027E000FFF74DF8604F61490522785D00EB8000EE
:1027F000431807212B2000F09DFB5D49012201EBCE
:102800000A030B21282000F095FB785D594951F807
:1028100020200C21282000F07EFBE079564901EBB6
:102820008000A17930F811200221272000F066FBFA
:102830005248042130F81620272000F05FFBE07991
:1028400038B3A07804282AD028208DF80000202250
:102850000621272000F052FB6B460122262127206B
:1028600000F068FB4648E17800EB061050F82120A4
:102870000821272000F04FFBB4F80900A0B117E0B1
:1028800000E001E001218AE741F48001FF08816155
:1028900090E764220621272000F030FBE2E71020B9
:1028A0008DF800000246D3E741F24100A4F8090088
:1028B000B4F809202021272000F020FB314F0C2103
:1028C00023203A6800F027FB07EB460004218288AA
:1028D000232000F013FBA07958B1E0792A490122A6
:1028E00043180021212000F025FB4FF003094FF091
:1028F000010805F00F00290740EA116061784FF4E4
:10290000402202EA81410843920002EA0951084349
:102910004FF4003202EA4841084321794FF0F8624F
:1029200002EA81510843617940EAC16200211F2017
:1029300000F0F1FAA07861784FF4004308430204F4
:10294000CBF81020E179082043EA41310A43002105
:10295000CBF8102000F0DFFA0020BDE8F88F00006F
:10296000283F00086C040020AC3E0008CC3E000864
:10297000EA3E0008B43E0008F83E0008043F0008A4
:10298000083F0008EC3E0008F43E000810B504467D
:102990000421362000F033F914B140F4006201E064
:1029A00020F400620421BDE81040362000F0B3BAE4
:1029B00038B540208DF8000000210E2000F01FF9EE
:1029C0000446FFF746FE0546002211460E2000F0A1
:1029D000A2FA6B46012200210D2000F0ABFA0A4A50
:1029E00000210F2000F097FA00F06EFA2246002135
:1029F0000E2000F090FA2846FFF72AFE0349002037
:102A000081F82C0038BD0000F8FF27246C0400205A
:102A100070B50546164600240846FDF7FFFD022264
:102A2000FDF777FDFDF7B6FDFF2800DDFF202A4901
:102A3000012EA1F108020CD0042D2DD0072D2BD092
:102A4000515D01EB810202EBC101244A02EB41011D
:102A500033E0042D0AD0072D08D0515D01EB81022F
:102A600002EB41111C4A083211440FE0495D1B4A38
:102A700001EB0111883A02EB810100E0641C0A5D60
:102A80008242FBDBA4F11C001CE0641C0A5D824254
:102A9000FBDBA4F1170015E0495D01EB8102C2EBFD
:102AA00081110E4A6832114400E0641C0A5D8242C2
:102AB000FBDBA4F11E0005E0641C0A5D8242FBDB27
:102AC000A4F11100FDF73CFDFDF7A8FDBDE8704045
:102AD000034A044BFDF73CBC623F000886400008F7
:102AE0007B14AE47E17A843F7CB50546374C042021
:102AF0008DF8000000216175216384F8251084F8A9
:102B00002C10A1836163A16300F08CF83049206030
:102B100088420BD02F4C02212046FDF7F3FF042101
:102B20002046FDF7EFFF4FF0FF307CBD0020FEF7A1
:102B3000BEFE6B4601220021242000F0FBF91E207E
:102B4000FEF730FF86B2300AA0730420FEF72AFF9A
:102B500010F0FF0F0CD002208DF8040001AB012211
:102B600012212D2000F0E6F9A08B40F48050A083C4
:102B70000620FEF717FF60600720FEF713FFA06036
:102B800016F01F00207501D110202075C0B200F092
:102B90000FFAE80706D0FEF7EBFEA08B40F40060CA
:102BA000A08309E00521362000F016F820F4007219
:102BB0000521362000F0A2F90120FEF778FE002161
:102BC000042000F01CF8A06100207CBD6C040020F3
:102BD0003001CADE0008014038B54FF6FF7489B2F3
:102BE00080B26B46022200F021F830B99DF8000057
:102BF0009DF8011000EB012084B2204638BD38B5A5
:102C00004FF0FF3489B280B26B46042200F00EF818
:102C100030B903216846425C491E02EB0424FAD510
:102C2000204638BD00210846FFF7E9BF08B551B17D
:102C300040F040008DF80000C8B27F2907D88DF819
:102C4000010002200BE08DF80000012007E040F0B9
:102C500080008DF80100C8098DF802000320694644
:102C600000F002FB08BD30B414460A462146034674
:102C700030BC1120FFF7DABF0346052200211520E2
:102C8000FFF7D4BF0346052200211720FFF7CEBF70
:102C900038B5054600208DF8000000F015F94FF416
:102CA000807422460DB14FF4407200210D2000F0D7
:102CB00025F99DB16B46012203210F20FFF7B6FFD6
:102CC0009DF80000000709D5FFF772FE224600219B
:102CD0000D2000F013F94FF0FF3038BD002038BD53
:102CE000024601210A2000F016B938B50446C00793
:102CF0006B464FF002024FF000014FF026002DD03E
:102D0000FFF794FF9DF80100012220F03C0040F005
:102D100014008DF80100114626200DF1010300F08A
:102D200009F96B46012202213620FFF77FFF9DF84B
:102D300000006B4640F084008DF800000122022163
:102D4000362000F0F7F810208DF8000001208DF8F3
:102D50000100022228216B4636200BE0FFF766FFB8
:102D60009DF801006B4620F014008DF8010002224E
:102D70000021262000F0DEF8A00711D50F208DF8E5
:102D800000006B4601222A21362000F0D3F80020F3
:102D90008DF800006B4601222A21362000F0CAF887
:102DA00038BD10B5044600211A20FFF728FFC4F3F0
:102DB00013026FF3130002430021BDE810401A20F4
:102DC00000F0A9B8024641F604012E2000F096B8A2
:102DD00038B505466B46012203210420FFF726FF84
:102DE000104C75B12A4600210C2000F087F89DF8A0
:102DF000000040F010008DF80000A06940F0805005
:102E000008E09DF8000020F010008DF80000A06997
:102E100020F08050A0616B4601220321042000F0C5
:102E200089F838BD6C04002002460021182000F00B
:102E300065B80000F8B500240546224F26468DF8F7
:102E4000004080070BD580208DF800006B460122E2
:102E500000210D2000F06EF8012087F82C00E80713
:102E60009DF8000021D040F006008DF800006B4670
:102E7000012200210D2000F05DF803210F20FFF753
:102E8000ABFE10F4816F1AD040208DF800006B4625
:102E9000012200210D2000F04DF80020FFF776FD03
:102EA00087F82C604FF0FF3409E040F002008DF805
:102EB00000006B46012200210D2000F03BF8204667
:102EC000F8BD00006C0400201CB56B4601220321F4
:102ED0000F20FFF7ABFE9DF8000000F0800100F02E
:102EE0004000B1EB400F08D001208DF804000246ED
:102EF00001AB03210D2000F01DF81CBD08B589B2FF
:102F00008DF80020120A8DF8012080B26B46022253
:102F100000F010F808BD38B500236C46E254120AE0
:102F20005B1C042BFADB89B280B22346042200F03A
:102F300001F838BD08B551B140F0C0008DF800006F
:102F4000C8B27F2909D88DF8010002200DE040F0B9
:102F500080008DF80000012007E040F080008DF82F
:102F60000100C8098DF802000320694600F020FC2A
:102F700008BD10B514460244B2F5806F02D94FF077
:102F8000FF3010BD0B46821E21460920FFF7D2FFFD
:102F9000002010BD054A10B5126940EA8150024375
:102FA00000210820FFF7B7FF002010BD6C040020AF
:102FB00038B504466B4601220E212B20FFF736FE62
:102FC0009DF8000004F01F0120F01F0001438DF860
:102FD00000106B4601220E212B20FFF7ABFF38BDFE
:102FE000F0B50022134D052701EB8104134605EBD4
:102FF0008404002814DD643555F8216044F8260067
:10300000761C45F82160052E02D1002045F82100EC
:1030100054F82200521CD2B20344052AF8D306E029
:1030200054F82200521CD2B20344052AF8D393FB71
:10303000F7F0F0BDBC03002010B500220A60835CED
:10304000D400A3400C68521C23440B60042AF6DB16
:1030500010BD10B500214254120A42EA03621B0A55
:10306000491C0429F7DB10BD70B5094C0546402109
:103070002046FEF755FBE9B22046FEF7BBFB402198
:103080002046FEF75AFB0028F9D0284670BD000004
:10309000003801407CB5002425466846FFF7ECFD6A
:1030A000042069462D0245EA146522020C5C144393
:1030B000401EF7D5204629467CBD7CB50024254618
:1030C0006846FFF7DFFD042069462D0245EA1465D6
:1030D00022020C5C1443401EF7D5204629467CBDD5
:1030E0000100094808D0012908D0022908D0032985
:1030F00008D10E21FDF706BD0221FBE70421F9E707
:103100000821F7E770470000000801400100094866
:1031100008D0012908D0022908D0032908D10E219E
:10312000FDF7F2BC0221FBE70421F9E70821F7E7EC
:10313000704700000008014000F068F800F0D2F885
:1031400000F0FDF80120FFF7CFFC401C1DD000F07F
:10315000F3F81848FFF70EFB0120FFF7C6FD48F211
:10316000B600FFF72FFE0020FFF75EFE002112A23F
:103170000846FDF7B7FE13A0FEF74EFBFDF770FD06
:1031800014A0FEF749FBFFF77BF817A0FEF744FBFE
:1031900000211BA20846FDF7A5FE0020FEF79EF8C1
:1031A0006420FFF749FA0020FEF78CF86420FFF74F
:1031B00043FAF2E768000020494E49542050415339
:1031C00053000000696E69742070617373210D0AE9
:1031D0000000000068656C6C6F2064776D313030E2
:1031E00030210D0A0000000064776D31303030204E
:1031F000696E6974206661696C210D0A0000000027
:10320000494E4954204641494C00000010B5012167
:103210007D20FDF7D9FE01210B48FDF747FC012178
:103220000803FDF7D1FEFDF7B5FBFEF717F9FDF733
:1032300047FFFDF7CDFDFDF7ADFD00F08DFABDE8D0
:103240001040FDF77DBD000000023000014800681D
:103250007047000000000020FFF706BF0149FFF79C
:1032600003BF0000A80300202DE9F05F1D461646AD
:103270008A4607460024FFF7ECF918494FF0100979
:103280008346C1F80090DFF858800DE01AF804106A
:10329000A8F80C1001214046FDF794FF0028F9D052
:1032A000B8F80C002870641CBC42EFDB002002461A
:1032B000414606E08A810B89DB07FCD08B892B54C1
:1032C000401CB042F6D30549091FC1F8009058468A
:1032D000FFF7BEF90020BDE8F09F00001408014090
:1032E0000030014038B51024ADF800408DF803409F
:1032F0000320104D8DF8020069462846FDF784FB37
:10330000002210212846FDF701FC6420FFF794F904
:10331000012210212846FDF7F9FB6420FFF78CF904
:10332000ADF8004000208DF8030069462846FDF7FF
:103330006BFB38BD000C01400820FDF7ADBE20201E
:10334000FDF7AABE2DE9F34F064681B09620FFF7A0
:1033500028FD40F6E440FFF73BFDF94DDFF8E4932C
:10336000F94C4FF000084FF0010AE078012836D1FF
:10337000F64F02213846FDF7C5FB04213846FDF71C
:10338000C1FB3046FEF7BCF8E079401CC0B2E071EA
:103390000299012905D1052803D984F80780BDE8E1
:1033A000FE8F84F803800F2E51D0E9482178002247
:1033B0008170C67001460D20FFF7DBFD00210D2056
:1033C000FFF7E8FD0020FFF735FD00210F20FFF794
:1033D00016FC0006F9D504213846FDF795FB0F2EA3
:1033E00035D00020FFF7F4FC0020FFF751FC00214E
:1033F0000F20FFF704FC2842E060F8D0A0894004C9
:103400007AD54FF4814200210F20FFF784FD00217F
:103410001020FFF7F4FB40B26071B0F5806F04DC60
:1034200081B20022C748FFF71EFC89F8028099F894
:1034300003204146B24298D189F80310C4490A22B8
:103440000D31C048FCF792FE00287DD04CE1FDF71D
:10345000FFFF002865D1DFF8F8B284F802A00BF175
:103460000D0B47468BF80270A1788BF80310B84912
:1034700000220D310D20FFF77CFD00210D20FFF70C
:1034800089FD0220FFF7D6FC00210F20FFF7B7FBD4
:103490002842E060F8D0A08940042ED54FF4814244
:1034A00000210F20FFF737FD00211020FFF7A7FBB9
:1034B00000F07F016171202903DC0022A148FFF7A1
:1034C000D2FB89F8027099F80310A278914219D1C1
:1034D00000919F4989F803700A2227319948FCF727
:1034E00045FE78B99849009A0931984801F802A038
:1034F0000421FDF709FB05E01CE1964A00210F209D
:10350000FFF709FDA078401CC0B2A0700228A9D323
:10351000504684F802A0C0B2401CC0B2A07002287D
:10352000F9D32079002875D1FDF792FF00286FD0DC
:10353000854F5046093787F8008084F802A0C0B252
:10354000385C01285ED100E0B9E09620FFF729FC45
:1035500040F6E440FFF73CFC7D4800221A3080F83A
:103560000280A178C17001460D20FFF702FD002105
:103570000D20FFF70FFD0220FFF75CFC00210F205C
:10358000FFF73DFB2842E060F8D0A089400431D528
:10359000DFF8B8B102215846FDF7B6FA4FF4814280
:1035A00000210F20FFF7B7FC00211020FFF727FBB9
:1035B00000F07F016171202903DC00226148FFF7E0
:1035C00052FB89F8028099F80320A37841469A4279
:1035D00018D189F8031008215846FDF795FA5C497F
:1035E0000A2234315748FCF7C1FD58B92079401CF4
:1035F00020710DE0A178574A0F2007F801800021C3
:10360000FFF789FCA078401CC0B2A070022896D3B6
:103610002079D8B344F27400FFF7DAFB0020FFF7FB
:1036200037FB00210F20FFF7EAFA2842E060F8D0CC
:10363000A08940042BD54FF4804200210F20FFF7D2
:103640006AFC00211020FFF7DAFA40B26071B0F591
:10365000806F04DC81B200223A48FFF704FB89F84E
:10366000028099F8037089F803800A2238493548A6
:10367000FCF77CFD50B934480930C15D012914D1F3
:1036800000F80780207908B1401E20710DE02079F4
:1036900030B1401E20712C48A278093000F8028019
:1036A0002C4A00210F20FFF736FCFDF7D1FE002841
:1036B0007FF45BAE84F803A084F8048055E62448C8
:1036C0002178273000228170C67001460D20FFF757
:1036D00050FC00210D20FFF75DFC0020FFF7AAFB46
:1036E00004211A48FDF710FA19490A221A3115481F
:1036F000FCF73CFD0028E1D1154821783430002248
:103700008170C67001460D20FFF733FC00210D20AB
:10371000FFF740FC0020FFF78DFB00210F20FFF793
:103720006EFA0006F9D584F803A002210748FDF7D8
:10373000EBF91AE6074A00210F20FFF7ECFB14E62D
:1037400000D0272434040020080000200008014095
:1037500017010020009027241FB54FF4E13000909E
:103760000020ADF80400ADF80600ADF80800ADF893
:103770000C000C20ADF80A0069460020FDF750FD52
:103780000748FEF749F80748FEF746F80648FEF7EF
:1037900043F80648FEF740F80148FEF73DF81FBD24
:1037A0006441000834420008F0410008AC410008C0
:1037B0002DE9F041984615460F4606460024FEF7CF
:1037C00048FF0246114810230360114806E0395DA6
:1037D00081810189C907FCD08189641CB442F6DB70
:1037E000002107E018F8014084810489E407FCD037
:1037F0008489491CA942F5D30448001F0360104680
:10380000FEF726FF0020BDE8F0810000140801400B
:10381000003001400002040000040800080080009D
:10382000000100020040000000000200040000004F
:10383000040000000400000004000000100000006C
:1038400080000000800000008000000001000020D7
:1038500000010020004000800800800004000000FB
:103860001000000000010000000100000001000045
:103870000001000020000000000100000100002005
:1038800000010020004000800800800000000200CD
:1038900006000600060006000300060000000D00FA
:1038A00008000D000E000F000300070006002800AE
:1038B0001700280028002800090017000000000059
:1038C000000000000000000000000000000000F800
:1038D00000000000000000333000000000100C0663
:1038E000100C0600000000000000000040C07840FE
:1038F000C0784000043F04043F040400007088FCCA
:1039000008300000001820FF211E0000F008F00021
:10391000E018000000211C031E211E0000F0088892
:10392000700000001E2123241927211010160E00FC
:10393000000000000000000000000000000000E0A7
:1039400018040200000000071820400000020418BC
:10395000E00000000040201807000000404080F018
:10396000804040000202010F01020200000000F04E
:10397000000000000101011F010101000000000022
:103980000000000080B07000000000000000000097
:103990000000000000010101010101010000000020
:1039A00000000000003030000000000000000000B7
:1039B00080601804006018060100000000E0100894
:1039C0000810E000000F102020100F00001010F869
:1039D000000000000020203F2020000000700808A8
:1039E0000888700000302824222130000030088828
:1039F000884830000018202020110E000000C02050
:103A000010F8000000070424243F240000F8088870
:103A1000880808000019212020110E0000E01088FD
:103A200088180000000F112020110E00003808082F
:103A3000C83808000000003F00000000007088083F
:103A400008887000001C222121221C0000E01008C0
:103A50000810E0000000312222110F00000000C019
:103A6000C0000000000000303000000000000080B6
:103A700000000000000080600000000000008040A6
:103A800020100800000102040810200040404040BF
:103A90004040400004040404040404000008102012
:103AA0004080000000201008040201000070480857
:103AB0000808F0000000003036010000C030C828BF
:103AC000E810E0000718272423140B000000C0387A
:103AD000E0000000203C23020227382008F88888F4
:103AE00088700000203F202020110E00C030080800
:103AF00008083800071820202010080008F80808D7
:103B00000810E000203F202020100F0008F88888CF
:103B1000E8081000203F20202320180008F888889B
:103B2000E8081000203F200003000000C030080813
:103B30000838000007182020221E020008F808009C
:103B40000008F808203F210101213F20000808F863
:103B5000080800000020203F202000000000080886
:103B6000F8080800C08080807F00000008F888C046
:103B700028180800203F20012638200008F80800F7
:103B800000000000203F20202020300008F8F8002E
:103B9000F8F80800203F003F003F200008F830C040
:103BA0000008F808203F200007183F00E010080830
:103BB0000810E0000F10202020100F0008F808085F
:103BC0000808F000203F210101010000E010080872
:103BD0000810E0000F18242438504F0008F8888897
:103BE00088887000203F2000030C30200070880877
:103BF000080838000038202121221C00180808F885
:103C0000080818000000203F2000000008F8080005
:103C10000008F808001F202020201F0008788800D6
:103C200000C83808000007380E010000F80800F846
:103C30000008F800033C0700073C030008186880F0
:103C40008068180820302C03032C30200838C80066
:103C5000C83808000000203F2000000010080808B5
:103C6000C83808002038262120201800000000FE57
:103C7000020202000000007F40404000000C30C003
:103C800000000000000000010638C000000202022F
:103C9000FE000000004040407F00000000000402E1
:103CA000020204000000000000000000000000000C
:103CB00000000000808080808080808000020204FC
:103CC00000000000000000000000000000008080F4
:103CD000808000000019242222223F2008F8008062
:103CE00080000000003F112020110E000000008025
:103CF00080800000000E11202020110000000080B4
:103D00008088F800000E112020103F2000008080E5
:103D100080800000001F222222221300008080F0F9
:103D2000888888180020203F202000000000808024
:103D300080808000006B94949493600008F8008069
:103D400080800000203F210000203F2000809898C4
:103D5000000000000020203F202000000000008024
:103D60009898000000C08080807F000008F8000064
:103D700080808000203F24022D302000000808F8B9
:103D8000000000000020203F202000008080808074
:103D900080808000203F20003F20003F8080008006
:103DA00080800000203F210000203F200000808014
:103DB00080800000001F202020201F0080800080C5
:103DC0008000000080FFA12020110E000000008074
:103DD00080808000000E112020A0FF808080800065
:103DE0008080800020203F21200001000000808092
:103DF000808080000033242424241900008080E087
:103E0000808000000000001F202000008080000053
:103E100000808000001F202020103F208080800034
:103E20000080808000010E30080601008080008044
:103E3000008080800F300C030C300F000080800069
:103E4000808080000020312E0E3120008080800094
:103E50000080808080818E70180601000080808044
:103E6000808080000021302C2221300000000000E2
:103E7000807C020200000000003F40400000000083
:103E8000FF00000000000000FF0000000002027CB4
:103E9000800000000040403F0000000000060101DB
:103EA0000202040400000000000000000000010203
:103EB00003040005405C0000A05C0400C06C080026
:103EC000805C0400E03F1E00E07D1E000704000946
:103ED0001E08054008260910400856080540082617
:103EE0001D040008BE1D040008BED8BC07A9022599
:103EF00070889B88401008000A0016000100060028
:103F00000100020087008D002D001A3152001A3383
:103F10009A001A351D011A376B003B31BE003B3346
:103F20005E013B3596023B37000099599959EB5198
:103F30008F421E45142E0080EB51F5283333E13AB1
:103F4000703DE13AC235852BC2353333C235C235B7
:103F5000AE47E13A5138A330513800000102000366
:103F60000000000000000000000101030405070933
:103F70000B0C0D0F121417191C1E2124282B2F3285
:103F8000363A3F42474C5259626D7F9BDEFFFF013C
:103F90000204050608090A0C0D0F121416181B1D41
:103FA000202326292C2F33373A3E42474E55606F47
:103FB00087C2F0FF01020304050708090A0C0E106E
:103FC000121416181A1C1F2124272A2D3134373BAE
:103FD0003F454C556278ADD5FF010102030405064B
:103FE000060708090B0C0E0F1012141517191B1DCC
:103FF0001F222426292C30353B44537894FF070791
:104000000809090A0B0B0C0D0E0F101112131415D1
:104010001617181A1B1C1E1F20222426282A2C2E95
:1040200030323437393B3D3F4244474A4E5155596F
:104030005E63686E747B828B96A4B6CFEEFFFFFF43
:10404000FFFF0405050506060707070809090A0A10
:104050000B0B0C0D0D0E0F1011111213141516175A
:10406000191A1B1D1E1F202223242627282A2C2E26
:10407000303234373A3D4044484B50555C65707F90
:1040800093A8B6C2CDFF010202030405070A0D1072
:104090001316181B1E2023262B30384E65789DFFE3
:1040A00001020203040406090C0E111315181A1C50
:1040B0001F21252A314459698AFF010102030304A3
:1040C00005080A0D0F11131517191B1E21252C3C6D
:1040D0004F5D7AFF010101020203040607090A0C81
:1040E0000D0F10111315171A1E2A374155FF070817
:1040F0000809090A0B0C0D0D0E0F101011121313E5
:1041000014151618191B1C1D1E20212223252729D2
:104110002B2D303235383C40444A5159626D7A88F3
:10412000929AA2B2DCF9FFFFFF0405050506060717
:1041300007080809090A0A0A0B0B0C0D0D0E0F10CF
:1041400010111213131415161718191A1C1D1F21FC
:104150002325272A2E32363C434B535A5F646E8701
:1041600099ACC0FF2F2A2A2A2A2A2A2A2A2A2A2A4E
:104170002A2A2A2A2A2A2A2A2A2A2A2A2A2A2A2A9F
:104180002A2A2A2A2A2A2A2A2A2A2A2A2A2A2A2A8F
:104190002A2A2A2A2A2A2A2A2A2A2A2A2A2A2A2A7F
:1041A0002A2A2A2A2A2A2F0A000000002F2A2A2A2D
:1041B0002A2A2A2A2A2A2A2A2A2A2A2A2A2A2A2A5F
:1041C0002A2A2A2A464D2056657273696F6E205638
:1041D000332E312A2A2A2A2A2A2A2A2A2A2A2A2A2B
:1041E0002A2A2A2A2A2A2A2A2A2A2A2A2A2F0A0074
:1041F0002F2A2A2A2A2A2A2A2A2A2A2A2A2A2A2A1A
:104200002A2A2A2A2A2A2A2A62706865726F2E634D
:104210006F6D2E636E2A2A2A2A2A2A2A2A2A2A2AF5
:104220002A2A2A2A2A2A2A2A2A2A2A2A2A2A2A2FE9
:104230000A0000002F2A2A2A2A2A2A2A2A4D6F72C7
:104240006520496E666F726D6174696F6E20506C87
:1042500065617365205669736974204F75722057C4
:104260006562736974652A2A2A2A2A2A2A2A2A2A2E
:104270002A2A2A2F0A000000984200080000002085
:10428000AC03000018090008E4430008AC03002058
:10429000FC060000701800080118024F011F0202FE
:1042A0000802090956252104418827DE5741564551
:1042B00021390C47564557411002791BE2237918E2
:1042C0000A13AA10093A520215FE791FAAE00DAA94
:1042D000E10DAAE20DAAE30D2AE4F0440406082D3C
:1042E0000102030404150607080984A24A0479148C
:1042F00014380140124412401A0808A9041A100484
:104300009A1C046914DA20044A140852011BF010A4
:10431000012AFF050215F01B0F04012AFF050213F5
:104320000F18094040405F55555575041A5F0C0938
:104330001121080C11200F094989790909090F2059
:104340001F112FFE02424ACA4A0304134202FE0012
:104350000E14FF40504C4340404F50505C40FF1BF8
:10436000F888012AFF050215F81B1F08012A7F2083
:104370000B109F80E23B808201000916E2A2928A24
:1043800086828080041840807F172424A4FEA32204
:104390001B22CCAA011415080601FF2B01040105FC
:1043A00011FF0202025808101010FF109008C302FB
:1043B0001108080F100444827F01808040432C10B4
:1043C000284681A012AE100B104081CFA1C8A6A82C
:1043D0003FD34010D580D9F1DA12DB4020028D1492
:0443E000A4A6A000EF
:0400000508000131BD
:00000001FF
