:020000040800F2
:10000000A80D00202502000829290008D52700088E
:10001000252900087D0F0008512C00080000000071
:10002000000000000000000000000000E52A0008B9
:10003000810F0008000000002D290008E72A0008B1
:100040003F0200083F0200083F0200083F0200088C
:100050003F0200083F0200083F0200083F0200087C
:100060003F0200083F0200083F0200083F0200086C
:100070003F0200083F0200083F0200083F0200085C
:100080003F0200083F0200083F0200083F0200084C
:100090003F0200083F0200083F0200083F0200083C
:1000A0003F0200083F0200083F0200083F0200082C
:1000B0003F0200083F0200083F0200083F0200081C
:1000C0003F0200083F0200083F0200083F0200080C
:1000D0003F0200083F0200083F0200083F020008FC
:1000E0003F0200083F0200083F02000800F002F84B
:1000F00000F047F80AA090E8000C82448344AAF17B
:100100000107DA4501D100F03CF8AFF2090EBAE878
:100110000F0013F0010F18BFFB1A43F0010318473B
:10012000A83C0000C83C0000103A24BF78C878C141
:10013000FAD8520724BF30C830C144BF04680C60ED
:10014000704700000023002400250026103A28BF35
:1001500078C1FBD8520728BF30C148BF0B60704739
:10016000732900F0D681002070471FB59DE8030079
:1001700000F0F6FC00F032FA1FBD10B500F097FA5F
:1001800010BD00F0C7FA1146FFF7EFFF03F0AAFC1D
:1001900000F0B6FC03B4FFF7F0FF03BC00F052FE22
:1001A0000246D2E84F0F411CC2E8431F03B1F8E7F3
:1001B0007047024652E8000F411C42E8001303B1A9
:1001C000F8E770470246D2E84F0FC2E8431F03B179
:1001D000F9E77047024652E8000F42E8001303B106
:1001E000F9E77047024652E8000F830103D3BFF3DB
:1001F0002F8F0020704700F00040084342E80003C2
:1002000003B1F0E77047024652E8000F800103D2C5
:10021000BFF32F8F0020704742E8001303B1F3E7CC
:10022000012070470948804709480047FEE7FEE77C
:10023000FEE7FEE7FEE7FEE7FEE7FEE7FEE7FEE796
:1002400004480549054A064B70470000532B000837
:10025000ED000008A8070020A80D0020A809002034
:10026000A80900200FB4044910B503AA029800F0B1
:1002700055F910BC5DF814FBD00100202DE9F041C8
:100280000E460446002020622046E168884730B3CD
:10029000252805D0D4E901219047206A401CF2E7C7
:1002A000E168204600278847050018D0A5F14100E5
:1002B000192802D820354FF40067324629462046D7
:1002C0002760FFF74DFF40B1012804D0F61D26F04E
:1002D00007060836D8E7361DD6E72846DAE7206A4B
:1002E000BDE8F08170B50C460546012A05D0287896
:1002F000800600D5EA69002302E0012305E05B1CCB
:10030000934202D2E05C0028F9D1A869E618C01A2D
:10031000A861286A184428622846AFF3008004E0E8
:10032000D5E9012114F8010B9047B442F8D32846CF
:10033000AFF3008070BD40EA010310B59B070FD1F9
:10034000042A0DD310C808C9121F9C42F8D020BA45
:1003500019BA884201D9012010BD4FF0FF3010BDFD
:100360001AB1D30703D0521C07E0002010BD10F8CB
:10037000013B11F8014B1B1B07D110F8013B11F891
:10038000014B1B1B01D1921EF1D1184610BD032A4F
:1003900040F2308010F0030C00F0158011F8013BA2
:1003A000BCF1020F624498BF11F801CB00F8013B89
:1003B00038BF11F8013BA2F1040298BF00F801CB4D
:1003C00038BF00F8013B11F0030300F0B980083A90
:1003D000C0F0088051F8043B083A51F804CBA0E87B
:1003E0000810F5E7121D5CBF51F8043B40F8043BD0
:1003F000AFF30080D20724BF11F8013B11F801CB05
:1004000048BF11F8012B24BF00F8013B00F801CBD5
:1004100048BF00F8012B70474FF0000200B51346AB
:1004200094469646203922BFA0E80C50A0E80C5014
:10043000B1F12001BFF4F7AF090728BFA0E80C50C5
:1004400048BF0CC05DF804EB890028BF40F8042BBE
:1004500008BF704748BF20F8022B11F0804F18BF2B
:1004600000F8012B704700004FF0013C50F8042BBE
:1004700051F8043B9A4221D1A2EB0C03934313EAB7
:10048000CC1317D150F8042B51F8043B9A4215D1E4
:10049000A2EB0C03934313EACC130BD150F8042BBB
:1004A00051F8043B9A4209D1A2EB0C03934313EA9F
:1004B000CC13DBD04FF00000704700BFD01A01BA58
:1004C000B1FA81F101F0180122FA01F0CB40C1F13B
:1004D0002001DBB2C0B2C01A2CFA01F3D11A914349
:1004E00011EAC311E6D1704770477047704710B5E5
:1004F000436913B1AFF3008001E0FFF7F3FE012081
:1005000010BD127800F124010A7000224A70012205
:10051000EDE711684FF0FF32E9E70000074B70B5D7
:100520000D467B4400F043F80446284600F052F89C
:1005300010B14FF0FF3070BD204670BD4D3500004A
:1005400010B5203AC0F00B80B1E81850203AA0E86E
:100550001850B1E81850A0E81850BFF4F5AF5FEAA2
:10056000027C24BFB1E81850A0E8185044BF18C955
:1005700018C0BDE810405FEA827C24BF51F8043BFC
:1005800040F8043B08BF7047D20728BF31F8023B50
:1005900048BF11F8012B28BF20F8023B48BF00F8E4
:1005A000012B704701694A1C02610878704700B549
:1005B0008FB0CDE901310021059105497944CDE99C
:1005C000031011466846FFF759FE0FB000BD00004A
:1005D000E5FFFFFF007B00F08000704710B5424848
:1005E0005421FFF719FF41485421FFF715FF4048F8
:1005F0005421FFF711FF3F493B483C4A3F4B0860FD
:100600003D490A603A491960531C0365481C10654E
:10061000012008653B48344A39A1784400F0D4F9F8
:1006200020B9384878440A3800F073FA37482F4A1E
:1006300035A1784400F0C8F920B9344878440A3824
:1006400000F067FA32482A4A2FA1784400F0BCF93A
:1006500020B92F4878440A3800F05BFA402322483A
:10066000DC000021224600F08CF920B125487844B6
:10067000543800F04EFA1D4822464023002100F075
:1006800080F920B121487844543800F042FA1848E3
:1006900022461023002100F074F9002806D01C48DF
:1006A0007844BDE81040563800F033BA10BD104809
:1006B00070B5006D20F001040B4800F0FBF90B4809
:1006C00000F0F8F90A4800F0F5F909E0206D20F093
:1006D0000105204600F0EEF9204600F040F82C46D7
:1006E000002CF3D170BD00007C010020D00100205F
:1006F00024020020880000208C00002090000020B0
:10070000720000009237000077000000813700007F
:1007100071370000754600F003FAAE4605006946E1
:10072000534620F00700854618B020B5FFF788FD36
:10073000BDE820404FF000064FF000074FF00008E2
:100740004FF0000B21F00701AC46ACE8C009ACE863
:10075000C009ACE8C009ACE8C0098D46704770B567
:100760000446051F00F0E0F90068002C14BF44683F
:1007700070BD002C18BFAC423CBF20466468F8D363
:1007800001680A18AA4218BF456003D12A680546C5
:100790001144016028684119A1421CBF6C6070BD02
:1007A0006168696021680844286070BD2DE9F047E0
:1007B00005460C46C86820F4201040F48000C8604C
:1007C000800602D5084600F0FCFAE06841F282019A
:1007D0004FF0FF390140022903D0204600F09AFA79
:1007E000B5E000F42041B1F5004F0FD1C00306D5AC
:1007F0006168E06A884200D80846606006E02069C7
:10080000E0626060606902F026FBA061A0680022DF
:10081000EEB200280DDAE1688B050AD4C043A0606F
:1008200041F490302260E0606068411C61600670B5
:10083000A5E0E0689046226040F40050E060206946
:1008400068BB606902F019FB012704F12405A0B11F
:10085000A08910F4407F08D0E06900F0B0F9206171
:1008600018B1E06840F4006016E0E7612561E068D7
:1008700020F4407040F480600EE0E06900F09FF9E1
:1008800000282061F1D0E06840F4006010F4407F5F
:10089000E06002D140F48070E06020696060E06850
:1008A00025696FF0010AC1051FD56168E06A8842B9
:1008B00000D80846411B04D02246284600F034FAEE
:1008C000F0BBE068010203D5E562C4E9015854E0D9
:1008D000691CE1626160E16940F48030491EC4E94D
:1008E000021030462E70BDE8F087010202D500F4F8
:1008F00080320AE06068411C61600670E0680A2E80
:1009000040F48030E06006D00022E16A60688142F5
:1009100003D90B4602E00122F7E70346A7895B1BD8
:100920007F0503D4E7699F4200DDE2B1814200D830
:100930000146E5620F1AC4E90158002B09DD00E009
:1009400005E022461946284600F0EEF908B148466F
:10095000C9E747B1A069E5626560C01BA061E068B6
:1009600040F01000E060E068000208D56168A0690E
:10097000E562491B08446560A0615046B3E7304614
:10098000B1E770B5C468A50713D0650211D4B2F5FC
:10099000807F09D0B2F5007F06D0B2F5806F08D114
:1009A000012300F1240106E05D1E6FF07F46B54291
:1009B00001D3012070BD0161C361416024F4706105
:1009C0001143C160002070BD2DE9F0410C4607467F
:1009D0001646104600F06EF82078611C61280AD097
:1009E000722802D077283CD102E00125002405E0DE
:1009F0000225042402E0082448F2020511F8010B44
:100A00002B2806D0622809D011F8010C74280AD0CE
:100A10000BE045F0030544F00204EFE745F0040560
:100A200044F00104EAE744F010043846214602F09D
:100A300037FA411C15D00021316171604FF400710B
:100A4000F560F1617061200704D530460222002173
:100A500000F0E4F8306D40F0010030653046BDE84C
:100A6000F0810020FBE72DE9F0410D460646104CD1
:100A7000206DC10704D0410804D020F00104F7E73D
:100A800022460EE0542000F09AF807000ED0206DA8
:100A900047F001010843542120653846FFF7BCFCAC
:100AA0003A4629463046BDE8F0418DE70020D6E7BA
:100AB0007C0100202DE9F04704464FF000094FF07B
:100AC000FF37C568D4E90486A80707D0204600F0A0
:100AD00055F9304602F0ACF9002802DA3846BDE894
:100AE000F087280502D54046FFF739FE4C21204605
:100AF000FFF792FC206D20F0010020654846EEE7EC
:100B000010B50446AFF300802046BDE81040FFF763
:100B100041BB10B500F07CF9BDE8104000F072B99F
:100B2000004870477802002000487047800200208B
:100B3000704770477047704738B504460A46002032
:100B40006946AFF30080002808BF38BD024600990F
:100B5000204600F084F9012038BD012000F0D3B90F
:100B6000F8B5AFF30080054600200C46102000BF0A
:100B70000646A819A0420DD9324669460020AFF3B7
:100B80000080070008BF00F0BEF90098A04218BF1F
:100B90000546C419FFF7C8FF05600746F01D20F0A1
:100BA00007004619284600F053F9B44208BFF8BDC3
:100BB000A21B31463868BDE8F84000F050B970B566
:100BC0000646FFF7B1FF056806F10B0020F00704A9
:100BD000B4429CBF002070BD2B466A68BAB1106851
:100BE000A04210D304F1080188423CBF506858600D
:100BF00007D35168101941601168091B01605860E2
:100C00001460101D70BD13465268002AE7D12146BA
:100C10002846FFF791FF0028DED170BD2DE9F04195
:100C2000044616460D464769007B80072ED038469D
:100C300002F023F950BB3EB3012E02D0022E25D183
:100C400004E0204600F025F905441DE0384602F096
:100C500002F9E168002841F01001E16005DA204660
:100C600000F058F80120BDE8F081C9030BD5626897
:100C7000E16A914200D81146A26911442269891A99
:100C8000814200DD08460544002D01DA0220EAE732
:100C9000E16A6068E268814206D29103E06203D5AE
:100CA00022F4003141F01002A6690027AE4213DCA5
:100CB000E16A814201D90B4600E0034603EB060CD2
:100CC0002369ACEB030CAC4506DD814201D98C46AF
:100CD00000E084469C4505D1A760276042F02000D3
:100CE000A5620DE0AD1BE669AE1B8142A66000D98E
:100CF0000846C01A281A20605819606022F02000A7
:100D000003490840E060002084F84870ABE7000029
:100D1000BFCFD7FFC16821F4001141F08001C1604D
:100D200000218160016070472DE9F047814614463B
:100D30000E464FF0FF383248D5685769054209D052
:100D40003846A16902F0E0F8002811DB2C48C043C6
:100D50000540E5602B4632464946384602F0EAF83F
:100D6000A16920F00042B21A11440028A16103D009
:100D70002046FFF7CFFF4046BDE8F08770B5044638
:100D80000569C06A6168884200D80846E16821F4B4
:100D90002011E160C90312D5A84208D02246411BA8
:100DA0002846FFF7C1FF10B14FF0FF3070BD0020A3
:100DB000E562C4E90150E06820F48030E060002082
:100DC00070BD10B50446C06820F02000E060A16A44
:100DD000A06988420DD02046FFF7D0FFE06820F4DC
:100DE000405040F01000E060A06AA0612069E0621D
:100DF000606044F24001E0688843E06010BD00009C
:100E000010000200002801D000F01CB8704700005C
:100E100010B5014602A000F05DF8012010BD0000F1
:100E200053494752545245443A20526564697265A9
:100E300063743A2063616E2774206F70656E3A2088
:100E40000000000001491820ABBEFEE726000200AA
:100E500000210160C0E9011070471020704703466F
:100E600040688C46002818BF88423CBF0346406853
:100E7000F8D318681844884207D00CF1030020F01A
:100E80000700001D411A521A0146081D0A60FFF7AB
:100E900066BC10B50146C268900703D0900607D51E
:100EA000886A0AE000F03EF801210160881E10BD4A
:100EB0008B69486818440B69C01A91F848301BB117
:100EC00091F84910401A10BD1103FCD50028FADD35
:100ED000401E10BD70B505460C460A2000E06D1C92
:100EE00000F018F835B128780028F8D102E0641C29
:100EF00000F010F814B120780028F8D1BDE8704057
:100F00000A2000F007B810B500F010F8BDE8104056
:100F1000FFF778BF08B569468DF800000320ABBE27
:100F200008BD7047004870477802002010B50128BE
:100F300005D0002103A0FFF7CDFF012010BD09A1BE
:100F4000F8E7000053494752544D454D3A204F753C
:100F500074206F662068656170206D656D6F7279B1
:100F6000000000003A2048656170206D656D6F7269
:100F70007920636F727275707465640000BFFEE75C
:100F8000704772B600BFFEE70146074A12780AB9F9
:100F9000002008E0054AC1F3C623D25CC1F3022356
:100FA000DA4002F0010070478007002000070020AF
:100FB00070B500BF1248866900F0FCF90446B442DF
:100FC00011D200BF01210F48FFF7FCF858B90C48B7
:100FD0000069401C0A49086100BF00210948FFF769
:100FE000F1F800BF00BF00BF214605481830FFF7E9
:100FF000F1F8054600BFAE42DCD1204670BD0000CE
:1010000080070020780000202DE9FC470446884630
:101010001546B8F1000F01D0802D02D90020BDE89F
:10102000FC872046FFF7B0FF08B90120F7E7FFF77C
:10103000BFFF8246A4B200BFEFF3058010B14FF4AA
:10104000002000E000200443464645B900231A462C
:101050005146204600F064F807463846DFE7082D81
:1010600016D80020009001902A4631466846FFF7C6
:101070008EF94FF4E02000EA0540044344F040704C
:101080005146DDE9002300F04BF807463846C6E735
:1010900000F0AEF94FF4E02101EA00493068009019
:1010A000706801900836083D44EA090444F08070F5
:1010B0005146DDE9002300F033F807460FB9002060
:1010C000ADE74FF6017049EA000410E03068009087
:1010D000706801900836083D51462046DDE900233E
:1010E00000F01EF80746641C0FB9002097E7082D92
:1010F000ECD80020009001902A4631466846FFF760
:1011000046F924F47F4444EA052444F00070514633
:10111000DDE9002300F004F8074638467FE70000C9
:101120002DE9FF4F81B0884691469A464FF0070B54
:1011300051E000BF2E48FFF73CF8064606F03F009E
:101140002C4901EB0014B0094FF4700101EA005181
:101150000091DDE9001008434FF0805101EAD80109
:1011600008434FF0005101EA990108434FF08041D4
:1011700001EA5A01084340F04065294604F10C0099
:10118000FFF730F8054605F0806010B385F0806504
:1011900085F0004505F0004728F000403843206006
:1011A00029F00040384360602AF000403843A060D6
:1011B000294604F10C00FFF726F848B100BF0C489F
:1011C000001DFEF7F6FF00BF012005B0BDE8F08F5F
:1011D00004E0ABF1010BBBF1000FAAD100BF00BFCF
:1011E00003480830FEF7E5FF00BF0020EDE70000F0
:1011F0008407002000030020F0B506460C46154683
:10120000FF2C01D2FF2D01D30020F0BD00220023CE
:101210001AE0012098403040A0B1214610E002EBD6
:10122000D1000B4F385C01F0070C012707FA0CF7CF
:10123000384302EBD107DFF818C00CF80700491C4F
:10124000A942ECD920325B1C042BE2D30120DCE75D
:10125000000700202DE9F05F8246894600204249C0
:10126000087080214148FFF7D7F81821404801F065
:1012700084FE80463C48006A3E49884208D00846C1
:10128000394908620846A0F802800120C8610FE0D1
:1012900035484088404506D03348A0F802800120F8
:1012A0003149C86104E03048C069401C2E49C8611A
:1012B0002D48C06901280BD100202B494870486097
:1012C0008860C8604FF480612B48FFF7A5F80FE0F5
:1012D00000270BE0284800EB0715E86800F0806065
:1012E00018B1E86820F04060E8607F1C402FF1D31F
:1012F0001D48C069012811D100F068F804461CB1EE
:1013000000F05EF8064600E000261748466100201F
:101310001549886108611949087002E000F056F823
:101320000446ECB1FE2200215046FFF765FFEF2294
:1013300011460F20FFF760FFFE2211460420FFF741
:101340005BFFFFF735FE8346074843695946C2698C
:101350000B48FFF7E5FEB9F1000F01D000F012F8DD
:101360002046BDE8F09F0000800700200007002015
:10137000983D00086B27A5E10003002078000020BD
:1013800000FF000310B50948007808B1012010BD26
:10139000012006490870FFF70BFE044600231A4699
:1013A00021460348FFF7BCFE0120F0E7800700203C
:1013B00001FF00030148406870470000001000E092
:1013C00001480068704700000C00002006480068D3
:1013D00040F08070044908600448006840F0010053
:1013E0000249086001207047FCED00E0001000E0B9
:1013F00010B50248FEF7D4FE10BD000081070020A2
:1014000070B5044600F0A6F906462546681C10B1E2
:1014100004480078054400BF00F09CF9801BA842F6
:10142000FAD370BD080000202DE9F84703460022DA
:1014300094466EE14FF0010808FA02F4D1F80080FA
:1014400008EA0400A0427DD1DFF8DCA2D1F80480D4
:10145000A8EB0A09D0453AD014DCB8F1030F50D0FC
:1014600009DCB8F1000F31D0B8F1010F1CD0B8F190
:10147000020F49D120E0B8F1110F18D0B8F1120FC6
:1014800042D11EE0B9F5881F25D006DCB9F5803FB2
:1014900020D0B9F5801F37D11AE0B9F5001F18D058
:1014A000B9F5041F30D117E0D1F80CC02DE0D1F808
:1014B0000C8008F1040C28E0D1F80C8008F1080C2D
:1014C00023E0D1F80C8008F10C0C1EE000BF00BF37
:1014D00000BF00BF00BF00BFD1F80880B8F1000F07
:1014E00002D14FF0040C0BE0D1F80880B8F1010FE5
:1014F00003D14FF0080C1C6102E04FF0080C5C6156
:1015000003E04FF0000C00E000BF00BFFF2801D84F
:10151000984601E003F104084646FF2802D84FEA46
:10152000820803E0A2F108084FEA88084746D6F887
:1015300000804FF00F0909FA07F928EA09080CFAA8
:1015400007F900E088E048EA0908C6F80080D1F809
:10155000048008F08058B8F1805F7DD100BFDFF8CB
:10156000CC81D8F8188048F00108DFF8C091C9F89C
:101570001880C846D8F8188008F00108CDF8008017
:1015800000BF00BF4FEAB9384FEA920958F8295016
:101590004FEA82784FEA18794FF00F0808FA09F8F5
:1015A00025EA0805DFF88881434502D14FF000089D
:1015B00016E0DFF88081434502D14FF001080FE0CB
:1015C000DFF87481434502D14FF0020808E0DFF8EC
:1015D0006C81434502D14FF0030801E04FF004084D
:1015E0004FEA82794FEA197908FA09F848EA0505BD
:1015F000DFF84C814FEA920948F82950D1F804806D
:1016000008F48038B8F5803F0AD1DFF83881D8F87F
:10161000008048EA0008DFF82C91C9F8008009E052
:10162000DFF82081D8F8008028EA0008DFF814915C
:10163000C9F80080D1F8048008F40038B8F5003FFC
:1016400010D1DFF8008108F10408D8F8008048EADA
:101650000008DFF8F09000E05AE009F10409C9F849
:1016600000800DE0DFF8DC8008F10408D8F8008085
:1016700028EA0008DFF8CC9009F10409C9F80080D5
:10168000D1F8048008F48018B8F5801F0ED1DFF877
:10169000B48008F10808D8F8008048EA0008DFF8AC
:1016A000A49009F10809C9F800800DE0DFF89480E2
:1016B00008F10808D8F8008028EA0008DFF88490CC
:1016C00009F10809C9F80080D1F8048008F400186D
:1016D000B8F5001F0ED1DFF86C8008F10C08D8F8BF
:1016E000008048EA0008DFF85C9009F10C09C9F8AD
:1016F00000800DE0DFF84C8008F10C08D8F800807D
:1017000028EA0008DFF83C9009F10C09C9F80080CC
:10171000521CD1F8008028FA02F8B8F1000F7FF4CB
:1017200089AEBDE8F88700000000111000100240EB
:1017300000080140000C014000100140001401406D
:1017400008000140000401400AB1016101E00B04FE
:1017500003617047014800687047000000000020E6
:101760000348006803490978084401490860704744
:10177000000000200800002010B50848006840F074
:10178000100006490860032000F0CAF80F2000F09E
:1017900007F800F02BF8002010BD000000200240E8
:1017A00070B504460E4800784FF47A71B1FBF0F042
:1017B0000C490968B1FBF0F5284600F073FF08B149
:1017C000012070BD102C07D200222146501E00F0CF
:1017D00069F80548046001E00120F2E70020F0E725
:1017E000080000200C0000200400002008B500BF05
:1017F0001148806940F001000F49886108468069FE
:1018000000F00100009000BF00BF00BF0846C069A3
:1018100040F08050C8610846C06900F080500090D8
:1018200000BF00BF00BF0549486820F0E06040F0FD
:101830000070486000BF08BD001002400000014079
:1018400010B501460846002817DB00F01F030122EF
:101850009A400B4B440943F8242000BF00BF00BF4F
:10186000BFF34F8F00BF00BF00BF00BF00BF00BF6E
:10187000BFF36F8F00BF00BF00BF00BF10BD0000EF
:1018800080E100E001460846002809DB00F01F0364
:1018900001229A4043099B0003F1E023C3F8002191
:1018A00000BF70472DE9F05F80460D4616460027C1
:1018B00001F0D0F9074639462A46334601F00700C1
:1018C000C0F1070ABAF1040F02D94FF0040A01E08F
:1018D000C0F1070AD14600F1040ABAF1070F02D29B
:1018E0004FF0000A01E0A0F1030AD4464FF0010ACC
:1018F0000AFA09FAAAF1010A0AEA020A0AFA0CFA31
:101900004FF0010B0BFA0CFBABF1010B0BEA030BD5
:101910004AEA0B042146404601F0A4F9BDE8F09FD5
:1019200000BF00F00702064B19684FF6FF0319408D
:10193000044B0B4343EA0221014B196000BF70477F
:101940000CED00E00000FA0570B504460D460CB938
:10195000012070BD5A48006800F00700A8420ED26E
:101960005748006820F0070028435549086008469A
:10197000006800F00700A84201D00120E9E72078C4
:1019800000F0020002281DD1207800F00400042895
:1019900005D14C48406840F4E0604A4948602078EE
:1019A00000F00800082805D14648406840F460501F
:1019B000444948604348406820F0F000A16808436B
:1019C00040494860207800F0010078B36068012841
:1019D00006D13C48006800F4003090B90120B8E717
:1019E0006068022806D13748006800F0007040B9EE
:1019F0000120AEE73348006800F0020008B901207A
:101A0000A7E73048406820F00300616808432D498B
:101A10004860FFF79FFE064609E0FFF79BFE801B2C
:101A200041F28831884202D9032092E707E0254835
:101A3000406800F00C006168B0EB810FEDD12048E8
:101A4000006800F00700A8420ED91D48006820F089
:101A5000070028431A4908600846006800F007009C
:101A6000A84201D0012074E7207800F00400042887
:101A700007D11448406820F4E060E1680843114948
:101A80004860207800F00800082808D10D48406818
:101A900020F46050216940EAC1000A49486000F022
:101AA0003FF808494968C1F30311074A515CC8402F
:101AB0000649086006480068FFF772FE002048E704
:101AC0000020024000100240D03C00080C00002022
:101AD0000400002001480068704700000C0000204E
:101AE00000B5FFF7F7FF04494968C1F30221034A33
:101AF000515CC84000BD000000100240E03C0008FE
:101B000000B5FFF7E7FF04494968C1F3C221034A62
:101B1000515CC84000BD000000100240E03C0008DD
:101B2000F0B585B00FF26C0C9CE8E01001A8A0E8BD
:101B3000E0101CA52D680095002100220023002440
:101B40000020194D696801F00C05F5B1042D02D093
:101B5000082D19D101E0154819E001ADC1F3834604
:101B6000AC5D01F4803555B10F4D6D68C5F340454E
:101B70001DF805200D4D6543B5FBF2F302E00C4D59
:101B800004FB05F3184602E000BF084800BF00BF91
:101B900005B0F0BD02030405060708090A0B0C0D89
:101BA0000E0F1010010200000010024000127A0017
:101BB00000093D00F8B504460CB90120F8BD2078B5
:101BC00000F00100002878D0F848406800F00C00D0
:101BD00004280CD0F548406800F00C00082811D10A
:101BE000F248406800F48030B0F5803F0AD1EF48F9
:101BF000006800F4003000285FD0606800285CD1E5
:101C00000120DBE700BF6068B0F5803F06D1E74800
:101C1000006840F48030E549086028E0606858B901
:101C2000E248006820F48030E04908600846006817
:101C300020F4802008601AE06068B0F5A02F0BD176
:101C4000DA48006840F48020D849086008460068F7
:101C500040F4803008600AE0D448006820F4803006
:101C6000D24908600846006820F48020086000BF60
:101C7000606888B1FFF76EFD054606E0FFF76AFD74
:101C8000401B642801D9032098E7C848006800F485
:101C900000300028F2D010E0FFF75CFD054606E0BA
:101CA000FFF758FD401B642801D9032086E7BF4891
:101CB000006800F400300028F2D1207800F0020023
:101CC000022857D1B948406800F00C0050B1B7481D
:101CD000406800F00C00082818D1B448406800F4AF
:101CE000803098B9B148006800F0020020B1206946
:101CF000012801D0012061E7AC48006820F0F8001D
:101D0000616940EAC100A949086033E02069E8B18F
:101D10000120A7490860FFF71DFD054606E0FFF713
:101D200019FD401B022801D9032047E79F4800689E
:101D300000F002000028F2D09C48006820F0F80073
:101D4000616940EAC1009949086013E000209849A0
:101D50000860FFF7FFFC054606E0FFF7FBFC401BB1
:101D6000022801D9032029E79048006800F002000A
:101D70000028F2D1207800F0080008282DD1A069B1
:101D8000B8B101208B490860FFF7E4FC054606E086
:101D9000FFF7E0FC401B022801D903200EE783482F
:101DA000406A00F002000028F2D0012000F0C0FDDF
:101DB00013E000207F490860FFF7CCFC054606E0F1
:101DC000FFF7C8FC401B022801D90320F6E677483C
:101DD000406A00F002000028F2D1207800F00400F0
:101DE000042873D100277148C06900F0805070B991
:101DF00000BF6E48C06940F080506C49C861084619
:101E0000C06900F08050009000BF00BF01276A4801
:101E1000006800F48070B0B96748006840F48070D2
:101E200065490860FFF796FC054606E0FFF792FC5F
:101E3000401B642801D90320C0E65F48006800F415
:101E400080700028F2D000BFE068012806D1574812
:101E5000006A40F001005549086227E0E06858B97F
:101E60005248006A20F00100504908620846006AA2
:101E700020F00400086219E0E06805280BD14B4807
:101E8000006A40F00400494908620846006A40F0D0
:101E9000010008620AE04548006A20F00100434959
:101EA00008620846006A20F00400086200BFE0688B
:101EB000A0B1FFF74FFC054609E0FFF74BFC401BC4
:101EC00041F28831884202D9032077E622E0374880
:101ED000006A00F002000028EFD012E0FFF73AFCA1
:101EE000054608E0FFF736FC401B41F28831884286
:101EF00001D9032062E62D48006A00F002000028A4
:101F0000F0D1012F05D12948C06920F08050274920
:101F1000C86100BFE069C8B32448406800F00C0005
:101F2000082860D0E069022848D1002020490866CE
:101F3000FFF710FC054606E0FFF70CFC401B0228EB
:101F400001D903203AE61948006800F00070002823
:101F5000F2D1206AB0F5803F07D11448406820F4E0
:101F60000030A168084311494860D4E908010843DA
:101F70000E49496821F4741108430C494860012056
:101F80000B490866FFF7E6FB054607E03DE0FFF773
:101F9000E1FB401B022801D903200FE6034800683B
:101FA00000F000700028F2D02FE000000010024086
:101FB0000000424280044242007000400020144968
:101FC0000866FFF7C7FB054606E0FFF7C3FB401BAB
:101FD000022801D90320F1E50E48006800F00070E6
:101FE0000028F2D111E0E069012800D1E6E50948B6
:101FF000466806F48031206A814204D106F47011EB
:10200000606A814201D00120D8E50020D6E50000B9
:10201000000042420010024010B504460CB90120F5
:1020200010BD606A38B96068B0F5827F00D105E004
:102030000021E16102E00021216161610021A162D2
:1020400094F8510028B9002084F85000204600F090
:1020500043F8022084F851002068006820F0400016
:1020600021680860A08800F48270218901F404418D
:102070000843A18901F400610843217C01F00201B9
:102080000843217D01F001010843218B01F4007117
:102090000843217F01F0380108432021095D01F048
:1020A00080010843218D01F4005108432168086034
:1020B0000421A06901EA1040216848602068C069D5
:1020C00020F400602168C86100206065012084F868
:1020D00051000020A4E7000010B586B0044600209F
:1020E00002900390049005901949206888422DD1F0
:1020F00000BF1848806940F480501649886108463E
:10210000806900F48050019000BF00BF00BF084606
:10211000806940F0040088610846806900F004008E
:10212000019000BF00BFA020029002200390032076
:10213000059002A90848FFF777F940200290002097
:102140000390049002A90448FFF76EF906B010BD91
:102150000030014000100240000801402DE9F84322
:102160000446884616461D464FF000096068B0F5E3
:10217000827F0DD1A06858B9042084F851003346FD
:10218000424641462046009500F077F9BDE8F883C5
:1021900000BF94F85000012801D10220F6E7012089
:1021A00084F8500000BFFFF7D5FA074694F85100B5
:1021B000012802D04FF002097EE0B8F1000F00D0F4
:1021C00016B94FF0010977E0042084F8510000208F
:1021D0006065C4F83880A687E6872063A086E0861D
:1021E00020646064A068B0F5004F0BD120680068DF
:1021F00020F04000216808602068006820F48040DA
:10220000216808602068006800F04000402805D080
:102210002068006840F0400021680860E068F8B974
:102220001AE02068806800F0010050B12068007B4F
:10223000A16B0870A06B401CA063E08F401EE0877C
:102240000AE0FFF787FAC01BA84201D3681C00B957
:1022500015B94FF003092FE0E08F0028E1D11EE00F
:102260001AE02068806800F0010050B12068C06862
:10227000A16B0880A06B801CA063E08F401EE087EC
:102280000AE0FFF767FAC01BA84201D3681C00B937
:1022900015B94FF003090FE0E08F0028E1D13A466D
:1022A0002946204600F062FB08B120206065606D81
:1022B00008B14FF0010900BF012084F8510000BFB0
:1022C000002084F8500000BF48465FE72DE9F84F32
:1022D0000446884616461D464FF0000A00BF94F893
:1022E0005000012802D10220BDE8F88F012084F8B7
:1022F000500000BFFFF72EFA0746B14694F8510090
:10230000012802D04FF0020AADE0B8F1000F00D072
:1023100016B94FF0010AA6E0032084F8510000200E
:102320006065C4F83080A686E686A063A087E08753
:1023300060642064A068B0F5004F0BD1206800688D
:1023400020F04000216808602068006840F4804068
:10235000216808602068006800F04000402805D02F
:102360002068006840F0400021680860E068B0F52F
:10237000006F2FD1606810B1B9F1010F09D1206B46
:1023800000882168C860206B801C2063E08E401E9E
:10239000E0861BE02068806800F0020002280AD175
:1023A000206B00882168C860206B801C2063E08E51
:1023B000401EE0860AE0FFF7CDF9C01BA84201D31A
:1023C000681C00B915B94FF0030A4CE0E08E0028F4
:1023D000E0D12EE0606810B1B9F1010F09D1206B96
:1023E000007821680873206B401C2063E08E401E3B
:1023F000E0861BE02068806800F0020002280AD115
:10240000206B007821680873206B401C2063E08EED
:10241000401EE0860AE0FFF79DF9C01BA84201D3E9
:10242000681C00B915B94FF0030A1CE0E08E0028C3
:10243000E0D13A462946204600F0D4FA08B12020DF
:102440006065A06850B900BF002000902068C06897
:10245000009020688068009000BF00BF606D08B1E8
:102460004FF0010A00BF012084F8510000BF002096
:1024700084F8500000BF504636E72DE9FF5F044660
:10248000884691461D460E9E012002900020019034
:1024900000BF94F85000012803D1022004B0BDE829
:1024A000F09F012084F8500000BFFFF753F9074662
:1024B00094F851B060680390AA46BBF1010F0BD0AD
:1024C0000398B0F5827F04D1A06810B9BBF1040F66
:1024D00002D002200190DBE0B8F1000F03D0B9F187
:1024E000000F00D015B901200190D1E094F85100FF
:1024F000042802D0052084F8510000206065C4F84B
:102500003890E587A587C4F83080E586A5862064E5
:1025100060642068006800F04000402805D0206812
:10252000006840F0400021680860E068B0F5006F86
:102530004AD1606810B1BAF1010F09D1206B00884F
:102540002168C860206B801C2063E08E401EE086FE
:1025500033E02068806800F00200022810D1E08E8D
:1025600070B1029801280BD1206B00882168C860E7
:10257000206B801C2063E08E401EE08600200290CD
:102580002068806800F0010068B1E08F58B12068D1
:10259000C068A16B0880A06B801CA063E08F401E08
:1025A000E08701200290FFF7D5F8C01BB04204D3AA
:1025B000701C10B1032001906AE0E08E0028C8D1A1
:1025C000E08F0028C5D14AE0606810B1BAF1010F70
:1025D00009D1206B007821680873206B401C2063B0
:1025E000E08E401EE08634E02068806800F0020043
:1025F000022810D1E08E70B1029801280BD1206B17
:10260000007821680873206B401C2063E08E401E18
:10261000E086002002902068806800F0010068B128
:10262000E08F58B12068C068A16B0870A06B401C97
:10263000A063E08F401EE08701200290FFF78AF838
:10264000C01BB04201D3701C00B916B90320019021
:102650001EE0E08E0028C7D1E08F0028C4D13A46A2
:102660003146204600F0BEF920B101200190202023
:1026700060650DE0A06850B900BF002000902068A0
:10268000C068009020688068009000BF00BF00BF55
:10269000012084F8510000BF002084F8500000BFE2
:1026A0000198FBE670B504462546681EB0F1807FB0
:1026B00001D301200FE0681E4FF0E02148610F2197
:1026C0004FF0FF3000F0CEFA00204FF0E02188619B
:1026D00007200861002070BD10B504460CB9012028
:1026E00010BDA06900B100E000BF94F83D0028B91A
:1026F000002084F83C00204600F028F8242084F8CC
:102700003D002068C06820F400502168C860204661
:1027100000F020FA2068006920F4904021680861E8
:102720002068406920F02A00216848612068C0685C
:1027300040F400502168C86000202064202084F804
:102740003D0084F83E000020CAE7000010B586B0C6
:102750000446002002900390049005901A492068D6
:1027600088422ED100BF1948806940F48040174943
:1027700088610846806900F48040019000BF00BF76
:1027800000BF0846806940F00400886108468069FF
:1027900000F00400019000BF00BF48150290022025
:1027A00003900320059002A90948FEF73DFE4FF46F
:1027B0008060029000200390049002A90448FEF774
:1027C00033FE06B010BD000000380140001002408A
:1027D0000008014000BFFEE700B585B00020019071
:1027E00002900390049000BF2B48806940F02000C5
:1027F000294988610846806900F02000009000BFE8
:1028000000BF00BF0846806940F0040088610846A8
:10281000806900F00400009000BF00BF00BF0846C0
:10282000806940F0080088610846806900F008006F
:10283000009000BF00BF002210211848FEF784FF5F
:1028400000224FF400511648FEF77EFF1020019041
:1028500001200290002003900220049001A90F485B
:10286000FEF7E2FD012001900E4802900020039047
:1028700001A90B48FEF7D8FD4FF40050019001204C
:102880000290002003900220049001A90448FEF762
:10289000CBFD05B000BD0000001002400008014063
:1028A000000C01400000111010B50E480E490860E0
:1028B0004FF48270486000210B488160C160016163
:1028C00041614FF4007181611821C16100210162F1
:1028D000416281620A21C162FFF79EFB08B1FEF7E7
:1028E00050FB10BD003001409400002010B50B4893
:1028F0000B4908604FF4E1304860002108488160CE
:10290000C16001610C21416100218161C161FFF75A
:10291000E3FE08B1FEF735FB10BD000000380140B2
:10292000EC00002000BFFEE700BFFEE7704700009C
:1029300008B508490968C9084FF47A72B1FBF2F189
:102940004143009100BF00BF00994A1E0092002938
:10295000F9D108BD0C0000200A460021036899B295
:102960004FF6C7731940114301607047F8B504462C
:102970000E4615466068B0F5827F0DD1A068B0F5AF
:10298000004F03D0A068B0F5806F05D120680068C3
:1029900020F04000216808606068B0F5827F11D1A6
:1029A000A068B0F5806F0DD133460022012120468A
:1029B000009500F02BF898B1606D40F02000606544
:1029C0000320F8BD3346002280212046009500F008
:1029D0001DF828B1606D40F0200060650320F0E72D
:1029E0000020EEE7F8B504460D4616462B460022B9
:1029F00080212046009600F009F828B1606D40F073
:102A0000200060650320F8BD0020FCE72DE9F84FA9
:102A100004460D4690461E46DDF82890FEF79AFEC5
:102A2000A0EB0900371AFEF795FE82462C48006895
:102A3000C0F3CB307843009045E0701C002842D0B2
:102A4000FEF788FEA0EB0A00B84200D2A7BB2068C0
:102A5000406820F0E000216848606068B0F5827F3F
:102A60000DD1A068B0F5004F03D0A068B0F5806F1D
:102A700005D12068006820F0400021680860A06A45
:102A8000B0F5005F0DD100BF2068006820F4005051
:102A9000216808602068006840F4005021680860E0
:102AA00000BF012084F8510000BF002084F85000CE
:102AB00000BF0320BDE8F88FFFE7009800B90027AA
:102AC0000098401E0090206880682840A84201D1EC
:102AD000012000E000204045AFD10020EAE70000DF
:102AE0000C000020704710B5FEF73AFE10BD00B58F
:102AF0008FB0282105A8FDF78FFC14216846FDF74B
:102B00008BFC012005900004069000200790012016
:102B1000099002200C90C1030D9181040E9105A82B
:102B2000FFF748F808B1FEF72CFA0F2000900220BA
:102B30000190002002904FF48060039000200490E8
:102B400001216846FEF700FF08B1FEF71AFA0FB040
:102B500000BD704770B504462168096921F44051F1
:102B6000E2681143226811612269A1681143626918
:102B700041EA02052168C96841F20C629143294388
:102B80002268D1602168496921F44071A26911432A
:102B9000226851612D4A2168914202D1FEF7B0FFAF
:102BA00001E0FEF79DFF00EBC00101EB0011626840
:102BB0009200B1FBF2F100EBC00202EB001263687D
:102BC0009B00B2FBF3F26423B2FBF3F202EBC2030D
:102BD00003EB0212A1EB8201322202EB011164220B
:102BE000B1FBF2F101F0F00100EBC00202EB0012C8
:102BF00063689B00B2FBF3F26423B2FBF3F201EBD8
:102C0000021200EBC00101EB001163689B00B1FBF5
:102C1000F3F100EBC00303EB00136668B600B3FBEF
:102C2000F6F36426B3FBF6F303EBC30606EB0313DC
:102C3000A1EB8301322303EB01116423B1FBF3F118
:102C400001F00F0111442268916070BD003801400D
:102C500000BFFEE702480068C0F302207047000092
:102C60000CED00E010B5002804DB0A07130E054A3E
:102C7000135406E00A07140E034A00F00F031B1F4B
:102C8000D45410BD00E400E018ED00E010B50022BF
:102C900002212C2000F05FFD022211462C2000F0C2
:102CA0005AFD10BD10B504466D2240F606012E20D7
:102CB00000F051FD3CB140F2076241F606012E20C2
:102CC00000F024FD06E041F2076241F606012E20E5
:102CD00000F01CFD10BD10B5002000F006F8002229
:102CE0000421362000F012FD10BD38B504466B46B5
:102CF00002220021362000F0E5FB0F2C5FD2DFE836
:102D000004F012081B5E5E5E5E24335E5E40474E3A
:102D1000570000208DF800009DF8010000F0FE0033
:102D20008DF801004CE09DF8000000F0FC0040F040
:102D300001008DF8000043E09DF8000000F0FC0069
:102D400040F002008DF800003AE09DF8000000F02D
:102D5000B30040F048008DF800009DF8010040F0FD
:102D600080008DF801002BE09DF8000000F0B3001A
:102D70008DF800009DF8010000F07F008DF8010043
:102D80001EE09DF8010040F002008DF8010017E000
:102D90009DF8010000F0FD008DF8010010E09DF8A5
:102DA000000000F0CF0040F020008DF8000007E0A8
:102DB00001208DF8000003208DF8010000E000BF25
:102DC00000BF6B4601220021362000F0CEFC0DF141
:102DD000010301221146362000F0C7FC38BD10B5B2
:102DE0000E20FFF782FF4FF4004206212D2000F055
:102DF0008DFC012000F0E2F80120FFF776FF10BD06
:102E000070B50446224604212D2000F07FFC0322E9
:102E100006212D2000F09FFC002206212D2000F02D
:102E20009AFC0A212D2000F026FB0546284670BD9D
:102E300001466FF40040084420B1012804D0022864
:102E400006D103E0002070470020FCE70020FAE7ED
:102E50004FF0FF30F7E701466FF40040084420B11F
:102E6000012804D0022806D103E00020704700208A
:102E7000FCE70020FAE70020F8E701466FF4004085
:102E8000084420B1012804D0022806D103E0012023
:102E900070470120FCE70120FAE70020F8E7000076
:102EA00070B504460D4614B94FF0FF3070BD207860
:102EB0003A281AD10EA12046FDF7D6FA10B948F2E9
:102EC0000100F3E70CA12046FDF7CEFA10B948F255
:102ED0000200EBE70AA12046FDF7C6FA10B948F256
:102EE0000300E3E74FF0FF30E0E74FF0FF30DDE7AE
:102EF0003A535444494E00003A5354444F555400F9
:102F00003A5354444552520002466FF40040104474
:102F100020B1012805D0022809D105E04FF0FF308B
:102F200070474FF0FF30FBE74FF0FF30F8E74FF00E
:102F3000FF30F5E72DE9F04106460C461546984668
:102F40006FF40040304420B1012806D0022811D18E
:102F50000EE04FF0FF30BDE8F08105E014F8017B92
:102F6000384600F057FE6D1E002DF7D10020F2E725
:102F70000020F0E74FF0FF30EDE730B502464FF6A6
:102F8000FF7018E012F8015B80EA052008230FE0CB
:102F900000F400443CB14FF6FF7404EA400041F2F3
:102FA0002104604003E04FF6FF7404EA40005B1E1A
:102FB000002BEDD1491E0029E4D130BD10B50446E7
:102FC0002046FEF71DFA10BD10B5044614B10620C8
:102FD000FEF758FC10BD000010B50548006800F071
:102FE000010414B10620FEF72BFC204610BD0000A2
:102FF000140401402DE9F05F04464FF00009CA4671
:1030000025786079854931F810806078401EC6B215
:10301000042D01D0072D01D1012000E000208346BE
:10302000E07950B97E480068006940F480007C492E
:10303000096808614FEAE80807E079480068006914
:1030400020F48000764909680861207A744909688B
:10305000887273480068006920F44030704909683C
:1030600008616F4800680069217A4FF4403202EA33
:10307000014108436A4909680861694800680021FC
:103080000269042000F053FB424642F604012E2060
:1030900000F03CFB3046FFF705FE6248405D6249A8
:1030A00051F8202007212B2000F041FB5D48405DB6
:1030B0005E490A5C0B212B2000F04DFB5C4810F8A8
:1030C0000B200B21282000F046FB5648405D594953
:1030D00051F820200C21282000F029FBE0795649E6
:1030E00001EB8000A17930F811200221272000F0A7
:1030F0000DFB524830F816200421272000F006FB73
:10310000E07928B964220621272000F0FFFA17E0B1
:10311000A07804280AD110220621272000F0F6FA10
:1031200010222621272000F016FB09E0202206218C
:10313000272000F0EBFA28222621272000F00BFBA5
:103140003F4800EB0610E17850F8212008212720A5
:1031500000F0EDFA608910B941F2410060816289A6
:103160002021272000F0D2FA36480C2102682320C3
:1031700000F0DDFA3348001D30F81620042123202A
:1031800000F0C4FAA07950B1E0792F490A5C00211F
:10319000212000F0E0FA4FF003094FF0010A05F09A
:1031A0000F00F02101EA0511084361784FF4402235
:1031B00002EA81410843910001EA095108434FF4B2
:1031C000003101EA4A41084321794FF0F86202EAEE
:1031D000815108436179520102EAC16140EA010765
:1031E0003A4600211F2000F0A2FAA0786178084337
:1031F0000004E17940EA413009490968C86008489B
:1032000000680021C268082000F091FA42220021E3
:103210000D2000F0A0FABDE8F09F0000643D00081A
:1032200010000020E83C0008083D0008203D000890
:10323000263D0008F03C0008343D0008403D0008F1
:10324000443D0008283D0008303D00082DE9F041CC
:1032500004460025002700207B49096808757A4943
:103260000968487578490968C88277490968886299
:1032700075490968C8627449096808637249096830
:10328000486300F019F97149884202D08817BDE8F7
:10329000F08104F0020008B900F0DEF904F0020049
:1032A00010B104F0F80010B90020FFF71EFD042251
:1032B0000021242000F04FFA04F0020098B9042005
:1032C000FFF79EFD0746F8B2E0B1022212212D2041
:1032D00000F041FA5C480068C08A40F480505A49C6
:1032E0000968C8820EE03021282000F0C4F8B0F14F
:1032F000883F07D054480068C08A40F48050524943
:103300000968C88204F0020028B104F0020058B134
:1033100004F0080040B11E20FFF772FD85B2280AB4
:1033200049490968C87203E0002047490968C87222
:1033300004F0020030B905F01F0000B91025E8B212
:1033400000F07EF904F0100030B10620FFF758FDC0
:103350003D490968086003E000203B4909680860AE
:1033600004F0200030B10720FFF74AFD3649096814
:10337000486003E0002034490968486004F04000D8
:1033800030B10820FFF73CFD2F490968087203E0BF
:1033900000202D490968087204F0800030B109202E
:1033A000FFF72EFD28490968487203E000202649EE
:1033B0000968487204F00200D8B904F0010050B165
:1033C000FFF70DFD20480068C08A40F400601E49E8
:1033D0000968C88218E00521362000F039F8064651
:1033E0004FF6FF50064032460521362000F08EF998
:1033F0000AE004F0040038B913480068C08A40F4B9
:10340000006011490968C8820120FFF76EFC0022A4
:103410000A212C2000F09FF90021042000F02BF855
:10342000094909680861084800680069C0F301405B
:103430000549096888720021082000F01CF802493B
:103440000968C860002022E7100000203001CADEB1
:10345000F8B504460D460026A9B2A0B26B4602227A
:1034600000F030F89DF800009DF8011000EB0120FD
:1034700086B23046F8BDF8B505460E460027B1B213
:10348000A8B26B46042200F01DF8032404E01DF8E6
:10349000040000EB0727641E002CF8DA3846F8BD5C
:1034A00038B504460D46A9B2A0B26B46012200F021
:1034B00009F89DF8000038BD10B500210846FFF757
:1034C000DAFF10BD2DE9F84306460C46174698462C
:1034D00000252CB9F2B228466D1C0DF800201BE027
:1034E000F0B240F0400228466D1C0DF800207F2C01
:1034F00005DCE2B228466D1C0DF800200CE0E0B2BD
:1035000040F0800228466D1C0DF80020C4F3C7125D
:1035100028466D1C0DF80020A8B243463A4669467D
:1035200000F010FBBDE8F88370B504460D46164662
:1035300023462A4631461120FFF7C4FF70BD10B55F
:1035400004462346052200211520FFF7BBFF10BDCE
:1035500010B504462346052200211720FFF7B2FFCD
:1035600010BD10B5E0220321362000F0F4F8F0225F
:103570000321362000F0EFF810BD10B504462246B6
:1035800001210A2000F0D3F810BD10B504462246F0
:103590002421272000F0BAF810BD70B5054600219F
:1035A0001A20FFF768FF04466FF31304C5F31300F6
:1035B0000443224600211A2000F0B9F870BD10B56E
:1035C0000446224641F604012E2000F09FF810BD6B
:1035D00070B5044603210420FFF762FF0546002C66
:1035E00014DD224600210C2000F090F845F0100573
:1035F0000E480068006940F080500C490968086175
:103600002A460321042000F0A6F80EE025F010055C
:1036100006480068006920F0805004490968086184
:103620002A460321042000F096F870BD1000002007
:1036300010B5044622460021182000F067F810BD9E
:1036400070B5044604F01F0040F060052A460E21C4
:103650002B2000F080F870BD10B5FFF73CFB002276
:1036600011462C2000F052F8002206212C2000F0F8
:1036700072F8FFF70BFB00220321362000F06BF8F5
:103680000120FFF79BFCF0220321362000F063F8B5
:10369000002002490968487510BD00001000002094
:1036A0002DE9F041044600260025002704F0020021
:1036B00020B18025012014490968487504F00100F3
:1036C000C0B145F006052A4600210D2000F043F860
:1036D00003210F20FFF7BCFE074607F4816008B9FD
:1036E00000260EE0402200210D2000F034F84FF0BB
:1036F000FF3606E045F002052A4600210D2000F0C5
:103700002AF83046BDE8F08110000020F8B50546E3
:103710000E461446E0B28DF8000020128DF801002C
:10372000B1B2A8B26B46022200F01FF8F8BDF8B59E
:1037300006460F461446002504E0E0B20DF80500E9
:10374000240A6D1C042DF8DBB9B2B0B26B4604221A
:1037500000F00BF8F8BD37B504460D46A9B2A0B28B
:1037600002AB012200F001F83EBD2DE9F843064608
:103770000C461746984600253CB9F0B240F080024E
:1037800028466D1C0DF800201BE0F0B240F0C0028E
:1037900028466D1C0DF800207F2C05DCE2B228467F
:1037A0006D1C0DF800200CE0E0B240F080022846CD
:1037B0006D1C0DF80020C4F3C71228466D1C0DF8CF
:1037C0000020A8B243463A46694600F04BFABDE8ED
:1037D000F88370B504460E4615462819B0F5806F7B
:1037E00007DCA21E334629460920FFF7BEFF002052
:1037F00070BD4FF0FF30FBE72DE9F04104460D4668
:10380000164607480068C068204340EA855040EAF1
:10381000C6373A4600210820FFF789FFBDE8F0814E
:10382000100000206EA173A0FCF71CFD00F0C0F991
:1038300000F0E6F90120FFF709FD401C20B96FA058
:10384000FCF710FD00BFFEE770A0FCF70BFD00F0D9
:10385000CDF97148FFF7CEFB44F23400FFF7AFFE1D
:1038600044F23400FFF7E4FE9620FFF796FE40F6A0
:103870008C20FFF7ADFE0820FFF787FEAEE067481B
:1038800000786749887000220C20FFF7A2FF012210
:1038900000210C20FFF7B0FF0220FFF701FF61A01D
:1038A000FCF7E0FC00BF00210F20FFF7E4FD6049BA
:1038B0000860604908400028F5D058480078401C4E
:1038C000564908705A48008800F4804000287AD091
:1038D0004FF4814200210F20FFF729FF0021102023
:1038E000FFF7C9FD00F07F04142C04D8A1B2002218
:1038F0005148FFF719FE00204F4988700A224F49AE
:103900004D48FCF718FD00285BD100F0D5F84C4A73
:1039100003C200F0BBF84B4A03C24A48D0E900207A
:10392000494BD21840F10000010641EA1225284611
:10393000FFF723FE25F001000021090241EA106192
:10394000020244F23403D21841F100013F48C0E9B9
:1039500000213B480CC83E4800F07EF839480CC8AE
:103960003B48001D00F078F838480CC8384808304B
:1039700000F072F82948007835490A398870002229
:103980001820FFF726FF012200211820FFF734FF3F
:103990000120FFF785FE064696B900BF00210F20E3
:1039A000FFF769FD00F080000028F7D08022002199
:1039B0000F20FFF7BCFE19480078401C174908701B
:1039C00000BF07E0FFE7234A00210F20FFF7AFFE0B
:1039D000FFF7C7FD4FF47A70FDF712FD4FE70000C7
:1039E00044532054575220494E49542076312E32A8
:1039F0000000000025730D0A00000000494E4954E4
:103A0000204641494C45440D0A000000494E4954A6
:103A1000204F4B0D0A000000180000205700002026
:103A20002400002073656E64206F6B0D0A00000097
:103A30005800002000D0272468010020300000201A
:103A4000600000206800002000001C0C70000020B6
:103A5000490000200090272470B50146002005E0B1
:103A60000A54140A44EA03621B0A401C0428F7DBC8
:103A700070BD8A68002A01DCFCF798BE521E8A607D
:103A80004A68C0B2531C4B60107070477CB500216F
:103A90000C460D466846FFF752FD042607E0280253
:103AA00040EA146524021DF806000443761E002E29
:103AB000F5DA204629467CBD7CB500210C460D4632
:103AC0006846FFF745FD042607E0280240EA146532
:103AD00024021DF806000443761E002EF5DA204667
:103AE00029467CBD01210F20FDF7B4FBFDF744FE04
:103AF000FEF7FDFFFEF770FEFEF7D6FEFEF7F6FEC0
:103B000003A0FCF7AFFBFFF78DFE00BFFEE7000050
:103B10004457313030302055574220696320706F50
:103B20007274206F6E2042656172506920626F610D
:103B30007264204279204D63756C6F7665723636FB
:103B4000360D0A002DE9F0470446884615461E4604
:103B5000FFF742FA8146002210211348FDF7F4FDD9
:103B60004FF6FF73224641461048FEF7AFFB07466B
:103B70001FB14FF0FF30BDE8F087AAB24FF6FF73D8
:103B800031460A48FEF7EAFA074617B14FF0FF3010
:103B9000F1E7012210210448FDF7D6FD4846FFF762
:103BA00013FA0020E7E7000000080140940000201D
:103BB0001FB50020009001900290039000224FF466
:103BC00080510948FDF7C0FD4FF48050009000205F
:103BD000019002900220039069460348FDF724FCFF
:103BE0000220FDF70DFC1FBD000C014010B503497C
:103BF00008680821FEF7B0FE10BD00009400002008
:103C000010B5034908682021FEF7A6FE10BD00008C
:103C10009400002010B504460F480068082802D31D
:103C20004FF0FF3010BD0C4802680068401C0A4B82
:103C300018600A48845418460068082801D00A2CE5
:103C400008D10548054902680548FDF7DDF900205F
:103C5000014908602046E5E77C0000208000002044
:103C600000FE02002DE9F0470446884615461E4630
:103C7000FFF7B2F98146002210211348FDF764FDD9
:103C80004FF6FF73224641461048FEF71FFB0746DA
:103C90001FB14FF0FF30BDE8F087AAB24FF6FF73B7
:103CA00031460A48FEF712FB074617B14FF0FF30C6
:103CB000F1E7012210210448FDF746FD4846FFF7D1
:103CC00083F90020E7E7000000080140940000208D
:103CD00000000000000000000102030406070809BC
:103CE00000000000010203040000010203040005BB
:103CF000405C0000A05C0400C06C0800805C040014
:103D0000E03F1E00E07D1E00070400090805400892
:103D100009104008080540081D0400081D0400089B
:103D20001E265626BEBED8BC07A9022570889B88D1
:103D3000401008000A001600010006000100020001
:103D400087008D003C001A3152001A339A001A3550
:103D50001D011A376B003B31BE003B335E013B3522
:103D600096023B37000098599859EA518E421E45F9
:103D7000142E0080EA51F4283233E03A703DE03AE4
:103D8000C235842BC2353233C235C235AE47E03A34
:103D90005038A230503800000100010140000000FE
:103DA0000003002000070020800700200000000022
:103DB0003A535444494E003A5354444F5554003AF0
:103DC0005354444552520000E83D000800000020D2
:103DD00094000000280100087C3E000894000020A8
:103DE000140D000044010008000000001000000055
:103DF000010000000024F400300100200000000059
:103E0000020108020909010000002104418800CADA
:103E1000DE57415645210000418800CADE5645570D
:103E200041100200000000418800CADE574156459B
:103E3000230000000000000000000000000000005F
:103E40000000000000000000000000000000000072
:103E50000000000000000000000000000000000062
:103E60000000000000000000000000000000000052
:0C3E700000000000000000000000000046
:0400000508000225C8
:00000001FF
