:020000040800F2
:10000000A01A002021020008831700087B140008B2
:10001000811700085B0400081D1B00080000000099
:10002000000000000000000000000000890100083E
:10003000BD05000800000000CD01000801180008FF
:100040003B0200083B0200083B0200083B0200089C
:100050003B0200083B0200083B0200083B0200088C
:100060003B0200083B0200083B0200083B0200087C
:100070003B0200083B0200083B0200083B0200086C
:100080003B0200083B0200083B0200083B0200085C
:100090003B0200083B0200083B0200083B0200084C
:1000A0003B0200083B0200083B0200083B0200083C
:1000B0003B0200083B0200083B0200083B0200082C
:1000C0003B0200083B0200083B0200083B0200081C
:1000D0003B020008F91A0008051B0008111B000864
:1000E0003B0200083B0200083B02000800F002F857
:1000F00000F03AF80AA090E8000C82448344AAF188
:100100000107DA4501D100F02FF8AFF2090EBAE885
:100110000F0013F0010F18BFFB1A43F0010318473B
:10012000E430000004310000103A24BF78C878C1E0
:10013000FAD8520724BF30C830C144BF04680C60ED
:10014000704700000023002400250026103A28BF35
:1001500078C1FBD8520728BF30C148BF0B60704739
:100160001FB51FBD10B510BD00F03DF91146FFF7DA
:10017000F7FF01F0E3FE00F05BF903B4FFF7F2FFD5
:1001800003BC00F063F90000224B19680868B0E86E
:10019000F00F80F30988BFF36F8F4FF0000080F3FA
:1001A00011884EF00D0E70470000000006480068F0
:1001B000006880F3088862B661B6BFF34F8FBFF363
:1001C0006F8F00DF00BF00BF08ED00E0EFF3098094
:1001D000BFF36F8F0F4B1A6820E9F00F106008B55E
:1001E0004FF0500080F31188BFF34F8FBFF36F8F34
:1001F00002F0C2FA4FF0000080F31188BDE8084019
:1002000019680868B0E8F00F80F30988BFF36F8FB2
:10021000704700BF1C000020EFF30580704700000E
:100220000948804709480047FEE7FEE7FEE7FEE78A
:10023000FEE7FEE7FEE7FEE7FEE7FEE704480549C6
:10024000054A064B7047000077180008ED000008CB
:10025000A0140020A01A0020A0160020A016002044
:10026000032A40F2308010F0030C00F0158011F8E2
:10027000013BBCF1020F624498BF11F801CB00F8BA
:10028000013B38BF11F8013BA2F1040298BF00F80E
:1002900001CB38BF00F8013B11F0030300F02580CB
:1002A000083AC0F0088051F8043B083A51F804CBF2
:1002B000A0E80810F5E7121D5CBF51F8043B40F8B8
:1002C000043BAFF30080D20724BF11F8013B11F8C3
:1002D00001CB48BF11F8012B24BF00F8013B00F807
:1002E00001CB48BF00F8012B704710B5203AC0F091
:1002F0000B80B1E81850203AA0E81850B1E8185027
:10030000A0E81850BFF4F5AF5FEA027C24BFB1E863
:100310001850A0E8185044BF18C918C0BDE81040D4
:100320005FEA827C24BF51F8043B40F8043B08BFDD
:100330007047D20728BF31F8023B48BF11F8012BA4
:1003400028BF20F8023B48BF00F8012B70474FF050
:1003500000020429C0F0128010F0030C00F01B8092
:10036000CCF1040CBCF1020F18BF00F8012BA8BFA0
:1003700020F8022BA1EB0C0100F00DB85FEAC17C64
:1003800024BF00F8012B00F8012B48BF00F8012B17
:1003900070474FF0000200B5134694469646203948
:1003A00022BFA0E80C50A0E80C50B1F12001BFF42E
:1003B000F7AF090728BFA0E80C5048BF0CC05DF894
:1003C00004EB890028BF40F8042B08BF704748BFE2
:1003D00020F8022B11F0804F18BF00F8012B704756
:1003E000704770477047754600F02CF8AE46050020
:1003F0006946534620F00700854618B020B5FFF740
:100400001DFFBDE820404FF000064FF000074FF001
:1004100000084FF0000B21F00701AC46ACE8C00922
:10042000ACE8C009ACE8C009ACE8C0098D4670472B
:1004300010B50446AFF300802046BDE81040FFF73A
:100440009CBE00000048704740140020014918205D
:10045000ABBEFEE7260002007047FEE72DE9F05F25
:10046000244D3BE024480078A8B3DFF88890DFF8FB
:100470008C80A9F11809DFF888B000246FF00E070E
:1004800009F10C0A08EB440636F9680F02F0A2FBEA
:10049000394602F02AFD042102F027FD49F8240024
:1004A000B6F9060002F096FB394602F01EFD5946E9
:1004B00002F0A8FB4AF82400B6F9120002F08AFB09
:1004C000394602F012FD0F4902F09CFB45F824006A
:1004D000641C032CD6DB012002F0EAF8A86810F0B7
:1004E000FF4FBFD00349A8683C3908600020A860CE
:1004F000BDE8F09FFC1100208700002008130020B9
:100500000000FA44DB0F49402DE9F047002704259D
:10051000DFF8A080DFF8A09050383E4601F1060ACF
:10052000102845D2DFE800F01108130C1517191B2D
:100530001D1F21444444442334240325402702E062
:100540003D2403252E27012613E0302411E0372413
:100550002BE03A2429E041240BE0452409E049241A
:1005600007E04D2405E0512403E0552401E0D8F8CC
:100570002440032A19D04DB16A0009EB4400FFF76B
:100580006FFED8F81420294620469047002E0FD041
:10059000720009EB47005146FFF762FE31463846CC
:1005A000D8F81420BDE8F047104703250026E3E7FC
:1005B000BDE8F0878C00002008130020704702F08F
:1005C00077B872B6FEE710B590F821100022022924
:1005D00005D00421816380F82020012010BD01682E
:1005E0000B6823F00E030B6001680B6823F0010316
:1005F0000B6090F84030C46B012101FA03F3636093
:1006000080F8211080F82020104610BD10B590F819
:1006100021100024022903D00421816301243DE03C
:1006200001680A6822F00E020A6001680A6822F076
:1006300001020A601A4A0168914201D1012121E0B8
:10064000174A1432914201D110211BE0144A28327A
:10065000914201D1891515E0114A3C32914201D1F4
:1006600089140FE00E4A5032914202D14FF480318A
:1006700008E00B4A6432914202D14FF4801101E04C
:100680004FF08071064A083A5160012180F821102C
:10069000002180F82010416B01B18847204610BD31
:1006A000080002402DE9F84FDFF8B8910024A9F1C5
:1006B000040B23460F2709F1040AABF1040EC9E02D
:1006C0000125A5402A40AA427DD1674ED1F804C039
:1006D000ACEB0608B44532D014DCBCF1030F3AD0C1
:1006E00009DCBCF1000F2AD0BCF1010F1CD0BCF119
:1006F000020F31D11DE0BCF1110F17D0BCF1120F68
:100700002AD119E0B8F5881F19D006DCB8F5803F6A
:1007100015D0B8F5801F1FD111E0B8F5001F0ED01D
:10072000B8F5041F18D10AE0CB6815E0CB681B1D93
:1007300012E0CB6808330FE0CB680C330CE08B6819
:100740002BB1012B4FF0080303D0456104E00423D3
:1007500002E0056100E00023FF2A01D8064601E01F
:1007600000F104064FEA840501D9A5F12005D6F869
:10077000008007FA05FC28EA0C0803FA05F548EAA8
:100780000508C6F800804D68ED0062D5374DAE69AA
:1007900046F00106AE61AD6924F0030605F00105DF
:1007A0000095334D06EB050CDCF80850A607360F14
:1007B00007FA06F825EA0805DFF8B880404503D1B6
:1007C0004FF0000817E044E0DFF8AC80404502D16C
:1007D0004FF001080FE0DFF8A480404502D14FF050
:1007E000020808E0DFF89880404502D14FF0030886
:1007F00001E04FF0040808FA06F848EA0508CCF8CA
:1008000008804D68D9F80060ED024D4601D51643C9
:1008100000E096432E604D68DAF80060AD02554660
:1008200001D5164300E096432E604D68DBF800606A
:10083000AD035D4601D5164300E096432E604D683A
:10084000DEF80060ED03754601D5164300E09643DF
:100850002E60641C0D682A46E5407FF431AFBDE888
:10086000F88F000008040140000011100010024041
:100870000000014000080140000C01400010014050
:1008800000140140C26821EA02030A4043EA02411F
:10089000016170470AB1016170470904FBE700007C
:1008A00001488068704700000C0000200248816801
:1008B00002781144816070470C000020074810B591
:1008C000016841F010010160032000F07BF80F2067
:1008D00000F006F800F024F8002010BD00200240CF
:1008E00070B50D4D04464FF47A712878B1FBF0F0E5
:1008F0000A490968B1FBF0F000F0E2FA48B9102C9F
:1009000007D200222146501E00F03CF800206C6007
:1009100070BD012070BD00000C00002018000020F8
:100920000F4808B5816941F001018161816901F0D9
:1009300001010091C16941F08051C161C06900228B
:1009400000F0805000900F21901E00F01BF8054829
:10095000416821F0E06141F00071416008BD000094
:100960000010024000000140002809DB00F01F02D7
:10097000012191404009800000F1E020C0F8001101
:1009800070470000F0B40E4B1B680C46C3F3022303
:10099000C3F10705042D00D90425191D072901D22B
:1009A000002300E0DB1E012606FA05F1491E214066
:1009B00099409E40761E16403143F0BC01F00EBABD
:1009C0000CED00E0064900F0070208684FF6FF034F
:1009D000184040EA0220034A1043086070470000B4
:1009E0000CED00E00000FA052DE9F0470F46050088
:1009F00061D0434E306800F00700B84209D2306839
:100A000020F0070038433060306800F00700B8423B
:100A100051D128683B4C810712D5400703D5606847
:100A200040F4E06060602878000703D5606840F417
:100A3000605060606068A96820F0F0000843606062
:100A40002878C00728D06868012810D021680228BB
:100A500010D0890700292EDA616821F003010143D3
:100A60006160FFF71DFF804641F288390DE0216883
:100A70008903EFE78901EDE7FFF712FFA0EB08011B
:100A8000494502D90320BDE8F0876068696800F035
:100A90000C00B0EB810FEFD1306800F00700B842D6
:100AA0000BD9306820F0070038433060306800F020
:100AB0000700B84201D00120E5E72878400705D5B6
:100AC0006068E96820F4E060084360602878000707
:100AD00006D56068296920F4605040EAC100606072
:100AE00000F038F86168084AC1F30311515CC8404E
:100AF0000649086006480068FFF7F2FE0020C2E7DA
:100B00000020024000100240CE2F000818000020F4
:100B1000100000200448054900684968044AC1F3F0
:100B20000221515CC84070471800002000100240AC
:100B3000DE2F00080448054900684968044AC1F3EB
:100B4000C221515CC84070471800002000100240CC
:100B5000DE2F00080E4A51680E4801F00C03042BEA
:100B600011D0082B0FD10C48C1F38343C903C05CDB
:100B70000AD55168084AC1F34041921E515C054AAA
:100B80005043B0FBF1F07047044948437047000000
:100B90000010024000127A00BE2F000800093D003C
:100BA0002DE9F84F040070D02078C04DC00749D01F
:100BB0006868C0F38100012807D06868C0F381002D
:100BC000022809D16868C00306D52868800339D592
:100BD00060680028E7D035E06068B0F5803F0BD052
:100BE00010B1B0F5A02F11D0286820F48030286013
:100BF000286820F4802002E0286840F480302860D3
:100C0000606890B1FFF74CFE06460AE0286840F4A1
:100C100080202860F0E700BFFFF742FE801B6428B9
:100C200073D828688003F7D50CE0FFF739FE064635
:100C300005E000BFFFF734FE801B6428F0D8286869
:100C40008003F7D420789A4E80074FF001094FF0C7
:100C5000000839D5686810F00C0F07D06868C0F339
:100C60008100022809D16868C00306D4286880077B
:100C700014D52069012808D110E02069B0B1C6F868
:100C80000090FFF70DFE074605E00AE1FFF708FEBA
:100C9000C01B0228C4D828688007F7D52868616976
:100CA00020F0F80040EAC10028600DE0C6F800809E
:100CB000FFF7F6FD074604E0FFF7F2FDC01B022830
:100CC00023D828688007F7D4207800072CD57948E6
:100CD000A169D9B1C0F80090FFF7E2FD074604E032
:100CE000FFF7DEFDC01B02280FD8686A8007F7D522
:100CF00071484FF4FA510068B0FBF1F0009000BF6A
:100D00000098411E0091FAD20EE080E0C0F8008009
:100D1000FFF7C6FD074604E0FFF7C2FDC01B02282F
:100D200075D8686A8007F7D42078400760D5E869ED
:100D30000027C00008D4E86940F08050E861E86905
:100D4000012700F0805000905C480168C90513D469
:100D50000168834641F480710160FFF7A1FD82467E
:100D600006E000BFFFF79CFDA0EB0A0064284ED808
:100D7000DBF80000C005F5D5E06801280AD008B10D
:100D8000052813D0286A20F001002862286A20F084
:100D9000040002E0286A40F001002862E06841F2A5
:100DA000883B98B1FFF77CFD82460BE0286A40F053
:100DB00004002862EEE700BFFFF772FDA0EB0A0116
:100DC00059455AD8286A8007F6D50CE0FFF768FD28
:100DD000824605E0FFF764FDA0EB0A0159454CD8B7
:100DE000286A8007F6D41FB1E86920F08050E861D6
:100DF000E06988B36968C1F38101022944D00228FF
:100E0000C6F8608004D0FFF74BFD044638E034E0BC
:100E1000FFF746FD074604E0FFF742FDC01B02282E
:100E20002BD828688001F7D4206AB0F5803F05D11F
:100E30006868A16820F4003008436860D4E90801BC
:100E40000843696821F4741108436860C6F860902B
:100E5000FFF726FD044606E025E000BFFFF720FD72
:100E6000001B022809D828688001F7D51BE000BFC5
:100E7000FFF716FD001B022802D90320BDE8F88FFA
:100E800028688001F4D40EE00128F7D06868226A4F
:100E900000F48031914204D1616A00F470108842FC
:100EA00001D00120EAE70020E8E70000001002403E
:100EB00000004242800442421800002000700040BE
:100EC00010B5401EB0F1807F01D3012010BD4FF05E
:100ED000E02460610F21601700F080FF0020A06116
:100EE00007202061002010BD70477047F8B50168E9
:100EF00004460868CA684B6910F00F0F4FF00005F0
:100F000059D003F0010602F49077374365D0C1074A
:100F100005D0D10503D5616C41F001016164410741
:100F200005D5D90703D0616C41F0020161648107E6
:100F300005D5D90703D0616C41F004016164010754
:100F400007D502F02001314303D0616C41F0080164
:100F50006164616C00293AD0800604D5900602D500
:100F6000204600F0B8FC20684069616CC0F3801036
:100F7000090700D460B3204600F086FC2068406971
:100F8000400621D52068143050E8001F21F04001B0
:100F900040E80012002AF5D1E06BA8B16D49416329
:100FA000E06BFFF733FB002811D0E06B416B01B021
:100FB000BDE8F040084783060FD593060DD52046BF
:100FC000BDE8F84000F087BC2046FFF78EFFF8BD73
:100FD0002046FFF78AFF6564F8BD266B2023012EAB
:100FE0007CD1C6067AD5D60678D5086848680090C0
:100FF00048694FF00206400640D5E16B086840683A
:101000000004000CE8D0A28D8242E5D9E085886911
:1010100020282DD020680C3050E8001F21F480716A
:1010200040E80012002AF5D12068143050E8001F73
:1010300021F0010140E80012002AF5D120681430A7
:1010400050E8001F21F0400140E80012002AF5D1CD
:1010500084F84230256320680C3050E8001F21F0EE
:10106000100140E80012002AF5D1E06BFFF7ABFA5F
:101070006663A08DE18D401A81B22AE0A08DE18DDA
:10108000401A81B2E08D0028A6D00029A4D02268A1
:101090000C3252E8000F20F4907042E80007002F55
:1010A000F5D12068143050E8002F22F0010240E80A
:1010B0000027002FF5D184F84230256320680C30DA
:1010C00050E8002F22F0100240E80023002BF5D159
:1010D00066632046FFF708FFF8BDFFE705062BD53E
:1010E000150629D594F841002128F5D1A068B0F55E
:1010F000805F01D12069B0B1206A411C2162216862
:1011000000784860E08C401E0004000CE084E3D1CD
:101110002068C16821F08001C1602068C16841F089
:101120004001C160D8E7206A0088C0F30800486029
:10113000206A801C2062E5E74006CDD55006CBD55D
:10114000CA68204622F04002CA6084F8413000F0AC
:1011500093F9C1E77918000870B5040004D094F839
:101160004100002510B106E0012070BD84F8405018
:10117000204600F023F8242084F841002068C1684C
:1011800021F40051C160204600F006FC206801698E
:1011900021F4904101612068416921F02A014161F7
:1011A0002068C16841F40051C1606564202084F862
:1011B000410084F842006563002070BDF0B585B041
:1011C000002400940194029403940368424F022087
:1011D00042490322424D4602BB4225D18B6943F46A
:1011E00080438B618B6903F4804304938B6943F0E4
:1011F00004038B618969039201F0040104910102E7
:10120000CDE9001069462846FFF74CFACDE90064A5
:10121000694628460294FFF745FA00220521252059
:10122000FFF7B0FB252028E02E4FBB4229D1CB6928
:1012300043F40033CB61CB6903F4003304938B692F
:1012400043F004038B618969039201F00401049166
:101250000421CDE9001069462846FFF723FA08204B
:10126000CDE90004694628460294FFF71BFA0022E4
:1012700005212620FFF786FB2620FFF775FB05B02A
:10128000F0BD194DAB42FAD1CB6943F48023CB6159
:10129000CB6903F4802304938B6943F008038B61CB
:1012A0008969124D01F00801CDE90321CDE9006003
:1012B00069462846FFF7F6F9E814CDE900046946C7
:1012C00028460294FFF7EEF9002205212720FFF7B8
:1012D00059FB2720D1E700000038014000100240F0
:1012E000000801400044004000480040000C01405C
:1012F00090F84230202B01D00220704721B11AB162
:101300000023036300F0A4BB0120704770B50068A0
:101310002B49884245D12B4C0323A01C2178002562
:101320000078052205291BD2DFE801F003090E121F
:1013300016006D2801D1012104E025701DE07228FE
:10134000FBD1022121700CE00228F6D1237008E0C5
:10135000012806D10421F5E71028F7D1227000E01A
:1013600059B1194B61785854491CC8B26070217842
:1013700005290BD0122801D922706570BDE8704094
:1013800010490122891C1148FFF7B2BF0E491222F1
:10139000A1F11200FEF764FF12210B48FEF7D7FF00
:1013A000CBE70B49884203D1BDE8704001F03AB861
:1013B0000849884203D1BDE8704000F05FB870BDB5
:1013C00000440040840000209A11002054030020B3
:1013D00000380140004800402DE9F843044690F8E9
:1013E0004100984616460D46202802D00220BDE84E
:1013F000F88385B17EB100206064212084F841002B
:10140000FFF74EFAA6848146E684A0682027B0F54F
:10141000805F02D003E00120E9E7206910B12E4689
:1014200000250EE000260CE08021204600F02BFB7A
:10143000A8B9C6B116F8010B21684860E08C401EBF
:10144000E084E08C4B464FF00002CDF8008000288D
:10145000EAD14FF04001204600F015FB40B184F87E
:1014600041700320C3E735F8020BC0F30800E3E73F
:1014700084F841700020BAE77047FEE7064810B5CF
:10148000407800F00BFC04490122BDE81040491CE3
:101490000248FFF72DBF0000870000209C030020BA
:1014A0002DE9F041012214491448FFF721FF502192
:1014B000002000F03FFB124800F070FC114800F0E3
:1014C000E3FB114800F02CFB0B4D012600276D1E9D
:1014D00002242F700321342000F03AFB642001F035
:1014E000E7F8287820B9641EF3D1761C0A2EEFDBCA
:1014F000BDE8F041FEF7B2BF880000209C03002049
:10150000D117000885170008BF0500084FF4FA70CE
:1015100001F0CEF8FFF7C4FF4FF47A7001F0C8F87D
:10152000FFF7BEFFDFF8C0B0304D00BF9BF80000F2
:10153000002855D0DFF8B490DFF8B480A9F118097D
:1015400000246FF00E0709F10C0A00BF08EB4406F7
:1015500036F9680F01F03EFB394601F0C6FC042164
:1015600001F0C3FC49F82400B6F9060001F032FB93
:10157000394601F0BAFC1F4901F044FB4AF8240047
:10158000B6F9120001F026FB394601F0AEFC1A490B
:1015900001F038FB45F82400641C032CD6DB134C07
:1015A00028683C3CE06068682061A868A16806463D
:1015B00001F0F4FB1049884204DD1049606801F035
:1015C000EDFB06E00E49884204D90C49606801F041
:1015D00099FA6060A6603046616801F093FA606134
:1015E000012001F065F8A1E787000020FC11002030
:1015F000081300200000FA44DB0F4940DB0FC9400C
:10160000DB0F49C010B596B01C2211496846FEF7A1
:101610006CFE0021684600F0B4FC0E4C0C491C2204
:1016200020601C3107A8FEF760FE002107A800F02B
:10163000A8FC0749A0601C2238310EA8FEF755FE11
:1016400000210EA800F09DFC606016B010BD0000E7
:10165000682F00080000002070B586B000241C48E8
:101660000094019402940394816941F01001816116
:10167000816901F010010491816941F020018161CB
:10168000816901F020010491816941F004018161C7
:10169000816901F004010491816941F008018161CF
:1016A00080690C4E00F008004FF4005504900022B1
:1016B00029463046FFF7EEF801200095CDE90104F8
:1016C0000220039069463046FEF7ECFF06B070BD7D
:1016D00000100240001001400C4810B50A4901609A
:1016E0004FF4E1314160002181600C22C160C0E90A
:1016F00004128161C161FFF72FFD002803D0BDE80E
:101700001040FEF75EBF10BD003801400C03002002
:101710000C4810B50A4901604FF4E13141600021E5
:1017200081600C22C160C0E904128161C161FFF7D0
:1017300013FD002803D0BDE81040FEF742BF10BDE6
:1017400000440040540300200C4810B50A490160D1
:101750004FF4E1314160002181600C22C160C0E999
:1017600004128161C161FFF7F7FC002803D0BDE8D6
:101770001040FEF726BF10BD004800409C0300202B
:10178000FEE7FEE710B50023104A15E0362809D021
:1017900039280BD03C2812D014783F2813D044F0BD
:1017A000800406E0147844F0010402E0147844F068
:1017B00002041470401C5B1C8B42E7D310BD1478EC
:1017C00044F00804F5E744F00404F2E78700002041
:1017D0008AB2014601230148FFF7FEBD9C030020A9
:1017E000064D4FF400544FF4FA7621462846FFF791
:1017F00049F8304600F0B9FBF7E70000001001405F
:1018000010B5FFF753F801F0A7F8012803D0BDE8A1
:10181000104001F033B810BD30B58FB028216846B4
:10182000FEF7B7FD14210AA8FEF7B3FD0121080455
:10183000CDE900100024029402250491CDE907505F
:101840004FF4E01009906846FFF7AAF908B172B6A4
:10185000FEE70F20CDE90A054FF48060CDE90C408A
:1018600002210AA80E94FFF7BFF8002801D072B633
:10187000FEE70FB030BD704710B5406A0021C1854A
:10188000C184FFF732FB10BD01680C3151E8002F15
:1018900022F4907241E80023002BF5D10168143145
:1018A00051E8002F22F0010241E80023002BF5D17E
:1018B000016B012909D101680C3151E8002F22F098
:1018C000100241E80023002BF5D1202180F84210BE
:1018D00000210163704708B590F84210222901D019
:1018E000022008BD82684FF480539A4201D10169F9
:1018F00021B1816A9A421BD04AB10AE00268816A2A
:101900005268C2F308020A80816A891C08E00269F1
:1019100072B10268526802F07F020A70816A491C43
:101920008162C18D491E0904090CC18503D01BE0E9
:1019300002685268F1E70168CA6822F02002CA60B2
:101940000168CA6822F48072CA6001684A6922F09C
:1019500001024A61202180F8421000214163026B9C
:10196000012A03D0FFF7D2FC002008BD0163016803
:101970000C3151E8002F22F0100241E80023002B27
:10198000F5D101680A68D20602D50A684968009153
:10199000818DFFF7A9FAE7E770B504460068016991
:1019A000E26821F44051114301612169A0680843B4
:1019B000616908432168CA6841F20C639A43024393
:1019C000CA6020684169A26921F4407111434161F4
:1019D0001E492068884202D1FFF7ACF801E0FFF70A
:1019E00099F800EBC00101EB0012606864218000EF
:1019F000B2FBF0F3B3FBF1F36FF018067343B2FBE5
:101A0000F0F5B2FBF0F605EB8305322303EB051589
:101A1000B5FBF1F5B6FBF1F605F0F00505EB0615A3
:101A2000B2FBF0F6B2FBF0F0B0FBF1F06FF0180291
:101A3000504306EB800003EB0010B0FBF1F021688F
:101A400000F00F002844886070BD0000003801409D
:101A500081628285C28500214164222180F8421082
:101A6000016921B10168CA6842F48072CA600168E4
:101A70004A6942F001024A610068C16841F02001F0
:101A8000C160002070472DE9F843984617460D467F
:101A90000446089E24E0701C22D0FEF701FFA0EB54
:101AA0000800B0421AD8CEB12068C168490717D5DE
:101AB000802D15D0402D13D00168C94309070FD4DC
:101AC00001680025406800902046FFF7DDFE0820F1
:101AD000606484F840500120BDE8F8830320FBE7F0
:101AE0002068006835EA000004D00020B842D2D057
:101AF0000020F1E70120F9E70148FFF7F7B90000FE
:101B00000C0300200148FFF7F1B900005403002046
:101B10000148FFF7EBB900009C030020FEE700003E
:101B200018B103498861002070476FF005007047C5
:101B30008C000020062802D96FF005007047034A88
:101B4000106211700020D061704700008C000020EE
:101B50002DE9FC5F0D46064628446FF005079028E6
:101B600079D2474C380C224600EA45091078D4F85F
:101B700020C052686FF0040A4FF0FF0B4FF0AA0E1E
:101B8000F3B2C6F30721BCF1070F77D2DFE80CF000
:101B90000415364B76153600042D6FD8F2B38DF848
:101BA00000B027208DF801E08DF802008DF80410B8
:101BB0008DF80330052168465CE07AB309F105022F
:101BC000B2F5807F35D88DF8000003208DF8010034
:101BD000280A8DF802108DF804008DF803308DF876
:101BE00005500621684600F0E3F8010A8DF806105A
:101BF0008DF807000821684662683BE0032D3DD858
:101C000025695DB18DF800B08DF801E027228DF8CF
:101C100002208DF803308DF8041000E01CE005224E
:101C20006946A84727E0E768B7B14B46B9F5807F1A
:101C300003D96FF00300BDE8FC9F4006F1B2000E2F
:101C4000104AB847012816D162692AB10D4B00200D
:101C500003F580710AE011E05046ECE733F81070AC
:101C600000EB060C401C21F81C7080B2A842F5D392
:101C700029463046904700206662DCE73846DAE7BE
:101C80008C0000200812002018B103494861002090
:101C900070476FF0050070478C0000202DE9FC4173
:101CA0003B4C6169002955D03A49E26900268854C5
:101CB000521CE261206A072865D2DFE800F0042F99
:101CC0006767042F67000878552804D0521E3148F2
:101CD000491CE2613CE00B2A55D30A252D4F002018
:101CE0004FEA000317F803C05B1C6044C0B2AB426C
:101CF000F8D38B7A8342E9D14888ADF80000888810
:101D0000ADF80200C888ADF804000889ADF80600F7
:101D1000487804226946FEF7F7FB37E0022A32D9F9
:101D200048780328D2D18878401D904212D888186C
:101D30000D4630F8020C921E47BA91B2154800F0D9
:101D400037F8874208D0E269691C521E1148E261E7
:101D5000FEF786FABDE8FC81A8780F4B4208002107
:101D6000606A0AE005EB410701EB000CB7F803706D
:101D7000491C7FBA23F81C7089B29142F2D31146F4
:101D80006269904702E0B2F5807FE3D1E661E1E766
:101D90008C000020081200200813002018B103490D
:101DA0004860002070476FF0050070478C000020ED
:101DB000F0B5FF23084E1C46002206F5807705E0AB
:101DC000855C5D40735D63407C5D521C8A42F7DB3D
:101DD00044EA0320F0BD0000E62F00080907090EC1
:101DE000002804DB00F1E02080F80014704700F0C8
:101DF0000F0000F1E02080F8141D704730B500EBB3
:101E0000800505EBC0050448022400EB850004763C
:101E1000403080E80E0030BDD410002000EB80027E
:101E200002EBC000024A002102EB800001767047FD
:101E3000D410002030B500EB800505EBC005044848
:101E4000032400EB85000476283080E80E0030BDC6
:101E5000D410002000EB800202EBC000024A0121F6
:101E600002EB800001767047D41000202DE9F0418C
:101E70000446E5202071122060715E200025207547
:101E80002E460F2713E095B184F8065005EB850028
:101E900000EBC50004EB8000017EE171017E41B1E1
:101EA000012926D002290ED0032912D105E0A771FD
:101EB000ECE7A660E66026610BE0816AA160C16A7A
:101EC000E160006B04E0016CA160416CE160806C3A
:101ED00020611122211D0948FEF707FA0A23112269
:101EE00006490748FFF778FA6D1C032DCBDBBDE8E8
:101EF000F081A660E66020680068E9E7AC11002088
:101F000054030020012208490848FFF7F1F900F0C6
:101F100011F80749086000F0F3FA0548FFF7A6FF3B
:101F2000022000F0C5FBF8E78600002054030020E3
:101F3000D410002000487047C0110020FEF7BEFCFE
:101F4000FFF76AFCFFF788FBFFF7C6FBFFF7E0FB34
:101F5000FFF7FAFBFFF756FB00F00EF8FEE701462D
:101F60000020842900D0C81C704710B500B901209A
:101F700000F09EFB002010BD10B500F0BFFB00205C
:101F800010BD7FB50D4604464169B0F9080081B126
:101F9000A16971B1FFF7E3FFD4E905128DE80700ED
:101FA000D4E900102B46226900F0ABFC039004B08A
:101FB00070BDFFF7D4FF03A9CDE90001208A2B46AD
:101FC00082B2D4E9001000F06FFC012801D000209B
:101FD000EDE70398EBE700002DE9F041184C0F46C0
:101FE0000546E6682068001D00F09AFA38B92068B6
:101FF00090F82C1001208840216981432161681CE0
:1020000007D137B12168BDE8F0410E48091D00F045
:10201000CBBA20683544B5424560216805D2A06B33
:10202000BDE8F041091D00F0A7BA606B091D00F082
:10203000A3FAA06A854200D2A562BDE8F081000043
:102040001C000020C00400202DE9F041054600F0EE
:10205000B7FA2E4CA068401CA06020682C4F10B12D
:10206000606940B32DE02560A068012829D10026D1
:1020700006EB860007EB800000F070FA761C072E56
:10208000F6D323488C3000F069FA2148A03000F0E4
:1020900065FA1F48B43000F061FA1D48C83000F0FE
:1020A0005DFA1B48DC3000F059FA19488C30606347
:1020B0001430A06305E02068E96AC06A884200D84D
:1020C0002560606A401C6062E96A012022698840DC
:1020D0001043206101EB810007EB8000291D00F017
:1020E00063FA00F08DFA606900280CD02068E96A74
:1020F000C06A884207D207494FF080500860BFF39A
:102100004F8FBFF36F8FBDE8F08100001C000020EF
:10211000E403002004ED00E010B5044690F85100FF
:1021200058B101280CD002280FD0502080F311881C
:10213000BFF34F8FBFF36F8FFEE7206B00F074FA91
:102140002046BDE8104000F06FBA10BD10484FF4B3
:102150004061420706D0C01D0D4920F00700411A1A
:10216000C1F540610B4A00230144C2E9000308396C
:10217000183A21F0070111604B600B600B1AC0E99F
:10218000001393604FF000405360506170470000AF
:10219000D404002070000020144E154CA6F1C8078E
:1021A0004FF08058DFF84C9012E000BF00F008FAC2
:1021B000F068C568281D00F0B3F9A068401EA06053
:1021C0006068401E606000F01BFA2846FFF7A4FF1D
:1021D00060680028EAD138680128F9D9C9F8008078
:1021E000BFF34F8FBFF36F8FF2E70000AC04002006
:1021F0001C00002004ED00E02DE9F0479A46DDE9DF
:10220000098481466FF00303206B03EB82021044C4
:10221000089E20F00707780707D0502080F3118828
:10222000BFF34F8FBFF36F8FFEE7002561B1002032
:1022300023180A5C83F834200A5C12B1401C102871
:10224000F6D384F8435001E084F83450072E00D3CD
:102250000626E662C4E91165201D00F08AF904F142
:10226000180000F086F92461C6F107006462A061DD
:10227000E56484F8505052464946384600F0C0F8AC
:102280002060B8F1000F01D0C8F80040BDE8F08729
:1022900030B5114900E011460A688242FBD34B6811
:1022A0005C18844203D1406818444860084643687B
:1022B0001C18944209D1084C183C2468A24209D049
:1022C00052681A4442600A6812680260814200D073
:1022D000086030BD0460F9E7700000200648416BDB
:1022E000096829B1416BC968C9684968816270474A
:1022F0004FF0FF31FAE700001C000020084840685A
:10230000401C4FF0500080F3118804D0BFF34F8F72
:10231000BFF36F8FFEE7BFF34F8FBFF36F8FFEE703
:10232000780000202DE9F0410546002700F01CFA56
:10233000324E306808B9FFF709FF706905424ED187
:10234000C5B3083568070ED005F00700C0F10800D6
:102350000544680707D0502080F31188BFF34F8FE2
:10236000BFF36F8FFEE72DB37068854237D82348DF
:10237000183001460C6801E020460C466168A9420D
:1023800002D221680029F7D131688C4227D0076832
:102390002168016060680837411B10290FD9601956
:1023A000420708D0502080F31188BFF34F8FBFF34E
:1023B0006F8FFEE713E041606560FFF769FF6168BA
:1023C0007068401A7060B268904200D2B060706964
:1023D00001430020C4E90001F068401CF06000F0F7
:1023E0002FFB780707D0502080F31188BFF34F8F61
:1023F000BFF36F8FFEE73846BDE8F081580000203C
:1024000010B5031F4FF080741C601B1F21F00101E9
:102410001960191F024B0B60143940380A6010BD57
:10242000FD22000870B532480025441E017822784C
:10243000F52902D1032A00D0A570A07820B1012887
:102440000FD0022806D10FE05F2902D10120A07031
:1024500000E0A570BDE87040012225492548FEF73F
:1024600047BF21700220F2E78AB1012A13D0224827
:10247000022A14D0032AECD10C304FF07F511F4AAE
:102480002B4680E80E000020FFF7D4FCE1E7002097
:10249000FFF7C4FCDDE70020FFF7DCFCD9E7FA29F1
:1024A0001CD00CDC4FF07C521A290FD04FF03F4368
:1024B0001B290DD01C290DD01D2912D10CE0FB29A0
:1024C0000CD0FC290CD0FD290BD109E0026008E0FA
:1024D000036006E0826004E0836002E0056000E0E3
:1024E000856090E80E000020FFF788FCB1E700004F
:1024F000B50000200C0300202814002000004040FC
:1025000010B5012204490548FEF7F2FE02490020F9
:10251000491E887010BD0000B50000200C0300208B
:10252000D0E9013201699A60D0E901235A604A6812
:10253000824201D182684A60002202610868401E1E
:102540000860086870470000034B036003F1540003
:102550000860802010607047B800002000F108017A
:102560004FF0FF32C0E90112C1600161002101603A
:10257000704700210161704730B50B685A1C02D0CA
:1025800000F1080202E0026904E02246546825686E
:102590009D42FAD953684B6099608A605160086126
:1025A0000168491C016030BD42684A6093688B60D5
:1025B00093685960916008610168491C0160704727
:1025C000502080F31188BFF34F8FBFF36F8F0A49FC
:1025D0004868401C486001280CD10848006810F089
:1025E000FF0F07D0502080F31188BFF34F8FBFF348
:1025F0006F8FFEE7704700007800002004ED00E0D8
:102600000849486828B1401E486001D180F311880C
:102610007047502080F31188BFF34F8FBFF36F8F47
:10262000FEE700007800002070B500282AD0164D83
:10263000A0F1080460686969084207D1502080F35E
:102640001188BFF34F8FBFF36F8FFEE722683AB157
:10265000502080F31188BFF34F8FBFF36F8FFEE7D9
:102660008843606000F080F86068696808446860CA
:102670002046FFF70DFE2869401C2861BDE8704028
:1026800000F0DEB970BD0000580000204FF0E020DF
:1026900000210161816105494FF47A720968B1FB3B
:1026A000F2F1491E416107210161704718000020C5
:1026B00010B5020014D00F48006B38B1502080F3E1
:1026C0001188BFF34F8FBFF36F8FFEE700F04CF818
:1026D00000211046FFF780FC00F0B2F9002807D176
:1026E00005494FF080500860BFF34F8FBFF36F8FE5
:1026F00010BD00001C00002004ED00E010B586B005
:102700000024039405AA04A903A80494FFF71CFF5E
:10271000DDE903010094CDE9011000230EA110486A
:10272000059A00F0EEF80F490028C86211D0502039
:1027300080F31188BFF34F8FBFF36F8F4FF0FF30DF
:10274000886201204861CC6006B0BDE8104000F00E
:1027500041B806B010BD000049444C4500000000DF
:10276000992100081C0000200248016B491C0163EC
:10277000704700001C0000201448016B11B10121BA
:10278000C16170470021C1610169B1FA81F1C1F1F4
:102790001F0101EB81020E4951F822306BB101EBB0
:1027A000820101F108034A6852684A609A4201D1E5
:1027B00052684A60D16801607047502080F31188E8
:1027C000BFF34F8FBFF36F8FFEE700001C000020A8
:1027D000E40300201CB5264908780190FF2008700A
:1027E00008788DF800009DF800009DF8002000F0AA
:1027F000F000904207D0502080F31188BFF34F8F34
:10280000BFF36F8FFEE79DF800001A4C00F05000F8
:1028100020700720A06005E09DF8002052008DF890
:102820000020401E9DF800201206F5D4A060032869
:1028300007D0502080F31188BFF34F8FBFF36F8F05
:10284000FEE74FF44070A060019808700A480168E4
:1028500041F470010160016841F070410160FFF7CF
:1028600015FF00206060FDF7A1FC00201CBD0000EA
:1028700000E400E07800002020ED00E010B55020DA
:1028800080F31188BFF34F8FBFF36F8F00F072F8A2
:1028900018B104494FF080500860002080F311887F
:1028A00010BD000004ED00E02DE9FF5F8346DDE987
:1028B0000E87994616468A469000FFF733FD0500BD
:1028C0001CD05420FFF72EFD040014D000202563F7
:1028D00084F85100CDE90240CDE900874B463246ED
:1028E00051465846FFF788FC2046FFF7ADFB012014
:1028F00004B0BDE8F09F2846FFF796FE4FF0FF308A
:10290000F6E7F0B585B0DDE90B640A9DA6B1DCB150
:10291000542700972663022684F85160002604AFEE
:10292000CDE90246CDE90057FFF766FC2046FFF7E8
:102930008BFB049805B0F0BD502080F31188BFF3E5
:102940004F8FBFF36F8FFEE7502080F31188BFF3E6
:102950004F8FBFF36F8FFEE70548416919B1006BD8
:1029600018B1002070470120704702207047000016
:102970001C0000202DE9F0412F4C0026206B28B1CF
:10298000A069401CA0613046BDE8F081E5686D1C7F
:10299000E56013D1606B006838B1502080F3118876
:1029A000BFF34F8FBFF36F8FFEE7606BA16B616367
:1029B000A063206A401C2062FFF790FCA06ADFF849
:1029C0007C80854209D3606B0068A0B1606BC068F1
:1029D000C7687868854211D2A0622068C06A00EB9F
:1029E000800158F82100012800D90126E06900285B
:1029F000C9D00126C7E74FF0FF30EDE7381DFFF7DC
:102A00008FFDB86A18B107F11800FFF789FDF96A60
:102A10000120226988401043206101EB810108EB0D
:102A20008100391DFFF7C0FDF86A2168C96A884234
:102A3000C9D30126C7E700001C000020E4030020E2
:102A40002DE9F0472C4D00242746286B38B1FFF7BD
:102A5000B7FD286B401E2863286B40B146E050202C
:102A600080F31188BFF34F8FBFF36F8FFEE7A96824
:102A7000224E0120D1B3A6F1B40980463068E8B1F6
:102A8000F068C46804F11800FFF74AFD201DFFF745
:102A900047FDE06A2A6908FA00F11143296100EB59
:102AA000800109EB8100211DFFF77EFDE06A2968A6
:102AB000C96A8842E2D3C5F81C80DFE70CB1FFF792
:102AC0000DFCAC6944B14646FFF754FF00B1EE611E
:102AD000641EF9D10020A861E86938B108490127CE
:102AE00038070860BFF34F8FBFF36F8FFFF788FD84
:102AF0003846BDE8F08700001C0000209804002044
:102B000004ED00E090EA010F48BF81F0004100F1C0
:102B10004C81421A3CBF801A89184FEAD0524FF0BC
:102B20007F4C1CEA410FA2EBD15318BF9CEA026F05
:102B300000F03B804FF0004C4CEA00204CEA0121B1
:102B400021FA03FC10EB0C0C1ED202F1FF325FEAFB
:102B50001C2040EBC25038BF70471CF07F0F4FEA7B
:102B6000400C18BFBCF17F4F38BF7047C3F1200342
:102B7000994008BF20F00100BCF17F4F38BF70477B
:102B8000A0F1C04000F005B94FEA3C00000A40EB5C
:102B9000C25028BF1CF0FF0F4FEA400CE6D018BF10
:102BA000BCF17F4F38BF7047EAE79CEA026F05D05F
:102BB00010EA5C0F08BF00F00040704710B500F04D
:102BC000A2F800BF64FBBE3E014800F05CB900BF44
:102BD0000000C07F10F0004148BF4042B0FA80F3CF
:102BE00010FA03F2C3F19D030BD051EAC35101EB7C
:102BF0001220530638BF704700F1010008BF20F0D3
:102C0000010070474FF47F0C1CEAD0121EBF1CEA73
:102C1000D11392EA0C0F93EA0C0F00F0478090EA70
:102C2000010F48BF42F480724FF0004C4CEA002084
:102C30004CEA012102EB0302A0FB0113A2F5000202
:102C4000002918BF43F001035B0028BF4FEA33039C
:102C500042EB22425FEA132C4CEBC2502EBFBCEB7E
:102C6000436FB2F57C0F70474FEA036CBCF1004F25
:102C700008BF20F00100B2F57C0F38BF70470BD5BC
:102C800082F0FF0212F5803FC8BF704700F1C040DC
:102C9000D8BF00F00040704700F5000C5FEA4C0C14
:102CA00048BF7047B0F1C04000F073B890EA010F20
:102CB0000CEAD11348BF42F48072624538BF6345C5
:102CC00004D280EA010000F00040704710B500F027
:102CD0001AF800BF8900013E00F007B800F009B8FB
:102CE0005FEA410C5FEA1C6C08D080EA010000F04A
:102CF00050B85FEA400C5FEA1C6CF6D14FF0004020
:102D0000A0F5800070470EF1020E2EF0030E5EF863
:102D1000044B244204D44FEA4102B2F17F4F11D850
:102D20004FEA4003B3F17F4F0CD80ED14FEAD07C6D
:102D3000B2F17F4F0CEB4C0C0CF1020C08BF4CEBCA
:102D4000D17C04E04FF0080C01E04FEAD17C0CEBA1
:102D50004C0324FA03F404F00704B4F1040C06D283
:102D60000EEB840CBDE810404CF0010C6047DFE82E
:102D70000CF0070802024FF00040A0F5800010BDE3
:102D80000846420018BFD2F1807288BF00F00040B0
:102D900010BDFF2141EAD050C005704790EA010FF5
:102DA00048BF81F000413FF5B4AE421A04D882F02A
:102DB0000042A0EB020011444FEAD0524FF07F4C8A
:102DC0001CEA410FA2EBD15318BF9CEA026F4AD014
:102DD0004FF0004C4CEA00204CEA012121FA03FCA0
:102DE000B0EB0C0C0FD412F0FE0F36D05FEA4C00A3
:102DF0001DD5001240EBC25038BF70471CF03F0F8A
:102E000018BF70470BE0A2F101025FEA1C2040EB03
:102E1000C25038BF70471CF07F0F18BF7047C3F116
:102E20002003994014BF401E20F001007047800825
:102E30004FEA122308BF7047B0FA80FCA2EB0C02E5
:102E4000CCF1280C60FA0CF093EA122F04BF00EBCF
:102E5000C25070474FEAC3707047130A5FEADC1034
:102E600008BF7047F6E79CEA026F04D010EA5C0FD7
:102E700008BF0020704710B5FFF745FF40DFF63E62
:102E800081F0004070470CF00F03092B08BF0820A9
:102E900000F051800A2B0BD0082B18BF704708BFD9
:102EA0001CF0400F0AD04FF000004FF000017047B7
:102EB0001CF0400F18BF4FF0004070471CF0100F7F
:102EC00008D020F0704300F07F4242EAD3014FEA7D
:102ED0004370704700F0604021F07F4242EA0002F8
:102EE00001F07F4040EA727070474FF0FF0212EA33
:102EF000D0521CBF92F0FF038B42C2BFD14200EB05
:102F0000C1507047002A0AD0002B0BD0002900F0D6
:102F10000040A4BF40F0FE4040F40000704700F0C5
:102F20000040704743024FF00B0C18BF4CF0806C10
:102F30007FF44AAE70471CF4801F11D01CF4E02FC0
:102F400003D06FEACC31490070474FF04050EFF3A7
:102F5000008222F0704242EA000282F30088704749
:102F60004FF0000070470000F0310008E117000842
:102F700000000000000000008000000000000000D1
:102F800000000000E83100080D15000800000000F6
:102F900000000000800000000000000000000000B1
:102FA000FC310008051F00080000000000000000C0
:102FB00040000000000000000000000001020203C9
:102FC0000405060708090A0B0C0D0E0F101000006F
:102FD00000000000000001020304060708090000C9
:102FE00000000102030400C1814001C0804101C012
:102FF000804100C1814001C0804100C1814000C1C9
:10300000814001C0804101C0804100C1814000C1B8
:10301000814001C0804100C1814001C0804101C0A8
:10302000804100C1814001C0804100C1814000C198
:10303000814001C0804100C1814001C0804101C088
:10304000804100C1814000C1814001C0804101C078
:10305000804100C1814001C0804100C1814000C168
:10306000814001C0804101C0804100C1814000C158
:10307000814001C0804100C1814001C0804101C048
:10308000804100C1814000C1814001C0804101C038
:10309000804100C1814001C0804100C1814000C128
:1030A000814001C0804100C1814001C0804101C018
:1030B000804100C1814001C0804100C1814000C108
:1030C000814001C0804101C0804100C1814000C1F8
:1030D000814001C0804100C1814001C0804101C0E8
:1030E000804100C1814000C0C101C30302C2C606C5
:1030F00007C705C5C404CC0C0DCD0FCFCE0E0ACA30
:10310000CB0BC90908C8D81819D91BDBDA1A1EDE7F
:10311000DF1FDD1D1CDC14D4D515D71716D6D2122F
:1031200013D311D1D010F03031F133F3F23236F63F
:10313000F737F53534F43CFCFD3DFF3F3EFEFA3AEF
:103140003BFB39F9F83828E8E929EB2B2AEAEE2E7F
:103150002FEF2DEDEC2CE42425E527E7E62622E2EF
:10316000E323E12120E0A06061A163A3A26266A63F
:10317000A767A56564A46CACAD6DAF6F6EAEAA6AAF
:103180006BAB69A9A86878B8B979BB7B7ABABE7EFF
:103190007FBF7DBDBC7CB47475B577B7B67672B2AF
:1031A000B373B17170B0509091519353529296563F
:1031B0005797559594549C5C5D9D5F9F9E5E5A9A6F
:1031C0009B5B99595898884849894B8B8A4A4E8EFF
:1031D0008F4F8D4D4C8C448485458747468682426F
:1031E0004383418180400000494E535461736B001A
:1031F00064656661756C745461736B0064775461C7
:10320000736B00002432000800000020B8000000AA
:1032100028010008DC320008B8000020E81900008E
:103220004401000800000000000000000000000051
:1032300001000000100000000000000000127A00F1
:10324000000000000000000000000000000000007E
:10325000000000000000000000000000000000006E
:10326000000000000000000000000000000000005E
:10327000000000000000000000000000000000004E
:10328000000000000000000000000000000000003E
:10329000000000000000000000000000000000002E
:1032A000AAAAAAAA00000000000000000000000076
:1032B000FF0000000000000000000000000000000F
:1032C00000000000000000000000000000000000FE
:0C32D000000000000000000000000000F2
:04000005080000ED02
:00000001FF
